:020000041000EA
:1000000000B5324B212058609868022188439860DF
:10001000D860186158612E4B002199600221596106
:100020000121F02299502B49196001219960352056
:1000300000F044F80222904214D00621196600F024
:1000400034F8196E01211966002018661A6600F04E
:100050002CF8196E196E196E052000F02FF8012189
:100060000842F9D1002199601B49196000215960AB
:100070001A491B48016001219960EB211966A021F2
:10008000196600F012F800219960164914480160C1
:100090000121996001BC002800D000471248134993
:1000A000086003C880F30888084703B5996A0420EC
:1000B0000142FBD001200142F8D103BD02B5186610
:1000C0001866FFF7F2FF186E186E02BD00000240BE
:1000D000000000180000070000035F00212200005C
:1000E000F4000018222000A00001001008ED00E03C
:1000F00000000000000000000000000074B24E7A12
:1001000000200420F7010010C3010010C5010010F9
:10011000C1010010C1010010C1010010C101001097
:10012000C1010010C1010010C1010010C701001081
:10013000C1010010C1010010C9010010CB01001065
:10014000CD010010CD010010CD010010CD01001037
:10015000CD010010CD010010CD010010CD01001027
:10016000CD010010CD010010CD010010CD01001017
:10017000CD010010CD010010CD010010CD01001007
:10018000CD010010CD010010CD010010CD010010F7
:10019000CD010010CD010010CD010010CD010010E7
:1001A000CD010010CD010010CD010010CD010010D7
:1001B000CD010010CD010010CD010010CD010010C7
:1001C00000BE00BE00BE00BE00BE00BE00F04BF888
:1001D000103800BEF2EB887160610010846100107D
:1001E0003402001090A31AE700202149086006C8D5
:1001F00081F3088810471F48006800282FD10DA4FC
:100200000ECC002902D000F012F8F9E71A491B4A77
:10021000002000E001C19142FCD1194988471949E9
:1002200088471949884700BEFDE701C901C29A42C3
:10023000FBD3704784610010C0000020840A0020B6
:10024000486B00100000042000000420486B0010E0
:1002500000100420001004200000000070470B482C
:1002600003F0F4FA0047EFF30580C0B270470000D6
:1002700008ED00E0000000D0880A0020980E002061
:10028000151A0010590500103D1B001057560000AC
:1002900006005250ABB36053E460001006005250A9
:1002A000861C0302F4600010060052505422A29DE6
:1002B0000861001005005250DE65F468486B0010BC
:1002C000F8B5C046054B0648033310B51B1A062B7C
:1002D00003D9044B002B00D0984710BD840A00209E
:1002E000840A0020000000000648074910B5091ADA
:1002F0008910CB0F5918491003D0044B002B00D0A4
:10030000984710BD840A0020840A002000000000E5
:1003100010B5074C2378002B09D1FFF7D3FF054B0D
:10032000002B02D0044800E000BF0123237010BD61
:10033000880B002000000000A05D0010094B10B5E4
:10034000002B03D00849094800E000BF08480368B3
:10035000002B02D1FFF7C8FF10BD064B002BF9D0D0
:100360009847F7E7000000008C0B0020A05D00100C
:10037000840A002000000000F0B54E464546DE46E7
:10038000574600230024E0B593B000930194203336
:100390009B460493984600230393403307930693A8
:1003A000002399460026CA460024D94609AD1F23DA
:1003B00000980199012203409A40604B6A604343D0
:1003C0000200AB600B000C920D933F2320220340F0
:1003D0005242059028609A1800D591E00121914081
:1003E0000F910122009801999A40554B0E92554A5F
:1003F00004F08AF84B460027B1461E001090119178
:10040000039B4C449C46E859644403F00DFA049B5A
:10041000041944445C44984500D01134B34500D0DD
:10042000173404370C2F14D0EE59300003F0D2F9F2
:1004300003908146300003F0C1F98046300003F09C
:10044000C3F9434683463000049303F0BDF9060028
:10045000D6E70CAB984612AB9946069B079E9B4687
:10046000434603CB984603F0E5F9544424185C4412
:10047000A419C14512D043461E685F683000390098
:1004800003F0C6F939008246300003F0A9F93900BB
:100490008346300003F0B0F90600E1E70021009A3E
:1004A000019B012012184B4111001A00059F264B99
:1004B000013700910192994228D00098019903F0E8
:1004C000A7F982460098019903F08AF906900098EE
:1004D000019903F091F90790380003F07BF903903C
:1004E0000600380003F06AF98046380003F06CF922
:1004F000434683463800049303F066F9814656E785
:1005000020220121D21AD1400F916AE7019B002BD2
:10051000D3D121000D4804F0D7FA0D498C4206D101
:1005200013B03CBC90469946A246AB46F0BD094884
:1005300004F0CAFA012001F001FBC046ED88BC00BE
:100540003A0B00007550C27310270000EC5D0010DC
:10055000C879F257FC5D0010F0B5DE4657464546B7
:100560004E46E0B585B000F09DF8484804F020F90B
:100570000221474804F0A8FA464B00249A4620235B
:1005800001259B4619E02A009A4090462F00300032
:1005900003F04AF9A74081464146380003F04AF982
:1005A000434602900391009701934A46310050461A
:1005B000013404F089FA402C0BD020232E005B423A
:1005C000A640E318DFD55B462A001B1BDA409046A5
:1005D000DCE7FFF7D1FE304B383C9946FA2040006B
:1005E00000F03CFD00F0B2FD013C02000B0048466B
:1005F00004F06AFA002CF1D100F0A8FD0025274C88
:1006000024184D41A9423CD839D00A2004F084F87E
:100610000823224E984600270BE094421BD9012361
:100620005B429C46E044434601246442E517002BAC
:100630001AD02000290000F01FFC00F087FD020006
:100640000B00484604F040FA22002B0092197B412F
:100650009D42E4D8E1D01D0001235B429C46E0446A
:1006600043461400002BE4D10D4804F0A1F800200B
:1006700005B03CBC90469946A246AB46F0BDA042B0
:10068000C3D901246442E517BFE7C046A05D00104E
:10069000B05D0010C05D0010DC5D001020A10700FF
:1006A000E45D001010B504F05FFA10BD094A830044
:1006B00094464022634410B51C68C0006240C024C8
:1006C00014408022520113431C60034B9C4660443B
:1006D000416010BD04C0014000400140F8B5EFF397
:1006E000108772B60D4E3368002BFCD0BFF35F8FBE
:1006F0000725CB08C01801230D40AB401D0004782E
:10070000254007D123430370BFF35F8F356087F324
:100710001088F8BD100001F013FAC0462C0100D07B
:10072000024B18688007C00F7047C04600C00640E3
:100730000021044B044ABFF35F8F02C39342FAD1F6
:100740007047C046000100D0800100D0044A1078F4
:10075000431CDBB2172B00D9102313707047C0461F
:100760007C01002001238340002902D1034A136049
:100770007047034A1360034A1360F9E780E100E021
:1007800080E200E000E100E0024B10309B68800056
:10079000C058704700ED00E070B50D00EFF3108613
:1007A00072B60F4A1368002BFCD0BFF35F8F0D4B5E
:1007B00010309B6884001B590B4A934203D09D4222
:1007C00001D001F0D5F9074B9B681D51BFF35F8F36
:1007D000BFF35F8F0022024B1A6086F3108870BD52
:1007E000240100D000ED00E0CD010010F0B5DE46A0
:1007F00057464E464546E0B50C0083B0EFF3108BEC
:1008000072B65B4A1368002BFCD0BFF35F8F1022D7
:10081000904680444246574B97009B68DD59564BA3
:1008200099469D4206D0A54200D177E0534EAB1BBE
:100830002F2B12D94F4B9B68DD51BFF35F8FBFF356
:100840005F8F00224A4B1A608BF3108803B03CBCC8
:1008500090469946A246AB46F0BD012383409A4696
:100860005246474B1B681A4000925246454B1A604D
:10087000BFF35F8FFFF7F7FC0190002843D10123FE
:100880002A009A4393689C424DD006215156002974
:1008900005DA31E0062159561A0000292CDB4B00FD
:1008A0005B189B00F31899688C42F3D106215956C6
:1008B00000293BDB4A005018800034188046A068AD
:1008C0009860E079D871062020569871A0797F2829
:1008D00026D8A488F01A6405241544440019E0249D
:1008E0000005400D2402204398805218264B9200A8
:1008F000B6181A781970B271009B002B08D15246B5
:10090000204B1A6096E78045B9D001F031F9B6E77F
:1009100052461E4B1A601A4B1A608BE71D0089E77E
:10092000BD200002E0E713000022BFE70199002983
:100930000FD1002A1AD0FF319171154991801249C7
:100940000A789A71134A9B1B5B415A43120D0A7035
:10095000D2E7114A1149D21A083A5002400D014318
:1009600099800F4952080A43DA80C5E74D46E6E709
:10097000240100D000ED00E0CD0100108001002036
:1009800000E100E080E100E08D0C002080E200E06A
:1009900000BDFFFFAAAA0000BA01002000F0FFFF7F
:1009A00000F8FFFFF8B5012504000543FFF75BFCE5
:1009B000EFF3108672B6214A1368002BFCD0BFF308
:1009C0005F8F1F4A1F4B2100891A49414B431B0D62
:1009D0001D4980008F685BB23F58BD4226D006217A
:1009E0005156994226D012215156994224D01E21A7
:1009F0005156994210D02A215156032099420CD0C9
:100A0000124A11781370A171BFF35F8F00220B4B54
:100A10001A6086F31088F8BD022041000918890089
:100A20005218FF2191710A499180E9E78A680949C2
:100A30001150E5E70020F0E70120EEE7240100D0A7
:100A400080010020AAAA000000ED00E08D0C00202B
:100A500000BDFFFFCD010010084B094A1360094A91
:100A60001360094A1360094A1360094A1360094A6E
:100A70001360094A1360094A1360704780808080C0
:100A800000E400E004E400E008E400E00CE400E03E
:100A900010E400E014E400E018E400E01CE400E0EE
:100AA000024B9C466144890001607047400000345D
:100AB00083680B4810B58446614462440901120101
:100AC0009A18591854684B6801209C4201D802D0EA
:100AD0000020C0B210BD12680B689A42F9D8F7E73F
:100AE000FFFFFF0F0A4B1968EFF3108072B60A6818
:100AF000002AFCD0BFF35F8F1B68BFF35F8F00221B
:100B00001A6080F3108840BF002000217047C04663
:100B1000740C0020F8B54E464546DE465746E0B513
:100B20001F000CAB1D780DAB1B7881469B460368FC
:100B300016009846002D08D1987B002841D13CBC76
:100B400090469946A246AB46F8BD28006C00641951
:100B5000033C384B00229C464B469B6860449C46B5
:100B600000010A9B604483600B9B06604760C36082
:100B700043461B681B199A705A701A7043465B7B78
:100B80009A46002B3BD043462A00986851465B6842
:100B9000984743461A68002824D053465B005344C4
:100BA000033BD31814195246A2701A78002A00D0B9
:100BB00062701D705246434628005A73AA45BED142
:100BC0001FE0414644001B682418033C1B195A7857
:100BD0008A73002A00D1CA73002205009A705A70E5
:100BE0001A70B6E753465B005344033BD3181419FD
:100BF0009D702278002A00D05A70534623704346D5
:100C00005D734B463200187D3B0000F02BFB041E49
:100C100007D05B46002B04D14B462900186800F032
:100C20003FFD0E9B002B02D01C70280087E7280098
:100C300085E7C046FFFFFF0F744B8200F0B5D45824
:100C40000023DE4657464E4645469B46E0B58DB0EE
:100C50000B9000F07BFA6268EFF3108572B61368B0
:100C6000002BFCD0BFF35F8F23689C465B7B9946CB
:100C7000002B00D181E0A268654B90464B441B01DC
:100C8000984443461E685F6832003B00121A8B414D
:100C9000002B00DC84E03B0032000B9800F0E2FA0D
:100CA0000023002208920993002300279A466368D4
:100CB000BFF35F8F5A461A6085F310885346002BA6
:100CC00064D00A9B390018024B461843D04762682B
:100CD00006900791EFF3108872B6564645461368A2
:100CE000002BFCD0B246A846BFF35F8F0699079A47
:100CF000002A25DA2369002B28D0089D099E6D1A49
:100D000096412A003300089D099E9E4200D971E059
:100D100000D173E0594604910121039149460291A3
:100D20005146019700912000FFF7F4FE5B462361D6
:100D30006368BFF35F8F5A461A6088F3108888E7AC
:100D40001300194302D02369002B46D12368DA7BB4
:100D5000002A07D051008A1819688C464946624417
:100D6000033A51704A46DA73E2684B469446013BB7
:100D700063441A7801321A70D8E7002300220892DF
:100D80000993002300279A46002090E7002800D00E
:100D90005FE70DB03CBC90469946A246AB46F0BD1D
:100DA000002B02D1002A00D075E70021604600F038
:100DB000CBFB43461A685B680892099343469B68DD
:100DC0009A464346DF68E3684B44013B1B780A932D
:100DD0001B0218432061002069E700F0B7F9069A6A
:100DE000079B12184B41994204D800D092E79042D9
:100DF00000D88FE701225242D3178BE7954200D8E3
:100E000088E701225242D31784E7C046600C0020D5
:100E1000FFFFFF0F10B5124C6368002B04D00A21AE
:100E20001048FFF73DFE10BD23000F4A1021206837
:100E300000F06CFB032000F07DF9032000F080FA45
:100E40000A49032000F0C8F9FFF780FC084B9C46D4
:100E5000032360442375074B80006060DC60DEE79D
:100E6000C8010020740C0020B10A0010390C0010D9
:100E700040000034600C0020F0B557464E46454611
:100E8000DE460400E0B50D0006267642F717361957
:100E90006F4185B08F4255D852D000F057F93200DB
:100EA0003B00121A8B41002B56DD674B9A465A685D
:100EB000EFF3108B72B61368002BFCD0BFF35F8F7B
:100EC00053461B6899469B7B9846002B49D1534655
:100ED0005B68BFF35F8F00221A608BF31088434674
:100EE000002B11D0BC46B046009401950026654603
:100EF000564F574A7B6AAB4211D3B96A414501D27A
:100F0000AB420CD0009C019D2000290000F054F958
:100F100005B03CBC90469946A246AB46F0BD116870
:100F2000EFF3108072B60B68002BFCD0BFF35F8F1D
:100F30001368BFF35F8F1E6080F3108820BFD9E76E
:100F40008642AAD90026002700F000F932003B00B3
:100F5000121A8B41002BA8DC002BD5D1002AA4D17A
:100F6000D2E75B0043444A46033B9C46494612682D
:100F70000093624453788B73002B00D1CB73002312
:100F800051469370537013708968324A8C464244BC
:100F9000314912016244166057609160D360009934
:100FA0004A468C46126862449370537013704B46E5
:100FB0005B7B0393002B35D0190048464B464246D5
:100FC00080685B689847002819D003980099844688
:100FD0004A46430063448C4669461268097B033BDA
:100FE000D318624491701978002900D0517042469C
:100FF0001A704B465873804500D068E715E04B46A1
:1010000003981A688446009BD11843006344033B4D
:10101000D31842469A700A78002A00D05A706B465C
:101020001B7B0B704B4642465A7353463200187D69
:101030003B0000F017F9002800D148E7534641462D
:10104000186800F02DFB42E7C80100200040054071
:10105000740C0020FFFFFF0FE50A001070B50600BA
:1010600000F074F8FA2204000D0092000023300012
:10107000002103F049FA001969418D4205D9012088
:101080004042C117FFF7F8FE70BD8D42FAD184428D
:10109000F5D8F7E7F8B5CE46474680B5EFF30583B8
:1010A0003F22134018001038EFF3108C72B61B4922
:1010B0000A68002AFCD0BFF35F8F01210F00874030
:1010C000174D184A6F63147891462200C24090462B
:1010D0004646002231420BD0696A134D8846810092
:1010E0004D59A84512D3114BBC43CA584B461C70EE
:1010F000BFF35F8F0021094B19608CF31088002A21
:1011000000D090470CBC90469946F8BD08499B001A
:101110008846434419681960EAE7C046280100D0B0
:10112000004005408E0C0020780C0020D80B0020D9
:10113000D03F054010B50100024A0348FFF7CEFA40
:1011400010BDC046205E00108C0C0020044A516A7D
:1011500000E01900906A536A9942FAD17047C0467C
:1011600000400540134A30B5546A00E01C00956AFF
:10117000536AA342FAD12A002300801859418C42B5
:1011800011D80ED00C000B4A536AA342FCD307D1EE
:10119000084A02E0516A994202D1916A8142F9D328
:1011A00030BD8542EED9012401204042C11764427E
:1011B000E9E7C04600400540064A536A9942FCD818
:1011C00007D1044B02E05A6A914202D19A6A8242E4
:1011D000F9D370470040054070B504000D00EFF3EF
:1011E000108672B61A4A1368002BFCD0BFF35F8FCB
:1011F000002D1BD02000FFF7C7FA164988420AD0FD
:101200002000FFF7C9FA01212000FFF7ABFA012304
:10121000A340114A1360114BA400E550BFF35F8F48
:1012200000220B4B1A6086F3108870BD0B4BA20096
:10123000D5500122A2400A4920000B7893430B703D
:101240000449FFF7D3FA00212000FFF78BFAE5E706
:10125000280100D09510001038600540D80B002000
:101260008E0C0020F0B5D6464F4646462F4CC0B5F2
:10127000656A00E00D00A66A616AA942FAD1AB4234
:1012800049D9EFF3108972B6294C21680029FCD0A6
:10129000BFF35F8F0126274986408C460978264D8B
:1012A0000F0037438846F9B28A46614654460C70AF
:1012B0001E49041DA4004E636250840063510D6AF0
:1012C000002435421AD04D6A00E025008F6A4C6A2E
:1012D000AC42FAD1AB4224D801D1BA4221D8D04590
:1012E00021D0124B154A1E625E631F2318401E3B1D
:1012F000834013606346424601241A70BFF35F8F38
:1013000000220B4B1A6089F3108820001CBC904609
:101310009946A246F0BDAB4201D1B242B1D80124F8
:10132000F3E70024EAE70124E8E7C046004005406F
:10133000280100D08E0C0020780C002080E200E014
:1013400010B5EFF3108472B60A490B68002BFCD07D
:10135000BFF35F8F01238340074A08481362027876
:101360009A430270BFF35F8F00230B6084F31088F1
:1013700010BDC046280100D0004005408E0C002062
:10138000F8B54E464546DE465746E0B54C00641873
:101390000368033C1A190D0051780600894600299C
:1013A00006D128003CBC90469946A246AB46F8BD03
:1013B0004F004F44033FD8194178884600214170BF
:1013C0005170002D12D073684A462900B0689847C2
:1013D0003368002873D0DF191A19BD7011780029FD
:1013E00000D0797049462700117000E04D46424612
:1013F000002AD6D054004444033C1A195178894637
:10140000002911D1736842462900B06898473368B3
:10141000002849D01C19DF19A5703B78002B00D09B
:10142000637043463B70BCE74900494403398A4630
:10143000534459788B4600215970517073684A465D
:101440004146B06898473368002843D152461C197A
:101450009A184B46A3701378002B00D06370434654
:101460005446C84613705B46002BCBD0594630001B
:10147000FFF786FF81460028C4D002004146B068CD
:1014800073689847326800282FD04B465B004B4466
:10149000033B1119D31842469A700A78002A00D0EB
:1014A0005A704B460B70ADE71C19DF194346BB70F1
:1014B0002378002B00D07B702570454671E74946A4
:1014C0001C19DA19A1701178002900D0617015700B
:1014D0004D468CE741461A195344997011780029FA
:1014E00000D059704B461370BDE74B465B004B4430
:1014F000033BD11814194A46A2700A78002A00D07A
:10150000627042461C000A70C8467BE710B58360D3
:101510000023CCB243730133047342608373C473FA
:101520000068012C07D90123421C0133DBB2137080
:1015300003329C42F9D8FF2319404B00591800236D
:1015400040180338437010BDF0B54E465746454627
:10155000DE46E0B5477B03687C00E419033C1A19BA
:10156000167883B005008946002E1ED1002911D0BF
:10157000C07B002869D041000918591803394F7001
:10158000EF73002E06D071008919033988460021B7
:10159000434499700023380053706E7303B03CBC11
:1015A00090469946A246AB46F0BD710089190339B1
:1015B0008846591848788246002807D149460029AC
:1015C000E5D0E87B0028D6D1EF73DCE74200524437
:1015D000033A9446019263445A78934600225A7023
:1015E0004A706B6852463100A86898472B680028FB
:1015F00032D0414601985A1819188E701078002878
:1016000025D1514611705A46002A23D05946280048
:10161000FFF7B6FE824600281BD002006B6831003F
:10162000A86898472B68002825D04246991852464A
:1016300052005244033A9A1896700878002800D055
:10164000507052460A701A19B8E7EF73A2E7487053
:10165000D7E72B681A19B1E741465046019A591845
:101660009A1888701078002800D048701670019A77
:1016700056469046C7E752465100514403395A181E
:10168000404693465246181882705A461278002AED
:1016900000D042705A46884616701A1956468DE791
:1016A000F0B54546DE4657464E46E0B50C0083B0E1
:1016B0000500002200293DD0477B0168BC426BD069
:1016C00066003619033E88198378002B32D05A0001
:1016D000D318033BCB181A78944202D143E0002A76
:1016E00008D053009B18033BCB185A789442F6D18C
:1016F00042785A7000238370437003789846002B19
:1017000025D1EA7B002A1DD053009B18CB18033B40
:101710005C704346EC73002B00D171E05C00002349
:101720004444033C09198B704370002F1ED143467B
:1017300001226B73100003B03CBC90469946A24650
:10174000AB46F0BDB846EC7300234370EFE71900D9
:101750002800FFF715FE2968EA7B80466F7B881911
:10176000002AD6D0D0E742781A70C3E74246390043
:10177000A8686B6898472A68002824D07B00DB198A
:101780001419033BD318A7701A78002A00D062708E
:101790004246B8461A70CAE77E00F619033E8B1916
:1017A0001878804600281BD1E87B002804D042002E
:1017B00012188A18033A5470EC7300225A70434688
:1017C00001326B73B6E77B00DB19033B1419D318A6
:1017D00042469A702278002A00D05A702770A6E7F5
:1017E00044004444E01E019008184478A246002CAE
:1017F00008D1EC7B002C76D1EF7300228270DCE7FD
:10180000B846A1E763005344033B994649444B78EB
:101810004A7042709B4622006B684146A868984710
:101820002B6800284BD049464046019C59181A198C
:1018300088701078002850D15146A14611705A4640
:10184000002A20D059462800FFF79AFD041E19D01F
:1018500002004146A8686B68984700281ED04A4697
:1018600041462B68981862001219033A9A18917031
:101870000178002900D051700470E97B002905D15E
:101880009B19B9E72B684A469818F6E74A005218A0
:101890009A18033A57709B19EF73AEE74B462968C5
:1018A000600000190338CB1808189C700278002AD1
:1018B00000D05A704346A04603708B1999E74A46F8
:1018C0009818019A9C185246A2700278002A00D0FB
:1018D00062704246D0460270B1E7487051461170BE
:1018E000019A9146ABE7032262438A18033A577084
:1018F00082E7C04610B50400FEF728FF0100200073
:10190000FFF7CEF8FF232371BFF35F8F10BDC046F2
:1019100010B50400FEF71AFF01002000FFF7C0F821
:10192000FF23237100236371BFF35F8F10BDC04697
:10193000F8B5040006200D0000F084FA0300002032
:10194000002B49D0294B80229C424DD0D203284BFA
:1019500028491A60284B1A6010008B689843FBD105
:10196000264B8021E3185A425341254A5B00490027
:101970000620995200F066FA2900C00001F0C0FF6D
:10198000C3092AD01F4A93422AD87F22104001302F
:1019900040089F011A0003003F182600802562625C
:1019A000A36200232C36AD0135432B60062000F0E6
:1019B00049FA3900800001F0A3FF6023E26A534036
:1019C0006E221A4080235B0133431A600E4B23635F
:1019D00010232B600D3BA364F8BD40270122DCE7F8
:1019E0000A4F00230A4AD8E71204B0E700800340F8
:1019F00000E0004000C0004000F000400080FCBF5C
:101A0000900C0020FEFF000001030000C0FF3F001B
:101A1000FFFF00002D4A2E4B70B51A602D4A2E4B49
:101A20002E491A6010008B689843FBD12C4E2D4B29
:101A30009E420AD2F5430024ED18AD080135A300FB
:101A4000F35801349847AC42F9D100F097F8264A90
:101A5000214B1A60214A9368DB018033FBD140227D
:101A6000224B234C234D9A675A671A67DA66AC42B9
:101A700008D223682000002B22D00834FFF748FF4B
:101A8000AC42F6D31C4D1D4CC022A168280002F0C8
:101A9000ADFDA560FEF74CFEFEF7DEFFFFF7BAF9DD
:101AA000174E184B9E420AD2F5430024ED18AD089C
:101AB0000135A300F35801349847A542F9D170BD10
:101AC0000834FFF717FFAC42D3D3DBE7BFCDFBFEF3
:101AD00000E00040FE7F3C0000F0004000C00040FD
:101AE000700A0020800A0020FFFFFF0100F0014083
:101AF000680A0020700A00200000002000ED00E0CD
:101B0000800A0020840A0020094A1368002B06D0AE
:101B100008491818884208D8106018007047064B0A
:101B20000449181813608842F6D901204042F5E7AD
:101B3000580C002000000420980E002000BEFDE795
:101B40000FB400B5084883B002F032FE049B002BAE
:101B500007D005A91800019101F010FE034802F01A
:101B600027FE00BEFDE7C046505E0010E05D00109D
:101B700010B50148FFF7E4FF445E001030B50C20BB
:101B800083B000F0B3F9FEF7CBFD00280ED0964BE2
:101B9000964A1A605A609A60DA601A615A619A61CC
:101BA000DA611A62924A5A6203B030BD914CA06762
:101BB00000F0A4F90122904B1A60636C012BFCD158
:101BC00003228E4B1A608B4A936B012BFCD101339D
:101BD00000938B4A043301218A4800F039F9052328
:101BE000894A00930121894800F032F9884B5A68EC
:101BF000FF2A02D8802252005A6080227A4C7F4B02
:101C000021691201824D1A60002900D0E5E0E0212F
:101C10007F4B02201A681140802252012A43116032
:101C20001968484003210140116004219A6811425B
:101C3000FCD08022802192012A4309011160802278
:101C400052005A60734B2361734B5968FF2900D8C7
:101C5000C1E00322684B70481A60012103009A68B2
:101C60001142FCD0E0251A6815408022520102433F
:101C700015601B684B400321194011600221664A20
:101C800093681942FCD0802380219B010343090102
:101C900019608021614B490051606361604B5A6853
:101CA000FF2A00D8596080225E4BE16912015C4D29
:101CB0001A60002905D0606901F022FE0130013868
:101CC000FDD1E02256490B681A4080235B012B436B
:101CD0001A60802380229B012B4312011A6080220C
:101CE000424B52004A60E3614F4B5968FF2900D8CC
:101CF0005A6080224D4B216A12014B4D1A60002917
:101D000005D0606901F0FCFD01300138FDD1E02211
:101D100045490B681A4080235B012B431A608023DE
:101D200080229B012B4312011A6080235B004B60D1
:101D30002E4B3F4A23623F4B5968914201D80132F2
:101D40005A6080223C4B616A12013A4D1A600029A8
:101D500005D0606901F0D4FD01300138FDD1E022E9
:101D600034490B681A4080235B012B431A6080239F
:101D700080229B012B4312011A608023DB024B60FF
:101D80001B4B63622D4B5A68FF2A02D880225200F7
:101D90005A6080222A4BA1691201284D1A6000293D
:101DA00005D0606901F0ACFD01300138FDD1E022C1
:101DB00022490B681A4080235B012B431A60802361
:101DC00080229B012B4312011A6080235B004B6031
:101DD000124BA361E8E65A603BE7606901F090FDB1
:101DE00001300138FDD112E7E80B0020006CDC0265
:101DF0001BB70000008000403CB0004030B0004005
:101E0000002F685900800240008C864700C00240C5
:101E100030800040001BB7003C80004040597307F1
:101E20005480004054B000406080004060B00040EA
:101E3000FFFF03006C8000406CB000404880004011
:101E400048B00040014B8000C0587047E80B0020AC
:101E5000F8B504000C2017001D000E0001F050FD25
:101E60001D494143380001F04BFD069A2B04120333
:101E700013432268002A1CDB184A8021944229D08F
:101E80004901174A174D1160174A11600F00AA68DF
:101E90009743FBD1C021221D8901114321222660D5
:101EA000A0600A602268002AFCDAE36008230B6065
:101EB000F8BD3F2221680A409642DDD1A268120592
:101EC000120D9042D8D1EE21E268C9020A40934235
:101ED000D2D1EDE78901D4E740420F0000C00240B3
:101EE00000E0004000C0004000F0004080239B0064
:101EF0001843014BD862704700800540AA23064A68
:101F00001B0113602F230549D360054B19605368EB
:101F1000002BFCDA7047C0460040024000B0FA00D7
:101F2000006002407047C04610B5002803D04A68E0
:101F30000B681100984710BD10B5002800D110BDE6
:101F40000B4B1C68A2689368013B9360002B04DB79
:101F50001368591C11601870F1E791698B4201DB1D
:101F60000A28F5D10100200003F016F9E7E7C04682
:101F700028020020F0B54546DE4657464E46E0B5FD
:101F800083B099460EAB1D78119B88469B46022371
:101F9000129900920B4007000D9C109A0193002BA0
:101FA00028D15B46002B00D092E0944222D2012639
:101FB0000E401F2C1ED80C9B30201B1902E0013351
:101FC000202C03D001341870A242F8D8002E11D072
:101FD000A3450FD90C9B30201B195E461F2C04D93A
:101FE00087E00133202C00D1A7E001341870B442FF
:101FF000F7D1A346CB0611D54B0502D4002C00D057
:102000007CE00F9B102B00D1A0E0022B00D1A7E0B9
:102010001F2C11D830230C9A135501341F2C0BD8C8
:10202000002D00D079E04B0700D588E00B0733D5B1
:1020300020230C9A135501348B0730D0009E2500C5
:10204000A24632004446B0460C9B013D561C585DEA
:1020500021004B46B8473200002DF5D14646A04638
:1020600054463619019B002B0ED0009D731B5B4517
:102070000AD23200444601364B4621002020B847A0
:102080003200731B5B45F6D3300003B03CBC904676
:102090009946A246AB46F0BD009E8B0715D15C4524
:1020A0006ED2009A0D9413005B441D1B0D9B444699
:1020B0009846561C4B4621002020B8473200B542B6
:1020C000F7D14346A0461C000D93002CB7D1C9E7B9
:1020D00001260E4028D0002D2AD10C230B4227D1F7
:1020E000944200D374E71F2C00D864E7A34500D8BE
:1020F00080E7CB06A0D54B0500D582E7A24202D0EF
:102100005C4500D07DE7631E002B3BD00F9A023C5C
:10211000102A1BD01C00130077E72D230C9A1355AF
:1021200001348B07BBD089E7944200D241E761E7D5
:1021300001235B429C46E344D2E7B346D9E72B2315
:102140000C9A135501348B07A9D077E78B060FD46F
:102150001F2C00D970E778230C9A1355013457E7E8
:102160001F2C00D968E70C9A6033135501344FE7F0
:102170001F2C00D960E758230C9A1355013447E708
:10218000009EA2E700243CE7F0B5DE4657464E46E7
:102190004546E0B597B005000E0093461F00209A13
:1021A000219B1000190001F074FE002800D0D5E238
:1021B000209821990122BD4B524201F057FE002880
:1021C00000D081E1209821990122B94B524201F0BF
:1021D0005BFE002800D017E1209821990022B54B22
:1021E00001F052FE002800D0BCE120982199002285
:1021F000B14B01F03BFE002800D0B3E120982199BB
:102200000022002301F032FE002800D054E2002317
:102210000D938023249ADB001A40914600D007E2F8
:102220000023A64C0893099406240EAB079320982C
:10223000219901F059FE80460C9001F03DFE02000C
:102240000B002098219901F09EFD089A099B01F04E
:10225000CAFD0A900B9101F06BFE824601F028FE48
:1022600002000B000A980B9901F08DFD0022944B9F
:102270000A900B9101F008FE002800D1C5E101236E
:102280009C46E244504601F013FE089A099B01F077
:10229000F3FD002800D030E2002C00D074E10C9C4B
:1022A000200001F009FE02000B002098219901F0A6
:1022B0006AFD0022824B0890099101F0D7FD0028A9
:1022C00000D10AE24B46202B00D196E15C1C0C9B0E
:1022D0000A211800984601F0EBFA4A46079B303174
:1022E000995440460A2101F0E3FA079B804699463B
:1022F000A14400281BD02A00330025004E46444646
:1023000099469046202D00D125E220000A2101F0B7
:10231000CFFA3031317020000A2101F0C9FA0135BD
:10232000040001360028EDD12C004E46454603231B
:10233000249A1340012B00D19BE120229246202CAD
:102340000CD00D9A002A00D0C1E1249A520700D483
:102350004CE2621C92462B2207990A555A46089273
:10236000002B17D1239B9A4500D34FE25B441C00FE
:102370005346E41AB84637002E002500541C434645
:1023800039002020B0472200AC42F7D135003E0092
:102390004746089453465C1E079B08AA9C46172391
:1023A000644494466344B946984637002E00089A20
:1023B000551C20784B463900013CB0472A00A04507
:1023C000F6D1089B350053441C00249B3E009B071C
:1023D00012D55B46239AE31A9A420DD91300C846D8
:1023E00022005F4699460134434631002020A84729
:1023F0002200E31B9945F6D8200017B03CBC90465C
:102400009946A246AB46F0BD249B5B0700D5A4E0ED
:102410002C4B9A4603230793249BD8469B0719D13C
:10242000079B23998B4200D3ECE15A469B1A9846AE
:10243000239B99463B0031002020541CA84743466B
:102440001B1922009945F5D8239B5B441C00079B70
:10245000E31A9846B14642465646BA462F00079CB4
:10246000013C551C305D53464946B8472A00002CB4
:10247000F6D1079B3D0043441C00249B4E469B071E
:10248000BAD55B46239AE31A9A42B5D91300D046CF
:1024900022005F4699460134434631002020A84778
:1024A0002200E31B9945F6D8A6E7C046FFFFEFFFE1
:1024B000FFFFEF7F65CDCD4165CDCDC180842E413D
:1024C0000000E03F48600010249BD8469B0716D1CF
:1024D000239B042B00D897E11C1F5C44B8465A4646
:1024E00037002E002500541C434639002020B047F9
:1024F0002200AC42F7D135003E004746A046CE4B05
:10250000B9464246370004249A462E005346013C01
:10251000551C185D39004B46B0472A00002CF5D1F8
:102520004446249B350004343E009B0700D463E7F7
:102530005B46239AE31A9A4200D85DE71300C84627
:1025400022005F4699460134434631002020A847C7
:102550002200E31B9945F6D84EE7B84B9A46042370
:10256000079359E7249B5A460493239B3100039316
:10257000229B28000293209B219C009301943B0006
:1025800000F064F9040037E74B46202B35D0631E7A
:1025900098464B460A2150465C1C01F0B1F94A4668
:1025A000079B3031995450460A2101F0A9F9814620
:1025B000002800D1B6E0079B9A463B00A24447465C
:1025C000A84625004C46B14656469A4610E02000E3
:1025D0000A2101F095F93031317020000A2101F013
:1025E0008FF9013F013504000136002800D194E045
:1025F000202DECD145464E4657460323249A1340DE
:10260000012B35D020229246A8E600220A980B9989
:102610008B4B01F02BFC002800D03DE65346002BED
:1026200002D0DB0700D437E601239C46E24433E6C0
:10263000229B092B00D8F2E00122302391460EA8FC
:102640000370229B07905C1E2F32093B494604E031
:1026500042540131013C202901D08B42F8D1794B01
:10266000E2009B181A685B68894608920993DEE5C8
:102670002024239B002B47D00D9B002B03D1249AB1
:102680000C33134202D0239B013B2393239BA34291
:102690003AD9202C00D1BDE0302221001800079B40
:1026A0001B1901311A7088422DD001332029F8D12D
:1026B0005B468A4608936DE6209A219B0020002104
:1026C00001F061FB0123209021910D93A1E5621C93
:1026D00092462D2207990A5540E60022089809994A
:1026E000574B01F0D1FB002800D0EBE50123A446B5
:1026F00023409C4463460C93E4E5434601330C932A
:1027000000239A46C8E5239C0123202C00D018E61C
:102710001F339A465B4608933CE62C004E464546DE
:10272000B8465746202C00D167E742464046079BF3
:1027300011191B193022002807D001341A70202CDF
:1027400000D15AE701338C42F7D1631C99462E23FE
:10275000079A1355B6E545464E464EE7249BD846A4
:102760009B0715D1239B032B52D9DC1E5C44B84632
:102770005A4637002E002500541C434639002020BD
:10278000B0472200AC42F7D135003E004746A04694
:102790002D4BB9464246370003249A462E00534635
:1027A000013C551C185D39004B46B0472A00002CEF
:1027B000F5D14446249B350003343E009B0700D4EA
:1027C0001AE65B46239AE31A934200D314E61300F9
:1027D000C84622005F469946013443463100202016
:1027E000A8472200E31B9945F6D805E6249AA2469D
:1027F000120700D4B2E50122944607991F32E24441
:102800000A55ABE5D84625E6D84678E60892C1E5F4
:10281000D846BDE720239A465B460893BAE5DA001E
:10282000084B9B185C681B68089309940023994621
:102830000EAB229C0793FAE4506000104060001039
:102840000000E03F586000104C600010F0B54E46AC
:102850004546DE465746E0B59BB00A93249B814629
:102860001C000B93259B09911D000D920C930022D7
:1028700000232000290001F0F9FA002800D093E19C
:102880000B9A0C9B92469B468023289ADB001A40A9
:102890000E9201D10623269356465B46334300D160
:1028A00048E15B465800C94B400D9C46604401F02E
:1028B00003FBC74AC74B01F096FAC74AC74B01F062
:1028C0006BFA5B46C64A1B031B0B1A4304000D0040
:1028D000C44B11005046002201F055FAC24AC34BC6
:1028E00001F081FA02000B002000290001F054FAE7
:1028F00001F0FAFA804601F0DFFABD4ABD4B040050
:102900000D0001F070FA0022BB4B01F045FA01F016
:10291000EBFABA4A0600BA4B2000290001F063FA2C
:10292000040030000D000F9601F0C6FAB54AB64B10
:1029300001F059FA02000B002000290001F023FAEF
:1029400002000B0006000F0001F04DFA32000400F7
:102950000D003B003000390001F01EFA00221090FB
:102960001191AA4B2000290001F01FFA0022A84B68
:1029700001F012FA02000B002000290001F015FA04
:102980000022A44B01F008FA02000B0020002900ED
:1029900001F00BFA0D008021320004003B00002002
:1029A000C90501F0F0F902000B002000290001F038
:1029B000F3F902000B001098119901F0F6F90022CA
:1029C000874B01F0E9F9944A0F9B94466344002237
:1029D0001B0501F008FA06000D0002000B0050462E
:1029E000594601F043FA00280BD001235B429C4674
:1029F000300029000022864BE04401F0D6F90600A1
:102A00000D004346C62763339F42BF41289B7F4248
:102A100004371B0500D5ACE0279B00249F4200D261
:102A2000DC1B0223289A1A400E9203D07B427B4182
:102A30005B421C404346002B07D0504659463200AB
:102A40002B0001F0B2F982468B46002200230B983E
:102A50000C9901F00BFA002800D0A0E0289A6F4BE7
:102A6000039413400493269B524602935B460999B4
:102A70000092019348460A9B0D9AFFF785FB0400DC
:102A8000002F4FD0289B65209B066CD4631C22002E
:102A90009A4609990A9BC8474346DA179D18DB0FE7
:102AA00098467B1E55409B46002412AF02E034003E
:102AB000202E0DD028000A2100F022FF661C3031A4
:102AC0003C19217028000A2100F01AFF051EEED1E2
:102AD000052306935B460593002304930A3303936F
:102AE00043460196099E02930A9B00975246310085
:102AF00048469846FFF73EFA0E9B0400002B11D083
:102B00000D9F279AC31B9A420CD9279B4D46020062
:102B100099460134434631002020A8472200E31B98
:102B20009945F6D820001BB03CBC90469946A24679
:102B3000AB46F0BD289B56465D461B0515D50023C8
:102B40009846269A0023424503DD130042469B1A0D
:102B5000013B26938023289ADB001A430023289206
:102B60000027984658E7203890E700230427984626
:102B700052E72B003343E4D0294A2A4B50465946AA
:102B800001F07AF9002817D1269B002B00D143E7EA
:102B90000E9B5A1E9341269AD31A26933CE7802116
:102BA000090659448B4659E78022120694460C9B2D
:102BB000A24663449B4667E600221B4B504659469B
:102BC00001F054F90028BCD1DEE7C04601FCFFFF4C
:102BD000FB799F501344D33FB3C8608B288AC63F0C
:102BE0000000F03F0000F83F61436F63A787D23FCA
:102BF00071A379094F930A400000E03F1655B5BB19
:102C0000B16B0240EF39FAFE422EE63F00002C4045
:102C10000000244000001840FF030000FFF7FFFF02
:102C20002D431CEBE2361A3F80842E41F0B5454619
:102C3000DE4657464E46E0B5A1B01D002A9B0992DC
:102C40000B93A24AA24B0A9008911A60002900D166
:102C500087E300239B469F4B2C009A465D462078D5
:102C600000280CD025281DD06E1C2A00099B0A9D27
:102C700008990134A847207835000028F2D1099935
:102C8000AB462A008D4200D34A1E099B08990020BA
:102C90000A9CA047584621B03CBC90469946A246A3
:102CA000AB46F0BD1023621C9846083B9C46167844
:102CB000043B9946023B9B463300203BDBB2002796
:102CC00001211400102B0CD850469B00C3589F467E
:102CD0000F430132167814003300203BDBB2102B77
:102CE000F2D93300303B092B00D8B5E100239846D8
:102CF0002A2E00D1A6E200239B462E2E00D1C0E151
:102D00003300683BDBB2122B18D8734A9B00D358B0
:102D10009F46634601321F43DCE7434601321F43AF
:102D2000D8E74B4601321F43D4E75B4601321F43CD
:102D3000D0E780235B0066781F4301343300253BD6
:102D4000DBB2532B0FD8654A9B00D3589F46667859
:102D5000682E00D188E280231F433300253BDBB27D
:102D60000134532BEFD96F1C2A00099B0A9D089947
:102D70003000A84701343D0071E766786C2E00D121
:102D80006CE280235B001F430134D7E780239B0064
:102D900066781F430134D1E70B9B1A1D1B680E9206
:102DA0000B935B46002B00D12BE20B9A1078160098
:102DB000002804D100F0A4FC013B002B03D0013615
:102DC0003278002AF8D10B9BF31A0C938023DB0096
:102DD0003B40994603D00C9B5B4500D9ABE20223F4
:102DE0003B400F9300D1B3E100281ED04B46002B8F
:102DF00000D1D0E15B465F190B9BA3465E1BB14639
:102E00002A00099C0A9E09E023000899551CB04736
:102E10004B46585D002800D1CEE12A009742F3D1FD
:102E20005C463D000F9B002B14D00C9A904511D9A5
:102E300043465819099B861A98462A00A1460A9FBC
:102E4000089C0135434621002020B8472A00B5429E
:102E5000F7D14C460E9B01340B9300E70B9B1A1DD8
:102E60001B689046002B00D1CEE1212217430B971F
:102E70000F21002218AE8946A44602E00A0020294C
:102E80000CD048461840C4B22700511C37370928D7
:102E900001D830342700B7541B09EFD164460B9B8F
:102EA00001910693082305935B4604931023039333
:102EB00000232A0002930096099B08990A98FFF7BD
:102EC00059F84346050001340B93C8E62D2C001039
:102ED0005C0C0020605E0010A45E0010F05E00102C
:102EE000782E00D1C5E1582E00D12FE26F2E00D1EF
:102EF00031E3622E00D126E210233A009A430C926D
:102F0000692E01D000F01EFC0A230E937B0500D52C
:102F1000B7E180270C9BBF001F4000D0B8E21A0029
:102F200080235B001A40914600D06EE30C9B5B0649
:102F300001D500F0F1FB0C9B0B9A1B0600D4C1E3FA
:102F40000021535E0432D90F14910B92DA179F18A7
:102F50005740002B09D10C9910330A009A431300F3
:102F60000A000C93520500D5DEE30C9A6123920609
:102F700000D54123DBB218AE0A3B16940F934C46A2
:102F80001595B1460E9E0EE03033DBB24A4638004E
:102F90001355310000F0B4FC071E00D1FDE12C00F8
:102FA000202D00D1F9E13100380000F0A9FC651CAA
:102FB000CBB20929E8D90F9A94466344DBB2E5E71E
:102FC000462E00D1B4E107220B9B049707339343AD
:102FD000013294469C4462460B92424603925A4602
:102FE00002921A685B680899009201930A982A0075
:102FF000099BFFF7C9F80134050030E66E1C2A0072
:10300000099B0A9D08992520A8470134350026E62A
:10301000BB0700D5D2E04346012B00D888E3099BCB
:103020006F1E474498462A00A1460A9D089C561CDC
:10303000434621002020A8473200BE42F7D14C462B
:103040000B9B32001F1D1878751C099B08990A9E5E
:10305000B04701340B9702E6002332009E00F618B9
:1030600001347600B6182278330011003039303B35
:103070000929F3D99846002316009B462E2E00D02E
:103080003EE680236678DB001F433300303B621C42
:10309000092B11D8140033005A469600B618013493
:1030A0007600F6182378320019003039303A0929B1
:1030B000F3D91E00934623E62A2E00D181E11400A5
:1030C0001EE6202332009A43472A04D180231B01A5
:1030D0001F4302239E43452E01D120231F43072275
:1030E0000B9B07339343013294469C4462460B92F8
:1030F0001A685B68100019000C900D9100F0C9FE71
:10310000002800D08CE00C980D990122CA4B524245
:1031100000F0BAFE002800D082E00C980D99012240
:10312000C64B524200F0A2FE002879D143460393D9
:103130005B460497029308990C9A0D9B0A9800929B
:1031400001932A00099BFFF781FB0134050086E506
:103150000C990B000133884500D8EBE243462A0066
:103160005F190C94089D0A9C7F1A561C099B290024
:103170002020A0473200BE42F7D14346350001333C
:103180000C9C0C930B9B1878002800D162E64B46F0
:10319000002B00D02EE62A000B9BA3465F1BB946EE
:1031A0000A9E089C099F3B002100551CB0474B46D6
:1031B000585D2A000028F6D15C4633E60B9B08993F
:1031C0001A1D18789146099B2A000A9FB847434662
:1031D0006E1C4544012B00D8AEE2A3463200A8463F
:1031E000089C099E0A9D571C330021002020A847F7
:1031F0003A004745F7D15C464B463D000B930134FE
:103200002DE501235B42D0E51022390091431132B4
:1032100011430B917A0500D42AE6002118AE3EE650
:10322000434603935B460497029308990C9A0D9BBF
:103230000A98009201932A00099BFEF7A5FF01342A
:1032400005000CE50B990B0009680433884600293A
:1032500000DAB0E056780B93541C4CE5C0239B0079
:10326000A6781F43023469E5C023A6781F430234C1
:1032700064E510230E930C233A009A430C927B05CD
:1032800002D501239A430C92692E00D141E6642EA7
:1032900000D13EE680270C9BBF001F4000D09EE07F
:1032A0001A0080235B001A40914600D070E10C9B0D
:1032B0005B0600D51FE20C9B1B0600D408E20B9BAB
:1032C0001F8804330B93002F09D10C9910230A0097
:1032D0009A4313000A000C93520500D5D4E00C9ACF
:1032E0006123920600D54123DBB218AE0A3B159448
:1032F0000F934C461495B1460E9E0CE03033DBB272
:103300004A4638001355310000F0FAFA071E2BD058
:103310002C00202D28D03100380000F0F1FA651C77
:10332000CBB20929EAD90F9A94466344DBB2E7E7A6
:1033300020231F4347E65B460C9302233B400F9339
:1033400000D051E504E702230E9394E70C233A00E2
:103350009A4314331A4310230C920E937B0590D496
:1033600098E7374B0A9374E44E462A00159C149D47
:103370000C9B0693434605935B4604930E9B039375
:103380000023029301922A000096099B08990A984B
:10339000FEF7F0FD0134050061E44E462A00169C5C
:1033A000159D0C9B0693434605935B4604930E9B29
:1033B0000393149BE5E702210F43414649428846A7
:1033C00048E70B9AA678136802349B46DB435946BC
:1033D000DB171940130004338B460B9390E407224C
:1033E0000B9B07339343013294469C4462460B92F5
:1033F0001A685F68130091463B4308D10C9910335B
:103400000A009A4313000A000C9352053CD40C9A0C
:103410006123920600D577E1DBB20A3B0F93434666
:10342000002216930E9B18AE1495159415004C4669
:103430009846B14619E0C046FFFFEF7FFFFFEFFF60
:10344000251F00103032D2B24B4620005A553900A9
:103450004246002300F096FA0F000400014300D119
:103460008FE03500202E00D18BE042460023200063
:10347000390000F087FAD2B26E1C092AE2D90F9BFC
:103480009C466244D2B2DFE7002318AE1A006FE711
:1034900007220B9B07339343013294469C446246B8
:1034A0000B921A685B68D9171291139112981399AD
:1034B0000600564010960E005E401196109E119F19
:1034C000361A8F41D90F1096119717911A430BD1C5
:1034D0000C9910230A009A4313000A000C9352051A
:1034E00002D5002718AE41E00C9A6123920600D560
:1034F0000CE1DBB20A3B0F93434616930E9B18AECA
:10350000002298463300149515941600109C119DC6
:10351000994611E03032D2B24B4620009A5529002C
:103520000023424600F02EFA030004000D000B4376
:1035300014D03E00202F11D0424600232000290045
:1035400000F020FAD2B2771C092AE3D90F9B9C46DF
:103550006244D2B2E0E708230E938CE64E46169BF7
:10356000109411959846159C149D0C9B0693434608
:1035700005935B4604930E9B01970393179B02935D
:1035800001E7169B3200149D159C98464E46EFE6C7
:103590000B9B1A1D1B6815929946002B0CD10C9998
:1035A00010330A009A4313000A000C93520503D506
:1035B000002318AE1A006DE00C9A6123920600D524
:1035C000A6E0DBB218AE0A3B14940B934C460F9561
:1035D000B1460E9E0CE03033DBB24A462000D35594
:1035E000310000F08DF9041E50D02F00202D4DD059
:1035F0003100200000F084F97D1CCBB20929EAD902
:103600000B9A94466344DBB2E7E70B9B1A1D1B68D9
:103610001592D9175A184A409146DA0F1692002B84
:103620000CD10C9910330A009A4313000A000C9332
:10363000520503D5002318AE1A0052E00C9A6123FC
:10364000920667D4DBB218AE0A3B14940B934C4637
:103650000F95B1460E9E0CE03033DBB24A46200097
:10366000D355310000F04CF9041E36D02F00202D28
:1036700033D03100200000F043F97D1CCBB2092982
:10368000EAD90B9A94466344DBB2E7E74E462A0038
:10369000149C0F9D0C9B0693434605935B46049335
:1036A0000E9B0393002302930192099B2A0000962C
:1036B00008990A98FEF75EFC159B05000B930134F0
:1036C000FFF7CDFA13680432D90F14910B923DE441
:1036D0000B9B1F6804330B93F5E54E462A00149CA0
:1036E0000F9D0C9B0693434605935B4604930E9BEC
:1036F0000393169BD7E70B9B1F7804330B93E2E5EC
:1037000000230C93FFF762FB412385E64123F0E69B
:10371000412356E7412395E70B9A137804320B9225
:1037200000221492FFF712FC002318AE1A0038E6AC
:103730002E0085E40C9327E54B4635000B930134AE
:10374000FFF78DFA063B17000E93642E00D092E52A
:10375000530500D595E5FFF7DCFBC04600B585B005
:1037600000931300012202900391524202A90248E1
:10377000FFF75CFA05B000BD291F001010B5094A1B
:1037800084B01468002C09D0012200910300524239
:1037900003A90548A047012004B010BD01F008F8B6
:1037A0000020F9E75C0C0020391F001001480421BB
:1037B000014B1847F00100206D380010014B5B6889
:1037C00018470000F0010020014B9B6818470000DB
:1037D000F0010020014B1B6818470000F001002099
:1037E000044B5B68002903D100B59847203000BD29
:1037F00008461847F0010020044B9B68002800D0C1
:10380000184700B508469847203000BDF001002059
:10381000044B1B680AB59847844609BC9847614623
:10382000084400BDF0010020014BDB681847000090
:10383000F001002000B5044BDB680AB498478446C9
:1038400009BC9847614600BDF0010020142310B563
:103850000100188804331B88984710BD162310B543
:103860000100188802331B88984710BDF8B54746F9
:10387000CE4680B50F1E19D0142399460433040098
:103880000025012698464B461888434621681B8828
:10389000984701C4431E9841013540420640AF425B
:1038A000F1D130000CBC90469946F8BD0126F8E7EE
:1038B000124A936F9B0815D29066D166002905D0F5
:1038C000FFE7FFE7FFE7516F106F704704B58021F6
:1038D0000906C2175140002800D0C84302F048FA38
:1038E000002104BDF0B5146E556E576F166FFFF7CB
:1038F000E3FF1466556657671667F0BD000000D0F9
:10390000114A936F9B0813D210665166002905D0A7
:10391000FFE7FFE7FFE7516F106F704704B500281E
:1039200001D00020C04302F023FA002104BDC046AC
:10393000F0B5146E556E576F166FFFF7E5FF1466FE
:10394000556657671667F0BD000000D094464E4A92
:10395000926F9208624601D230E0C046F0B54A4EFE
:10396000B56F6D08FCD3346E756E776F366F00F0EF
:1039700025F89446444A14665566576716676246AA
:10398000F0BDC0469446404A926F9208624601D20A
:1039900058E0C046F0B53C4EB56F6D08FCD3346EB0
:1039A000756E776F366F00F04DF89446364A1466A0
:1039B0005566576716676246F0BDC046002B24DB8C
:1039C00011D000293EDA00B5C943404200D101318F
:1039D00000F038F8C943404200D10131DB43524284
:1039E00000D1013300BD002AEBD1002801D100290C
:1039F00005D00020C90FC90701D1C043410800B557
:103A000002F0AEF90022002300BD00B500290ADB58
:103A1000DB43524200D1013300F014F8C943404265
:103A200000D1013100BDC943404200D10131DB4327
:103A3000524200D1013300F005F8DB43524200D17D
:103A4000013300BD002923D1002B18D1002A0CD04E
:103A5000BC460D4F38667A6600210023FFE7FFE77A
:103A6000FFE77A6F386F67467047002801D0074834
:103A7000010000B502F074F90022002300BD02002D
:103A80000B00002000217047000000D0FFFFFFFF67
:103A9000002B00D0BFE0130C28D1002AE7D080B45F
:103AA000114F39667A66FFE7FFE730B4040C7B6F8D
:103AB000396F1B0423433B667A66FFE7FFE7FFE7A6
:103AC000C04684B27B6F3D6F1B0423433B667A661E
:103AD000FFE7FFE7C04600232C042D0C7A6F386FF8
:103AE00000196941B0BC7047000000D0F0B59446A1
:103AF0000025140E01D112020835140F01D1120154
:103B00000435940F01D192000235D40F01D1520037
:103B10000135D40B0134254F7C66254C3C660E0CD8
:103B200093B2FFE7FFE7FFE73C6F6643360C77038E
:103B3000BE467343DF0B5B04C01AB941130C7343D9
:103B4000DB18C91ACE086643360CB64493B27343E9
:103B50001F0F1B01C01AB941130C73431F0B1B0528
:103B6000C01AB941860D8F023E436643360C092DBB
:103B700024DB520A7243801A7703460A6643360CE6
:103B800016235B1BDE40DF40BF1964466643821B81
:103B90007046043506330100D940A840C01900D34F
:103BA0000131A24206D20023F0BD0000000000D087
:103BB000FFFFFFFF121B0130F3D3F1E709277F1B43
:103BC000FE406446A2B27243801A00D20139220C30
:103BD0007243130C1204821A99410B00704604358B
:103BE00013370100F940A840801900D30131002BA0
:103BF00002D1A2420AD2F0BD013000D30131121B22
:103C0000FAD2013BF8D1A24200D2F0BD013000D37C
:103C10000131121BF7E7F0B51C0C00D080E00CB4AA
:103C200000251C0A04D11B02160E3343120208356C
:103C30001C0B04D11B01160F3343120104359C0BDE
:103C400004D19B00960F334392000235DC0B02D166
:103C500092185B4101351C00971864410134464FAE
:103C60007C66464C3C660E0CFFE7FFE7FFE7C0466C
:103C70003C6F6643360C7703BE4697B27743C01B52
:103C800000D20139C01B00D201399FB27743C91B52
:103C9000C91B170C77437E04FF0B801BB941CE086C
:103CA0006643360C0C2D33DBB644120B1F053A432A
:103CB0001B0B97B27743C01B00D201399FB27743E9
:103CC000C91B170C77433E043F0C801BB941860D7E
:103CD0008F023E43664329277F1BFE400C3D7746FB
:103CE000AF40BF1930BCA2B2ABB272437343801A6B
:103CF0009941220C7243130C1204801A994102005C
:103D00000B000137001BA941F9D2781E0021F0BD3C
:103D10000C277F1BFE4077467F0BAF40FF19E0E783
:103D200000245D1C07D0144F7D663966FFE7FFE76E
:103D3000FFE7FFE73C6F95B29EB265436643401BC9
:103D4000B141150C1E0C6543664336042F0C3E43EF
:103D50002D04401BB141994204D202000B00200007
:103D60000021F0BD01D19042F7D3801A994101346E
:103D70009942F2D3F6E70000000000D0FFFFFFFFFA
:103D800048404140484018B41B4B5B68FC460193D7
:103D900008BD04DFDB3F001018B4174B1B68FC465E
:103DA000019308BD00DFE53F00109446134A926F6F
:103DB000920809D2624618B40F4BDB68FC460193A7
:103DC00008BD0CDF9D4200100C4AF0B5146E556E14
:103DD000576F166F6246FFF7EEFF084A1466556686
:103DE00057671667F0BD18B4034B9B68FC460193F8
:103DF00008BD08DF41410010940C0020000000D0F5
:103E0000FFB550404240504059404B40594000E0BF
:103E1000FFB5154F4C00640D03D0BC4204D10C0318
:103E200014D80020090D09055C00640D03D0BC42C4
:103E300004D11C030AD800221B0D1B0501264B4090
:103E400009D44B4003D58B4200D18242FFBD994239
:103E5000FCD19042FFBD0B43DB1803431343F5D065
:103E6000C9434918FFBD0000FF07000000B5FFF778
:103E7000CFFF804100BDC04600B5FFF7C1FF01D9AB
:103E8000002000BD012000BD00B5FFF7B9FF804153
:103E900000BD012040054A00121804D85A0012182B
:103EA00001D80020704701207047002070470000B3
:103EB0000021002805D17047C1174840401AFAD0A8
:103EC000C90713B5064B1B6898470CBC441CA2409D
:103ED0001005120B0349091B09051943114310BDB5
:103EE000700C00201F04000010B54C00620D8023F0
:103EF000D218DB00D21A5B057E2A10DD9E3A13DA57
:103F0000CC170903490819435242D14064000134D7
:103F10001532202A05DAD0400843604310BD002046
:103F200010BD0846604310BDC80FC018013810BD51
:103F300018B4044B5B6AFC46019308BD24DF4D4472
:103F400000100000940C0020132370B51C78012C85
:103F500015D010DD0F48FFF781FC0F4D01008022C6
:103F6000280000F043FB022C06D00C48FFF76EFC43
:103F70000B4B186070BD084D0A4AAA64F5E7064D60
:103F8000084A29002B00803104C38B42FCD1AA646B
:103F9000EBE7C04653440000940C00204C33000073
:103FA000700C0020A93F001007B5604601880A0A7E
:103FB0000230DF2AFAD1C9B2820804D302884088CD
:103FC0000004104300E00068014A5050039007BD10
:103FD000940C00200FB403BC0CBCF0B50124E40722
:103FE000634000E0F0B50C0DCF0F661E3605891B4F
:103FF000640503D3C943404200D30131640D03D0AB
:10400000661CF60A07D0E41B00207F00791C890794
:104010008912803C24031D0DDF0F6E1E36059B1B8D
:104020006D0503D3DB43524200D301336D0D03D042
:104030006E1CF60A07D0ED1B00227F007B1C9B073D
:104040009B12803D2D032F1B661B58D4A446202EA7
:1040500046DA20371400BC401D00BD40F240334119
:104060002A4380185941CB0F05D0C943C0430022D1
:1040700064425041514162464D0D28D10D0D07D18A
:1040800000281FD0241940414941013A0D0DF9D0B3
:10409000640006D3013000D30131002C01D1400867
:1040A0004000013A0BD4941CE40A04D112051144D7
:1040B000DB071944F0BDD907204B194300E0D907AD
:1040C0000020F0BD0029DDD1002CDBD1F0BD013294
:1040D000C6074008CD0728434908002EE1D0D9E79C
:1040E0003C2E29DA203E40371400BC4000D0012489
:1040F000F24014431A00BB401C43D317ACE7AC4654
:10410000202F08DA20360400B4400D00B540F840F6
:1041100039412843A5E73C2F0CDA203F4036040004
:10412000B44000D00124F84004430800B1400C43DF
:10413000C117EAE710001900002494E70000F07F9F
:10414000F0B50C0D661E3605891BE60A6405640D84
:1041500002D0651CED0A04D0002001210905803C35
:104160002403A4461C0D671E3F05DB1BE70A6405FC
:10417000640D02D0651CED0A04D0002201231B054A
:10418000803C24037740644497B484B296B274436D
:10419000070C7E43150C6F4380B26843361802D378
:1041A000012000043F183004350C00197D4184467D
:1041B00088B29AB250430C0C62431F0C7C438EB2FF
:1041C0007E43921902D301263604A4191604170C53
:1041D0003618674101BC81B29AB25143040C624364
:1041E0001B0C5C4380B25843121802D30120000418
:1041F00024181004130C401863412D185E41002050
:10420000474106BC88B293B258430C0C6343120C6E
:10421000544389B251435B1802D301210904641845
:1042200019041A0C091862416D18564100204741C3
:1042300018BCF902720D1143F0026A0D1043ED0231
:104240000A0D03D16D1940414941013B124E9B1BA0
:104250007600B3420ED26D0007D3013000267141C3
:104260006646354301D1400840001B05C918E407E4
:104270002144F0BD0BDA013306D1013004D1013104
:104280004F0D01D04908F2E7E1070020F0BD0136EB
:1042900031050020EBE70000FF030000F0B51C0D26
:1042A000671E3F05DB1BE70A6405640D02D0661C30
:1042B000F60A04D0002201231B05803C2403D025EC
:1042C0002D060026F6432E661E096E66CE0FF619E1
:1042D000B44649004F0D02D07E1CF60A03D00020E0
:1042E0000021403F3F033E1BB600B444013F7F0521
:1042F000C91B49082E6F013676089C02950D25438F
:104300007543ED137543AD1301356D10F603761B40
:104310000CB4CC02450D2C43A2B2B3B25A43270CC5
:104320007B43350C6F43A4B26C431B1902D30124A9
:1043300024043F191C041D0CA4187D4124196D414F
:10434000009A91B2ACB26143170C7C432B0C5F43D3
:1043500092B25A43A41802D301221204BF182204B5
:10436000230C52187B41019C6C431B19520ED9013E
:104370000A434401A01A81B2B2B2514303145A4312
:10438000360C734387B27743D617D21900277E4184
:1043900036049B191704160C7F185E417316ED182E
:1043A000F301002680337541A90F06D16400690A24
:1043B000E8055B0A184309D22FE0042294448033B5
:1043C0007541A90AA8059B0A184326D340414941D3
:1043D0002404009A019B0D005543641B4343E41AD7
:1043E00095B286B27543170C7E43030C5F4392B2BD
:1043F0005A43B61802D301221204BF183204330CF8
:1044000052197B4152429C41002C02D400220130BF
:1044100051414008CA071043490802B06246D70715
:104420009210084BD218084B9A4203D212058918F1
:10443000C919F0BD0020002A01DC3900F0BD0133AC
:104440001905F5E7FD030000FE070000002200B596
:10445000203200F004F8080000BD000000220B1517
:104460000AD410B5944600F031F81414013400DA7F
:104470000021CB17144C20470020002170476244D4
:10448000343A0CD40C2A07DA04009140904052428E
:104490002032D440214310BDD843D94310BD20322F
:1044A00007D40C469440524220321141D040204360
:1044B00010BD0800C917203203D4524220321041E7
:1044C00010BD1800190010BD7F4400100A0DCC0F5C
:1044D000531E1B05C91A520503D3C943404200D3DA
:1044E0000131520D03D0531CDB0A07D0121B0020F0
:1044F0006400611C89078912803A1203014BD21AA9
:1045000070470000FF03000051434343C9188C4625
:10451000110C83B24B4310B4040C614392B280B2CD
:10452000504362431C041B0C001910BC5941130476
:10453000120CC0185141614470470000132310B59C
:104540001C781348FFF78AF9012C0BD004DD010019
:104550008022104800F04AF80F48FFF777F90F4B18
:10456000186010BD0B4C01005422200000F03EF8F2
:104570000B4B6365A365E36523666366A366E36629
:1045800023676367A367E3672362E361E4E7C046E9
:1045900053460000940D00204C330000700C0020A6
:1045A000A545001007B5604601880A0A0230DF2AD7
:1045B000FAD1C9B2820804D30288408800041043AB
:1045C00000E00068014A5050039007BD940D0020A0
:1045D00001480421014B1847000200206D380010EB
:1045E000014B1B681847000000020020014B5B686C
:1045F0001847000000020020F8B54746CE4680B5B7
:10460000437C80460E001700002B48D0002A2EDD88
:10461000274B012500240020994604E02B0001349B
:1046200001359F4219DD002C3ED0631EF35C0D3B2B
:1046300059425941CBB2325D0A2AEFD1002BEDD15C
:10464000844226DC434648461B68022198470134D1
:1046500028002B0001359F42E5DCB8420BDBF61940
:10466000013E33780D3B59425941434619740CBC05
:1046700090469946F8BD4346391A3018F6191B681A
:10468000013E984733780D3B5942594143461974CE
:10469000EDE74346211A1B6830189847D2E70368B4
:1046A000110030009847E2E743461B7CC3E7C04651
:1046B00014610010F0B5C6460B6800B506000D0089
:1046C0005A1C802B05D02A60ED182E7104BC904630
:1046D000F0BD0F4B1C68002C16D00B1D0D4F9846DB
:1046E00002E0E468002C0FD02368002BF9D03B686F
:1046F000002B01D0A342F4D120002A684146FFF7E5
:104700007BFFE468002CEFD101220023DBE7C046E9
:10471000500C0020540C0020F0B5CE46474680B522
:1047200083B06B46DE1CD02330701B061C681D4B0B
:10473000804601A91800994601F022FB071E06D108
:10474000019B64B29C4224D0484601F021FB164BE9
:1047500001271C68002C21D0144D02E0E468002CD5
:104760000FD02368002BF9D02B68002B01D0A34277
:10477000F4D1200001223100FFF73EFFE468002C55
:10478000EFD1002F0AD1404603B00CBC90469946A9
:10479000F0BD054B1C68002CDED1F4E7484601F063
:1047A000D7FAF0E7680A0020500C0020540C0020D3
:1047B000F0B5DE4657464E464546E0B583B00600A6
:1047C00000F0B8FCD0231B061C682D4B070001A984
:1047D00018009B4601F0D4FA8046002808D1019BBE
:1047E00064B29C4204D0584601F0D2FA01239846A4
:1047F000B9467B1C3ED0234B1C689A46002C32D015
:10480000214D02E0E468002C17D02368002BF9D07A
:104810002B68002B01D09C42F4D120004A46310085
:10482000FFF7EAFE6B460A2220001A7101A9012255
:10483000FFF7E2FEE468002CE7D14346002B15D1D8
:1048400053461C68002C06D06368002B00D09847A4
:10485000E468002CF8D1380003B03CBC904699467F
:10486000A246AB46F0BD4346002BF4D0584601F0BB
:104870006FFAE5E7300000F05DFC8146BBE7C0461B
:10488000680A0020500C0020540C0020F0B5464669
:10489000DE465746C0B5904682B00E0000282CD1A7
:1048A0001A4B1B4D1A685B681A4F9A461A4B0192B5
:1048B0009B465B461C68002C05D115E0A34205D041
:1048C000E468002C10D02B68002BF7D1A368002BD4
:1048D000F6D04146300098470028F1DD02B01CBCFC
:1048E00090469A46A346F0BD7B6A9A4508D8BA6AB4
:1048F00001998A4201D29A4502D001204042EDE757
:1049000001200021FCF72EFCD3E7C046185E001002
:10491000540C002000400540500C0020F0B54646E5
:10492000D6464F46C0B5013882B0884616000128E9
:1049300040D8D0231B061C68204B01A918009A46BA
:1049400001F01EFA071E07D1019B64B29C4203D0FE
:10495000504601F01DFA0137B146731C25D0184BA3
:104960001C68002C14D0174D02E0E468002C0FD016
:104970002368002BF9D02B68002B01D09C42F4D186
:1049800020004A464146FFF737FEE468002CEFD18D
:10499000002F06D1300002B01CBC90469946A246BA
:1049A000F0BD504601F0D4F9F4E7404600F0C2FBF8
:1049B0008146D4E701267642ECE7C046680A00202B
:1049C000500C0020540C00200A4A1368002B05D11B
:1049D0000CE01A00DB680C32002B07D09842F8D1AB
:1049E000002902D1C3681360C16070470029FCD060
:1049F0001060FAE7500C0020F0B54746CE46D023B1
:104A000080B52D4EA5B01B0607008846300003A9CF
:104A10001C6801F0B5F9051E07D1039B64B29C42E6
:104A200003D0300001F0B4F901358422002103A83D
:104A3000FFF7D6FD43463A0003A92048FEF78EFE55
:104A4000039B8046002B15D11D4B1C68002C06D003
:104A50006368002B00D09847E468002CF8D1002D43
:104A600002D0300001F074F9404625B00CBC9046ED
:104A70009946F0BD124B1C689946002C18D0114F76
:104A800002E0E468002C11D02368002BF9D03B68C9
:104A9000002B01D0A342F4D1039B20001A0004A9EB
:104AA0000193FFF7A9FDE468002CEDD14B461C688B
:104AB00000230393CAE7C046680A0020B5460010E9
:104AC000500C0020540C00200FB400B583B004A992
:104AD00001C90191FFF790FF03B008BC04B018476B
:104AE000F0B5002915DD0E4B0D271A680D4B411846
:104AF000D3185C4263410C4C5B001E5F2024057898
:104B0000B54207D093691C42FCD101301560884240
:104B1000F5D1F0BD93691C42FCD11760F2E7C046A5
:104B2000880C00200080FCBF900C002030B50029CC
:104B300014DD0C4B1A689369DB060FD405001024B2
:104B40000020013093691C42FCD113682B70814214
:104B500003D0936901351C42F3D030BD032040429D
:104B6000FBE7C046880C0020E12110B50B4B0C4838
:104B70001B780C4B49021B780B4B1860FCF7D8FED6
:104B800002210020FBF792FD02210120FBF78EFDA0
:104B900001210648FFF718FF10BDC0467C610010D8
:104BA0000040034080610010880C002010020020AB
:104BB000F0B557464546DE464E46E0B50D000B358E
:104BC00083B00700162D00D89FE007239D4300D532
:104BD000C4E0A94200D9C1E000F096FAF823FF33FF
:104BE0009D4200D889E2680A00D1BBE0042800D9C0
:104BF00064E138239846A80980443930C100C94E81
:104C000071180839CC68A14219D0032362689A430D
:104C10001300521B0F2A00DDAAE0002A00DB88E007
:104C200003239C4608E06246636893435A1B0F2A9D
:104C300000DD9DE0002A7CDAE468A142F3D1320075
:104C400034690832944200D18BE1032361689943AF
:104C50008946491B0F2900DD70E17261326100292C
:104C600000DB87E0B04A4B46914500D932E1DB08D2
:104C7000FF3A9910FF3A8A40DB0071689B190A439A
:104C800099687260E360A1609C601300CC600121B0
:104C90008210914099426FD80B4205D10322904374
:104CA000490004300B42FBD003239846C3009946C9
:104CB000B144CC4682466346DC68A44507D152E144
:104CC000002A00DB61E1E468A44500D14BE14246E3
:104CD000636893435A1B0F2AF2DD01208046611955
:104CE00005436560A068E5680836C560A860404671
:104CF000F160B16010434860CE608E603800E250D1
:104D000000F004FA2000083021E0102926D83800ED
:104D100000F0FAF9102518230220824EF3181A0029
:104D20005C68083A944200D129E1032362689A43FF
:104D30001300E268A168CA6091600122E318596813
:104D400038000A435A6000F0E1F92000083003B04F
:104D50003CBC90469946A246AB46F0BD0C230020D1
:104D60003B60F4E780213F2340208900984646E7D6
:104D7000404664E74B46E0E70323B46862689A4321
:104D80009046AA4203D3531B0F2B00DD88E023007B
:104D90004344664A0193664B93469A4692681B6861
:104DA000EB18013200D161E1624A944663441B0B67
:104DB0001B0300930099380000F0AAF90300814614
:104DC000013362D0019B834200D9F9E053465B680E
:104DD000009A9C46534662445A60019B11008342EC
:104DE00000D14FE15B469B68013300D166E14B4641
:104DF000019A9B1A59185346596007234A46134093
:104E000000D11EE1082189464B49D21A9144CB1AA0
:104E1000009A38004A441105090D5B1A19009B4697
:104E200000F076F9431C00D13CE14B46C01A012347
:104E30005844184353465B685B4419005346596015
:104E40004B46B3605860B44213D043460F2B00D892
:104E5000E2E04346072260680C3B9343063A024077
:104E600005201A436260E218506090600F2B00D951
:104E70001CE15346DB6A994201D95346D962534635
:104E80001B6B994201D9534619630323B4686268C6
:104E90009A43531B954200D9C1E00F2B00DCBEE0C2
:104EA0000122290013431143651961603800B56080
:104EB0006B6000F02BF92000083048E7142873D904
:104EC000542800D9B2E06E239846280B80446F30F6
:104ED000C10094E65A0A042A6CD9142A00D9C8E001
:104EE00011005C325B31D20008235B429C46B21851
:104EF000944463469A6803239846944500D1A3E0FE
:104F0000434651689943894500D38DE092689445A2
:104F1000F6D16346DA6873686146E260A160946026
:104F2000CC60B4E658060020FF010000580A0020BB
:104F3000A40B00200F1000000810000001236019CE
:104F40001D43656070613061C26082601A004B462B
:104F50000A4342603800E15000F0D8F820000830E1
:104F6000F5E6736893E608239B46073BDC449B46C3
:104F7000DA4443465246134200D09CE636E0DC68F1
:104F80000230A34200D15AE6CFE60122E318596865
:104F900038000A435A60E368A268D3609A6000F060
:104FA000B5F820000830D2E65B23984680445C3098
:104FB000C10024E69A09110039323831D20093E752
:104FC000B44200D061E753465B68009A9C46534662
:104FD000624411005A6005E708235B429C46E144A5
:104FE0004B469B680138994500D084E04346034214
:104FF000F2D173688B4373604900994200D9BBE6D4
:10500000002900D1B8E650460B4200D04EE64900D8
:1050100004300B42FBD049E601234A465360380076
:1050200000F074F8002092E6944672E7AA235B0031
:10503000984211D8DD3B9846E80B80447830C10097
:10504000DDE580235B01E3E68910023B8B4072685B
:105050001343736062465FE72A4B98421CD87C2357
:105060009846A80C80447D30C100C8E510330093F9
:10507000A0E6542A26D84B461A0B11006F326E3127
:10508000D20031E71B0500D0ACE60120009BB268DE
:10509000434403435360ECE6FE217E237F208900D6
:1050A0009846ACE5002301209B46C3E6210038006A
:1050B000083100F07DFB53465968DAE65B464A4604
:1050C0009A609AE6AA2149008A4206D84B46DA0B32
:1050D000110078327731D20006E70A498A4206D8B1
:1050E0004B469A0C11007D327C31D200FCE6FE2248
:1050F0007E219200F8E673687EE72B00E80808330B
:105100000BE6C046540500007047C0467047C046D5
:10511000002370B5064C050008002360FCF7F4FC82
:10512000431C00D070BD2368002BFBD02B60F9E737
:10513000940E002010B5830725D00378002B24D0CF
:105140000300032102E01A78002A1AD001330B422F
:10515000F9D119680E4A0F4C8A188A43224206D1A7
:10516000043319680A4A8A188A432242F8D01A007E
:105170001B78002B03D0013211780029FBD1101AC3
:1051800010BD181AFCE70300E3E70020F8E7C0466B
:10519000FFFEFEFE80808080F8B506000D00140042
:1051A000002802D0836B002B4ED0A369A3600C2390
:1051B000E05E81B20B073CD52369002B39D0FF227A
:1051C000EFB2154080229201114215D02268616928
:1051D000D31A8B421BDA0133A1680139A160511C3B
:1051E0002160177062699A421AD0A389DB0701D542
:1051F0000A2D15D02800F8BD0243616EA281144A21
:105200000A40626661692268D31A8B42E3DB21009F
:10521000300000F03DF9002808D122680123DBE7C7
:105220002100300000F034F90028E3D001256D4260
:10523000E0E72100300000F019F80028F6D10C2337
:10524000E05E236981B2BAE700F03AFAADE7C04602
:10525000FFDFFFFF10B5044B0A001B6801001800B8
:10526000FFF79AFF10BDC04628020020334B70B5EF
:10527000050018680C00002802D0836B002B3CD07E
:105280000C23E25E93B219070DD52169002915D0D0
:10529000DA0721D50023A360636900205B42A36184
:1052A000002921D070BDD9063FD55B0728D42169DC
:1052B00008231343A3819BB20029E9D1A0228020B7
:1052C000920080001A408242E2D02100280000F0C3
:1052D000C5FBA3892169DBE700229B0700D4626933
:1052E000A26000200029DDD10C22A35E1A06D9D5C8
:1052F00040221343A3810138D4E700F0E1F9BFE76E
:10530000216B00290AD023004033994204D02800A1
:1053100000F04EFA0C23E25E0023236324239A4319
:105320000023216963602160C2E709232B604023C9
:1053300001201A43A2814042B4E7C046280200205F
:10534000F0B5C64600B50C23CA5E804693B20C0089
:10535000190740D480231B0113436268A381002AEC
:1053600000DC70E0A66A002E31D042464146156846
:1053700000229BB20A60DA0400D469E0226D5B0768
:1053800006D56368D21A236B002B01D0E36BD21AC7
:105390000023E1694046B047431C3DD0A3893A4A07
:1053A00013400022626022691BB2A3812260DB04E9
:1053B00047D44346216B1D60002908D023004033A9
:1053C000994202D0404600F0F3F900232363002005
:1053D00004BC9046F0BD2669002EF8D022682660F5
:1053E000951B00229B0700D16269A260002D04DC9E
:1053F000EDE736182D1A002DE9DD2B003200E169AA
:105400004046676AB8470028F3DC40220120A389A0
:1054100040421343A381DBE7434619681D29F4D8B2
:105420001A4B0122CB409A43EFD1A389164E6260FA
:10543000334022691BB2A3812260DB04B9D5002965
:10544000B7D12065B5E7E26B002A00DD8AE7BEE749
:1054500000220123E1694046B0470200431C02D00C
:10546000A389A66A8BE743461B68002BF8D01D2B47
:1054700001D0162B03D1434600201D60A8E7402130
:10548000A3890B43A381A3E7FFF7FFFF010040209F
:1054900070B504000D00002802D0836B002B09D0EA
:1054A0000C22AB5E0020002B03D029002000FFF768
:1054B00047FF70BD00F004F9F2E7C04610B5011EC9
:1054C00004D0054B1868FFF7E3FF10BD034B0449F8
:1054D000186800F06DFAF8E7280200205861001003
:1054E000915400100020704710B5024900F060FA96
:1054F00010BDC046D15B0010F8B5DE4657464E469B
:105500004546344BE0B5C363B823002403229B0017
:10551000C45004334568C2500833C218043BC2501B
:105520000600042328002C606C60AC60AB816C66C4
:10553000EC812C616C61AC61082200215C30FFF7CA
:105540004FF8254B254F9A462B62254BEF62994623
:105550006B62244BED61AB62B56898460923280065
:10556000AB81083B2C606C60AC606C66EB812C619D
:105570006C61AC61082200215C309B46FFF730F87B
:1055800053462B624B466B624346EF62AB62ED6162
:10559000F56812232800AB81103BEB812C606C6016
:1055A000AC606C662C616C61AC61082200215C30DF
:1055B000FFF716F853462B624B466B624346AB62CD
:1055C0005B46EF62ED61B3633CBC90469946A246F0
:1055D000AB46F8BDE9540010E55A0010795B0010A5
:1055E000115B00104D5B00100020704770B56824FF
:1055F0004A1E54430E0021007431FFF7D9FA051EEC
:1056000009D000232200036046600C30A860683295
:105610000021FEF7E5FF280070BDC046214B70B5A4
:105620001D680600AB6B002B2DD0B8239B009C4659
:1056300065446B68AC68013B03D51FE06834013BEF
:105640001CD30C21625E002AF8D101230025200022
:105650005B42E3810233A38165662560A5606560D6
:1056600025616561A561082200215C30FEF7B8FF65
:10567000256365636564A564200070BD2868002803
:1056800005D00500D5E72800FFF736FFCDE7042158
:105690003000FFF7ABFF28600028F2D10C23002474
:1056A0003360E9E75861001010B5034B03491868EF
:1056B00000F07EF910BDC04658610010D15B0010AB
:1056C000836B10B5002B01D1FFF716FF10BDC0464C
:1056D0007047C0467047C0467047C0467047C046D6
:1056E00010B5034B0349186800F040F910BDC046DF
:1056F00028020020E955001010B5034B0349186833
:1057000000F034F910BDC04628020020E554001016
:10571000F8B50C000600FFF7F7FC204FBB685D688A
:1057200003239D431E4B2C1B9C466444240B1D4BA2
:10573000013C24039C4207DD00213000FFF7E8FC18
:10574000BB685B19984204D03000FFF7DFFC0020F3
:10575000F8BD61423000FFF7DBFC431C0DD0012295
:10576000BB682D1B15435D600F4B30001A68141B7E
:105770001C60FFF7CBFC0120EAE700213000FFF7B7
:10578000C7FCBA68831A0F2BDEDD08490968401A86
:105790000549086001210B435360D5E758060020F6
:1057A000EF0F0000FF0F0000A80B0020600A002090
:1057B000F8B504000D1E3CD0FFF7A6FC29000839FF
:1057C00048680123050003269D434A199C46614F02
:1057D0005368B343BE68B24256D066465360064231
:1057E0000AD13E0008680836091A2D188868B042A8
:1057F00065D0CE68C660B0600120D61876680642D3
:1058000033D0554B284348604D519D4212D8ED0886
:10581000FF3BAA10FF3B93407A68ED0013437B6087
:10582000EF19BB68CF608B60B960D9602000FFF7CB
:105830006DFCF8BD680A042850D8A8090200393068
:105840003832C000381808388368032698424CD094
:105850005A68B243954230D29B689842F8D1C368E7
:10586000CB6088609960C160E0E7ED183B4E9368BB
:10587000B34242D0D2682843DA609360364B486026
:105880004D519D42D6D8C2E76246EB18024206D17E
:105890000A68891A88689B18CA68C26090600122E9
:1058A0001A434A602E4AB96012689342BED32D4B08
:1058B00020001968FFF72CFFB8E71800CFE766460D
:1058C000D018406830423FD190685D19D368C360FA
:1058D000986063462B434B604D51A7E7142814D8BA
:1058E00002005C305B32C000ACE7012392109340B1
:1058F0007A6813437B600300B2E72843D96099605C
:10590000CB608B6048604D5190E7542805D8280B38
:1059100002006F306E32C00094E7AA22520090421B
:1059200005D8E80B020078307732C0008AE70E4ACB
:10593000904205D8A80C02007D307C32C00081E77F
:10594000FE207E2280007DE763462B434B6015607E
:105950006CE7C04658060020FF01000060060020EA
:10596000640A0020A40B002054050000B823F0B501
:10597000C6469B00C71800B588460026002F13D0E6
:105980007B68BC685D1E0CD4A389012B06D90E224E
:10599000A35E013302D02000C04706436834013DB6
:1059A000F2D23F68002FEBD1300004BC9046F0BD2E
:1059B000F8B54746CE4680B5B8278046BF00474475
:1059C00089460026002F14D07B68BC685D1E0DD46C
:1059D000A389012B07D90E22A35E013303D0210036
:1059E0004046C84706436834013DF1D23F68002F66
:1059F000EAD130000CBC90469946F8BD70B50C0059
:105A00001E000E23C95E90B01500002915DB01AA07
:105A100000F02EF9002810DBF022029B1202134046
:105A20000D4A8020944663445A4253413360802398
:105A3000DB002B60000110B070BD00233360A38930
:105A40001B0603D5402300202B60F4E78023DB00F6
:105A50002B600020EFE7C04600E0FFFF70B58B89A8
:105A600082B005000C009B0707D523004333236059
:105A700023610123636102B070BD01AB6A46FFF789
:105A8000BDFF009906002800FFF792F800281CD0FF
:105A90008022134BEB63A38920601343009A1BB24F
:105AA0006261019AA3812061002A02D13343A3815C
:105AB000E1E70E23E15E280000F0EEF800280CD0AC
:105AC0000122A38913431BB2F0E70C22A35E9A05BF
:105AD000D1D402221343A381C7E70C22A35EE5E7DA
