:020000041000EA
:1000000000B5324B212058609868022188439860DF
:10001000D860186158612E4B002199600221596106
:100020000121F02299502B49196001219960352056
:1000300000F044F80222904214D00621196600F024
:1000400034F8196E01211966002018661A6600F04E
:100050002CF8196E196E196E052000F02FF8012189
:100060000842F9D1002199601B49196000215960AB
:100070001A491B48016001219960EB211966A021F2
:10008000196600F012F800219960164914480160C1
:100090000121996001BC002800D000471248134993
:1000A000086003C880F30888084703B5996A0420EC
:1000B0000142FBD001200142F8D103BD02B5186610
:1000C0001866FFF7F2FF186E186E02BD00000240BE
:1000D000000000180000070000035F00212200005C
:1000E000F4000018222000A00001001008ED00E03C
:1000F00000000000000000000000000074B24E7A12
:1001000000200420F7010010C3010010C5010010F9
:10011000C1010010C1010010C1010010C101001097
:10012000C1010010C1010010C1010010C701001081
:10013000C1010010C1010010C9010010CB01001065
:10014000CD010010CD010010CD010010CD01001037
:10015000CD010010CD010010CD010010CD01001027
:10016000CD010010CD010010CD010010CD01001017
:10017000CD010010CD010010CD010010CD01001007
:10018000CD010010CD010010CD010010CD010010F7
:10019000CD010010CD010010CD010010CD010010E7
:1001A000CD010010CD010010CD010010CD010010D7
:1001B000CD010010CD010010CD010010CD010010C7
:1001C00000BE00BE00BE00BE00BE00BE00F04BF888
:1001D000103800BEF2EB8871BC8B0010E08B001071
:1001E0003402001090A31AE700202149086006C8D5
:1001F00081F3088810471F48006800282FD10DA4FC
:100200000ECC002902D000F012F8F9E71A491B4A77
:10021000002000E001C19142FCD1194988471949E9
:1002200088471949884700BEFDE701C901C29A42C3
:10023000FBD37047E08B0010C0000020E44000209A
:1002400004CC0010000004200000042004CC0010A6
:1002500000100420001004200000000070470B482C
:1002600001F0D8FF0047EFF30580C0B270470000EF
:1002700008ED00E0000000D0E8400020F844002035
:100280007D330010AD0B0010A53400105756000050
:1002900006005250ABB36053448B0010060052501E
:1002A000861C0302548B0010060052505422A29D5B
:1002B000648B001005005250DE65F46804CC001019
:1002C000F8B5C046054B0648033310B51B1A062B7C
:1002D00003D9044B002B00D0984710BDE440002008
:1002E000E4400020000000000648074910B5091A44
:1002F0008910CB0F5918491003D0044B002B00D0A4
:10030000984710BDE4400020E440002000000000B9
:1003100010B5074C2378002B09D1FFF7D3FF054B0D
:10032000002B02D0044800E000BF0123237010BD61
:10033000E84100200000000000840010094B10B5C7
:10034000002B03D00849094800E000BF08480368B3
:10035000002B02D1FFF7C8FF10BD064B002BF9D0D0
:100360009847F7E700000000EC41002000840010EF
:10037000E440002000000000F0B5C64600B59046FD
:1003800084B0104A061C0D1C01F06AF94400E40F09
:100390000020444512D0301C01F090FA434606007C
:1003A000281C0F000393029401F088FA3200009099
:1003B00001913B00044806F01FFE012004B004BC7C
:1003C0009046F0BDCD160010A4860010FE2130B579
:1003D000794C890585B02200081C01F041F94000E4
:1003E000C00F0CD10022754B0121029003910092A5
:1003F0000193734806F000FE012005B030BD2200D5
:100400007049714801F02CF94500ED0F0FD0002321
:1004100000220393013302936C4B694800920193CD
:10042000A0226B4B120606F0E7FD0120E5E7220053
:100430006849694801F014F943000DD501230022F1
:100440000293664B0395009201935D480022644B32
:1004500006F0D2FD0120D0E780212200090600200D
:1004600001F0FEF84000C00F0ED10123039380235A
:1004700000221B06009201930290002200235048A4
:1004800006F0BAFD0120B8E700212200081C01F0A7
:10049000E7F84000C00F02D100220023A4E780212A
:1004A00009062200081C01F0DBF84000C00F03D150
:1004B000802300221B0697E78020220000210006EF
:1004C00001F0CEF84300DB0F0ED10122029303921C
:1004D0000023002200920193802300221B0638484B
:1004E00006F08AFD012088E700223E490020FFF740
:1004F00043FF002800D07FE7802000223949000612
:10050000FFF73AFF021E00D076E700213548FFF7DB
:1005100033FF002800D06FE7802100220906314810
:10052000FFF72AFF021E00D066E7FE202E49800555
:10053000FFF722FF021E00D05EE7FE212A48890550
:10054000FFF71AFF021E00D056E72749081CFFF7E5
:1005500013FF021E00D04FE7FE21FF208905C005D2
:10056000FFF70AFF021E00D046E7FF210020C90561
:10057000FFF702FF021E00D03EE700211B48FFF7F5
:10058000FBFE021E00D037E718490020FFF7F4FEFB
:10059000002800D030E7FF21C9050122081CFFF721
:1005A000EBFE002800D027E710490122081CFFF7C6
:1005B000E3FE431E984120E7CD1600100000F03FF7
:1005C000A4860010A85B3F4425529A4475EB8740EF
:1005D000444A9340008029C40000F6C2003085C020
:1005E00000C05EC0000080BF0000C07F000080FF30
:1005F000F0B5C64600B584B0061C0D1C904601241B
:1006000001F094F8002800D10024E4B2444530D130
:10061000291C301C01F09AF8431E984100244045E3
:1006200004D0200004B004BC9046F0BD311C301C46
:1006300001F091F80028F4D1291C281C01F08BF856
:100640000028EED1301C01F039F942460123534015
:10065000DBB20600281C0F000393029201F02EF972
:100660003200009001913B000C4806F0C5FC0134BB
:10067000D7E7301C01F022F943460600281C0F0082
:100680000393029401F01AF93200009001913B00AB
:10069000034806F0B1FC0124C3E7C046F48700100C
:1006A000C8870010F0B5C64600B584B0061C0D1C06
:1006B0009046012401F034F8002800D10024E4B26F
:1006C000444530D1291C301C01F038F8431E9841B4
:1006D0000024404504D0200004B004BC9046F0BD86
:1006E000311C301C01F037F80028F4D1291C281CDB
:1006F00001F031F80028EED1301C01F0DFF842465D
:1007000001235340DBB20600281C0F000393029222
:1007100001F0D4F83200009001913B000C4806F043
:100720006BFC0134D7E7301C01F0C8F843460600E3
:10073000281C0F000393029401F0C0F832000090CF
:1007400001913B00034806F057FC0124C3E7C04673
:100750004C88001020880010F0B5DE4657464E4603
:100760004546E0B5454B87B091461A000C1C061C67
:100770009A4600F075FF424B05001A00311C201C00
:10078000984600F06DFF52460700311C201C00F017
:1007900067FF4246211C301C00F062FFBD422FD192
:1007A0004B46013341D04A4653425A4101239146B8
:1007B0009A466B00DB0FAD009B46ED0F994501D1CA
:1007C000AA4536D0301C01F079F8534605934B46C4
:1007D00004935B460600201C0F000293039501F072
:1007E0006DF83200009001913B00264806F004FCB1
:1007F000012007B03CBC90469946A246AB46F0BDEE
:10080000301C01F05BF80600201C0F0001F056F8C8
:1008100004960597029003910090019132003B00ED
:10082000194806F0E9FB0120E3E700239A469946C0
:10083000BFE77B00DB0F9B46BF00FB0F9846D94507
:1008400001D19A4517D0301C01F038F84B4604937B
:10085000434603935B460600201C0F000293059558
:1008600001F02CF83200009001913B00074806F09F
:10087000C3FB0120BDE70020BBE7C046CD1600103A
:10088000C116001020870010E48600107487001045
:10089000FE21F0B5524E890587B03200081C00F0E9
:1008A000DFFEFE214F4D890504002A00081C00F0E0
:1008B000D7FEFE21890507003200081C00F0D0FE9B
:1008C000FE2189052A00081C00F0CAFEBC4219D18D
:1008D0006500A400EB0FE10F012B01D100291DD110
:1008E00001220024404D059204920293039100944A
:1008F000019522002B003D4806F07EFB01252800D3
:1009000007B0F0BD0022384B39480492059302929B
:1009100003930092019306F06FFBEFE7ED0FE40FF6
:10092000012D01D1002C0CD1012100222E4B05916B
:10093000049103940295009201932E4806F05CFB0B
:10094000DCE701222C492D48FFF706FF0028D6D10D
:1009500001222A4952422848FFF7FEFE0028CED144
:10096000012227492748FFF7F7FE0028C7D10122B7
:10097000244952422248FFF7EFFE0028BFD101224E
:10098000214952421F48FFF7E7FE0028B7D1012254
:100990001C491D48FFF7E0FE0028B0D1802100224D
:1009A00009060020FFF7D8FE0028A8D1FE2001226A
:1009B00016498005FFF7D0FE0028A0D1FE210122B4
:1009C00089051248FFF7C8FE002898D10F49012277
:1009D000081CFFF7C1FE0500681E85418FE7C04671
:1009E000CD160010C11600100000F03F2087001047
:1009F000E486001074870010A85B3F4425529A4497
:100A0000008029C40000F6C2008029440000C07F95
:100A1000802110B5012209060020FFF7E9FD00281A
:100A200001D0012010BD8020012200210006FFF727
:100A3000DFFD021EF5D1FE2009498005FFF7D8FD34
:100A4000021EEED1FE2106488905FFF7D1FD021EE8
:100A5000E7D10349081CFFF7CBFD431E9841E1E7AE
:100A60000000C07F802110B5002209060020FFF79A
:100A700019FE002801D0012010BD80200022002195
:100A80000006FFF70FFE021EF5D1FE200949800582
:100A9000FFF708FE021EEED1FE2106488905FFF78A
:100AA00001FE021EE7D10349081CFFF7FBFD431EB0
:100AB0009841E1E70000C07F002110B5081C82B01A
:100AC00000F049FE002822D1FF213048C90500F07E
:100AD00042FE002826D100212D4800F03CFE0400F3
:100AE00001282AD12A49002000F035FE012838D1FA
:100AF0002749081C00F02FFE0400012828D12449B2
:100B0000244800F028FE012835D1002407E0002207
:100B1000002321480092019306F06EFA0124200080
:100B200002B010BD00221D4B1B4800920193002211
:100B30001B4B06F061FA0124F1E70022002316485E
:100B4000009201930022174B06F056FA0124E6E7C3
:100B50000022144B10480092019306F04DFA012434
:100B6000DDE700220F4B0C48009201930022002386
:100B700006F042FAD3E700220A4B0748009201939D
:100B80000022094B06F038FAC9E7C046000080FF92
:100B90000000C07F0000C0FF008400100000F07F54
:100BA0000000F0FF0000F87F0000F8FFF0B5DE461F
:100BB00057464E464546E0B593B001F05DFBF04B1D
:100BC000F0491A685B680868496804F0A3FD431E91
:100BD00098410124EC4B40420440210018009B4600
:100BE00006F00AFA03239A46E84B9846E84B9946E2
:100BF000404600F063FE032506000F00E34C41462B
:100C0000201C00F0A3FD431E98410290201C00F020
:100C100055FE3200009001913B00484606F0ECF989
:100C2000FE21201C890500F02DFD013D041C002D36
:100C3000E5D1FE214046890500F024FD01235B42F9
:100C40009C46E24453468046002BD1D103239A466A
:100C5000CE4B9846CF4B9946404600F02FFE0325D9
:100C600006000F00C94C211C404600F06FFD431EDA
:100C700098410290201C00F021FE3200009001916A
:100C80003B00484606F0B8F9FE21201C890500F01B
:100C9000F9FC013D041C002DE5D1FE2140468905EB
:100CA00000F0F0FC01235B429C46E2445346804640
:100CB000002BD1D1B84806F013F80925B34C201CFD
:100CC00000F07CFD0100584606F096F9FA21201C40
:100CD000890500F0D7FC013D041C002DEFD1AF4881
:100CE00005F0FEFF09260024AD4D2900200004F088
:100CF0004FFD0100584606F07FF920002900002230
:100D0000A84B04F095FC013E04000D00002EECD130
:100D10000024A54805F0E4FFA14DA44F09362000AA
:100D2000290004F071FD02000B00380006F064F9A0
:100D30002000290000229B4B04F07AFC013E0400B5
:100D40000D00002EEBD19A4BBE2445259846240673
:100D5000201C00F0B3FD0600201C0F0000F09AFDDF
:100D600006900791201C00F05BFD0490201C00F011
:100D700073FD02900391201C00F020FD32000090D2
:100D80003B00404606F038F9211C201C00F07AFC9C
:100D9000013D041C002DDBD1F8244535A405201CA1
:100DA00000F08CFD0600201C0F0000F073FD069083
:100DB0000791201C00F034FD0490201C00F04CFD35
:100DC00002900391201C00F0F9FC320000903B00DF
:100DD000404606F011F9211C201C00F053FC013D97
:100DE000041C002DDBD145260024724D2000290073
:100DF00004F02AFD069007912900200004F0ECFC85
:100E000029000490200004F0FFFC029003912900C7
:100E1000200004F0BDFC22002B000090404606F0AC
:100E2000EBF822002B002000290004F001FC013E19
:100E300004000D00002ED9D1FF2500244536AD0554
:100E40002000290004F000FD0690079129002000F1
:100E500004F0C2FC29000490200004F0D5FC0290AC
:100E600003912900200004F093FC22002B00009045
:100E7000404606F0C1F822002B002000290004F0B3
:100E8000D7FB013E04000D00002ED9D1802420257F
:100E9000494E2406200004F063FC0B0002002100F0
:100EA000300006F0A9F8E30F1C19013D6410002D75
:100EB000F0D180241F35E405200004F051FC013DF1
:100EC00002000B003000210006F096F86410002D9F
:100ED000F2D10022394B3A4806F08EF80022374B07
:100EE000384806F089F8384B384A364806F084F816
:100EF000002399469A469846FE239B059B4600236D
:100F000003274E460F93301C00F0D8FC02000B0064
:100F10002F4806F071F8301C00F0DAFC041C301C7D
:100F200007F0EEF9201C00F0C9FC02000B00294874
:100F300006F062F8301C07F04BFA584600F0BEFC91
:100F400002000B00244806F057F8301C07F0F0F9B7
:100F5000404600F0B3FC0B000200204806F04CF8BD
:100F600011AA10A9301C00F0E7FC109800F0A6FCB4
:100F7000040011980D0000F0A1FC220030E0C046F2
:100F8000C8370020C037002074880010000080BFE0
:100F90003C8400104C8400105C84001060840010BD
:100FA0000000F0BF0000D03F64840010688400108F
:100FB000708400100000C0BF888400100000E03F73
:100FC000A8840010908400105555D53F55555555AF
:100FD000A0840010AC840010BC840010CC840010ED
:100FE0002B0000900191724806F006F8301C07F0C3
:100FF000F7F9504600F062FC02000B006D4805F066
:10100000FBFF6D49301C00F0D5FC6B49041C301C03
:1010100007F09EF9201C00F051FC02000B0067480D
:1010200005F0EAFF311C644800F0C4FC311C041CCC
:10103000614807F08DF9201C00F040FC02000B0015
:101040005E4805F0D9FF301C00F0BEFC041C301CCB
:1010500007F08EF9201C00F031FC02000B0058480C
:1010600005F0CAFF301C00F0B5FC041C301C07F072
:1010700097F9201C00F022FC02000B00514805F0FB
:10108000BBFF311C301C00F013FE311C041C301C53
:1010900007F056F9201C00F011FC02000B004A4832
:1010A00005F0AAFF301C07F003F9484600F006FCE3
:1010B00002000B00454805F09FFF301C00F07EFB4E
:1010C00004000100301C00F08FFD2100051C301CC5
:1010D00007F076F9281C00F0F1FB02000B003C48F9
:1010E00005F08AFF3B49301C00F09CFE3949041C86
:1010F000301C07F0E5F8201C00F0E0FB0B000200BC
:10110000354805F079FF11AA10A9301C00F014FC35
:10111000109B9946119B48469A4600F0CFFB04006D
:1011200050460D0000F0CAFB2200009001912B00F8
:101130002A4805F061FF4146484600F0E9FA0028D8
:1011400005D05946504600F0E3FA002804D124485F
:1011500005F0C6FD01230F93FE21301C890500F028
:1011600091FA013F061C002F0FD000F0C1FB83460F
:10117000301C00F0CFFB8046301C00F0F5FB8246AF
:10118000301C00F04FFD8146BDE603239846002346
:1011900000260027134C0C960D970A930B94124BC4
:1011A00034009B46114B3D009A46114B994631E065
:1011B000DC840010F8840010000020410885001035
:1011C000188500102885001038850010488500100B
:1011D0005885001000004040688500107885001098
:1011E000908500100000F03FA0850010AC85001035
:1011F000DC85001004F062FB0A900B9120002900AE
:1012000004F072FB0C900D912000290004F082FB89
:1012100006000F0022002B00584605F0EDFE2000CE
:10122000290004F035FB0B000200964805F0E4FEAF
:101230000A9A0B9B504605F0DFFE0C9A0D9B9248D4
:1012400005F0DAFE32003B00904805F0D5FE0022A2
:101250008F4B2000290004F08BFB02000B00484656
:1012600005F0CAFE22002B000020894904F080FB13
:1012700002000B00484605F0BFFE2000290004F0E4
:1012800083FB02000B00834805F0B6FE2000290016
:1012900004F086FB02000B007F4805F0ADFE7F4B9B
:1012A00020002900002204F0C3F901235B429C4680
:1012B000E044434604000D00002B9BD1012420256F
:1012C000774E6442200000F057FA00F0F7FA02006F
:1012D0000B003000210005F08FFE200000F04CFADA
:1012E000013D200007F04CF86400002DEAD10124F4
:1012F0002035200000F040FA00F0E0FA02000B0078
:101300003000210005F078FE200000F035FA013DA4
:10131000200007F035F86400002DEAD140260124B2
:101320000025604F2900200000F088FA00F0C6FA7E
:1013300022002B0000900191380005F05DFE29008D
:10134000200000F07BFA013E2000290007F050F851
:1013500024196D41002EE5D101246442E517403681
:101360002900200000F06AFA00F0A8FA22002B0001
:1013700000900191380005F03FFE2900200000F0A8
:101380005DFA013E2000290007F032F824196D4172
:10139000002EE5D12025012400220023002142480F
:1013A00005F02AFE414E200000F0E1F900F086FA37
:1013B00002000B003000210005F01EFE200000F0AE
:1013C000D6F9013D200006F083FF6400002DEAD12C
:1013D000300001244026002500220023002105F0D2
:1013E0000BFE334F2900200000F028FA00F066FAC7
:1013F00022002B0000900191380005F0FDFD29002E
:10140000200000F01BFA013E2000290006F0F0FF4A
:1014100024196D41002EE5D10122264B52429846F7
:10142000254B40460092019388230022DB05C0260D
:1014300005F0E2FD4327F605FC21301C890500F08C
:1014400038F9013F061C002F38D0301C00F036FA66
:101450000400301C0D0000F0FFF922000090019103
:101460002B00404605F0C8FDBE21301CC90500F028
:1014700065F90028E0D1301C00F0EEF9301C06F0D0
:101480000FFFD9E790840010BC850010CC850010B8
:1014900000002440EC850010FC8500100000F03FA7
:1014A0000886001014860010208600102C8600107C
:1014B0003886001044860010FFFFFF7F42239846C5
:1014C000604E614F301C00F0F9F90400301C0D0033
:1014D00000F074F92B0022000090380005F08CFD1C
:1014E000301C00F06BF9301C06F052FFFC21301C60
:1014F000890500F0DEF801235B429C46E044434648
:10150000061C002BDED14233BF269846F605301C60
:1015100000F0D4F90400301C0D0000F04FF92B004E
:1015200022000090380005F067FD301C00F046F9FD
:10153000301C06F02DFFFC21301C890500F0B9F8A5
:1015400001235B429C46E0444346061C002BDED14F
:101550003E4BFE2605279846B605301C00F0AEF936
:1015600004000D003A48311C00F08FF800F0A6F995
:1015700008900991FE20311C800500F086F800F0EB
:101580009DF9069007913349301C00F078F800F07F
:1015900095F9049005912F49301C00F073F800F084
:1015A0008DF902900391311C301C00F082F800F09C
:1015B00085F922002B0000900191404605F01CFDAA
:1015C000311C301C00F075F8311C301C06F060FE38
:1015D000FE20311C800500F058F8FE20311C8005EB
:1015E00006F0BEFE8021301CC90500F04BF8013F1B
:1015F000061C002FB1D10F9B002B03D1FEF7E6FE96
:1016000000280BD0144805F06BFB0124200013B018
:101610003CBC90469946A246AB46F0BDFFF738F970
:101620000028EFD1FFF748FA0028EBD1FFF7F0F9D7
:101630000028E7D1FFF716FA041EE3D1074805F0AA
:101640004FFBE3E7000080DF548600106486001043
:10165000A379EB4C176CC13E948600109C86001059
:1016600000B59047EFF3008000BD10B5029CA04785
:10167000EFF3008010BDC0464840414048400E4B4B
:101680005B6818470C4B1B6818470C4A936F9B0804
:1016900002D2094BDB681847F0B5146E556E576FD0
:1016A000166FFFF7F6FF054A14665566576716670B
:1016B000F0BD014B9B681847F0420020000000D0AD
:1016C00007B548404140484001E0C04607B54200E8
:1016D000120E03D0FF2A03D1420218D8C00DC00554
:1016E0004A00120E03D0FF2A03D14A020FD8C90DB7
:1016F000C9050122414005D4414001D5814207BDC1
:10170000884207BD0143491801D0C043001807BDF6
:1017100000B5FFF7DBFF01D0002000BD012000BDB8
:1017200000B5FFF7D3FF804100BDC04600B5FFF70D
:10173000CDFF01D9002000BD012000BD00B5FFF79D
:10174000BFFF01D9002000BD012000BD00B5FFF79B
:10175000B7FF804100BD01231B064200D21804D808
:101760004A00D21801D80020704701207047491A5A
:10177000002807D108467047C10FC90700D540426D
:10178000002817D0F44603B40B4B1B68984706BCDF
:1017900081409E384042803107D20B0607D0490075
:1017A000490AC0051043084360470130F8E7490A79
:1017B0008902F5E770470000D042002041000A0E80
:1017C00080231B067E2A0BDD9E3A0BDAC1174002EE
:1017D000400818435242D040490001314843704705
:1017E00000207047C00FC01801387047C0420DD3A9
:1017F00000B540004008002100F012F8002801D494
:10180000404200BD8020000600BD0000034BDB69A4
:10181000FC4618471CDF252100100000F042002084
:10182000014B5B6A18470000F0420020014B1B6B24
:1018300018470000F0420020054A1047C2179142A5
:10184000FAD0044BDB6DFC4618475CDF6B200010C0
:1018500079170010F0420020C04211D300B54000BB
:101860004008002100F020F8002904D40022404262
:101870008A41114600BD80210906002000BD0000FC
:10188000034BDB6EFC4618476CDF3D210010000067
:10189000F0420020034B5B6FFC46184774DF472182
:1018A00000100000F0420020034B9B6FFC461847DD
:1018B00078DF492100100000F0420020034BDB6F6D
:1018C000FC4618477CDFE52100100000F0420020B4
:1018D000C11502D4054B9B691847C843FF2801D1A5
:1018E000C0077047C817C00570470000F0420020CD
:1018F0004100090E862902DA044BDB6B18470449C4
:1019000000B500F08DFB02BC8E46F5E7F0420020EA
:10191000DB0FC9404100090E862902DA044B1B6C1B
:101920001847044900B500F07BFB02BC8E46F5E782
:10193000F0420020DB0FC94006B543001B0E862B8A
:1019400006DA074B1B6C98470CBC1060196000BD91
:10195000044900B500F064FB02BC8E46F1E70000CC
:10196000F0420020DB0FC9404100090E862913DA3E
:101970000D4A936F9B0802D20C4B5B6C1847F0B575
:10198000146E556E576F166FFFF7F6FF064A146612
:10199000556657671667F0BD054900B500F040FB76
:1019A00002BC8E46E4E70000000000D0F0420020B8
:1019B000DB0FC940034B9B6DFC46184758DF9D2049
:1019C00000100000F0420020014BDB6C18470000C3
:1019D000F0420020014B1B6D18470000F042002030
:1019E000132310B51C78134800F01CFC012C0BD0FD
:1019F00004DD01008022104805F0DCF80F4800F0FB
:101A000009FC0F4B186010BD0B4C01005422200044
:101A100005F0D0F80B4B6365A365E3652366636649
:101A2000A366E36623676367A367E3672362E361F3
:101A3000E4E7C04653460000F04200204C3300006B
:101A4000D04200202D200010F8B5CE464746051C98
:101A500080B50C00012949D0CE0F76187610012EE2
:101A60003CD00327C9170F403F19BF10012F2DD0BD
:101A700007230B401B19DB109846012B1ED00F23A8
:101A80000B401B191B119946012B0ED01F23194027
:101A900009194911FFF7D8FF011CFFF70AFE4B4651
:101AA000DB0702D5291CFFF704FE011CFFF701FE2E
:101AB0004346DB0702D5291CFFF7FBFD011CFFF79E
:101AC000F8FDFB0702D5291CFFF7F3FD011CFFF70A
:101AD000F0FDF30702D5291CFFF7EBFD011CFFF712
:101AE000E8FDE30702D5291CFFF7E3FD0CBC904697
:101AF0009946F8BDF8B5061C0D1C041E17DA4B00FC
:101B00001B0E7F3B0ED41722D31A0BD401210A00DF
:101B10009A40013A2A4205D1172B3CD02A00DA40DC
:101B2000114238D180231B069C466444261C281C85
:101B3000FFF744FEE20D07000100002A12D1002F3A
:101B400034D03B002033402B38D8002F06DAFE205B
:101B5000311C8005FFF799FD7942061C301CFFF708
:101B600073FF22E0FF2AEAD06402E8D11D488742D1
:101B700003DB3800FF2F00DDFF207F3A50430300D6
:101B80007F33002B18DDFE2B13DCFE239B059C46C8
:101B9000C005604409E080231B06E018291CFFF7FC
:101BA000A9FF80231B069C466044F8BDFE208005EB
:101BB000FBE7FF20C005F8E70020F6E7301CFFF741
:101BC0007DFE03F0EDFE06000F00281CFFF776FEF9
:101BD00032003B0003F053FD03F0D6FE03F04CFE51
:101BE000E3E7C04600FFFFFF430002001B0E0BD0DF
:101BF000FF2B09D0CB18002B0ADDFE2B05DDC20F11
:101C0000FF20D207C00510437047C8058018FBE7C6
:101C1000C00FC007F8E7C0464000C90FC907400819
:101C20000843704743001B0E7F3B08D41722D21A8B
:101C3000002A03DD012393405B4218407047C00F28
:101C4000C007FBE7430001001B0E0CD07F3B10D404
:101C50001722D31A002B05DD163A9A40002805DB1F
:101C6000504208407047C00FC007FBE7511E0918DB
:101C7000F6E7002801DB0020F4E70148F2E7C04660
:101C8000000080BF10B5C30DFF2B09D0054A934259
:101C900004D0FE218905FFF78DFE10BD0248FCE748
:101CA0000248FAE7FF010000DB0FC9BFDB0FC93FA5
:101CB000F0B5C6460E1CFE2100B58905041CFFF7D1
:101CC00027FD002824D1F30DFF271D0098463D4035
:101CD0001ED05149201CFFF71BFD00281DD0FF2DF1
:101CE00016D04346FF2B3BD04C4B98452FD04A4A49
:101CF0007F3D4ED417235D1B002D04DD163BAB400A
:101D0000013B334245D1311C201CFFF7F3FE01E0BB
:101D1000FE20800504BC9046F0BDE30D22001F406C
:101D20004CD1002E1FDB7F3D11D417235D1B0ED439
:101D300001221300AB40013B334208D1172D02D0E2
:101D4000EE40324203D0201CE4E77E2F08DC002066
:101D5000E0E74346FF2BF8D08845C9D17E2FF6DC5B
:101D6000FF20C005D6E77F3DFAD417235D1BF7D4CB
:101D700001221300AB40013B3342F1D1172D02D0B9
:101D8000EE403242ECD0E00FFF24C007E4052043D0
:101D9000C0E7002AE4DB201CFFF790FD03F000FE03
:101DA00004000D00301CFFF789FD22002B0003F01A
:101DB00066FC03F0E9FD03F05FFDABE7FF2B03D109
:101DC000002ECDDA0020A5E714498B42C1D1002EA8
:101DD00010DB7F3DC4D417235D1BC1D4163BAB4041
:101DE000013B3342BCD1172D02D0EE40F307B7D5EB
:101DF0000B488FE77F3DAAD417235D1BA7D4163B62
:101E0000AB40013B3342A2D1172D02D0EE40F30785
:101E10009DD5802000067DE7000080BFFF01000007
:101E2000000080FFF8B5FF25CE464746C40DCA0D19
:101E30002C4080B51540FF2C0BD0002D09D0C20FCF
:101E40009046002C0BD10020002A04D080200006F0
:101E500001E0FF20C0050CBC90469946F8BDAC429D
:101E6000F9DB8026430236045B0A49023343490A00
:101E70001F000E43641B002C17DD0120F1114042AE
:101E800003F07EF91D21814622000C2C00DD0C227E
:101E900048467B124343881A0341974001335B1045
:101EA0007343A41AFF1A002CEEDCBE420EDD002F95
:101EB00002DABF1900D5BF194346002B00D07F427C
:101EC00096213800491BFFF7B1FCC4E7BF1BBE4297
:101ED000F2DCBF1BF0E7C046F8B54E465746DE467B
:101EE0004546E0B5FF268946C40DC90D3440031CA4
:101EF00017000E40002F01D000223A60FF2C5BD06B
:101F0000002E59D00020002C58D0FF2E6AD0721E0F
:101F1000181C944252DBD90F8C46494680205D0242
:101F2000490200046D0A490A054308438046944269
:101F30005FD06346002B57D06D42A41B0021002CBC
:101F400042DD43460120D911404203F019F91D2317
:101F5000844600219B4622000C2C00DD0C226046AA
:101F60006B12954043435846AA46801A03414546A2
:101F70005046914001335B105D435918451BA41A2C
:101F8000002CE8DCA8451FDC4346ED1AA84543DCDD
:101F900043460231ED1A6B0098451FDB1CD04B46BF
:101FA000002B00DA4942002F00D03960962128002A
:101FB000891BFFF73BFC01E0FF20C0053CBC9046BD
:101FC0009946A246AB46F8BD002DE4DA4346ED182B
:101FD00024D545440239DEE7CB07E0D5434601313D
:101FE000ED1ADCE7181CE9E7A41B002CA9DC002192
:101FF000C8E7181C4545E1DD6346002B05D1434683
:102000005B00ED1A26000121C9E7434601215B0070
:102010005D1B26004942C2E70131BCE70139BAE73E
:1020200010B50022FFF758FF10BDC04607B5604647
:1020300001880A0A0230DF2AFAD1C9B2820804D321
:10204000028840880004104300E00068014A5050B4
:10205000039007BDF0420020002230B5002906D5CC
:10206000CD0705434808013A10E0002230B50500CD
:102070000D430FD0CD170C16AC4205D1C901440E4B
:102080002143C0010732F6E70500080052423D3205
:102090000149884730BD0000EF29000030B51D4CD4
:1020A000A446E04704460846214614461A462346FD
:1020B000E04740014901D418641201340AD4D41A0B
:1020C00005DA644220411C2C0DD3C0170BE02141DE
:1020D0001C2C08D3002804DA0F4B1868C917484095
:1020E00014E0C81712E000220B4B002802DA40422D
:1020F00049421A680124094DA8471046064B1A6840
:10210000841802D2841A00D4A01A01380022044B89
:1021100018470000C1290000FC2C0000972B00008C
:10212000192B00000021C2158032803201D0024AF2
:102130001047002070470000CD2A0000002100B5A4
:1021400000F004F845E00021C31518D410B58C4602
:10215000C3174000020E0BD0FF2A0DD0511E7F3A4C
:102160000906401A5840C01A01110007054C2047C3
:1021700000200100030010BDD843D94310BD00204A
:1021800000217047892100106244343A0CD40C2A93
:1021900007DA04009140904052422032D44021435B
:1021A00010BDD843D94310BD203207D40C4694400B
:1021B000524220321141D040204310BD0800C917BF
:1021C000203203D452422032104110BD18001900B1
:1021D00010BDCA179A4200D100BDD8430121C907DA
:1021E000414000BDC30FDB0741000A0E07D0FF2AA4
:1021F00008D00909054A8918194340077047190092
:10220000002070470249C918FAE7000000000038B2
:102210000000F07F142310B50100188804331B88D8
:10222000984710BD162310B50100188802331B888B
:10223000984710BDF8B54746CE4680B50F1E19D059
:1022400014239946043304000025012698464B4682
:102250001888434621681B88984701C4431E98414B
:10226000013540420640AF42F1D130000CBC9046EF
:102270009946F8BD0126F8E710B504F00DFF10BD32
:10228000094A830094464022634410B51C68C0008C
:102290006240C02414408022520113431C60034B4F
:1022A0009C466044416010BD04C0014000400140B4
:1022B000F8B5EFF3108772B60D4E3368002BFCD0E3
:1022C000BFF35F8F0725CB08C01801230D40AB403B
:1022D0001D000478254007D123430370BFF35F8FAF
:1022E000356087F31088F8BD100001F0DDF8C046B6
:1022F0002C0100D0024B18688007C00F7047C04601
:1023000000C006400021044B044ABFF35F8F02C3A4
:102310009342FAD17047C046000100D0800100D03E
:10232000044A1078431CDBB2172B00D9102313701A
:102330007047C046D037002001238340002902D1D6
:10234000034A13607047034A1360034A1360F9E7B6
:1023500080E100E080E200E000E100E0024B1030AC
:102360009B688000C058704700ED00E070B50D001C
:10237000EFF3108672B60F4A1368002BFCD0BFF340
:102380005F8F0D4B10309B6884001B590B4A9342A2
:1023900003D09D4201D001F09FF8074B9B681D516F
:1023A000BFF35F8FBFF35F8F0022024B1A6086F38B
:1023B000108870BD240100D000ED00E0CD010010B8
:1023C000F0B5DE4657464E464546E0B50C0083B0B4
:1023D000EFF3108B72B65B4A1368002BFCD0BFF38F
:1023E0005F8F1022904680444246574B97009B686F
:1023F000DD59564B99469D4206D0A54200D177E063
:10240000534EAB1B2F2B12D94F4B9B68DD51BFF3A3
:102410005F8FBFF35F8F00224A4B1A608BF31088E7
:1024200003B03CBC90469946A246AB46F0BD0123A2
:1024300083409A465246474B1B681A4000925246C8
:10244000454B1A60BFF35F8FFDF70DFF0190002829
:1024500043D101232A009A4393689C424DD0062120
:102460005156002905DA31E0062159561A00002993
:102470002CDB4B005B189B00F31899688C42F3D15E
:102480000621595600293BDB4A00501880003418B9
:102490008046A0689860E079D8710620205698712F
:1024A000A0797F2826D8A488F01A6405241544440E
:1024B0000019E0240005400D2402204398805218A2
:1024C000264B9200B6181A781970B271009B002B37
:1024D00008D15246204B1A6096E78045B9D000F0EB
:1024E000FBFFB6E752461E4B1A601A4B1A608BE789
:1024F0001D0089E7BD200002E0E713000022BFE7CE
:10250000019900290FD1002A1AD0FF319171154984
:10251000918012490A789A71134A9B1B5B415A4376
:10252000120D0A70D2E7114A1149D21A083A500224
:10253000400D014399800F4952080A43DA80C5E7EC
:102540004D46E6E7240100D000ED00E0CD0100108B
:10255000D437002000E100E080E100E0ED420020FF
:1025600080E200E000BDFFFFAAAA00000E380020B4
:1025700000F0FFFF00F8FFFFF8B501250400054358
:10258000FDF771FEEFF3108672B6214A1368002B37
:10259000FCD0BFF35F8F1F4A1F4B2100891A4941AE
:1025A0004B431B0D1D4980008F685BB23F58BD42F5
:1025B00026D006215156994226D0122151569942D1
:1025C00024D01E215156994210D02A215156032061
:1025D00099420CD0124A11781370A171BFF35F8F2A
:1025E00000220B4B1A6086F31088F8BD02204100D0
:1025F000091889005218FF2191710A499180E9E771
:102600008A6809491150E5E70020F0E70120EEE76C
:10261000240100D0D4370020AAAA000000ED00E079
:10262000ED42002000BDFFFFCD010010084B094A1C
:102630001360094A1360094A1360094A1360094A82
:102640001360094A1360094A1360094A136070470E
:102650008080808000E400E004E400E008E400E022
:102660000CE400E010E400E014E400E018E400E012
:102670001CE400E0024B9C46614489000160704705
:102680004000003483680B4810B5844661446244BE
:10269000090112019A18591854684B6801209C428C
:1026A00001D802D00020C0B210BD12680B689A4257
:1026B000F9D8F7E7FFFFFF0FF8B54E464546DE466F
:1026C0005746E0B51F000CAB1D780DAB1B7881465B
:1026D0009B46036816009846002D08D1987B002879
:1026E00041D13CBC90469946A246AB46F8BD280075
:1026F0006C006419033C384B00229C464B469B6897
:1027000060449C4600010A9B604483600B9B06600A
:102710004760C36043461B681B199A705A701A7051
:1027200043465B7B9A46002B3BD043462A00986881
:1027300051465B68984743461A68002824D05346A0
:102740005B005344033BD31814195246A2701A7805
:10275000002A00D062701D705246434628005A730A
:10276000AA45BED11FE0414644001B682418033C23
:102770001B195A788A73002A00D1CA7300220500F7
:102780009A705A701A70B6E753465B005344033B85
:10279000D31814199D702278002A00D05A7053461D
:1027A000237043465D734B463200187D3B0000F0BA
:1027B0000DFA041E07D05B46002B04D14B462900BE
:1027C000186800F021FC0E9B002B02D01C70280022
:1027D00087E7280085E7C046FFFFFF0F744B8200A4
:1027E000F0B5D4580023DE4657464E4645469B4634
:1027F000E0B58DB00B9000F06DF96268EFF31085D5
:1028000072B61368002BFCD0BFF35F8F23689C4621
:102810005B7B9946002B00D181E0A268654B904616
:102820004B441B01984443461E685F6832003B00DE
:10283000121A8B41002B00DC84E03B0032000B9825
:1028400000F0C4F900230022089209930023002716
:102850009A466368BFF35F8F5A461A6085F3108803
:102860005346002B64D00A9B390018024B4618438C
:10287000D047626806900791EFF3108872B656460B
:1028800045461368002BFCD0B246A846BFF35F8FC5
:102890000699079A002A25DA2369002B28D0089D7B
:1028A000099E6D1A96412A003300089D099E9E429A
:1028B00000D971E000D173E05946049101210391E0
:1028C000494602915146019700912000FFF7F4FE1E
:1028D0005B4623616368BFF35F8F5A461A6088F3D3
:1028E000108888E71300194302D02369002B46D1D2
:1028F0002368DA7B002A07D051008A1819688C46B1
:1029000049466244033A51704A46DA73E2684B46DC
:102910009446013B63441A7801321A70D8E70023C9
:10292000002208920993002300279A46002090E78E
:10293000002800D05FE70DB03CBC90469946A24607
:10294000AB46F0BD002B02D1002A00D075E7002174
:10295000604600F0ADFA43461A685B680892099336
:1029600043469B689A464346DF68E3684B44013B15
:102970001B780A931B0218432061002069E700F0CE
:10298000A9F8069A079B12184B41994204D800D027
:1029900092E7904200D88FE701225242D3178BE78B
:1029A000954200D888E701225242D31784E7C046F7
:1029B000C0420020FFFFFF0F10B5124C6368002BD0
:1029C00004D00A211048FFF755FE10BD23000F4A1E
:1029D0001021206800F04EFA032000F06FF8032069
:1029E00000F062F90A49032000F0AAF8FFF798FC0A
:1029F000084B9C46032360442375074B80006060AE
:102A0000DC60DEE71C380020D44200208526001060
:102A1000DD27001040000034C0420020F8B5CE464B
:102A2000474680B5EFF305833F2213401800103866
:102A3000EFF3108C72B61B490A68002AFCD0BFF372
:102A40005F8F01210F008740174D184A6F6314787C
:102A500091462200C24090464646002231420BD0A9
:102A6000696A134D884681004D59A84512D3114B10
:102A7000BC43CA584B461C70BFF35F8F0021094B03
:102A800019608CF31088002A00D090470CBC904647
:102A90009946F8BD08499B00884643441968196067
:102AA000EAE7C046280100D000400540EE42002081
:102AB000D842002038420020D03F054010B5010028
:102AC000024A0348FFF7F4FB10BDC046808800109F
:102AD000EC420020044A516A00E01900906A536AEF
:102AE0009942FAD17047C04600400540134A30B5BC
:102AF000546A00E01C00956A536AA342FAD12A0086
:102B00002300801859418C4211D80ED00C000B4A7A
:102B1000536AA342FCD307D1084A02E0516A9942A2
:102B200002D1916A8142F9D330BD8542EED90124A8
:102B300001204042C1176442E9E7C0460040054019
:102B400070B504000D00EFF3108672B61A4A1368D0
:102B5000002BFCD0BFF35F8F002D1BD02000FFF7B0
:102B6000FDFB164988420AD02000FFF7FFFB012138
:102B70002000FFF7E1FB0123A340114A1360114B32
:102B8000A400E550BFF35F8F00220B4B1A6086F361
:102B9000108870BD0B4BA200D5500122A2400A49FB
:102BA00020000B7893430B700449FFF709FC0021C8
:102BB0002000FFF7C1FBE5E7280100D01D2A001027
:102BC0003860054038420020EE420020F0B5D6467D
:102BD0004F4646462F4CC0B5656A00E00D00A66A18
:102BE000616AA942FAD1AB4249D9EFF3108972B6B2
:102BF000294C21680029FCD0BFF35F8F01262749AB
:102C000086408C460978264D0F0037438846F9B236
:102C10008A46614654460C701E49041DA4004E634A
:102C20006250840063510D6A002435421AD04D6A07
:102C300000E025008F6A4C6AAC42FAD1AB4224D83E
:102C400001D1BA4221D8D04521D0124B154A1E627B
:102C50005E631F2318401E3B834013606346424659
:102C600001241A70BFF35F8F00220B4B1A6089F3A7
:102C7000108820001CBC90469946A246F0BDAB428D
:102C800001D1B242B1D80124F3E70024EAE70124DC
:102C9000E8E7C04600400540280100D0EE42002091
:102CA000D842002080E200E010B5EFF3108472B645
:102CB0000A490B68002BFCD0BFF35F8F01238340D0
:102CC000074A0848136202789A430270BFF35F8F85
:102CD00000230B6084F3108810BDC046280100D08B
:102CE00000400540EE420020F8B54E464546DE461F
:102CF0005746E0B54C0064180368033C1A190D00F0
:102D0000517806008946002906D128003CBC90462F
:102D10009946A246AB46F8BD4F004F44033FD81931
:102D200041788846002141705170002D12D073689F
:102D30004A462900B06898473368002873D0DF19E5
:102D40001A19BD701178002900D079704946270002
:102D5000117000E04D464246002AD6D0540044444B
:102D6000033C1A1951788946002911D173684246EB
:102D70002900B06898473368002849D01C19DF192A
:102D8000A5703B78002B00D0637043463B70BCE7D6
:102D90004900494403398A46534459788B460021F7
:102DA0005970517073684A464146B0689847336815
:102DB000002843D152461C199A184B46A370137829
:102DC000002B00D0637043465446C84613705B46E0
:102DD000002BCBD059463000FFF786FF81460028F4
:102DE000C4D002004146B068736898473268002832
:102DF0002FD04B465B004B44033B1119D31842467E
:102E00009A700A78002A00D05A704B460B70ADE7D2
:102E10001C19DF194346BB702378002B00D07B7050
:102E20002570454671E749461C19DA19A1701178D9
:102E3000002900D0617015704D468CE741461A1983
:102E4000534499701178002900D059704B46137083
:102E5000BDE74B465B004B44033BD11814194A466F
:102E6000A2700A78002A00D0627042461C000A70E4
:102E7000C8467BE710B583600023CCB243730133AF
:102E8000047342608373C4730068012C07D9012363
:102E9000421C0133DBB2137003329C42F9D8FF238A
:102EA00019404B005918002340180338437010BDD7
:102EB000F0B54E4657464546DE46E0B5477B0368CB
:102EC0007C00E419033C1A19167883B00500894682
:102ED000002E1ED1002911D0C07B002869D04100EE
:102EE0000918591803394F70EF73002E06D071007E
:102EF000891903398846002143449970002338001A
:102F000053706E7303B03CBC90469946A246AB46E4
:102F1000F0BD7100891903398846591848788246EE
:102F2000002807D149460029E5D0E87B0028D6D102
:102F3000EF73DCE742005244033A94460192634443
:102F40005A78934600225A704A706B685246310094
:102F5000A86898472B68002832D0414601985A1833
:102F600019188E701078002825D1514611705A46D4
:102F7000002A23D059462800FFF7B6FE82460028D3
:102F80001BD002006B683100A86898472B680028A6
:102F900025D042469918524652005244033A9A1894
:102FA00096700878002800D0507052460A701A199E
:102FB000B8E7EF73A2E74870D7E72B681A19B1E7B3
:102FC00041465046019A59189A188870107800287E
:102FD00000D048701670019A56469046C7E7524690
:102FE0005100514403395A18404693465246181826
:102FF00082705A461278002A00D042705A4688469B
:1030000016701A1956468DE7F0B54546DE46574606
:103010004E46E0B50C0083B00500002200293DD0EB
:10302000477B0168BC426BD066003619033E8819A5
:103030008378002B32D05A00D318033BCB181A7870
:10304000944202D143E0002A08D053009B18033B6E
:10305000CB185A789442F6D142785A700023837084
:10306000437003789846002B25D1EA7B002A1DD0B7
:1030700053009B18CB18033B5C704346EC73002B4A
:1030800000D171E05C0000234444033C09198B70BB
:103090004370002F1ED1434601226B73100003B012
:1030A0003CBC90469946A246AB46F0BDB846EC7390
:1030B00000234370EFE719002800FFF715FE296889
:1030C000EA7B80466F7B8819002AD6D0D0E7427809
:1030D0001A70C3E742463900A8686B6898472A68A7
:1030E000002824D07B00DB191419033BD318A770E8
:1030F0001A78002A00D062704246B8461A70CAE7B1
:103100007E00F619033E8B191878804600281BD1E3
:10311000E87B002804D0420012188A18033A547041
:10312000EC7300225A70434601326B73B6E77B00A2
:10313000DB19033B1419D31842469A702278002AEF
:1031400000D05A702770A6E744004444E01E019066
:1031500008184478A246002C08D1EC7B002C76D1CC
:10316000EF7300228270DCE7B846A1E763005344A6
:10317000033B994649444B784A7042709B46220073
:103180006B684146A86898472B6800284BD0494691
:103190004046019C59181A1988701078002850D19F
:1031A0005146A14611705A46002A20D0594628009F
:1031B000FFF79AFD041E19D002004146A8686B680B
:1031C000984700281ED04A4641462B68981862004E
:1031D0001219033A9A1891700178002900D05170A1
:1031E0000470E97B002905D19B19B9E72B684A4691
:1031F0009818F6E74A0052189A18033A57709B1924
:10320000EF73AEE74B462968600000190338CB180E
:1032100008189C700278002A00D05A704346A046D5
:1032200003708B1999E74A469818019A9C185246E0
:10323000A2700278002A00D062704246D046027026
:10324000B1E7487051461170019A9146ABE70322ED
:1032500062438A18033A577082E7C04610B50400EB
:10326000FFF75EF801002000FFF704FAFF23237147
:10327000BFF35F8F10BDC04610B50400FFF750F8D4
:1032800001002000FFF7F6F9FF232371002363718B
:10329000BFF35F8F10BDC046F8B5040006200D00D7
:1032A00000F084FA03000020002B49D0294B802233
:1032B0009C424DD0D203284B28491A60284B1A60F3
:1032C00010008B689843FBD1264B8021E3185A42AB
:1032D0005341254A5B0049000620995200F066FAE6
:1032E0002900C00001F04CFFC3092AD01F4A9342B5
:1032F0002AD87F221040013040089F011A000300A5
:103300003F18260080256262A36200232C36AD019F
:1033100035432B60062000F049FA3900800001F0A7
:103320002FFF6023E26A53406E221A4080235B0124
:1033300033431A600E4B236310232B600D3BA364B1
:10334000F8BD40270122DCE70A4F00230A4AD8E7EC
:103350001204B0E70080034000E0004000C00040DD
:1033600000F000400080FCBFF0430020FEFF0000A2
:1033700001030000C0FF3F00FFFF00002D4A2E4B5D
:1033800070B51A602D4A2E4B2E491A6010008B68BA
:103390009843FBD12C4E2D4B9E420AD2F54300247C
:1033A000ED18AD080135A300F35801349847AC423D
:1033B000F9D100F097F8264A214B1A60214A936808
:1033C000DB018033FBD14022224B234C234D9A67F3
:1033D0005A671A67DA66AC4208D223682000002BCD
:1033E00022D00834FFF748FFAC42F6D31C4D1D4CE9
:1033F000C022A168280003F0DDFBA560FEF782FF74
:10340000FFF714F9FFF7D8FA174E184B9E420AD26D
:10341000F5430024ED18AD080135A300F35801343D
:103420009847A542F9D170BD0834FFF717FFAC42A9
:10343000D3D3DBE7BFCDFBFE00E00040FE7F3C00C6
:1034400000F0004000C00040D0400020E0400020DC
:10345000FFFFFF0100F00140C8400020D0400020E5
:103460000000002000ED00E0E0400020E4400020EB
:10347000094A1368002B06D008491818884208D852
:10348000106018007047064B0449181813608842F2
:10349000F6D901204042F5E7B842002000000420A0
:1034A000F844002000BEFDE70FB400B5084883B023
:1034B00003F016FC049B002B07D005A9180001910E
:1034C00001F010FE034803F00BFC00BEFDE7C04610
:1034D000B0880010C487001010B50148FFF7E4FF62
:1034E000A488001030B50C2083B000F0B3F9FEF7CB
:1034F00001FF00280ED0964B964A1A605A609A60D7
:10350000DA601A615A619A61DA611A62924A5A6201
:1035100003B030BD914CA06700F0A4F90122904B9C
:103520001A60636C012BFCD103228E4B1A608B4A0C
:10353000936B012BFCD1013300938B4A043301219F
:103540008A4800F039F90523894A00930121894806
:1035500000F032F9884B5A68FF2A02D880225200C4
:103560005A6080227A4C7F4B21691201824D1A6089
:10357000002900D0E5E0E0217F4B02201A681140CD
:10358000802252012A4311601968484003210140FA
:10359000116004219A681142FCD08022802192019E
:1035A0002A4309011160802252005A60734B236143
:1035B000734B5968FF2900D8C1E00322684B70485B
:1035C0001A60012103009A681142FCD0E0251A68B4
:1035D000154080225201024315601B684B400321B5
:1035E000194011600221664A93681942FCD0802379
:1035F00080219B010343090119608021614B49002F
:1036000051606361604B5A68FF2A00D8596080227C
:103610005E4BE16912015C4D1A60002905D06069BA
:1036200001F0AEFD01300138FDD1E02256490B68B2
:103630001A4080235B012B431A60802380229B0168
:103640002B4312011A608022424B52004A60E36110
:103650004F4B5968FF2900D85A6080224D4B216A90
:1036600012014B4D1A60002905D0606901F088FDF8
:1036700001300138FDD1E02245490B681A40802312
:103680005B012B431A60802380229B012B43120194
:103690001A6080235B004B602E4B3F4A23623F4BF6
:1036A0005968914201D801325A6080223C4B616ACC
:1036B00012013A4D1A60002905D0606901F060FDE1
:1036C00001300138FDD1E02234490B681A408023D3
:1036D0005B012B431A60802380229B012B43120144
:1036E0001A608023DB024B601B4B63622D4B5A68D0
:1036F000FF2A02D8802252005A6080222A4BA169F8
:103700001201284D1A60002905D0606901F038FDCA
:1037100001300138FDD1E02222490B681A40802394
:103720005B012B431A60802380229B012B431201F3
:103730001A6080235B004B60124BA361E8E65A607D
:103740003BE7606901F01CFD01300138FDD112E753
:1037500048420020006CDC021BB7000000800040E3
:103760003CB0004030B00040002F6859008002405B
:10377000008C864700C0024030800040001BB7002C
:103780003C800040405973075480004054B00040D2
:103790006080004060B00040FFFF03006C8000408C
:1037A0006CB000404880004048B00040014B8000B1
:1037B000C058704748420020F8B504000C2017009C
:1037C0001D000E0001F0DCFC1D494143380001F0F2
:1037D000D7FC069A2B04120313432268002A1CDB31
:1037E000184A8021944229D04901174A174D116087
:1037F000174A11600F00AA689743FBD1C021221D10
:103800008901114321222660A0600A602268002AF3
:10381000FCDAE36008230B60F8BD3F2221680A4010
:103820009642DDD1A2681205120D9042D8D1EE2148
:10383000E268C9020A409342D2D1EDE78901D4E798
:1038400040420F0000C0024000E0004000C00040C5
:1038500000F0004080239B001843014BD862704762
:1038600000800540AA23064A1B0113602F23054947
:10387000D360054B19605368002BFCDA7047C046D3
:103880000040024000B0FA00006002407047C046AD
:1038900010B5002803D04A680B681100984710BD86
:1038A00010B5002800D110BD0B4B1C68A2689368AE
:1038B000013B9360002B04DB1368591C11601870E6
:1038C000F1E791698B4201DB0A28F5D10100200064
:1038D00003F000FFE7E7C04688380020F0B5454612
:1038E000DE4657464E46E0B583B099460EAB1D788E
:1038F000119B88469B460223129900920B400700B9
:103900000D9C109A0193002B28D15B46002B00D010
:1039100092E0944222D201260E401F2C1ED80C9B0E
:1039200030201B1902E00133202C03D00134187021
:10393000A242F8D8002E11D0A3450FD90C9B3020FD
:103940001B195E461F2C04D987E00133202C00D1BF
:10395000A7E001341870B442F7D1A346CB0611D5C5
:103960004B0502D4002C00D07CE00F9B102B00D123
:10397000A0E0022B00D1A7E01F2C11D830230C9A15
:10398000135501341F2C0BD8002D00D079E04B07C4
:1039900000D588E00B0733D520230C9A135501344A
:1039A0008B0730D0009E2500A24632004446B04628
:1039B0000C9B013D561C585D21004B46B847320018
:1039C000002DF5D14646A04654463619019B002BE2
:1039D0000ED0009D731B5B450AD23200444601366F
:1039E0004B4621002020B8473200731B5B45F6D3BD
:1039F000300003B03CBC90469946A246AB46F0BDB1
:103A0000009E8B0715D15C456ED2009A0D94130071
:103A10005B441D1B0D9B44469846561C4B4621009B
:103A20002020B8473200B542F7D14346A0461C00DB
:103A30000D93002CB7D1C9E701260E4028D0002DE8
:103A40002AD10C230B4227D1944200D374E71F2CB8
:103A500000D864E7A34500D880E7CB06A0D54B0586
:103A600000D582E7A24202D05C4500D07DE7631E0C
:103A7000002B3BD00F9A023C102A1BD01C001300D5
:103A800077E72D230C9A135501348B07BBD089E7B8
:103A9000944200D241E761E701235B429C46E34444
:103AA000D2E7B346D9E72B230C9A135501348B0781
:103AB000A9D077E78B060FD41F2C00D970E77823A5
:103AC0000C9A1355013457E71F2C00D968E70C9A5C
:103AD0006033135501344FE71F2C00D960E758239A
:103AE0000C9A1355013447E7009EA2E700243CE7F7
:103AF000F0B5DE4657464E464546E0B597B0050060
:103B00000E0093461F00209A219B1000190001F01F
:103B100014FE002800D0D5E2209821990122BD4B47
:103B2000524201F0F7FD002800D081E12098219950
:103B30000122B94B524201F0FBFD002800D017E1F1
:103B4000209821990022B54B01F0F2FD002800D009
:103B5000BCE1209821990022B14B01F0DBFD002847
:103B600000D0B3E1209821990022002301F0D2FD7A
:103B7000002800D054E200230D938023249ADB0018
:103B80001A40914600D007E20023A64C08930994FE
:103B900006240EAB07932098219901F0F9FD804689
:103BA0000C9001F0DDFD02000B002098219901F03E
:103BB00036FD089A099B01F062FD0A900B9101F015
:103BC0000BFE824601F0C8FD02000B000A980B991B
:103BD00001F025FD0022944B0A900B9101F0A8FD05
:103BE000002800D1C5E101239C46E244504601F083
:103BF000B3FD089A099B01F093FD002800D030E244
:103C0000002C00D074E10C9C200001F0A9FD020002
:103C10000B002098219901F002FD0022824B0890B0
:103C2000099101F077FD002800D10AE24B46202BD4
:103C300000D196E15C1C0C9B0A211800984601F00B
:103C400077FA4A46079B3031995440460A2101F0E1
:103C50006FFA079B80469946A14400281BD02A0092
:103C6000330025004E46444699469046202D00D10B
:103C700025E220000A2101F05BFA3031317020008A
:103C80000A2101F055FA0135040001360028EDD172
:103C90002C004E4645460323249A1340012B00D1A5
:103CA0009BE120229246202C0CD00D9A002A00D0B5
:103CB000C1E1249A520700D44CE2621C92462B22A6
:103CC00007990A555A460892002B17D1239B9A450B
:103CD00000D34FE25B441C005346E41AB846370059
:103CE0002E002500541C434639002020B0472200F6
:103CF000AC42F7D135003E004746089453465C1E5F
:103D0000079B08AA9C461723644494466344B9461B
:103D1000984637002E00089A551C20784B463900EB
:103D2000013CB0472A00A045F6D1089B350053441A
:103D30001C00249B3E009B0712D55B46239AE31A86
:103D40009A420DD91300C84622005F4699460134B5
:103D5000434631002020A8472200E31B9945F6D8AE
:103D6000200017B03CBC90469946A246AB46F0BD39
:103D7000249B5B0700D5A4E02C4B9A4603230793B2
:103D8000249BD8469B0719D1079B23998B4200D3CC
:103D9000ECE15A469B1A9846239B99463B0031001A
:103DA0002020541CA84743461B1922009945F5D8EA
:103DB000239B5B441C00079BE31A9846B14642468E
:103DC0005646BA462F00079C013C551C305D5346B1
:103DD0004946B8472A00002CF6D1079B3D004344D2
:103DE0001C00249B4E469B07BAD55B46239AE31AD8
:103DF0009A42B5D91300D04622005F469946013455
:103E0000434631002020A8472200E31B9945F6D8FD
:103E1000A6E7C046FFFFEFFFFFFFEF7F65CDCD4177
:103E200065CDCDC180842E410000E03FA88A0010FE
:103E3000249BD8469B0716D1239B042B00D897E1DF
:103E40001C1F5C44B8465A4637002E002500541CFF
:103E5000434639002020B0472200AC42F7D135005C
:103E60003E004746A046CE4BB946424637000424A2
:103E70009A462E005346013C551C185D39004B46AE
:103E8000B0472A00002CF5D14446249B3500043469
:103E90003E009B0700D463E75B46239AE31A9A42ED
:103EA00000D85DE71300C84622005F4699460134FA
:103EB000434631002020A8472200E31B9945F6D84D
:103EC0004EE7B84B9A460423079359E7249B5A467A
:103ED0000493239B31000393229B28000293209B91
:103EE000219C009301943B0000F064F9040037E743
:103EF0004B46202B35D0631E98464B460A21504630
:103F00005C1C01F03DF94A46079B303199545046FC
:103F10000A2101F035F98146002800D1B6E0079B5F
:103F20009A463B00A2444746A84625004C46B14667
:103F300056469A4610E020000A2101F021F930315E
:103F4000317020000A2101F01BF9013F0135040006
:103F50000136002800D194E0202DECD145464E4694
:103F600057460323249A1340012B35D02022924632
:103F7000A8E600220A980B998B4B01F0CBFB002896
:103F800000D03DE65346002B02D0DB0700D437E6D5
:103F900001239C46E24433E6229B092B00D8F2E041
:103FA0000122302391460EA80370229B07905C1ECD
:103FB0002F32093B494604E042540131013C20299B
:103FC00001D08B42F8D1794BE2009B181A685B68EC
:103FD000894608920993DEE52024239B002B47D0D5
:103FE0000D9B002B03D1249A0C33134202D0239B48
:103FF000013B2393239BA3423AD9202C00D1BDE05F
:10400000302221001800079B1B1901311A708842C9
:104010002DD001332029F8D15B468A4608936DE6FE
:10402000209A219B0020002101F0F9FA0123209021
:1040300021910D93A1E5621C92462D2207990A5504
:1040400040E6002208980999574B01F071FB0028BF
:1040500000D0EBE50123A44623409C4463460C9327
:10406000E4E5434601330C9300239A46C8E5239CBC
:104070000123202C00D018E61F339A465B46089394
:104080003CE62C004E464546B8465746202C00D10B
:1040900067E742464046079B11191B19302200284A
:1040A00007D001341A70202C00D15AE701338C421A
:1040B000F7D1631C99462E23079A1355B6E545465A
:1040C0004E464EE7249BD8469B0715D1239B032BD6
:1040D00052D9DC1E5C44B8465A4637002E002500F3
:1040E000541C434639002020B0472200AC42F7D18F
:1040F00035003E004746A0462D4BB94642463700A4
:1041000003249A462E005346013C551C185D390085
:104110004B46B0472A00002CF5D14446249B35007D
:1041200003343E009B0700D41AE65B46239AE31A49
:10413000934200D314E61300C84622005F46994616
:104140000134434631002020A8472200E31B994553
:10415000F6D805E6249AA246120700D4B2E5012259
:10416000944607991F32E2440A55ABE5D84625E646
:10417000D84678E60892C1E5D846BDE720239A469E
:104180005B460893BAE5DA00084B9B185C681B682D
:1041900008930994002399460EAB229C0793FAE4F6
:1041A000B08A0010A08A00100000E03FB88A00101A
:1041B000AC8A0010F0B54E464546DE465746E0B59F
:1041C0009BB00A93249B81461C000B93259B09916D
:1041D0001D000D920C93002200232000290001F005
:1041E00099FA002800D093E10B9A0C9B92469B46CB
:1041F0008023289ADB001A400E9201D106232693D1
:1042000056465B46334300D148E15B465800C94BF4
:10421000400D9C46604401F0A3FAC74AC74B01F029
:104220002EFAC74AC74B01F003FA5B46C64A1B0386
:104230001B0B1A4304000D00C44B11005046002212
:1042400001F0EDF9C24AC34B01F019FA02000B006C
:104250002000290001F0ECF901F09AFA804601F003
:104260007FFABD4ABD4B04000D0001F008FA0022A0
:10427000BB4B01F0DDF901F08BFABA4A0600BA4BEC
:104280002000290001F0FBF9040030000D000F961A
:1042900001F066FAB54AB64B01F0F1F902000B00E5
:1042A0002000290001F0BBF902000B0006000F00FE
:1042B00001F0E5F9320004000D003B003000390048
:1042C00001F0B6F9002210901191AA4B20002900AC
:1042D00001F0B7F90022A84B01F0AAF902000B0087
:1042E0002000290001F0ADF90022A44B01F0A0F953
:1042F00002000B002000290001F0A3F90D0080212D
:10430000320004003B000020C90501F088F90200DA
:104310000B002000290001F08BF902000B0010981F
:10432000119901F08EF90022874B01F081F9944A2E
:104330000F9B9446634400221B0501F0A0F9060080
:104340000D0002000B005046594601F0E3F9002829
:104350000BD001235B429C46300029000022864B93
:10436000E04401F06EF906000D004346C6276333B2
:104370009F42BF41289B7F4204371B0500D5ACE01C
:10438000279B00249F4200D2DC1B0223289A1A405C
:104390000E9203D07B427B415B421C404346002B84
:1043A00007D05046594632002B0001F04AF98246A8
:1043B0008B46002200230B980C9901F0ABF90028E2
:1043C00000D0A0E0289A6F4B039413400493269BDF
:1043D000524602935B4609990092019348460A9B14
:1043E0000D9AFFF785FB0400002F4FD0289B652016
:1043F0009B066CD4631C22009A4609990A9BC84705
:104400004346DA179D18DB0F98467B1E55409B46A6
:10441000002412AF02E03400202E0DD028000A2123
:1044200000F0AEFE661C30313C19217028000A21D4
:1044300000F0A6FE051EEED1052306935B4605930C
:10444000002304930A33039343460196099E029383
:104450000A9B00975246310048469846FFF73EFABD
:104460000E9B0400002B11D00D9F279AC31B9A426C
:104470000CD9279B4D460200994601344346310032
:104480002020A8472200E31B9945F6D820001BB046
:104490003CBC90469946A246AB46F0BD289B56468A
:1044A0005D461B0515D500239846269A00234245F4
:1044B00003DD130042469B1A013B26938023289A72
:1044C000DB001A43002328920027984658E720383B
:1044D00090E700230427984652E72B003343E4D0AB
:1044E000294A2A4B5046594601F01AF9002817D19B
:1044F000269B002B00D143E70E9B5A1E9341269A20
:10450000D31A26933CE78021090659448B4659E784
:104510008022120694460C9BA24663449B4667E6A3
:1045200000221B4B5046594601F0F4F80028BCD13C
:10453000DEE7C04601FCFFFFFB799F501344D33FE9
:10454000B3C8608B288AC63F0000F03F0000F83FE8
:1045500061436F63A787D23F71A379094F930A40E4
:104560000000E03F1655B5BBB16B0240EF39FAFED3
:10457000422EE63F00002C4000002440000018407E
:10458000FF030000FFF7FFFF2D431CEBE2361A3F4D
:1045900080842E41F0B54546DE4657464E46E0B58E
:1045A000A1B01D002A9B09920B93A24AA24B0A902C
:1045B00008911A60002900D187E300239B469F4B96
:1045C0002C009A465D46207800280CD025281DD066
:1045D0006E1C2A00099B0A9D08990134A84720787F
:1045E00035000028F2D10999AB462A008D4200D34C
:1045F0004A1E099B089900200A9CA047584621B0F2
:104600003CBC90469946A246AB46F0BD1023621CC6
:104610009846083B9C461678043B9946023B9B46CD
:104620003300203BDBB2002701211400102B0CD8F3
:1046300050469B00C3589F460F4301321678140022
:104640003300203BDBB2102BF2D93300303B092B77
:1046500000D8B5E1002398462A2E00D1A6E2002317
:104660009B462E2E00D1C0E13300683BDBB2122BFB
:1046700018D8734A9B00D3589F46634601321F43A4
:10468000DCE7434601321F43D8E74B4601321F4364
:10469000D4E75B4601321F43D0E780235B00667896
:1046A0001F4301343300253BDBB2532B0FD8654A3F
:1046B0009B00D3589F466678682E00D188E28023FD
:1046C0001F433300253BDBB20134532BEFD96F1C62
:1046D0002A00099B0A9D08993000A84701343D0033
:1046E00071E766786C2E00D16CE280235B001F437B
:1046F0000134D7E780239B0066781F430134D1E75C
:104700000B9B1A1D1B680E920B935B46002B00D16E
:104710002BE20B9A10781600002804D100F0A4FCBC
:10472000013B002B03D001363278002AF8D10B9BD5
:10473000F31A0C938023DB003B40994603D00C9B7B
:104740005B4500D9ABE202233B400F9300D1B3E1BC
:1047500000281ED04B46002B00D1D0E15B465F19EC
:104760000B9BA3465E1BB1462A00099C0A9E09E0EA
:1047700023000899551CB0474B46585D002800D1CE
:10478000CEE12A009742F3D15C463D000F9B002BFF
:1047900014D00C9A904511D943465819099B861A92
:1047A00098462A00A1460A9F089C013543462100ED
:1047B0002020B8472A00B542F7D14C460E9B013461
:1047C0000B9300E70B9B1A1D1B689046002B00D132
:1047D000CEE1212217430B970F21002218AE894604
:1047E000A44602E00A0020290CD048461840C4B272
:1047F0002700511C3737092801D830342700B75417
:104800001B09EFD164460B9B019106930823059386
:104810005B4604931023039300232A00029300961F
:10482000099B08990A98FFF759F843460500013497
:104830000B93C8E695450010BC420020C0880010CC
:104840000489001050890010782E00D1C5E1582E3F
:1048500000D12FE26F2E00D131E3622E00D126E28B
:1048600010233A009A430C92692E01D000F01EFCEE
:104870000A230E937B0500D5B7E180270C9BBF0070
:104880001F4000D0B8E21A0080235B001A40914616
:1048900000D06EE30C9B5B0601D500F0F1FB0C9B96
:1048A0000B9A1B0600D4C1E30021535E0432D90FDA
:1048B00014910B92DA179F185740002B09D10C99CD
:1048C00010330A009A4313000A000C93520500D5D6
:1048D000DEE30C9A6123920600D54123DBB218AEC9
:1048E0000A3B16940F934C461595B1460E9E0EE06A
:1048F0003033DBB24A4638001355310000F040FC3B
:10490000071E00D1FDE12C00202D00D1F9E131007E
:10491000380000F035FC651CCBB20929E8D90F9AA4
:1049200094466344DBB2E5E7462E00D1B4E10722AA
:104930000B9B049707339343013294469C44624691
:104940000B92424603925A4602921A685B68089993
:10495000009201930A982A00099BFFF7C9F80134D5
:10496000050030E66E1C2A00099B0A9D0899252047
:10497000A8470134350026E6BB0700D5D2E0434600
:10498000012B00D888E3099B6F1E474498462A00F4
:10499000A1460A9D089C561C434621002020A8479A
:1049A0003200BE42F7D14C460B9B32001F1D1878D7
:1049B000751C099B08990A9EB04701340B9702E6C3
:1049C000002332009E00F61801347600B6182278D3
:1049D000330011003039303B0929F3D998460023C0
:1049E00016009B462E2E00D03EE680236678DB0024
:1049F0001F433300303B621C092B11D814003300D5
:104A00005A469600B61801347600F618237832001C
:104A100019003039303A0929F3D91E00934623E6AC
:104A20002A2E00D181E114001EE6202332009A4391
:104A3000472A04D180231B011F4302239E43452E96
:104A400001D120231F4307220B9B073393430132DD
:104A500094469C4462460B921A685B6810001900E9
:104A60000C900D9100F069FE002800D08CE00C98AD
:104A70000D990122CA4B524200F05AFE002800D084
:104A800082E00C980D990122C64B524200F042FE82
:104A9000002879D1434603935B4604970293089913
:104AA0000C9A0D9B0A98009201932A00099BFFF72C
:104AB00081FB0134050086E50C990B000133884524
:104AC00000D8EBE243462A005F190C94089D0A9C2B
:104AD0007F1A561C099B29002020A0473200BE42A5
:104AE000F7D14346350001330C9C0C930B9B18788F
:104AF000002800D162E64B46002B00D02EE62A00AB
:104B00000B9BA3465F1BB9460A9E089C099F3B006E
:104B10002100551CB0474B46585D2A000028F6D1AD
:104B20005C4633E60B9B08991A1D18789146099B41
:104B30002A000A9FB84743466E1C4544012B00D803
:104B4000AEE2A3463200A846089C099E0A9D571C67
:104B5000330021002020A8473A004745F7D15C46A2
:104B60004B463D000B9301342DE501235B42D0E51C
:104B7000102239009143113211430B917A0500D470
:104B80002AE6002118AE3EE6434603935B460497AF
:104B9000029308990C9A0D9B0A98009201932A009F
:104BA000099BFEF7A5FF013405000CE50B990B00EE
:104BB000096804338846002900DAB0E056780B9380
:104BC000541C4CE5C0239B00A6781F43023469E5C2
:104BD000C023A6781F43023464E510230E930C23F0
:104BE0003A009A430C927B0502D501239A430C921A
:104BF000692E00D141E6642E00D13EE680270C9B51
:104C0000BF001F4000D09EE01A0080235B001A40C6
:104C1000914600D070E10C9B5B0600D51FE20C9B17
:104C20001B0600D408E20B9B1F8804330B93002F54
:104C300009D10C9910230A009A4313000A000C931F
:104C4000520500D5D4E00C9A6123920600D5412389
:104C5000DBB218AE0A3B15940F934C461495B1463F
:104C60000E9E0CE03033DBB24A463800135531005B
:104C700000F086FA071E2BD02C00202D28D0310002
:104C8000380000F07DFA651CCBB20929EAD90F9AE9
:104C900094466344DBB2E7E720231F4347E65B46C5
:104CA0000C9302233B400F9300D051E504E702230D
:104CB0000E9394E70C233A009A4314331A431023BB
:104CC0000C920E937B0590D498E7374B0A9374E4CB
:104CD0004E462A00159C149D0C9B06934346059353
:104CE0005B4604930E9B03930023029301922A00D8
:104CF0000096099B08990A98FEF7F0FD013405001B
:104D000061E44E462A00169C159D0C9B0693434673
:104D100005935B4604930E9B0393149BE5E70221E6
:104D20000F4341464942884648E70B9AA6781368E4
:104D300002349B46DB435946DB171940130004330A
:104D40008B460B9390E407220B9B0733934301326E
:104D500094469C4462460B921A685F681300914621
:104D60003B4308D10C9910330A009A4313000A0000
:104D70000C9352053CD40C9A6123920600D577E13E
:104D8000DBB20A3B0F934346002216930E9B18AEEC
:104D90001495159415004C469846B14619E0C04646
:104DA000FFFFEF7FFFFFEFFF8D3800103032D2B2F0
:104DB0004B4620005A5539004246002300F022FAA3
:104DC0000F000400014300D18FE03500202E00D1F8
:104DD0008BE0424600232000390000F013FAD2B2E3
:104DE0006E1C092AE2D90F9B9C466244D2B2DFE7CF
:104DF000002318AE1A006FE707220B9B073393437B
:104E0000013294469C4462460B921A685B68D9173B
:104E100012911391129813990600564010960E00A5
:104E20005E401196109E119F361A8F41D90F109631
:104E3000119717911A430BD10C9910230A009A432A
:104E400013000A000C93520502D5002718AE41E06A
:104E50000C9A6123920600D50CE1DBB20A3B0F935A
:104E6000434616930E9B18AE0022984633001495C5
:104E700015941600109C119D994611E03032D2B263
:104E80004B4620009A5529000023424600F0BAF90B
:104E9000030004000D000B4314D03E00202F11D05E
:104EA000424600232000290000F0ACF9D2B2771C62
:104EB000092AE3D90F9B9C466244D2B2E0E708235B
:104EC0000E938CE64E46169B109411959846159CB1
:104ED000149D0C9B0693434605935B4604930E9BDF
:104EE00001970393179B029301E7169B3200149DD1
:104EF000159C98464E46EFE60B9B1A1D1B681592B3
:104F00009946002B0CD10C9910330A009A431300D8
:104F10000A000C93520503D5002318AE1A006DE069
:104F20000C9A6123920600D5A6E0DBB218AE0A3BCC
:104F300014940B934C460F95B1460E9E0CE0303303
:104F4000DBB24A462000D355310000F019F9041EA7
:104F500050D02F00202D4DD03100200000F010F94E
:104F60007D1CCBB20929EAD90B9A94466344DBB283
:104F7000E7E70B9B1A1D1B681592D9175A184A4070
:104F80009146DA0F1692002B0CD10C9910330A00BF
:104F90009A4313000A000C93520503D5002318AE60
:104FA0001A0052E00C9A6123920667D4DBB218AE65
:104FB0000A3B14940B934C460F95B1460E9E0CE0A1
:104FC0003033DBB24A462000D355310000F0D8F828
:104FD000041E36D02F00202D33D03100200000F0E9
:104FE000CFF87D1CCBB20929EAD90B9A94466344C9
:104FF000DBB2E7E74E462A00149C0F9D0C9B0693FC
:10500000434605935B4604930E9B03930023029350
:105010000192099B2A00009608990A98FEF75EFC07
:10502000159B05000B930134FFF7CDFA136804328A
:10503000D90F14910B923DE40B9B1F6804330B9323
:10504000F5E54E462A00149C0F9D0C9B06934346A3
:1050500005935B4604930E9B0393169BD7E70B9B2C
:105060001F7804330B93E2E500230C93FFF762FBF8
:10507000412385E64123F0E6412356E7412395E7A6
:105080000B9A137804320B9200221492FFF712FC51
:10509000002318AE1A0038E62E0085E40C9327E5AD
:1050A0004B4635000B930134FFF78DFA063B170092
:1050B0000E93642E00D092E5530500D595E5FFF7D9
:1050C000DCFBC04600B585B00093130001220290BE
:1050D0000391524202A90248FFF75CFA05B000BDF5
:1050E0009138001010B5094A84B01468002C09D01A
:1050F000012200910300524203A90548A047012064
:1051000004B010BD01F0ECFD0020F9E7BC42002026
:10511000A138001001480421014B184750380020E5
:1051200035220010014B5B68184700005038002002
:10513000124A936F9B0815D29066D166002905D05C
:10514000FFE7FFE7FFE7516F106F704704B580215D
:105150000906C2175140002800D0C84303F0D8F810
:10516000002104BDF0B5146E556E576F166FFFF732
:10517000E3FF1466556657671667F0BD000000D060
:10518000114A936F9B0813D210665166002905D00F
:10519000FFE7FFE7FFE7516F106F704704B5002886
:1051A00001D00020C04303F0B3F8002104BDC04685
:1051B000F0B5146E556E576F166FFFF7E5FF146666
:1051C000556657671667F0BD000000D094464E4AFA
:1051D000926F9208624601D230E0C046F0B54A4E66
:1051E000B56F6D08FCD3346E756E776F366F00F057
:1051F00025F89446444A1466556657671667624612
:10520000F0BDC0469446404A926F9208624601D271
:1052100058E0C046F0B53C4EB56F6D08FCD3346E17
:10522000756E776F366F00F04DF89446364A146607
:105230005566576716676246F0BDC046002B24DBF3
:1052400011D000293EDA00B5C943404200D10131F6
:1052500000F038F8C943404200D10131DB435242EB
:1052600000D1013300BD002AEBD1002801D1002973
:1052700005D00020C90FC90701D1C043410800B5BE
:1052800003F036F80022002300BD00B500290ADB38
:10529000DB43524200D1013300F014F8C9434042CD
:1052A00000D1013100BDC943404200D10131DB438F
:1052B000524200D1013300F005F8DB43524200D1E5
:1052C000013300BD002923D1002B18D1002A0CD0B6
:1052D000BC460D4F38667A6600210023FFE7FFE7E2
:1052E000FFE77A6F386F67467047002801D007489C
:1052F000010000B502F0FCFF0022002300BD020007
:105300000B00002000217047000000D0FFFFFFFFCE
:10531000002B00D0BFE0130C28D1002AE7D080B4C6
:10532000114F39667A66FFE7FFE730B4040C7B6FF4
:10533000396F1B0423433B667A66FFE7FFE7FFE70D
:10534000C04684B27B6F3D6F1B0423433B667A6685
:10535000FFE7FFE7C04600232C042D0C7A6F386F5F
:1053600000196941B0BC7047000000D0F0B5944608
:105370000025140E01D112020835140F01D11201BB
:105380000435940F01D192000235D40F01D152009F
:105390000135D40B0134254F7C66254C3C660E0C40
:1053A00093B2FFE7FFE7FFE73C6F6643360C7703F6
:1053B000BE467343DF0B5B04C01AB941130C734341
:1053C000DB18C91ACE086643360CB64493B2734351
:1053D0001F0F1B01C01AB941130C73431F0B1B0590
:1053E000C01AB941860D8F023E436643360C092D23
:1053F00024DB520A7243801A7703460A6643360C4E
:1054000016235B1BDE40DF40BF1964466643821BE8
:105410007046043506330100D940A840C01900D3B6
:105420000131A24206D20023F0BD0000000000D0EE
:10543000FFFFFFFF121B0130F3D3F1E709277F1BAA
:10544000FE406446A2B27243801A00D20139220C97
:105450007243130C1204821A99410B0070460435F2
:1054600013370100F940A840801900D30131002B07
:1054700002D1A2420AD2F0BD013000D30131121B89
:10548000FAD2013BF8D1A24200D2F0BD013000D3E4
:105490000131121BF7E7F0B51C0C00D080E00CB412
:1054A00000251C0A04D11B02160E334312020835D4
:1054B0001C0B04D11B01160F3343120104359C0B46
:1054C00004D19B00960F334392000235DC0B02D1CE
:1054D00092185B4101351C00971864410134464F16
:1054E0007C66464C3C660E0CFFE7FFE7FFE7C046D4
:1054F0003C6F6643360C7703BE4697B27743C01BBA
:1055000000D20139C01B00D201399FB27743C91BB9
:10551000C91B170C77437E04FF0B801BB941CE08D3
:105520006643360C0C2D33DBB644120B1F053A4391
:105530001B0B97B27743C01B00D201399FB2774350
:10554000C91B170C77433E043F0C801BB941860DE5
:105550008F023E43664329277F1BFE400C3D774662
:10556000AF40BF1930BCA2B2ABB272437343801AD2
:105570009941220C7243130C1204801A99410200C3
:105580000B000137001BA941F9D2781E0021F0BDA4
:105590000C277F1BFE4077467F0BAF40FF19E0E7EB
:1055A00000245D1C07D0144F7D663966FFE7FFE7D6
:1055B000FFE7FFE73C6F95B29EB265436643401B31
:1055C000B141150C1E0C6543664336042F0C3E4357
:1055D0002D04401BB141994204D202000B0020006F
:1055E0000021F0BD01D19042F7D3801A99410134D6
:1055F0009942F2D3F6E70000000000D0FFFFFFFF62
:1056000044464D4656465F46F0B47047F0BCA0464F
:10561000A946B246BB46704748404140484018B48E
:105620001B4B5B68FC46019308BD04DFEB5C00107C
:1056300018B4174B1B68FC46019308BD00DFF55CEE
:1056400000109446134A926F920809D2624618B429
:105650000F4BDB68FC46019308BD0CDFAD5F00100B
:105660000C4AF0B5146E556E576F166F6246FFF711
:10567000EEFF084A1466556657671667F0BD18B402
:10568000034B9B68FC46019308BD08DF515E001088
:10569000F4430020000000D0FFB55040424050408D
:1056A00059404B40594000E0FFB5154F4C00640D88
:1056B00003D0BC4204D10C0314D80020090D090505
:1056C0005C00640D03D0BC4204D11C030AD8002244
:1056D0001B0D1B0501264B4009D44B4003D58B42C3
:1056E00000D18242FFBD9942FCD19042FFBD0B43E5
:1056F000DB1803431343F5D0C9434918FFBD00002D
:10570000FF07000000B5FFF7CFFF01D0002000BD6C
:10571000012000BD00B5FFF7C7FF804100BDC046B6
:1057200000B5FFF7B9FF01D9002000BD012000BD81
:1057300000B5FFF7B1FF804100BD012040054A00E0
:10574000121804D85A00121801D8002070470120FE
:1057500070470020704700000021002805D17047E5
:10576000C1174840401AFAD0C90713B5064B1B6849
:1057700098470CBC441CA2401005120B0349091B9E
:1057800009051943114310BDD04200201F04000039
:1057900010B54C00620D8023D218DB00D21A5B05D5
:1057A0007E2A10DD9E3A13DACC1709034908194303
:1057B0005242D140640001341532202A05DAD0402B
:1057C0000843604310BD002010BD0846604310BD73
:1057D000C80FC018013810BD18B4044B5B6AFC46F2
:1057E000019308BD24DF896300100000F44300200A
:1057F00018B4044B1B6EFC46019308BD60DF976430
:1058000000100000F4430020C94211D300B5490044
:105810004908002200F024F8002904D40022404264
:105820008A41114600BD80210906002000BD00000C
:1058300018B4044BDB6EFC46019308BD6CDF976324
:1058400000100000F443002018B4044B5B6FFC46CA
:10585000019308BD74DFB16300100000F443002021
:1058600018B4044B9B6FFC46019308BD78DFB3630B
:1058700000100000F443002018B4044BDB6FFC461A
:10588000019308BD7CDF216400100000F443002078
:1058900018B4044B9B69FC46019308BD18DF79617D
:1058A00000100000F4430020024A034B00B500F052
:1058B000FBF900BD182D4454FB2119408A0002D386
:1058C000920D092A08DA18B4064BDB6BFC460193EB
:1058D00008BD3CDFEB65001000B5FFF7E5FF04BC39
:1058E0009646F0E7F44300208A0002D3920D092A7D
:1058F00008DA18B4064B1B6CFC46019308BD40DF68
:10590000FB65001000B5FFF7CFFF04BC9646F0E73B
:10591000F44300208A0002D3920D092A1DDA94462E
:10592000114A926F920809D2624618B40F4B5B6C11
:10593000FC46019308BD44DFCB6500100A4AF0B570
:10594000146E556E576F166F6246FFF7EEFF064AEC
:105950001466556657671667F0BD00B5FFF7A4FFDC
:1059600004BC9646DBE70000000000D0F4430020B2
:1059700018B4044B9B6DFC46019308BD58DFE966E3
:1059800000100000F443002018B4044BDB6CFC460C
:10599000019308BD4CDFFD6800100000F4430020B7
:1059A00018B4044B1B6DFC46019308BD50DF996988
:1059B00000100000F4430020132370B51C78012C64
:1059C00015D010DD0F48FCF72DFC0F4D0100802293
:1059D000280001F0EFF8022C06D00C48FCF71AFC66
:1059E0000B4B186070BD084D0A4AAA64F5E7064DD6
:1059F000084A29002B00803104C38B42FCD1AA64E1
:105A0000EBE7C04653440000F44300204C33000051
:105A1000D0420020B95C0010F0B5DE469B465746E8
:105A200045464E465C46E0B56400640D89B0A2462A
:105A3000129C4D0003006D0D002C02D026000024A6
:105A40003460964CA54200D180E05646002E7DD0B1
:105A5000002D00D185E0A24500D1C5E05446013CAF
:105A600006000F000394A54272DBCC0F0E03A14683
:105A7000340B1E0080235B039C46230064462343B3
:105A80001F005B461B031B0B984600926346424671
:105A900013430193039B9D4200D1D3E04B46002B5F
:105AA00000D1B2E033003C0000275E42A7415346DC
:105AB000ED1A002D00DCAEE00120019B40421911DF
:105AC000FFF75EFB00239946534604935B46039021
:105AD0000593AB461BE032009A4015003300524656
