:020000041000EA
:1000000000B5324B212058609868022188439860DF
:10001000D860186158612E4B002199600221596106
:100020000121F02299502B49196001219960352056
:1000300000F044F80222904214D00621196600F024
:1000400034F8196E01211966002018661A6600F04E
:100050002CF8196E196E196E052000F02FF8012189
:100060000842F9D1002199601B49196000215960AB
:100070001A491B48016001219960EB211966A021F2
:10008000196600F012F800219960164914480160C1
:100090000121996001BC002800D000471248134993
:1000A000086003C880F30888084703B5996A0420EC
:1000B0000142FBD001200142F8D103BD02B5186610
:1000C0001866FFF7F2FF186E186E02BD00000240BE
:1000D000000000180000070000035F00212200005C
:1000E000F4000018222000A00001001008ED00E03C
:1000F00000000000000000000000000074B24E7A12
:1001000000200420F7010010C3010010C5010010F9
:10011000C1010010C1010010C1010010C101001097
:10012000C1010010C1010010C1010010C701001081
:10013000C1010010C1010010C9010010CB01001065
:10014000CD010010CD010010CD010010CD01001037
:10015000CD010010CD010010CD010010CD01001027
:10016000CD010010CD010010CD010010CD01001017
:10017000CD010010CD010010CD010010CD01001007
:10018000CD010010CD010010CD010010CD010010F7
:10019000CD010010CD010010CD010010CD010010E7
:1001A000CD010010CD010010CD010010CD010010D7
:1001B000CD010010CD010010CD010010CD010010C7
:1001C00000BE00BE00BE00BE00BE00BE00F04BF888
:1001D000103800BEF2EB8871388A00105C8A00107B
:1001E0003402001090A31AE700202149086006C8D5
:1001F00081F3088810471F48006800282FD10DA4FC
:100200000ECC002902D000F012F8F9E71A491B4A77
:10021000002000E001C19142FCD1194988471949E9
:1002200088471949884700BEFDE701C901C29A42C3
:10023000FBD370475C8A0010C0000020D45200201D
:1002400070DC0010000004200000042070DC0010AE
:1002500000100420001004200000000070470B482C
:1002600003F0E2F90047EFF30580C0B270470000E9
:1002700008ED00E0000000D0D8520020E856002031
:10028000914700104D0C0010B9480010575600005F
:1002900006005250ABB36053BC89001006005250A8
:1002A000861C0302CC890010060052505422A29DE5
:1002B000E089001005005250DE65F46870DC001023
:1002C000F8B5C046054B0648033310B51B1A062B7C
:1002D00003D9044B002B00D0984710BDD452002006
:1002E000D4520020000000000648074910B5091A42
:1002F0008910CB0F5918491003D0044B002B00D0A4
:10030000984710BDD4520020D452002000000000B5
:1003100010B5074C2378002B09D1FFF7D3FF054B0D
:10032000002B02D0044800E000BF0123237010BD61
:10033000D85300200000000040830010094B10B586
:10034000002B03D00849094800E000BF08480368B3
:10035000002B02D1FFF7C8FF10BD064B002BF9D0D0
:100360009847F7E700000000DC53002040830010AE
:10037000D452002000000000F0B51D000D4B85B0E8
:1003800000932B00140006000F0001F034F80A9AC5
:100390004300DB0F0020934209D0039202930094A4
:1003A000019532003B00044806F0C8FD012005B06D
:1003B000F0BDC046AD14001018850010F0B5CE4653
:1003C000002400B5934D944F84B0009722002B0079
:1003D0002000290001F00FF84000C00F0ED10123CA
:1003E000009401950393029022002B008B4806F0A5
:1003F000A5FD012004B004BC9146F0BD884C894D98
:10040000009722002B008848884900F0F4FF46003E
:10041000F60F0CD00023039301330293009401954F
:10042000814A824B7D4806F089FD0120E2E70024E5
:100430007F4D00972B00220000207E4900F0DBFF5B
:100440004000C30F99460BD00123039602930094FA
:1004500001950022774B714806F070FD0120C9E735
:10046000002400258023009700221B06200029007D
:1004700000F0C1FF4000C00F08D101230393802387
:1004800000221B06029000920193ADE70097220024
:100490002B002000290000F0AEFF4000C00F9ED0CE
:1004A000802300221B0600971000190000F0A3FF14
:1004B0004000C00F0ED101238024039300232406A3
:1004C0000290009301941A005448230006F036FD70
:1004D00001208FE780212B000097220000200906D1
:1004E00000F089FF4300DB0F0CD10122029380232F
:1004F00003920094019500221B06484806F01EFD59
:10050000012077E74B460022009320004A4B290048
:10051000FFF732FF002800D06BE780210090002217
:10052000454B00200906FFF727FF002800D060E7B1
:10053000009022002B0000203F49FFF71DFF0028FC
:1005400000D056E700230093802300221B060020E2
:100550003949FFF711FF002800D04AE70090002238
:10056000364B00202B49FFF707FF002800D040E75B
:1005700000900022274B00203049FFF7FDFE0028A5
:1005800000D036E700222D4B009019001000FFF735
:10059000F3FE002800D02CE7009000221D4B002025
:1005A0002749FFF7E9FE002800D022E7009000224B
:1005B000234B00200021FFF7DFFE002800D018E7C2
:1005C00000900022002300201E49FFF7D5FE0028DE
:1005D00000D00EE7009000221A4B00200021FFF708
:1005E000CBFE002800D004E701240022144B009425
:1005F00010001900FFF7C0FE002800D0F9E6002225
:10060000104B009419001000FFF7B6FE431E9841EE
:10061000F0E6C0460000F03FAD1400101885001051
:10062000D044D8F074EB874054E3A59B444A9340F0
:10063000003085C000C05EC00000F0BF0000F87F41
:100640000000F07F0000F0FFF0B587B004000D005F
:10065000049205930C9E012700F064FF002800D14E
:100660000027FFB2B7422DD1049A059B2000290034
:1006700000F068FF431E98410027B04202D03800C6
:1006800007B0F0BD22002B002000290000F05FFF22
:100690000028F4D10498059902000B0000F057FFE0
:1006A0000028ECD101237340DBB203930296049A35
:1006B000059B0B480092019322002B0006F03EFCA4
:1006C0000137DCE7049A059B029700920193039699
:1006D00022002B00034806F031FC0127CFE7C0467B
:1006E000688600103C860010F0B587B004000D004D
:1006F000049205930C9E012700F00EFF002800D104
:100700000027FFB2B7422DD1049A059B2000290093
:1007100000F010FF431E98410027B04202D038007D
:1007200007B0F0BD22002B002000290000F00FFFD1
:100730000028F4D10498059902000B0000F007FF8F
:100740000028ECD101237340DBB203930296049A94
:10075000059B0B480092019322002B0006F0EEFB54
:100760000137DCE7049A059B0297009201930396F8
:1007700022002B00034806F0E1FB0127CFE7C0462B
:10078000C086001094860010F0B5DE4657464E46EF
:100790004546E0B51D003C4B87B09B4600932B00BF
:1007A0000F001400060000F026FE384B80469A46E3
:1007B000009332003B002900200000F01CFE5B4645
:1007C0008146009332003B002900200000F013FE18
:1007D00053462200009330002B00390000F00BFE3E
:1007E000C84523D1109B013330D0109A01205342C9
:1007F0005A4143465900C90F8A4224D143469B00BF
:10080000DB0F984225D00590049203930291009447
:10081000019532003B001E4806F090FB012007B016
:100820003CBC90469946A246AB46F0BD049605975F
:10083000029403950094019532003B00154806F0A0
:100840007DFB0120EBE79B00DB0FDCE700200022B3
:10085000CFE749464900C90F8C4649468900C90F70
:10086000624501D188420DD00593634604920293FC
:1008700003910094019532003B00074806F05EFBAF
:100880000120CCE70020CAE7AD1400109D14001031
:100890009485001058850010E8850010F0B5CE460C
:1008A0004746002480B5624D624B87B0984600935E
:1008B00022002B002900200000F09DFD5E4F060065
:1008C00022002B0029000097200000F094FD4346F1
:1008D0008146009322002B002900200000F08BFDB0
:1008E000009722002B002000290000F084FD4E45D7
:1008F0001CD17400B600E30FF10F012B01D10029C8
:1009000020D1012200244A4D0592049202930391C2
:100910000094019522002B00484806F00FFB0124AB
:10092000200007B00CBC90469946F0BD0494059594
:10093000029403950094019522002B00404806F094
:10094000FDFAECE7E40FF60F012C01D1002E0CD1DB
:1009500001210022364B05910491039602940092E6
:100960000193384806F0EAFAD9E70094364A374B43
:1009700037483849FFF708FF0028D1D101256D42DB
:100980000095334A334B30483049FFF7FDFE0028CD
:10099000C6D100940022304B00203049FFF7F4FE0E
:1009A0000028BDD1009500222C4B00202A49FFF7DA
:1009B000EBFE0028B4D100950022294B00202749E6
:1009C000FFF7E2FE0028ABD1023500950022234B51
:1009D00000202349FFF7D8FE0028A1D180230090F2
:1009E00000221B0600200021FFF7CEFE002897D131
:1009F000009500221B4B00200D49FFF7C5FE002883
:100A000000D08DE700950022094B00201549FFF723
:100A1000BBFE002800D083E70022124B0095100097
:100A20001900FFF7B1FE0400601E844178E7C0465C
:100A30000000F03FAD1400109D14001094850010CC
:100A400058850010E8850010D044D8F074EB87403A
:100A500054E3A59B444A9340003085C000C05EC06B
:100A6000003085400000F87F10B58023012482B05B
:100A7000009400221B0600200021FFF7E5FD00285E
:100A800002D0012002B010BD80210094002200237A
:100A900000200906FFF7D8FD0028F2D100900022BF
:100AA0000C4B00200C49FFF7CFFD0028E9D1009046
:100AB0000022094B00200749FFF7C6FD0028E0D1BE
:100AC0000022044B009019001000FFF7BDFD431EEB
:100AD0009841D7E70000F87F0000F03F002300B501
:100AE00083B00093802300221B0600200021FFF723
:100AF000FBFD002802D0012003B000BD8021009042
:100B00000022002300200906FFF7EEFD0028F2D1A5
:100B1000009000220C4B00200C49FFF7E5FD002857
:100B2000E9D100900022094B00200749FFF7DCFDC6
:100B30000028E0D10022044B009019001000FFF7BC
:100B4000D3FD431E9841D7E70000F87F0000F03F37
:100B5000F0B5C6460024002500B5220082B02B0067
:100B60002000290000F0F3FC002830D10026324F8D
:100B700032003B000020314900F0E9FC002834D16C
:100B800000262F4F22002B003000390000F0DFFC40
:100B90008046012833D132003B002000290000F0BC
:100BA000D6FC012838D132003B003000390000F07B
:100BB000CEFC804601282CD132003B000020214988
:100BC00000F0C5FC01282FD10023984608E02B0037
:100BD0000094019522001C4806F0B0F901239846C4
:100BE000404602B004BC9046F0BD144B00960197FD
:100BF0000022154806F0A2F901239846F0E7009478
:100C000001953B003200104806F098F90123984600
:100C1000E6E700960197F4E70096019722002B0083
:100C2000094806F08BF9DBE7009601970022054B97
:100C3000054806F083F9D3E70000F07F0000F0FFDD
:100C40000000F87F0000F8FF40830010F0B5DE469A
:100C500057464E464546E0B599B002F017FD4C4B5D
:100C60004C491A685B680868496800F055FC431EE7
:100C700098410124404204402100474806F05EF9B3
:100C800003239A46454B00269946454F03230024EB
:100C90009846434D2B0022003900300000F03CFC08
:100CA000431E984100940195029032003B00484653
:100CB00006F044F93B4B20002900002200F0BAFB6B
:100CC00001235B429C46E044434604000D00002B98
:100CD000E0D1344B30003900002200F0ABFB01239F
:100CE0005B429C46E244534606000F00002BCDD1E8
:100CF00003239A462C4B00269946294F03230024B0
:100D00009846274D29003B003200200000F004FCEB
:100D1000431E984100940195029032003B004846E2
:100D200006F00CF91F4B20002900002200F082FB86
:100D300001235B429C46E044434604000D00002B27
:100D4000E0D1184B30003900002200F073FB012382
:100D50005B429C46E244534606000F00002BCDD177
:100D6000033300249846002300221E000E930F94A4
:100D70000A930B940B4B27000C920D9300231393B3
:100D80000A4B109611979B46094B994628E0C0469E
:100D9000C0490020B8490020E88600107C8300107C
:100DA0000000F0BF0000F03F8C830010A88300100B
:100DB000E883001000F08CFC0C900D91300039009D
:100DC00000F09CFC0A900B913000390000F0FCFC14
:100DD0000E900F913000390001F028F81090119119
:100DE00032003B00E34806F0A9F83000390000F07B
:100DF00059FC04000D003000390007F099FA220078
:100E00002B00584606F09AF83000390007F008FA2F
:100E10000C9A0D9BD84806F091F83000390007F085
:100E20006FFA0A9A0B9BD54806F088F83000390013
:100E300007F0CEF90E9A0F9BD14806F07FF80022FA
:100E4000D04B3000390000F0EDFC04000D00002212
:100E5000CC4B3000390007F023FA22002B00484623
:100E600006F06CF832003B000020C64900F0DAFCC6
:100E700004000D0032003B000020C24907F010FAC8
:100E800022002B00484606F059F83000390000F0E7
:100E9000D5FC04000D003000390007F0D1F9220024
:100EA0002B00B94806F04AF83000390000F0D2FCB7
:100EB00004000D003000390007F09AF922002B00E1
:100EC000B24806F03BF832003B003000390001F038
:100ED000DFF804000D0032003B003000390007F05D
:100EE000F7F922002B00AA4806F028F83000390054
:100EF00007F0E6F9109A119BA64806F01FF8390092
:100F0000300000F04FFB390002008246300000F054
:100F10005FFF04000D0052463000390007F078F9F9
:100F200022002B009C4806F009F800229B4B300061
:100F3000390001F03BFA04000D000022974B30000D
:100F4000390007F0A5F922002B00954805F0F6FFBF
:100F500016AB14AA3000390000F0ECFB149C159D70
:100F60001699179A2B000E910F92009101928D48BD
:100F7000220005F0E3FF0A980B9922002B0000F0F5
:100F8000C3FA002807D00C9A0D9B0E980F9900F019
:100F9000BBFA002804D1844805F044FE01231393D2
:100FA000824B30003900002200F044FA01235B42FA
:100FB0009C46E044434606000F00002B00D0F9E6B3
:100FC000012420257A4E6442200000F0D3FA02006A
:100FD0000B003000210005F0B1FF200000F0CAFA3C
:100FE000013D200007F044F96400002DECD10124FC
:100FF0002035200000F0BEFA02000B003000210076
:1010000005F09CFF200000F0B5FA013D200007F03C
:101010002FF96400002DECD1402601240025654FF6
:101020002000290000F0FAFA22002B000090019124
:10103000380005F083FF2000290000F0EFFA013EA0
:101040002000290007F034F924196D41002EE7D162
:1010500001246442E51740362000290000F0DEFA42
:1010600022002B0000900191380005F067FF20005E
:10107000290000F0D3FA013E2000290007F018F9FA
:1010800024196D41002EE7D12025012400220023E0
:101090000021494805F052FF484E200000F066FA52
:1010A00002000B003000210005F048FF200000F096
:1010B0005DFA013D200007F013F96400002DECD12A
:1010C000300001244026002500220023002105F0E5
:1010D00035FF3B4F2000290000F0A0FA22002B0032
:1010E00000900191380005F029FF2000290000F050
:1010F00095FA013E2000290007F0DAF824196D4125
:10110000002EE7D1802300221B0600920193C42306
:101110002C4F00221B063800C42505F00FFF432684
:1011200000242D06200029000022274B00F0A9F9F9
:10113000013E04000D00002E4AD02000290000F0DE
:1011400079FA2200009001912B00380005F0F6FE9C
:1011500000221E4B2000290000F0DEF90028E1D11A
:101160002000290000F066FA2000290007F0D8F8D6
:10117000D8E7C0469C830010B8830010C8830010D5
:10118000D883001000002440F88300100884001069
:1011900014840010248400103484001000000840DF
:1011A00044840010548400106C8400100000F03F50
:1011B0007C8400108884001094840010A0840010A7
:1011C000AC840010B88400100000E03F0000E0C3D1
:1011D0000122794B52420092019388230022DB05C1
:1011E0003800882505F0AAFE43260024ED052000DE
:1011F00029000022714B00F044F9013E04000D006B
:10120000002E1BD02000290000F014FA22000090CC
:1012100001912B00380005F091FE0022684B200060
:10122000290000F087F90028E1D12000290000F012
:1012300001FA2000290007F073F8D8E70024614D77
:10124000614F42362900200000F0ACF922002B004B
:101250000090380005F072FE2900200000F0A2F98D
:101260002900200007F054F8200029000022534BE9
:1012700000F007F9013E04000D00002EE2D1002429
:10128000524D42362900200000F08CF922002B003C
:101290000090380005F052FE2900200000F082F98D
:1012A0002900200007F034F8200029000022434BD9
:1012B00000F0E7F8013E04000D00002EE2D100240A
:1012C000434D444F0536A82022002B00C00542495B
:1012D00000F0B9F82200089009912B0000203C4949
:1012E00000F0B1F83D4A069007913D4B20002900DF
:1012F00000F097F8394A04900591394B20002900F5
:1013000000F098F82200029003912B0020002900A1
:1013100000F0B7F82200009001912B00380005F092
:101320000DFE22002B002000290000F0AAF8220068
:101330002B002000290006F0A3FF22002B00002034
:10134000234900F080F822002B000020204906F0FD
:101350006FFF8023200029000022DB0500F06AF8DF
:10136000013E04000D00002EADD1139B002B03D1D4
:10137000FFF724F800280BD01A4805F053FC01248D
:10138000200019B03CBC90469946A246AB46F0BD41
:10139000FFF784FA0028EFD1FFF7DAFB0028EBD142
:1013A000FFF762FB0028E7D1FFF798FB041EE3D1AB
:1013B0000D4805F037FCE3E7FFFFFF7F0000E03F4B
:1013C0000000E0430000F0C3C88400100000F043B8
:1013D0000000F03FD8840010346F9D41D8822DD892
:1013E000822DD83F088500101085001000B5904769
:1013F000EFF3008000BD10B5029CA047EFF3008022
:1014000010BDC04644464D4656465F46F0B4704750
:10141000F0BCA046A946B246BB4670474840414092
:10142000484018B41B4B5B68FC46019308BD04DFC1
:10143000EB27001018B4174B1B68FC46019308BD3E
:1014400000DFF52700109446134A926F920809D2E4
:10145000624618B40F4BDB68FC46019308BD0CDFF5
:10146000AD2A00100C4AF0B5146E556E576F166F0A
:101470006246FFF7EEFF084A14665566576716671F
:10148000F0BD18B4034B9B68FC46019308BD08DF10
:1014900051290010E0540020000000D0FFB550405A
:1014A0004240504059404B40594000E0FFB5154F75
:1014B0004C00640D03D0BC4204D10C0314D80020AE
:1014C000090D09055C00640D03D0BC4204D11C0366
:1014D0000AD800221B0D1B0501264B4009D44B40A6
:1014E00003D58B4200D18242FFBD9942FCD190428C
:1014F000FFBD0B43DB1803431343F5D0C943491821
:10150000FFBD0000FF07000000B5FFF7CFFF01D0CF
:10151000002000BD012000BD00B5FFF7C7FF8041DE
:1015200000BDC04600B5FFF7C1FF01D9002000BDD6
:10153000012000BD00B5FFF7B1FF01D9002000BDBB
:10154000012000BD00B5FFF7A9FF804100BD0120CB
:1015500040054A00121804D85A00121801D8002079
:1015600070470120704700207047000000210028CC
:1015700005D17047C1174840401AFAD0C90713B5C2
:10158000064B1B6898470CBC441CA2401005120B6C
:101590000349091B09051943114310BDC05400201C
:1015A0001F04000010B54C00620D8023D218DB0030
:1015B000D21A5B057E2A10DD9E3A13DACC17090396
:1015C000490819435242D140640001341532202A9F
:1015D00005DAD0400843604310BD002010BD084626
:1015E000604310BDC80FC018013810BD18B4044BBB
:1015F0005B6AFC46019308BD24DF892E00100000C1
:10160000E054002018B4044B1B6EFC46019308BD47
:1016100060DF3B2F00100000E054002018B4044BA2
:10162000DB6DFC46019308BD5CDF392F0010000024
:10163000E0540020C94211D300B5490049080022F6
:1016400000F024F8002904D4002240428A411146C7
:1016500000BD80210906002000BD000018B4044B25
:10166000DB6EFC46019308BD6CDF972E0010000076
:10167000E054002018B4044B5B6FFC46019308BD96
:1016800074DFB12E00100000E054002018B4044BA9
:101690009B6FFC46019308BD78DFB32E001000005D
:1016A000E054002018B4044B9B69FC46019308BD2C
:1016B00018DF792C00100000E0540020024A034B90
:1016C00000B501F071F800BD182D4454FB211940FC
:1016D0008A0002D3920D092A08DA18B4064BDB6B94
:1016E000FC46019308BD3CDF8F30001000B5FFF7CA
:1016F000E5FF04BC9646F0E7E05400208A0002D3E0
:10170000920D092A08DA18B4064B1B6CFC460193AB
:1017100008BD40DF9F30001000B5FFF7CFFF04BCCD
:101720009646F0E7E054002000B5FFF7C7FF04BC81
:10173000964605E03CB58A0002D3920D092AF3DAF9
:1017400000F004F830BC03C40CC530BD18B4184B0D
:101750009B6CFC46019308BD48DF5F1700101CB46A
:1017600013231B78012B01D1124B00E0124B104ABE
:10177000936402930CBDF0B5FFF744FE00F00BF844
:10178000844600F00CF803B4604600F00CF80CBC82
:10179000FFF73EFEF0BD01B50848019001BD03B45E
:1017A0000748019001BD03B40648019001BD000047
:1017B000E0540020B33000107717001055380000B7
:1017C0009D380000D93800008A0002D3920D092A02
:1017D0001DDA9446114A926F920809D2624618B4F3
:1017E0000F4B5B6CFC46019308BD44DF6F3000106B
:1017F0000A4AF0B5146E556E576F166F6246FFF7C2
:10180000EEFF064A1466556657671667F0BD00B5C9
:10181000FFF754FF04BC9646DBE70000000000D051
:10182000E054002018B4044B9B6DFC46019308BDA6
:1018300058DFAD3100100000E054002018B4044B14
:10184000DB6CFC46019308BD4CDFC1330010000087
:10185000E054002018B4044B1B6DFC46019308BDF6
:1018600050DF5D3400100000E0540020132370B5F9
:101870001C78012C15D010DD0F4801F0DDFE0F4D56
:1018800001008022280005F037F9022C06D00C4810
:1018900001F0CAFE0B4B186070BD084D0A4AAA64DD
:1018A000F5E7064D084A29002B00803104C38B421E
:1018B000FCD1AA64EBE7C04653440000E05400208A
:1018C0004C330000C0540020B9270010F0B5464644
:1018D0004F46D646C0B54E001D00730D99468D4B40
:1018E00088B04B4498464B461400002B3BD08A4BA3
:1018F000994538D04B460022884FFF1A3B05801887
:101900005941FFF7A7FF864A864BFFF79CFD00224F
:10191000854B06000F00FFF715FE00280AD0834B09
:10192000300039000022FFF77CFD814B06004B445C
:101930000F0098464346002B36D000227D4B2000F6
:101940002900FFF7F7FD002823D100227A4B200061
:101950002900FFF7E7FD00282FD043460020002B89
:101960001BDB00211AE0FFF775FF6D4A6D4BFFF797
:101970006AFD00226C4B06000F00FFF7E3FD002814
:10198000CDD100226B4B20002900FFF7D3FD0028AA
:10199000DBD043460020002BE3DB684908B01CBCC9
:1019A00090469946A246F0BD22002B003000390037
:1019B000FFF767FD00F00EFBF0E72000290000F0C4
:1019C0005DFA0B0002002900200004920593FFF746
:1019D00028FD1A220290039100F0FAF900F04EFA65
:1019E000009001910B0049000200490D0BD04A48BC
:1019F000814208D000201A2900DC88E05049801874
:101A000059410090019104980599FFF7CBFD82465A
:101A10004046FFF7AFFD009A019B04900591FFF748
:101A200030FD04000D0000F029FA0A000100130047
:101A300006910792020029002000FFF7F2FC009AAD
:101A4000019B04000D0002980399FFF7EAFC049A39
:101A5000059BFFF716FD22002B00FFF7EBFC009023
:101A600001915046FFF786FD32003B00FFF709FD6C
:101A700004000D0000F002FA0A00010013000491B6
:101A80000592020029002000FFF7CBFC009A019B81
:101A9000FFF7D0FC04000D000298039932003B00D0
:101AA000FFF7EFFC22002B00FFF7C4FC00F092FAD6
:101AB0004E0004000D00760D00D16FE7164B9E42DC
:101AC00000D16BE706980799534647465F43FFF7F7
:101AD00069FDC71904980599FFF764FDC0198319BA
:101AE000002B09DD174A93420ADDEB0F134ADB078F
:101AF0001A430020110051E7EB0F0020D9074DE7F2
:101B00000022030512196B411000190046E7DB0F94
:101B1000D90776E701FCFFFFFF070000FF03000085
:101B2000EF39FAFE422EE63F0000E03F0000F03FB2
:101B300002FCFFFF0000B0400000B0C00000F07FDA
:101B4000000060FEFE070000F0B54646D6464F4650
:101B50000400C0B50D001600012A55D0D70FBF18DC
:101B60007F10012F46D00323D21713409B199B10DF
:101B70009846012B34D0072313409B19DB1099465C
:101B8000012B22D00F2313409B191B119A46012BC6
:101B900010D01F231A4092195211FFF7D5FF0B00E6
:101BA0000200FFF76EFC5346DB0703D522002B0033
:101BB000FFF767FC0B000200FFF763FC4B46DB07F7
:101BC00003D522002B00FFF75CFC0B000200FFF79F
:101BD00058FC4346DB0703D522002B00FFF751FCDE
:101BE0000B000200FFF74DFCFB0703D522002B0082
:101BF000FFF747FC0B000200FFF743FCF30703D598
:101C000022002B00FFF73DFC1CBC90469946A246E3
:101C1000F0BDC046F0B54F464646D6460400C0B5B6
:101C20000D009146984606000F1E4EDA5D00614B8E
:101C300034249C466D0D6544641B2300203B9C4668
:101C400000D5A2E001236246934019000123A3407E
:101C5000180001225242D31712184B414046494600
:101C6000184063460A40002B00DA86E0434661468E
:101C7000CB4001210B40002D20DB002C51DB024327
:101C800044D1002B05D006E080231B06FB181F1E45
:101C900019DA342CF8D180231B06F9184A4643463A
:101CA0003000FFF7B7FF0200802000060B18190074
:101CB00010001CBC90469946A246F0BD80231B062E
:101CC000FB181F1EFADB34003D0048464146FFF773
:101CD00069FC7B00824602005B0D2DD15346002B30
:101CE00059D02033402B5ED85346002B09DA22000E
:101CF0002B0000203049FFF7A6FB534604000D00DF
:101D00005A4220002900FFF71FFFD2E780231B065D
:101D1000FB181F1ED7DA80231B06FB181F1EF5DBDE
:101D2000D1E780231B06FB181F1ECCDA80231B067D
:101D3000FB181F1EF5DBC6E720498B42CED03903C6
:101D4000090B0E43CAD11E49884200DA0A001B491A
:101D50008A4200DD0A0017498C4663445A43194BF6
:101D6000D318002B1CDD184900208B4216DC11050E
:101D70000022114B801859419BE7202341461B1B31
:101D800099404B46E3400B4373E7202301221B1B82
:101D9000DA4011005AE7002007498AE70B4988E733
:101DA0000020002185E74A46434620002900FFF72E
:101DB0008DFD7EE701FCFFFF0000F03FFF07000004
:101DC00000F8FFFFFF030000FE0700000000F07FA7
:101DD0004B0070B55B0D04000D00002B0ED00C4EB7
:101DE000B3420BD0D318002B0EDD0A498B4206DD1F
:101DF000EB0F094ADB071A430020110070BD0020D9
:101E0000110500196941F9E7CB0F0020D907F5E763
:101E1000FF070000FE0700000000F07F10B549003A
:101E2000DC0FE4074908214310BDC0464B00124AAD
:101E30005B0D70B59B1812D43422D31A002B0DDD24
:101E4000543A9A1811D401269640350001229A403E
:101E5000140000236242AB411040194070BD0022C3
:101E6000C90FCB0710001900F8E720220126D21A6B
:101E7000D6403500EAE7C04601FCFFFF1E4A4B0092
:101E800094465B0D6344F0B55A1C27DB5A1C2BD0DB
:101E90003422D21A002A1ADD3324E41A20235B42AA
:101EA000E51815D40126AE4033000125A5400400F5
:101EB0002A000D00A4185D4192185B41002756428C
:101EC0009F412300334018002B003B401900F0BD18
:101ED000202501262D1BEE403300E6E70022C90F26
:101EE000CB0710001900F2E7CB0F044ADB071A43B7
:101EF00000201100EBE7C04601FCFFFF0000F03FAF
:101F0000F0B5C6464B0000B504000D005B0D21D0B6
:101F10001E4A9B182CD43426F31A9846002B16DD43
:101F2000202342465B42D71829D4333EBE403300BB
:101F300001274646B7403A00002911DB00275642E8
:101F40009F412300334018002B003B40190004BC84
:101F50009046F0BD0022C90FCB0710001900F6E72C
:101F600001246442E51724184D41A4185D41E5E7BA
:101F70000020002901DB0021E9E70549E7E72027E8
:101F80000126BF1AFE403300D2E7C04601FCFFFF26
:101F90000000F0BF094A70B50B0D93420AD0084A01
:101FA000934204D00022074BFFF73CFC70BD06486B
:101FB0000649FBE704480649F8E7C046FF0700006A
:101FC000FF0F00000000F03F182D4454FB21F9BF23
:101FD000FB21F93F264B70B50A0D05000C009A4213
:101FE00010D00022234BFFF79DFA00280AD10022CF
:101FF000214B28002100FFF79DFA002805D0002082
:102000001E4901E00020002170BD28002100FFF7DB
:1020100035FFFFF7C7FA0600FFF7ACFA02000B0026
:1020200028002100FFF7FDF9154B164AFFF729FAA2
:10203000FFF704FC4B0004000D005B0DE4D0124AD6
:102040009342E1D0F318002B0EDD104A934206DDD7
:10205000CB0F0A4ADB071A4300201100D4E7002007
:10206000310500196941CFE7CB0F0020D907CBE735
:10207000FF0F00000000B0C00000B0400000F07F83
:10208000422EE63FEF39FAFEFF070000FE07000090
:10209000F0B54F464646D646C0B51D0082B0160084
:1020A000B84B002207000C00FFF72EFA002844D19D
:1020B0002B0D99465B055B0D98463ED00022B24B36
:1020C00038002100FFF720FA00283ED0AF4B98459A
:1020D00033D0994500D170E0AD4B994565D0AA4BFE
:1020E0009A464346AB4A9B1800D58CE03422D31A5B
:1020F000002B1BDD543A9A1800D5A3E000210020E4
:102100000090019101219140019101229A40009299
:1021100001225242D31700980199801859410200B8
:102120000B0032402B40134300D06CE032002B00F8
:1021300038002100FFF76EFD01E00020914902B058
:102140001CBC90469946A246F0BD220D5305A246FE
:102150005B0D62D143468F4A002D29DB9B1824D4A6
:102160003422D31A984620D4203B9C4663D40123C2
:102170006246934019004246012393401800012211
:102180005242D31712184B4132402B4013430CD10B
:102190004346342B06D06346002B65DBDD40EB075E
:1021A00000D4FFE038002100C9E700200021C6E785
:1021B0009B1802D43427FF1A02D500207649BEE7C7
:1021C0003B00203B9C4630D40123624693401900DB
:1021D0000123BB40180001225242D31712184B4171
:1021E00032402B401343E8D1342F05D06346002BF7
:1021F00032DBDD40EB07E0D50022E40F6649E4075F
:10220000214310009BE75346002BD6DB32002B0006
:1022100038002100FFF75AFB91E75C498A422CD134
:102220000020002DCADA002189E720230122DB1BD0
:10223000DA401100CCE7424620239B1A0122DA4003
:10224000110098E700210020202200900191012137
:10225000D21AD140019158E72023DB1B9D402B006F
:102260003500FD401D43C5E7424620239B1A9D4093
:102270002B003500D5401D4391E7454882426ED181
:102280004346444A002D23DB9B1896D43424E41A99
:1022900093D420235B42E71840D42133BB4019007C
:1022A0000123A340180001225242D31712184B41B8
:1022B00032402B40134300D07FE7342C3CD0002F1A
:1022C0003DDBFD400020EB0700D477E7334936E7DC
:1022D0009B1800D569E73424E41A00D565E720236C
:1022E0005B42E71820D42133BB4019000123A340EF
:1022F000180001225242D31712184B4132402B4092
:10230000134300D051E7342C14D0002F1FDBFD40C5
:102310000020EB072DD58021090610E7202301229C
:102320001B1BDA401100BBE7202301221B1BDA40F4
:102330001100DBE70020EEE700201849FFE620232C
:102340001B1B9D402B003500E5401D43BAE72023B1
:102350001B1B9D402B003500E5401D43D8E78945F8
:1023600009D0814500D0BCE60D4A0020934200DC34
:1023700024E70100E3E60A4A0020934200DD1DE75E
:102380000021DCE60000F03F0000F0BFFF07000086
:10239000FF0F000001FCFFFF0000F07F0000F0FFD6
:1023A000FE03000000200100C9E6C046F0B5574614
:1023B000DE464E464546E0B55C00640DA246534CF1
:1023C00094464A0087B0520DA2420DD05446002CCC
:1023D0000AD0CC0F0394002A11D10025002C05D07F
:1023E000802500242D0601E00024494D200029000D
:1023F00007B03CBC90469946A246AB46F0BD0400EF
:102400000D005245F2DB0400802009031B0340034A
:102410001B0B090B0143184353460D006146D31AA9
:10242000009101909846002B3CDD011101204042B3
:1024300004F0B0F8834616E022009A40170023000B
:102440004A4693401E00009A019B4810C91704F0A9
:10245000E1FA43464A4634003D009B1A241A8D4156
:102460009846002B1EDD4346C1460C2B01DD0C2394
:1024700099465B46A91159434A461D239B1A2022BF
:1024800019414B46524201319B18D5D54A4620236B
:102490009B1A2200DA40484613002A0082401700A7
:1024A0001F43CCE7009A019BAB421FDC01D1A24243
:1024B0001CD8009A019BA41A9D41AB4204DC20D099
:1024C000009A019BA41A9D41039B002B04D022007B
:1024D0002B00002554429D4153460E4A20002900FE
:1024E000D21AFFF78FF804000D007FE7002DEBDA1A
:1024F000009A019BA4185D41002DE5DAA4185D4106
:10250000E2E7009BA342DBD9DEE7C046FF070000FD
:102510000000F07F33040000F0B5DE469B465746CE
:1025200045464E465C46E0B56400640D89B0A2465F
:10253000129C4D0003006D0D002C02D026000024DB
:102540003460964CA54200D180E05646002E7DD0E6
:10255000002D00D185E0A24500D1C5E05446013CE4
:1025600006000F000394A54272DBCC0F0E03A146B8
:10257000340B1E0080235B039C46230064462343E8
:102580001F005B461B031B0B9846009263464246A6
:1025900013430193039B9D4200D1D3E04B46002B94
:1025A00000D1B2E033003C0000275E42A741534611
:1025B000ED1A002D00DCAEE00120019B4042191114
:1025C00003F0E8FF00239946534604935B460390CB
:1025D0000593AB461BE032009A401500330052468B
:1025E00093401C0043464046D917009A019B04F0D3
:1025F00011FA4B4652469340434499465B462600A7
:102600002F009B1A361A8F419B46002B2CDD5B4610
:10261000DA460C2B01DD0C239A46039ABB11534377
:1026200051461D22521A1341202201335B1052429F
:1026300098468B18CFD5202332005B1ADA405146DA
:1026400013003A008A4015001D43C7E70026544F87
:102650003000390009B03CBC90469946A246AB46D2
:10266000F0BD00260027F3E7049B9A46059B9B4696
:10267000009B019CBC4250DC61D0009B019CF61A7F
:10268000A741BC4200DD80E000D17AE0009B019CC4
:10269000F61AA74102239C46E144320000980199B2
:1026A0003B0092197B418B4227DC45D00099914237
:1026B0001DD05B46002B02DA4B465B429946129BCB
:1026C000002B01D04A461A605346364A3000390082
:1026D000D21AFEF797FF06000F00B9E7009B019C96
:1026E000A74201D19E4230D806000F00B0E7019901
:1026F0009942DED14B46DB07DBD5009B019CF61AE5
:10270000A74101239C46E144D3E75346ED1A002D2F
:1027100000DD51E7ACE700239946002FBDDA009BAE
:10272000019CF6186741002F33DAF618674102233F
:102730005B429C46E144B0E78242DED8B6E7B34252
:102740009BD9EAE7019B9F42C8DD4B46002B0AD18B
:10275000009A019B92185B41B61A9F41039B9A46CF
:1027600001239946A5E7009A019B92185B41921BB1
:10277000BB411F00039B16009A4601235B4299460A
:1027800097E7009BB34200D880E701239C46E144D1
:1027900083E701235B429C46E1447EE7FF0700009C
:1027A0000000F07F3304000010B5002482B00094D4
:1027B000FFF7B2FE02B010BD07B5604601880A0AF5
:1027C0000230DF2AFAD1C9B2820804D302884088D5
:1027D0000004104300E00068014A5050039007BD18
:1027E000E05400200FB403BC0CBCF0B50124E40796
:1027F000634000E0F0B50C0DCF0F661E3605891B57
:10280000640503D3C943404200D30131640D03D0B2
:10281000661CF60A07D0E41B00207F00791C89079C
:102820008912803C24031D0DDF0F6E1E36059B1B95
:102830006D0503D3DB43524200D301336D0D03D04A
:102840006E1CF60A07D0ED1B00227F007B1C9B0745
:102850009B12803D2D032F1B661B58D4A446202EAF
:1028600046DA20371400BC401D00BD40F240334121
:102870002A4380185941CB0F05D0C943C0430022D9
:1028800064425041514162464D0D28D10D0D07D192
:1028900000281FD0241940414941013A0D0DF9D0BB
:1028A000640006D3013000D30131002C01D140086F
:1028B0004000013A0BD4941CE40A04D112051144DF
:1028C000DB071944F0BDD907204B194300E0D907B5
:1028D0000020F0BD0029DDD1002CDBD1F0BD01329C
:1028E000C6074008CD0728434908002EE1D0D9E7A4
:1028F0003C2E29DA203E40371400BC4000D0012491
:10290000F24014431A00BB401C43D317ACE7AC465B
:10291000202F08DA20360400B4400D00B540F840FE
:1029200039412843A5E73C2F0CDA203F403604000C
:10293000B44000D00124F84004430800B1400C43E7
:10294000C117EAE710001900002494E70000F07FA7
:10295000F0B50C0D661E3605891BE60A6405640D8C
:1029600002D0651CED0A04D0002001210905803C3D
:102970002403A4461C0D671E3F05DB1BE70A640504
:10298000640D02D0651CED0A04D0002201231B0552
:10299000803C24037740644497B484B296B2744375
:1029A000070C7E43150C6F4380B26843361802D380
:1029B000012000043F183004350C00197D41844685
:1029C00088B29AB250430C0C62431F0C7C438EB207
:1029D0007E43921902D301263604A4191604170C5B
:1029E0003618674101BC81B29AB25143040C62436C
:1029F0001B0C5C4380B25843121802D30120000420
:102A000024181004130C401863412D185E41002057
:102A1000474106BC88B293B258430C0C6343120C76
:102A2000544389B251435B1802D30121090464184D
:102A300019041A0C091862416D18564100204741CB
:102A400018BCF902720D1143F0026A0D1043ED0239
:102A50000A0D03D16D1940414941013B124E9B1BA8
:102A60007600B3420ED26D0007D3013000267141CB
:102A70006646354301D1400840001B05C918E407EC
:102A80002144F0BD0BDA013306D1013004D101310C
:102A90004F0D01D04908F2E7E1070020F0BD0136F3
:102AA00031050020EBE70000FF030000F0B51C0D2E
:102AB000671E3F05DB1BE70A6405640D02D0661C38
:102AC000F60A04D0002201231B05803C2403D025F4
:102AD0002D060026F6432E661E096E66CE0FF619E9
:102AE000B44649004F0D02D07E1CF60A03D00020E8
:102AF0000021403F3F033E1BB600B444013F7F0529
:102B0000C91B49082E6F013676089C02950D254396
:102B10007543ED137543AD1301356D10F603761B48
:102B20000CB4CC02450D2C43A2B2B3B25A43270CCD
:102B30007B43350C6F43A4B26C431B1902D30124B1
:102B400024043F191C041D0CA4187D4124196D4157
:102B5000009A91B2ACB26143170C7C432B0C5F43DB
:102B600092B25A43A41802D301221204BF182204BD
:102B7000230C52187B41019C6C431B19520ED90146
:102B80000A434401A01A81B2B2B2514303145A431A
:102B9000360C734387B27743D617D21900277E418C
:102BA00036049B191704160C7F185E417316ED1836
:102BB000F301002680337541A90F06D16400690A2C
:102BC000E8055B0A184309D22FE0042294448033BD
:102BD0007541A90AA8059B0A184326D340414941DB
:102BE0002404009A019B0D005543641B4343E41ADF
:102BF00095B286B27543170C7E43030C5F4392B2C5
:102C00005A43B61802D301221204BF183204330CFF
:102C100052197B4152429C41002C02D400220130C7
:102C200051414008CA071043490802B06246D7071D
:102C30009210084BD218084B9A4203D212058918F9
:102C4000C919F0BD0020002A01DC3900F0BD0133B4
:102C50001905F5E7FD030000FE07000007DA002173
:102C600007E0C90FC907520D03D0C91201E04C4952
:102C7000090500207047C0464A00F2D2520D013AC1
:102C8000484B9A42EAD2F0B51405091B520801D309
:102C9000001849419B08D2181205944640A44A0CDA
:102CA000A25C0B09534353431B1353435B131202A0
:102CB000D21A13005B435B0B4C086343DB13534393
:102CC000DB1501335B10D21A130CD21A13005B43CD
:102CD0008902840D21438DB29EB275430F0C7E4351
:102CE0001B0C5F438CB25C43361902D301242404CD
:102CF0003F193404330C64197B419D01A40E2C430D
:102D00002034A5B25543241454432D0C6419A41146
:102D1000D203121B95B28EB27543170C7E430C0C76
:102D2000674393B26343F61802D301231B04FF18D1
:102D30003304340C5B197C41DB186441DB1800233D
:102D400063419EB276439DB21F0C7D437F436C046A
:102D5000ED0BA4197D4106028F08361BAF417D079C
:102D6000F6086E41B4B295B26C4337147D43120C31
:102D70005743B6B25643EA17AD1900267241120402
:102D8000BF182E042A0C36197A410832521117D274
:102D90009D0A9C05D117101969416144F0BD0000DE
:102DA000FF070000FE070000F8EBDFD6CDC5BEB878
:102DB000B2ADA8A4A09C9995928F8D8A88858381B5
:102DC00052415D0ADC05D11714194D412B006343B4
:102DD000A6B27643A2B2270C7A437F435104D20BAA
:102DE00089197A41D218D21880054942904102D4FB
:102DF000002301345D4160086908ED072843614400
:102E0000F0BDC046624618CA94465A46002A20DBE6
:102E100004E0624618CA944600291ADAC0186141D3
:102E20005B463B415C46B4405246FA40224344462E
:102E30004D4662416B41904699462B46B3403D4119
:102E4000FC401C4352465B46A241AB4192469B4626
:102E50007047C01AA1414B463B414C46B4404246E4
:102E6000FA40224354465D4662416B4192469B467E
:102E70002B46B3403D41FC401C4342464B46A241D9
:102E8000AB41904699467047002200B5203200F0D1
:102E900010F8080000BD002200B500F00CF8CA17B9
:102EA0009A4200D100BDD8430121C907414000BD6D
:102EB00000220B150AD410B5944600F079F81414CA
:102EC000013400DA0021CB17144C204700200021E8
:102ED00070476244343A0CD40C2A07DA040091405B
:102EE000904052422032D440214310BDD843D943B0
:102EF00010BD203207D40C4694405242203211417A
:102F0000D040204310BD0800C917203203D45242DC
:102F10002032104110BD1800190010BDD32E001032
:102F200000210A00002104E000210A00C11704E08A
:102F30000022002306E0C0460022CB17584059402B
:102F4000C01A994130B5184CA21A002903D10100CA
:102F500010D00020203A4C1512D104D2013A0018AA
:102F600049414C0DFAD3114CA24204D212058918E2
:102F7000DB07C91830BDD243520D00200021F5E710
:102F800003D4013A00184941FBD50B324405C00A6D
:102F90004D052843C90A640003D000246041614103
:102FA000E1E7E0D34408F8E732040000FE07000040
:102FB0000A0DCC0F531E1B05C91A520503D3C94372
:102FC000404200D30131520D03D0531CDB0A07D01D
:102FD000121B00206400611C89078912803A1203C9
:102FE000014BD21A70470000FF030000023225D4C3
:102FF0000C2A1CDA1125AD1A0B002B4108320735BB
:103000000600EE40904091403143F0CC63431A15E6
:1030100000235A41554356435743BF02F4127605E5
:1030200076196741ED177F19801BB94170470C2253
:103030000020C917490001310905DBE70902030E29
:10304000194300025342203208D40C001941944025
:10305000D840204300225041514170470800C91711
:10306000203B2032F1D50020002100227047F0B52E
:10307000FEF7C8F900F02EF8844600F04FF803B4CC
:10308000604600F069F80CBCFEF7C2F90FE5F0B538
:10309000FEF7B8F900F01EF800F040F806E0F0B5D1
:1030A000FEF7B0F900F016F800F056F8FEF7B0F9A8
:1030B000F0BDF0B5FEF7A6F900F00CF8844600F07C
:1030C0002DF803B4604600F047F80CBCFEF7A0F9F9
:1030D000F0BD000000B5FFF76BFF30A4FFF786FFDF
:1030E00000242C4D2C4ED20702D3F6436D4266418C
:1030F000520004D2A246A346A846B14603E0A04629
:10310000A146AA46B3466EA4A44601271F26FFF790
:1031100080FE0137013E212FF9D100BD594684B20E
:103120008DB26C43061475430B145E4382B25A434E
:10313000AD18EA1700D7D2431204B6182A042B0C94
:1031400012197341404649469D009B17920F2A432E
:10315000904199413E22F0E6494684B28DB26C43DB
:10316000061475430B145E4382B25A43AD18EA1736
:1031700000D7D2431204B6182A042B0C121973413B
:10318000504659469D009B17920F2A435041594182
:103190003E22D2E6BB4DF09DC556F6367D5100006D
:1031A0001A61140085880A00FB211900F0B5FEF7AA
:1031B00029F9404D0C002C4001D0AC4202D1090D40
:1031C000090500201C002C4001D0AC4202D11B0D8F
:1031D0001B0500220026ED02002B04D502266B40C1
:1031E000694000D476424F1904D599420CDD01366E
:1031F000694003E0BB4207DA013E6B400700100064
:103200003A000F0019003B0040B4002A0FD1002BF8
:103210000AD05C006415013409D14C0064150134F6
:1032200002D10139013B02E0002000212EE0FFF72E
:103230003DFC3E22FFF730FE82468B4600200021F7
:1032400080460122920791461DA4A44601271F260D
:10325000FFF7D8FD0137013E212FF9D14A465346E9
:103260000C3A01246407002752081B0005D493413F
:10327000001979416408F7D104E05341001BB941BA
:103280006408F1D1CE0749104008304340BC002EFD
:103290000AD0094C094D01D5E443ED43F60701D1AD
:1032A00000196941001969413D22FFF746FEFEF70A
:1032B000AFF8F0BD0000F07F8D305A88A8F6433299
:1032C000694FBB610567AC1DB16E4096FCBAAD0F8E
:1032D00072DB0BABA66EF50739BD9FE576ABFE033F
:1032E0004B6297BA5BD5FF01D694DBDDAAFAFF00EB
:1032F0005DEAEE5655FF7F006E77B7AAEAFF3F0002
:10330000BCBB5555FDFF1F00DEADAAAAFFFF0F0095
:103310006F5555F5FFFF0700ABAAAAFEFFFF03009C
:103320005555D5FFFFFF0100ABAAFAFFFFFF0000D4
:103330005555FFFFFF7F0000ABEAFFFFFF3F000096
:1033400055FDFFFFFF1F0000ABFFFFFFFF0F000059
:10335000F5FFFFFFFF070000FFFFFFFFFF03000077
:10336000000000000002000000000000000100005A
:10337000000000008000000000000000400000008D
:10338000000000002000000000000000100000000D
:103390000000000008000000000000000400000021
:1033A000000000000200000000000000010000001A
:1033B000000000800000000000000040000000004D
:1033C000F0B5FFF7F5FD54A4FFF710FE002904DA6D
:1033D000204C214D00196941013A04B4012752A63D
:1033E000002201239B0730CEB446001BA9410BD419
:1033F0007E4220361D003D411C00B4401600FE40B8
:10340000344362416B4101E000196941664601376E
:10341000212FE8D185B29EB2754307147E43190C63
:103420004F4384B24C43F11736190024614109041B
:103430007F183404310C64197941A40F88002043AB
:1034400089178018594104BC52423E32FFF775FD7E
:10345000F0BD00006BDE73F4FD855C2CF0B54F0011
:1034600050D27F154ED001374FD0FFF7A1FD04B4E5
:103470004902C20D1143400201272BA6B446002287
:1034800000237E4220360D003D410C00B440060072
:10349000FE40344344414D41AE0F05D12000290088
:1034A000664630CE121BAB410824A4440137212FBD
:1034B000E7D18900891012184B4180BC17A413CCA6
:1034C0000137784379437C434F05C912CD17C019A2
:1034D0006941A702A415CD17C9196C41DD178018E1
:1034E00059416C413E22CD17AC4208D000090E076D
:1034F00030430909260731432411043AF3E7FFF763
:103500001CFDF0BD02490020F0BD02490020F0BDC5
:103510000000F0FF0000F07FAAB800006BDE13008F
:10352000A3EF0F0021170B00F34B98BFEC23F31907
:10353000D6104DCDE3FB470E7AB9BC8ADBC18907B3
:10354000CC542C021846E103053083E7B029F8017A
:103550001E1FE0874505FE00249E41ACA9807F0028
:103560008117624515E03F00E610ABA902F81F0085
:103570008858455500FE0F00C4AAA90A80FF07001D
:1035800056455501E0FF0300ABA92A00F8FF0100F2
:1035900045550500FEFF0000AAAA0080FF7F00003D
:1035A000551500E0FF3F0000AB0200F8FF1F0000D0
:1035B000550000FEFF0F00000B0080FFFF0700001A
:1035C0000100E0FFFF0300000000F8FFFF01000022
:1035D0000000FEFFFF0000000080FFFF7F000000F2
:1035E00000E0FFFF3F00000000F8FFFF1F000000A9
:1035F00000FEFFFF0F00000080FFFFFF070000003C
:10360000E0FFFFFF03000000F8FFFFFF01000000E4
:10361000FEFFFFFF0000000000000080000000002F
:103620000000004000000000142310B501001888BD
:1036300004331B88984710BD162310B50100188865
:1036400002331B88984710BDF8B54746CE4680B573
:103650000F1E19D0142399460433040000250126B7
:1036600098464B461888434621681B88984701C4F2
:10367000431E9841013540420640AF42F1D130002F
:103680000CBC90469946F8BD0126F8E710B503F04A
:10369000A5FC10BD094A830094464022634410B53E
:1036A0001C68C0006240C0241440802252011343B1
:1036B0001C60034B9C466044416010BD04C0014047
:1036C00000400140F8B5EFF3108772B60D4E336835
:1036D000002BFCD0BFF35F8F0725CB08C018012358
:1036E0000D40AB401D000478254007D123430370F3
:1036F000BFF35F8F356087F31088F8BD100001F0CD
:10370000DDF8C0462C0100D0024B18688007C00FBE
:103710007047C04600C006400021044B044ABFF376
:103720005F8F02C39342FAD17047C046000100D0B8
:10373000800100D0044A1078431CDBB2172B00D95B
:10374000102313707047C046C849002001238340EE
:10375000002902D1034A13607047034A1360034AE9
:103760001360F9E780E100E080E200E000E100E0C2
:10377000024B10309B688000C058704700ED00E09D
:1037800070B50D00EFF3108672B60F4A1368002B68
:10379000FCD0BFF35F8F0D4B10309B6884001B592A
:1037A0000B4A934203D09D4201D001F09FF8074B92
:1037B0009B681D51BFF35F8FBFF35F8F0022024BE9
:1037C0001A6086F3108870BD240100D000ED00E07F
:1037D000CD010010F0B5DE4657464E464546E0B5F1
:1037E0000C0083B0EFF3108B72B65B4A1368002BAA
:1037F000FCD0BFF35F8F1022904680444246574B67
:1038000097009B68DD59564B99469D4206D0A542CC
:1038100000D177E0534EAB1B2F2B12D94F4B9B6837
:10382000DD51BFF35F8FBFF35F8F00224A4B1A60F9
:103830008BF3108803B03CBC90469946A246AB4639
:10384000F0BD012383409A465246474B1B681A40FD
:1038500000925246454B1A60BFF35F8FFCF703FDA1
:103860000190002843D101232A009A4393689C4287
:103870004DD006215156002905DA31E0062159566E
:103880001A0000292CDB4B005B189B00F318996889
:103890008C42F3D10621595600293BDB4A005018CF
:1038A000800034188046A0689860E079D8710620BE
:1038B00020569871A0797F2826D8A488F01A64052C
:1038C000241544440019E0240005400D240220433F
:1038D00098805218264B9200B6181A781970B27157
:1038E000009B002B08D15246204B1A6096E780457A
:1038F000B9D000F0FBFFB6E752461E4B1A601A4BD8
:103900001A608BE71D0089E7BD200002E0E7130085
:103910000022BFE7019900290FD1002A1AD0FF31F8
:1039200091711549918012490A789A71134A9B1B2B
:103930005B415A43120D0A70D2E7114A1149D21A5B
:10394000083A5002400D014399800F4952080A433A
:10395000DA80C5E74D46E6E7240100D000ED00E03F
:10396000CD010010CC49002000E100E080E100E042
:10397000DD54002080E200E000BDFFFFAAAA0000A5
:10398000064A002000F0FFFF00F8FFFFF8B5012510
:1039900004000543FCF767FCEFF3108672B6214A7A
:1039A0001368002BFCD0BFF35F8F1F4A1F4B210011
:1039B000891A49414B431B0D1D4980008F685BB23A
:1039C0003F58BD4226D006215156994226D0122199
:1039D0005156994224D01E215156994210D02A2185
:1039E0005156032099420CD0124A11781370A171DC
:1039F000BFF35F8F00220B4B1A6086F31088F8BD6F
:103A000002204100091889005218FF2191710A49CA
:103A10009180E9E78A6809491150E5E70020F0E75D
:103A20000120EEE7240100D0CC490020AAAA000022
:103A300000ED00E0DD54002000BDFFFFCD010010CF
:103A4000084B094A1360094A1360094A1360094A7E
:103A50001360094A1360094A1360094A1360094A4E
:103A6000136070478080808000E400E004E400E0A0
:103A700008E400E00CE400E010E400E014E400E0FE
:103A800018E400E01CE400E0024B9C46614489001D
:103A9000016070474000003483680B4810B58446CD
:103AA00061446244090112019A18591854684B681C
:103AB00001209C4201D802D00020C0B210BD126883
:103AC0000B689A42F9D8F7E7FFFFFF0FF8B54E46AB
:103AD0004546DE465746E0B51F000CAB1D780DABE2
:103AE0001B7881469B46036816009846002D08D136
:103AF000987B002841D13CBC90469946A246AB46F3
:103B0000F8BD28006C006419033C384B00229C4629
:103B10004B469B6860449C4600010A9B604483605E
:103B20000B9B06604760C36043461B681B199A7075
:103B30005A701A7043465B7B9A46002B3BD0434633
:103B40002A00986851465B68984743461A680028DF
:103B500024D053465B005344033BD31814195246F8
:103B6000A2701A78002A00D062701D705246434637
:103B700028005A73AA45BED11FE0414644001B6885
:103B80002418033C1B195A788A73002A00D1CA737F
:103B9000002205009A705A701A70B6E753465B000F
:103BA0005344033BD31814199D702278002A00D087
:103BB0005A705346237043465D734B463200187D5E
:103BC0003B0000F00DFA041E07D05B46002B04D129
:103BD0004B462900186800F021FC0E9B002B02D0F8
:103BE0001C70280087E7280085E7C046FFFFFF0F0D
:103BF000744B8200F0B5D4580023DE4657464E463B
:103C000045469B46E0B58DB00B9000F06DF96268BB
:103C1000EFF3108572B61368002BFCD0BFF35F8FF3
:103C200023689C465B7B9946002B00D181E0A2680B
:103C3000654B90464B441B01984443461E685F68A1
:103C400032003B00121A8B41002B00DC84E03B0069
:103C500032000B9800F0C4F9002300220892099367
:103C6000002300279A466368BFF35F8F5A461A60A5
:103C700085F310885346002B64D00A9B3900180244
:103C80004B461843D047626806900791EFF31088BF
:103C900072B6564645461368002BFCD0B246A8467D
:103CA000BFF35F8F0699079A002A25DA2369002B54
:103CB00028D0089D099E6D1A96412A003300089D60
:103CC000099E9E4200D971E000D173E059460491EB
:103CD000012103914946029151460197009120002C
:103CE000FFF7F4FE5B4623616368BFF35F8F5A46BC
:103CF0001A6088F3108888E71300194302D02369FB
:103D0000002B46D12368DA7B002A07D051008A189D
:103D100019688C4649466244033A51704A46DA7340
:103D2000E2684B469446013B63441A7801321A70AC
:103D3000D8E70023002208920993002300279A461F
:103D4000002090E7002800D05FE70DB03CBC904613
:103D50009946A246AB46F0BD002B02D1002A00D006
:103D600075E70021604600F0ADFA43461A685B68CB
:103D70000892099343469B689A464346DF68E36886
:103D80004B44013B1B780A931B021843206100201F
:103D900069E700F0A9F8069A079B12184B4199426F
:103DA00004D800D092E7904200D88FE70122524217
:103DB000D3178BE7954200D888E701225242D317E8
:103DC00084E7C046B0540020FFFFFF0F10B5124C2F
:103DD0006368002B04D00A211048FFF755FE10BD80
:103DE00023000F4A1021206800F04EFA032000F053
:103DF0006FF8032000F062F90A49032000F0AAF8E6
:103E0000FFF798FC084B9C46032360442375074B3F
:103E100080006060DC60DEE7144A0020C4540020AB
:103E2000993A0010F13B001040000034B0540020DB
:103E3000F8B5CE46474680B5EFF305833F221340E1
:103E400018001038EFF3108C72B61B490A68002A6C
:103E5000FCD0BFF35F8F01210F008740174D184A38
:103E60006F63147891462200C24090464646002275
:103E700031420BD0696A134D884681004D59A845DF
:103E800012D3114BBC43CA584B461C70BFF35F8F13
:103E90000021094B19608CF31088002A00D090474C
:103EA0000CBC90469946F8BD08499B00884643449F
:103EB00019681960EAE7C046280100D000400540B3
:103EC000DE540020C854002028540020D03F054074
:103ED00010B50100024A0348FFF7F4FB10BDC046CD
:103EE000F8860010DC540020044A516A00E01900F2
:103EF000906A536A9942FAD17047C0460040054023
:103F0000134A30B5546A00E01C00956A536AA34214
:103F1000FAD12A002300801859418C4211D80ED0C2
:103F20000C000B4A536AA342FCD307D1084A02E0B3
:103F3000516A994202D1916A8142F9D330BD8542DA
:103F4000EED9012401204042C1176442E9E7C0468E
:103F50000040054070B504000D00EFF3108672B606
:103F60001A4A1368002BFCD0BFF35F8F002D1BD0C3
:103F70002000FFF7FDFB164988420AD02000FFF71A
:103F8000FFFB01212000FFF7E1FB0123A340114AC1
:103F90001360114BA400E550BFF35F8F00220B4B61
:103FA0001A6086F3108870BD0B4BA200D550012219
:103FB000A2400A4920000B7893430B700449FFF795
:103FC00009FC00212000FFF7C1FBE5E7280100D034
:103FD000313E00103860054028540020DE54002097
:103FE000F0B5D6464F4646462F4CC0B5656A00E050
:103FF0000D00A66A616AA942FAD1AB4249D9EFF332
:10400000108972B6294C21680029FCD0BFF35F8F5C
:104010000126274986408C460978264D0F003743F4
:104020008846F9B28A46614654460C701E49041D02
:10403000A4004E636250840063510D6A002435422F
:104040001AD04D6A00E025008F6A4C6AAC42FAD162
:10405000AB4224D801D1BA4221D8D04521D0124B4D
:10406000154A1E625E631F2318401E3B8340136087
:104070006346424601241A70BFF35F8F00220B4B48
:104080001A6089F3108820001CBC90469946A2460D
:10409000F0BDAB4201D1B242B1D80124F3E7002414
:1040A000EAE70124E8E7C04600400540280100D0C7
:1040B000DE540020C854002080E200E010B5EFF389
:1040C000108472B60A490B68002BFCD0BFF35F8FD7
:1040D00001238340074A0848136202789A4302701A
:1040E000BFF35F8F00230B6084F3108810BDC046C0
:1040F000280100D000400540DE540020F8B54E46AF
:104100004546DE465746E0B54C0064180368033C5C
:104110001A190D00517806008946002906D1280099
:104120003CBC90469946A246AB46F8BD4F004F4472
:10413000033FD81941788846002141705170002D05
:1041400012D073684A462900B0689847336800283F
:1041500073D0DF191A19BD701178002900D0797059
:1041600049462700117000E04D464246002AD6D04D
:1041700054004444033C1A1951788946002911D14E
:10418000736842462900B06898473368002849D0D0
:104190001C19DF19A5703B78002B00D063704346D3
:1041A0003B70BCE74900494403398A465344597877
:1041B0008B4600215970517073684A464146B06879
:1041C00098473368002843D152461C199A184B4629
:1041D000A3701378002B00D0637043465446C84642
:1041E00013705B46002BCBD059463000FFF786FF9B
:1041F00081460028C4D002004146B06873689847E1
:10420000326800282FD04B465B004B44033B11190A
:10421000D31842469A700A78002A00D05A704B464A
:104220000B70ADE71C19DF194346BB702378002BD8
:1042300000D07B702570454671E749461C19DA1994
:10424000A1701178002900D0617015704D468CE77F
:1042500041461A19534499701178002900D05970B9
:104260004B461370BDE74B465B004B44033BD118F4
:1042700014194A46A2700A78002A00D06270424699
:104280001C000A70C8467BE710B583600023CCB2DF
:1042900043730133047342608373C4730068012C59
:1042A00007D90123421C0133DBB2137003329C4255
:1042B000F9D8FF2319404B00591800234018033840
:1042C000437010BDF0B54E4657464546DE46E0B554
:1042D000477B03687C00E419033C1A19167883B005
:1042E00005008946002E1ED1002911D0C07B002870
:1042F00069D041000918591803394F70EF73002E27
:1043000006D0710089190339884600214344997009
:104310000023380053706E7303B03CBC904699463E
:10432000A246AB46F0BD7100891903398846591879
:1043300048788246002807D149460029E5D0E87B25
:104340000028D6D1EF73DCE742005244033A94468A
:10435000019263445A78934600225A704A706B68FF
:1043600052463100A86898472B68002832D0414651
:1043700001985A1819188E701078002825D15146C6
:1043800011705A46002A23D059462800FFF7B6FE7E
:10439000824600281BD002006B683100A86898474D
:1043A0002B68002825D042469918524652005244A4
:1043B000033A9A1896700878002800D05070524638
:1043C0000A701A19B8E7EF73A2E74870D7E72B68AD
:1043D0001A19B1E741465046019A59189A1888703F
:1043E0001078002800D048701670019A5646904602
:1043F000C7E752465100514403395A184046934684
:104400005246181882705A461278002A00D042701C
:104410005A46884616701A1956468DE7F0B5454635
:10442000DE4657464E46E0B50C0083B0050000223C
:1044300000293DD0477B0168BC426BD0660036192D
:10444000033E88198378002B32D05A00D318033BDF
:10445000CB181A78944202D143E0002A08D05300C6
:104460009B18033BCB185A789442F6D142785A7085
:1044700000238370437003789846002B25D1EA7B94
:10448000002A1DD053009B18CB18033B5C70434699
:10449000EC73002B00D171E05C0000234444033C2A
:1044A00009198B704370002F1ED1434601226B7394
:1044B000100003B03CBC90469946A246AB46F0BD06
:1044C000B846EC7300234370EFE719002800FFF7AC
:1044D00015FE2968EA7B80466F7B8819002AD6D0B2
:1044E000D0E742781A70C3E742463900A8686B6883
:1044F00098472A68002824D07B00DB191419033B55
:10450000D318A7701A78002A00D062704246B846C5
:104510001A70CAE77E00F619033E8B191878804698
:1045200000281BD1E87B002804D0420012188A180A
:10453000033A5470EC7300225A70434601326B7395
:10454000B6E77B00DB19033B1419D31842469A7077
:104550002278002A00D05A702770A6E7440044440D
:10456000E01E019008184478A246002C08D1EC7B8C
:10457000002C76D1EF7300228270DCE7B846A1E709
:1045800063005344033B994649444B784A70427058
:104590009B4622006B684146A86898472B68002814
:1045A0004BD049464046019C59181A19887010781A
:1045B000002850D15146A14611705A46002A20D0F9
:1045C00059462800FFF79AFD041E19D00200414603
:1045D000A8686B68984700281ED04A4641462B6859
:1045E000981862001219033A9A18917001780029FC
:1045F00000D051700470E97B002905D19B19B9E7FF
:104600002B684A469818F6E74A0052189A18033A57
:1046100057709B19EF73AEE74B462968600000198D
:104620000338CB1808189C700278002A00D05A7002
:104630004346A04603708B1999E74A469818019A99
:104640009C185246A2700278002A00D0627042463E
:10465000D0460270B1E7487051461170019A9146F8
:10466000ABE7032262438A18033A577082E7C046D9
:1046700010B50400FFF75EF801002000FFF704FA10
:10468000FF232371BFF35F8F10BDC04610B5040038
:10469000FFF750F801002000FFF7F6F9FF23237120
:1046A00000236371BFF35F8F10BDC046F8B50400EF
:1046B00006200D0000F084FA03000020002B49D0F2
:1046C000294B80229C424DD0D203284B28491A60A6
:1046D000284B1A6010008B689843FBD1264B802131
:1046E000E3185A425341254A5B004900062099527B
:1046F00000F066FA2900C00001F04CFFC3092AD07F
:104700001F4A93422AD87F221040013040089F015F
:104710001A0003003F18260080256262A36200236E
:104720002C36AD0135432B60062000F049FA3900E4
:10473000800001F02FFF6023E26A53406E221A408E
:1047400080235B0133431A600E4B236310232B60DD
:104750000D3BA364F8BD40270122DCE70A4F00238C
:104760000A4AD8E71204B0E70080034000E00040A6
:1047700000C0004000F000400080FCBFE055002079
:10478000FEFF000001030000C0FF3F00FFFF00002C
:104790002D4A2E4B70B51A602D4A2E4B2E491A60A9
:1047A00010008B689843FBD12C4E2D4B9E420AD2B1
:1047B000F5430024ED18AD080135A300F35801348A
:1047C0009847AC42F9D100F097F8264A214B1A607D
:1047D000214A9368DB018033FBD14022224B234CDA
:1047E000234D9A675A671A67DA66AC4208D2236883
:1047F0002000002B22D00834FFF748FFAC42F6D34C
:104800001C4D1D4CC022A168280002F075F9A5605E
:10481000FEF782FFFFF714F9FFF7D8FA174E184B8F
:104820009E420AD2F5430024ED18AD080135A300DD
:10483000F35801349847A542F9D170BD0834FFF709
:1048400017FFAC42D3D3DBE7BFCDFBFE00E0004057
:10485000FE7F3C0000F0004000C00040C05200203D
:10486000D0520020FFFFFF0100F00140B8520020AD
:10487000C05200200000002000ED00E0D0520020D7
:10488000D4520020094A1368002B06D00849181892
:10489000884208D8106018007047064B0449181861
:1048A00013608842F6D901204042F5E7A854002061
:1048B00000000420E856002000BEFDE70FB400B55C
:1048C000084883B002F0AEF9049B002B07D005A97D
:1048D0001800019101F010FE034802F0A3F900BE98
:1048E000FDE7C046288700103886001010B5014843
:1048F000FFF7E4FF1C87001030B50C2083B000F0F8
:10490000B3F9FEF701FF00280ED0964B964A1A60C5
:104910005A609A60DA601A615A619A61DA611A62C1
:10492000924A5A6203B030BD914CA06700F0A4F9DE
:104930000122904B1A60636C012BFCD103228E4B39
:104940001A608B4A936B012BFCD1013300938B4A85
:10495000043301218A4800F039F90523894A00937C
:104960000121894800F032F9884B5A68FF2A02D8A1
:10497000802252005A6080227A4C7F4B21691201BA
:10498000824D1A60002900D0E5E0E0217F4B022033
:104990001A681140802252012A4311601968484068
:1049A00003210140116004219A681142FCD0802249
:1049B000802192012A4309011160802252005A602D
:1049C000734B2361734B5968FF2900D8C1E0032260
:1049D000684B70481A60012103009A681142FCD0AC
:1049E000E0251A68154080225201024315601B68B9
:1049F0004B400321194011600221664A9368194215
:104A0000FCD0802380219B01034309011960802190
:104A1000614B490051606361604B5A68FF2A00D8BE
:104A2000596080225E4BE16912015C4D1A600029D9
:104A300005D0606901F0AEFD01300138FDD1E02202
:104A400056490B681A4080235B012B431A60802370
:104A500080229B012B4312011A608022424B52009C
:104A60004A60E3614F4B5968FF2900D85A608022A1
:104A70004D4B216A12014B4D1A60002905D0606927
:104A800001F088FD01300138FDD1E02245490B6875
:104A90001A4080235B012B431A60802380229B01F4
:104AA0002B4312011A6080235B004B602E4B3F4A60
:104AB00023623F4B5968914201D801325A608022EB
:104AC0003C4B616A12013A4D1A60002905D06069B9
:104AD00001F060FD01300138FDD1E02234490B685E
:104AE0001A4080235B012B431A60802380229B01A4
:104AF0002B4312011A608023DB024B601B4B636265
:104B00002D4B5A68FF2A02D8802252005A60802218
:104B10002A4BA1691201284D1A60002905D060694D
:104B200001F038FD01300138FDD1E02222490B6847
:104B30001A4080235B012B431A60802380229B0153
:104B40002B4312011A6080235B004B60124BA36160
:104B5000E8E65A603BE7606901F01CFD013001386E
:104B6000FDD112E738540020006CDC021BB70000B6
:104B7000008000403CB0004030B00040002F685939
:104B800000800240008C864700C002403080004018
:104B9000001BB7003C800040405973075480004020
:104BA00054B000406080004060B00040FFFF030050
:104BB0006C8000406CB000404880004048B000402D
:104BC000014B8000C058704738540020F8B50400ED
:104BD0000C2017001D000E0001F0DCFC1D494143B4
:104BE000380001F0D7FC069A2B0412031343226805
:104BF000002A1CDB184A8021944229D04901174A17
:104C0000174D1160174A11600F00AA689743FBD136
:104C1000C021221D8901114321222660A0600A6063
:104C20002268002AFCDAE36008230B60F8BD3F220B
:104C300021680A409642DDD1A2681205120D904209
:104C4000D8D1EE21E268C9020A409342D2D1EDE701
:104C50008901D4E740420F0000C0024000E000405C
:104C600000C0004000F0004080239B001843014B2F
:104C7000D862704700800540AA23064A1B011360D2
:104C80002F230549D360054B19605368002BFCDACC
:104C90007047C0460040024000B0FA000060024089
:104CA0007047C04610B5002803D04A680B68110051
:104CB000984710BD10B5002800D110BD0B4B1C68E3
:104CC000A2689368013B9360002B04DB1368591CB6
:104CD00011601870F1E791698B4201DB0A28F5D168
:104CE0000100200002F098FCE7E7C046784A002067
:104CF000F0B54546DE4657464E46E0B583B0994688
:104D00000EAB1D78119B88469B4602231299009298
:104D10000B4007000D9C109A0193002B28D15B4695
:104D2000002B00D092E0944222D201260E401F2C8C
:104D30001ED80C9B30201B1902E00133202C03D01D
:104D400001341870A242F8D8002E11D0A3450FD913
:104D50000C9B30201B195E461F2C04D987E00133C1
:104D6000202C00D1A7E001341870B442F7D1A3463B
:104D7000CB0611D54B0502D4002C00D07CE00F9B54
:104D8000102B00D1A0E0022B00D1A7E01F2C11D8DE
:104D900030230C9A135501341F2C0BD8002D00D052
:104DA00079E04B0700D588E00B0733D520230C9A18
:104DB000135501348B0730D0009E2500A2463200E7
:104DC0004446B0460C9B013D561C585D21004B46A5
:104DD000B8473200002DF5D14646A0465446361954
:104DE000019B002B0ED0009D731B5B450AD2320045
:104DF000444601364B4621002020B8473200731B41
:104E00005B45F6D3300003B03CBC90469946A246C1
:104E1000AB46F0BD009E8B0715D15C456ED2009A63
:104E20000D9413005B441D1B0D9B44469846561C75
:104E30004B4621002020B8473200B542F7D1434607
:104E4000A0461C000D93002CB7D1C9E701260E40E7
:104E500028D0002D2AD10C230B4227D1944200D315
:104E600074E71F2C00D864E7A34500D880E7CB0681
:104E7000A0D54B0500D582E7A24202D05C4500D008
:104E80007DE7631E002B3BD00F9A023C102A1BD0FB
:104E90001C00130077E72D230C9A135501348B0760
:104EA000BBD089E7944200D241E761E701235B422E
:104EB0009C46E344D2E7B346D9E72B230C9A13551B
:104EC00001348B07A9D077E78B060FD41F2C00D9AC
:104ED00070E778230C9A1355013457E71F2C00D93B
:104EE00068E70C9A6033135501344FE71F2C00D943
:104EF00060E758230C9A1355013447E7009EA2E758
:104F000000243CE7F0B5DE4657464E464546E0B540
:104F100097B005000E0093461F00209A219B1000B9
:104F20001900FCF714FB002800D0D5E22098219945
:104F30000122BD4B5242FCF7EFFA002800D081E17C
:104F4000209821990122B94B5242FCF7FBFA002824
:104F500000D017E1209821990022B54BFCF7F2FA16
:104F6000002800D0BCE1209821990022B14BFCF729
:104F7000D3FA002800D0B3E1209821990022002321
:104F8000FCF7CAFA002800D054E200230D938023D6
:104F9000249ADB001A40914600D007E20023A64C79
:104FA0000893099406240EAB079320982199FCF7E7
:104FB000F9FA80460C90FCF7DDFA02000B0020980D
:104FC0002199FCF72EFA089A099BFCF75AFA0A90E5
:104FD0000B91FCF70BFB8246FCF7C8FA02000B00B2
:104FE0000A980B99FCF71DFA0022944B0A900B913A
:104FF000FCF7A8FA002800D1C5E101239C46E24451
:105000005046FCF7B3FA089A099BFCF793FA00287C
:1050100000D030E2002C00D074E10C9C2000FCF7A2
:10502000A9FA02000B0020982199FCF7FAF9002256
:10503000824B08900991FCF76FFA002800D10AE230
:105040004B46202B00D196E15C1C0C9B0A211800DA
:10505000984601F077FA4A46079B3031995440460A
:105060000A2101F06FFA079B80469946A144002867
:105070001BD02A00330025004E46444699469046F0
:10508000202D00D125E220000A2101F05BFA303109
:10509000317020000A2101F055FA01350400013673
:1050A0000028EDD12C004E4645460323249A134098
:1050B000012B00D19BE120229246202C0CD00D9A8E
:1050C000002A00D0C1E1249A520700D44CE2621CAD
:1050D00092462B2207990A555A460892002B17D15F
:1050E000239B9A4500D34FE25B441C005346E41ACD
:1050F000B84637002E002500541C434639002020B6
:10510000B0472200AC42F7D135003E004746089434
:1051100053465C1E079B08AA9C461723644494468A
:105120006344B946984637002E00089A551C2078EB
:105130004B463900013CB0472A00A045F6D1089BF8
:10514000350053441C00249B3E009B0712D55B4650
:10515000239AE31A9A420DD91300C84622005F46EB
:1051600099460134434631002020A8472200E31B22
:105170009945F6D8200017B03CBC90469946A24607
:10518000AB46F0BD249B5B0700D5A4E02C4B9A46B0
:1051900003230793249BD8469B0719D1079B239988
:1051A0008B4200D3ECE15A469B1A9846239B9946C2
:1051B0003B0031002020541CA84743461B19220005
:1051C0009945F5D8239B5B441C00079BE31A98463E
:1051D000B14642465646BA462F00079C013C551C34
:1051E000305D53464946B8472A00002CF6D1079B4C
:1051F0003D0043441C00249B4E469B07BAD55B46AA
:10520000239AE31A9A42B5D91300D04622005F468A
:1052100099460134434631002020A8472200E31B71
:105220009945F6D8A6E7C046FFFFEFFFFFFFEF7FE7
:1052300065CDCD4165CDCDC180842E410000E03FDC
:1052400020890010249BD8469B0716D1239B042B52
:1052500000D897E11C1F5C44B8465A4637002E0020
:105260002500541C434639002020B0472200AC42A0
:10527000F7D135003E004746A046CE4BB9464246E0
:10528000370004249A462E005346013C551C185DF5
:1052900039004B46B0472A00002CF5D14446249BE8
:1052A000350004343E009B0700D463E75B46239A35
:1052B000E31A9A4200D85DE71300C84622005F4611
:1052C00099460134434631002020A8472200E31BC1
:1052D0009945F6D84EE7B84B9A460423079359E709
:1052E000249B5A460493239B31000393229B28005E
:1052F0000293209B219C009301943B0000F064F9F1
:10530000040037E74B46202B35D0631E98464B46AA
:105310000A2150465C1C01F03DF94A46079B30319A
:10532000995450460A2101F035F98146002800D1F0
:10533000B6E0079B9A463B00A2444746A846250094
:105340004C46B14656469A4610E020000A2101F02C
:1053500021F93031317020000A2101F01BF9013FA1
:10536000013504000136002800D194E0202DECD155
:1053700045464E4657460323249A1340012B35D009
:1053800020229246A8E600220A980B998B4BFCF744
:10539000C3F8002800D03DE65346002B02D0DB07BF
:1053A00000D437E601239C46E24433E6229B092BD6
:1053B00000D8F2E00122302391460EA80370229B10
:1053C00007905C1E2F32093B494604E042540131EC
:1053D000013C202901D08B42F8D1794BE2009B1887
:1053E0001A685B68894608920993DEE52024239BAE
:1053F000002B47D00D9B002B03D1249A0C33134272
:1054000002D0239B013B2393239BA3423AD9202C18
:1054100000D1BDE0302221001800079B1B1901318B
:105420001A7088422DD001332029F8D15B468A4674
:1054300008936DE6209A219B00200021FBF7F1FFE5
:105440000123209021910D93A1E5621C92462D220B
:1054500007990A5540E6002208980999574BFCF72E
:1054600071F8002800D0EBE50123A44623409C44BA
:1054700063460C93E4E5434601330C9300239A46BC
:10548000C8E5239C0123202C00D018E61F339A4640
:105490005B4608933CE62C004E464546B8465746C8
:1054A000202C00D167E742464046079B11191B1983
:1054B0003022002807D001341A70202C00D15AE77E
:1054C00001338C42F7D1631C99462E23079A13555A
:1054D000B6E545464E464EE7249BD8469B0715D178
:1054E000239B032B52D9DC1E5C44B8465A46370036
:1054F0002E002500541C434639002020B0472200CE
:10550000AC42F7D135003E004746A0462D4BB94688
:105510004246370003249A462E005346013C551C50
:10552000185D39004B46B0472A00002CF5D144469F
:10553000249B350003343E009B0700D41AE65B46EB
:10554000239AE31A934200D314E61300C8462200BC
:105550005F4699460134434631002020A847220087
:10556000E31B9945F6D805E6249AA246120700D413
:10557000B2E50122944607991F32E2440A55ABE591
:10558000D84625E6D84678E60892C1E5D846BDE774
:1055900020239A465B460893BAE5DA00084B9B182D
:1055A0005C681B6808930994002399460EAB229C03
:1055B0000793FAE428890010188900100000E03FE2
:1055C0003089001024890010F0B54E464546DE466D
:1055D0005746E0B59BB00A93249B81461C000B9371
:1055E000259B09911D000D920C93002200232000A1
:1055F0002900FBF791FF002800D093E10B9A0C9B48
:1056000092469B468023289ADB001A400E9201D1D5
:105610000623269356465B46334300D148E15B465A
:105620005800C94B400D9C466044FBF7A3FFC74A96
:10563000C74BFBF726FFC74AC74BFBF7FBFE5B4692
:10564000C64A1B031B0B1A4304000D00C44B110078
:1056500050460022FBF7E5FEC24AC34BFBF711FFA1
:1056600002000B0020002900FBF7E4FEFBF79AFF85
:105670008046FBF77FFFBD4ABD4B04000D00FBF7E2
:1056800000FF0022BB4BFBF7D5FEFBF78BFFBA4AAE
:105690000600BA4B20002900FBF7F3FE040030009F
:1056A0000D000F96FBF766FFB54AB64BFBF7E9FE18
:1056B00002000B0020002900FBF7B3FE02000B00E4
:1056C00006000F00FBF7DDFE320004000D003B007A
:1056D00030003900FBF7AEFE002210901191AA4B6A
:1056E00020002900FBF7AFFE0022A84BFBF7A2FE2B
:1056F00002000B0020002900FBF7A5FE0022A44BAE
:10570000FBF798FE02000B0020002900FBF79BFE30
:105710000D008021320004003B000020C905FBF78A
:1057200080FE02000B0020002900FBF783FE020030
:105730000B0010981199FBF786FE0022874BFBF7B0
:1057400079FE944A0F9B9446634400221B05FBF7A5
:1057500098FE06000D0002000B0050465946FBF76C
:10576000DBFE00280BD001235B429C463000290061
:105770000022864BE044FBF766FE06000D00434620
:10578000C62763339F42BF41289B7F4204371B05D6
:1057900000D5ACE0279B00249F4200D2DC1B0223F3
:1057A000289A1A400E9203D07B427B415B421C40F8
:1057B0004346002B07D05046594632002B00FBF7DA
:1057C00042FE82468B46002200230B980C99FBF781
:1057D000A3FE002800D0A0E0289A6F4B039413404A
:1057E0000493269B524602935B46099900920193CB
:1057F00048460A9B0D9AFFF785FB0400002F4FD007
:10580000289B65209B066CD4631C22009A4609994C
:105810000A9BC8474346DA179D18DB0F98467B1E44
:1058200055409B46002412AF02E03400202E0DD0DC
:1058300028000A2100F0AEFE661C30313C192170B0
:1058400028000A2100F0A6FE051EEED105230693CE
:105850005B460593002304930A3303934346019662
:10586000099E02930A9B009752463100484698468B
:10587000FFF73EFA0E9B0400002B11D00D9F279AD4
:10588000C31B9A420CD9279B4D460200994601340E
:10589000434631002020A8472200E31B9945F6D853
:1058A00020001BB03CBC90469946A246AB46F0BDDA
:1058B000289B56465D461B0515D500239846269A1B
:1058C0000023424503DD130042469B1A013B269309
:1058D0008023289ADB001A43002328920027984649
:1058E00058E7203890E700230427984652E72B001A
:1058F0003343E4D0294A2A4B50465946FBF71AFE57
:10590000002817D1269B002B00D143E70E9B5A1E7F
:105910009341269AD31A26933CE7802109065944DD
:105920008B4659E78022120694460C9BA24663449C
:105930009B4667E600221B4B50465946FBF7ECFDA1
:105940000028BCD1DEE7C04601FCFFFFFB799F5079
:105950001344D33FB3C8608B288AC63F0000F03F92
:105960000000F83F61436F63A787D23F71A37909B5
:105970004F930A400000E03F1655B5BBB16B0240A3
:10598000EF39FAFE422EE63F00002C400000244092
:1059900000001840FF030000FFF7FFFF2D431CEB42
:1059A000E2361A3F80842E41F0B54546DE46574622
:1059B0004E46E0B5A1B01D002A9B09920B93A24A66
:1059C000A24B0A9008911A60002900D187E30023B6
:1059D0009B469F4B2C009A465D46207800280CD0B1
:1059E00025281DD06E1C2A00099B0A9D08990134A8
:1059F000A847207835000028F2D10999AB462A0043
:105A00008D4200D34A1E099B089900200A9CA0479A
:105A1000584621B03CBC90469946A246AB46F0BDE4
:105A20001023621C9846083B9C461678043B994616
:105A3000023B9B463300203BDBB2002701211400D0
:105A4000102B0CD850469B00C3589F460F43013281
:105A5000167814003300203BDBB2102BF2D9330050
:105A6000303B092B00D8B5E1002398462A2E00D1FF
:105A7000A6E200239B462E2E00D1C0E13300683BF6
:105A8000DBB2122B18D8734A9B00D3589F4663464B
:105A900001321F43DCE7434601321F43D8E74B4640
:105AA00001321F43D4E75B4601321F43D0E7802316
:105AB0005B0066781F4301343300253BDBB2532B78
:105AC0000FD8654A9B00D3589F466678682E00D150
:105AD00088E280231F433300253BDBB20134532B84
