:020000041000EA
:1000000000B5324B212058609868022188439860DF
:10001000D860186158612E4B002199600221596106
:100020000121F02299502B49196001219960352056
:1000300000F044F80222904214D00621196600F024
:1000400034F8196E01211966002018661A6600F04E
:100050002CF8196E196E196E052000F02FF8012189
:100060000842F9D1002199601B49196000215960AB
:100070001A491B48016001219960EB211966A021F2
:10008000196600F012F800219960164914480160C1
:100090000121996001BC002800D000471248134993
:1000A000086003C880F30888084703B5996A0420EC
:1000B0000142FBD001200142F8D103BD02B5186610
:1000C0001866FFF7F2FF186E186E02BD00000240BE
:1000D000000000180000070000035F00212200005C
:1000E000F4000018222000A00001001008ED00E03C
:1000F00000000000000000000000000074B24E7A12
:1001000000200420F7010010C3010010C5010010F9
:10011000C1010010C1010010C1010010C101001097
:10012000C1010010C1010010C1010010C701001081
:10013000C1010010C1010010C9010010CB01001065
:10014000CD010010CD010010CD010010CD01001037
:10015000CD010010CD010010CD010010CD01001027
:10016000CD010010CD010010CD010010CD01001017
:10017000CD010010CD010010CD010010CD01001007
:10018000CD010010CD010010CD010010CD010010F7
:10019000CD010010CD010010CD010010CD010010E7
:1001A000CD010010CD010010CD010010CD010010D7
:1001B000CD010010CD010010CD010010CD010010C7
:1001C00000BE00BE00BE00BE00BE00BE00F04BF888
:1001D000103800BEF2EB8871A0770010C4770010D1
:1001E0003402001090A31AE700202149086006C8D5
:1001F00081F3088810471F48006800282FD10DA4FC
:100200000ECC002902D000F012F8F9E71A491B4A77
:10021000002000E001C19142FCD1194988471949E9
:1002200088471949884700BEFDE701C901C29A42C3
:10023000FBD37047C4770010C00000209411002049
:100240009888001000000420000004209888001006
:1002500000100420001004200000000070470B482C
:1002600004F006FE0047EFF30580C0B270470000BF
:1002700008ED00E0000000D098110020C815002013
:10028000B1300010851D0010D93100105756000004
:1002900006005250ABB360531C770010060052505A
:1002A000861C03022C770010060052505422A29D97
:1002B0004077001005005250DE65F4689888001001
:1002C000F8B5C046054B0648033310B51B1A062B7C
:1002D00003D9044B002B00D0984710BD9411002087
:1002E00094110020000000000648074910B5091AC3
:1002F0008910CB0F5918491003D0044B002B00D0A4
:10030000984710BD941100209411002000000000B7
:1003100010B5074C2378002B09D1FFF7D3FF054B0D
:10032000002B02D0044800E000BF0123237010BD61
:10033000A012002000000000A8730010094B10B5A7
:10034000002B03D00849094800E000BF08480368B3
:10035000002B02D1FFF7C8FF10BD064B002BF9D0D0
:100360009847F7E700000000A4120020A8730010CF
:10037000941100200000000010B506F0DDFF10BD54
:1003800010B506F0C1FF10BD10B506F0F5FF10BDA9
:1003900010B506F0B1FF10BD10B504F09BFD10BD07
:1003A00010B504F0BFFD10BD10B504F0E1FD10BDA7
:1003B00010B504F0F9FD10BD020470B5120F06125D
:1003C000092A5BDC544B30320021595E14008A420A
:1003D00069D02025514A93691D42FCD114600F2336
:1003E0003340092B25DC30331C008B4263D02025A1
:1003F0004A4A93691D42FCD1030614601B0F092B66
:1004000025DC30331C008B425DD02025434A9369A4
:100410001D42FCD10F2314601840092825DC303020
:10042000884238D020213D4A93691942FCD110609E
:1004300070BD37331A008B4265D02025374CA36935
:100440001D42FCD1030622601B0F092BD9DD373377
:100450001A008B424FD02025304CA3691D42FCD19D
:100460000F23226018400928D9DD3730884232D066
:1004700020212A4A93691942FCD1D8E7264B37320A
:100480000021595E8A422ED02025244CA3691D42AA
:10049000FCD12260A3E72021204A93691942FCD1B4
:1004A0000D231360BEE720251C4A93691D42FCD131
:1004B0000D2313608DE72025184A93691D42FCD156
:1004C0000D23136093E72025144A93691D42FCD144
:1004D0000D23136099E72021104A93691942FCD13A
:1004E0000D231360C4E720250C4CA3691D42FCD1E9
:1004F0000D232360C8E72025084CA3691D42FCD1C9
:100500000D232360A7E72025044CA3691D42FCD1DD
:100510000D23236091E7C046C01300200040034034
:10052000F8B50A0F04000D140F16092A6AD83023F3
:100530009C465B4B94440020185E844500D177E0D4
:100540002026584A93691E42FCD1634613600F234C
:100550003B40092B2FDC30331E00834200D16FE07B
:100560002027504A93691F42FCD10B0216601B0FD3
:10057000092B2EDC30331E00834269D02027494AE4
:1005800093691F42FCD10F2316601D40092D2EDCFC
:100590003035854244D02020424A93691842FCD12C
:1005A00015600800FFF708FF2014FFF705FF200083
:1005B000FFF702FFF8BD37331A00834268D02027C7
:1005C000384EB3691F42FCD10B0232601B0F092B5E
:1005D000D0DD37331A00834252D02027314EB36921
:1005E0001F42FCD10F2332601D40092DD0DD2A00AF
:1005F0003732824234D020252A4883691D42FCD1FB
:100600000260CEE737239C46254B94440020185EB9
:1006100084452DD02026234A93691E42FCD194E7BD
:100620002020204A93691842FCD10D231360B2E7C1
:1006300020261C4A93691E42FCD10D2313607FE7DC
:100640002027184A93691F42FCD10D23136087E7C6
:100650002027144A93691F42FCD10D2313608DE7B4
:100660002025104883691D42FCD10D230360C2E799
:1006700020260C4A93691E42FCD10D231360C9E762
:100680002027084EB3691F42FCD10D233360A4E735
:100690002027044EB3691F42FCD10D2333608EE73F
:1006A000C013002000400340D34B30B500241C5F32
:1006B000002800DACDE2D14A904200D8EAE2D04BDD
:1006C000C318934200D87FE3CE4BC318934200D89F
:1006D0007CE3CD4BC318934200D858E33425CB4B71
:1006E000C318AC4200D164E22020C9498A69104293
:1006F000FCD1C84A0D60934200D83CE3C64A981822
:10070000C44A904201D800F0EAFBC448181890424D
:1007100000D8DEE3C2481818904200D8DCE3C14894
:100720001818904200D8C8E3BF481818904200D863
:10073000C6E3BE481818904200D8C4E3BC48181855
:10074000904200D8C2E3BB481818904200D8A8E3F2
:10075000B94A9446392263441500944200D170E2AC
:100760002020AB498A691042FCD1B44A0D60934203
:1007700000D87DE2B24A9818B04A904200D896E379
:10078000B0481818904200D87FE3AF48181890423C
:1007900000D87DE3AD481818904200D87BE3AC4800
:1007A0001818904200D879E3AA481818904200D847
:1007B00004E3A9481818904200D8E5E2A7481818A1
:1007C000904200D870E3A64A94463922634415004B
:1007D000944200D12DE220208D498A691042FCD13B
:1007E000A04A0D60934200D851E29F4A98189D4A52
:1007F000904200D816E39D481818904200D832E382
:100800009B481818904200D830E39A481818904234
:1008100000D882E398481818904200D880E397489F
:100820001818904200D87EE395481818904200D8D6
:100830007CE394481818904200D87AE3924A944690
:10084000392263441500944200D1EAE12020704926
:100850008A691042FCD18D4A0D60934200D813E2A0
:100860008B4A9818894A904200D8D8E289481818CB
:10087000904200D839E388481818904200D837E3EE
:1008800086481818904200D835E3854818189042D9
:1008900000D833E383481818904200D831E38248E7
:1008A0001818904200D82FE380481818904200D8BA
:1008B000B2E27F4A9446392263441500A24200D135
:1008C000A7E1202052498A691042FCD1794A0D6083
:1008D000934200D8CFE1784A9818764A904200D8DF
:1008E000E8E276481818904200D8C8E27448181810
:1008F000904200D8C6E273481818904200D8B8E277
:1009000071481818904200D84FE270481818904269
:1009100000D84DE26E481818904200D84BE26D485E
:100920001818904200D88CE26B4A944639226344EE
:100930001500944200D164E1202035498A691042B3
:10094000FCD1664A0D60934200D897E1644A98183A
:10095000624A904200D87AE262481818904200D861
:1009600063E261481818904200D861E25F481818A5
:10097000904200D85FE25E481818904200D85DE2CD
:100980005C481818904200D8C1E25B4818189042A1
:1009900000D8BFE259481818904200D854E2584A8B
:1009A0009446392263441500A24200D121E120205F
:1009B00017498A691042FCD10D60632B00D860E1B1
:1009C0001A00643A632A00D844E2643A632A00D8E1
:1009D00043E2643A632A00D842E2643A632A00D8C8
:1009E000F6E1643A632A00D8F5E1464A9A18632A88
:1009F00000D8F3E188E0C046C0130020FFC99A3B4D
:100A0000003665C4006CCA8800A22F4D00D894112E
:100A100000400340FFE0F505001F0AFA003E14F411
:100A2000005D1EEE007C28E8009B32E200BA3CDC50
:100A300000D946D600F850D000175BCA7F969800C0
:100A4000806967FF00D3CEFE803C36FE00A69DFD88
:100A5000800F05FD00796CFC80E2D3FB004C3BFB72
:100A600080B5A2FA3F420F00C0BDF0FF807BE1FFDE
:100A70004039D2FF00F7C2FFC0B4B3FF8072A4FFB9
:100A8000403095FF00EE85FFC0AB76FF9F860100EA
:100A90006079FEFFC0F2FCFF206CFBFF80E5F9FFF0
:100AA000E05EF8FF40D8F6FFA051F5FF00CBF3FF62
:100AB0006044F2FF0F270000F0D8FFFFE0B1FFFF16
:100AC000D08AFFFFC063FFFFB03CFFFFA015FFFF10
:100AD00090EEFEFF80C7FEFF70A0FEFFE703000060
:100AE00018FCFFFF30F8FFFF48F4FFFF60F0FFFF46
:100AF00078ECFFFF90E8FFFFA8E4FFFFC0E0FFFFF6
:100B0000D8DCFFFFA8FDFFFFB64A9A18632A00D879
:100B10007CE1B54A9A18632A00D87AE1B34A944630
:100B2000392263441500A2425BD02020B0498A6973
:100B30001042FCD10D60092B00D896E01A000A3A49
:100B4000092A00D8CEE10A3A092A00D819E10A3A5E
:100B5000092A00D81DE10A3A092A00D81CE10A3AFC
:100B6000092A00D81BE10A3A092A00D81AE10A3AF0
:100B7000092A00D825E10A3A092A00D87CE139225D
:100B80005A3B1500A24224D0202099498A6910427C
:100B9000FCD10D60002B00D1F0E03033DBB2180047
:100BA000A3420ED02021924A93691942FCD11060D1
:100BB00030BD20208E498A691042FCD10D220A6086
:100BC00092E520218A4A93691942FCD10D231360D2
:100BD000E8E7202086498A691042FCD10D220A608C
:100BE000D2E7202082498A691042FCD10D220A6096
:100BF0009BE720207E498A691042FCD10D220A60C1
:100C0000D5E620207A498A691042FCD10D220A607B
:100C100092E6202076498A691042FCD10D220A60B2
:100C20004FE6202072498A691042FCD10D220A60E9
:100C30000CE620206E498A691042FCD10D220A6020
:100C4000C9E520206A498A691042FCD10D220A6058
:100C500086E52D2C00D177E12021654A9369194260
:100C6000FCD12D234042136025E53025302289E751
:100C700030253022ACE5302530225AE630253022AE
:100C800092E6302530224EE73025302216E6302518
:100C90003022D8E5202C00D15EE12021544A93690E
:100CA0001942FCD1534B1160984200D994E1202C99
:100CB00000D141E120214E4A93691942FCD14E4BAB
:100CC0001160984200D98FE1202C00D15CE12021F5
:100CD000474A93691942FCD1484B1160984200D9A8
:100CE0007FE1202C00D147E12021414A936919423C
:100CF000FCD1434B1160984200D97AE1202C00D1FD
:100D000062E120213A4A93691942FCD13D4B1160BE
:100D1000984200D96BE1202C00D14DE12021344ACA
:100D200093691942FCD1384B1160984200D964E1B3
:100D3000202C00D138E120212D4A93691942FCD1A1
:100D40001160632800D956E1202C00D124E1202134
:100D5000274A93691942FCD11160092800D93EE164
:100D6000202C00D100E12021214A93691942FCD1B5
:100D7000116003000EE730253022EEE430203023EE
:100D80000EE713003222FCE6030037221FE533256D
:100D9000A7E413003322F4E613003422F1E6130033
:100DA0003522EEE613003622EBE603003522BFE5DE
:100DB00003003622BCE503003722B9E503003622E2
:100DC00005E513003722DCE631258AE4322588E484
:100DD00013003422A6E613003522A3E613003622C0
:100DE000A0E6C04644FDFFFFE0FCFFFF7CFCFFFFE8
:100DF00000400340FFE0F5057F9698003F420F005A
:100E00009F8601000F270000E70300001300372230
:100E100088E61300382285E6030038224DE50300FA
:100E200031224AE5030031220CE503003222BAE503
:100E300003003322B7E503003422B4E50300352272
:100E4000B1E50300382273E503003822ABE5030067
:100E50003122A8E51300312264E61300322261E654
:100E6000130033225EE603003222EBE40300332258
:100E7000E8E4030034225BE51300382281E6030036
:100E8000322255E50300332252E5030032229EE46C
:100E9000030033229BE40300342298E4030035224C
:100EA00095E40300382257E4030038228FE403005E
:100EB00031228CE4030031223AE5030034224BE472
:100EC0000300352248E40300362245E403003722BC
:100ED00042E4030032223FE4030033223CE40300F7
:100EE000312239E4130031224BE603003222E4E4DC
:100EF00003003322E1E403003422DEE40300352260
:100F0000DBE403003622D8E403003722D5E40300F3
:100F1000362248E50300372245E50300342291E4F8
:100F2000030035228EE4030036228BE403003722CF
:100F300088E40300382285E42021314A936919426C
:100F4000FCD10D231360B5E620212D4A9369194287
:100F5000FCD10D2313607FE62021294A93691942B1
:100F6000FCD10D23136098E62021254A936919428C
:100F7000FCD10D231360F6E62021214A9369194222
:100F8000FCD10D231360AFE620211D4A936919425D
:100F9000FCD10D2313609AE62021194A9369194266
:100FA000FCD10D231360D2E62021154A9369194222
:100FB000FCD10D231360BEE62021114A936919422A
:100FC000FCD10D231360A9E620210D4A9369194233
:100FD000FCD10D23136094E60300FFF78FFB0300A1
:100FE000ACE50300FFF701FC0300FFF7C3FB0300C0
:100FF00071E4030034E40300E2E40300A6E4C04625
:1010000000400340F0B5DE4645464E465746E0B543
:101010000E0011001A008DB00AAB029103920093EA
:1010200013000A003100050004F0C2F9029A039B84
:101030000490040088462800310006F05DF907900E
:101040008B460B00844200D1ACE06F4C08950996AA
:101050000022A35E552099460D2320219A464E4634
:101060006A4F6B4A0137B04200D18AE09369194256
:10107000FCD1106038780028F4D1089D099E280022
:101080003100FFF74DFA0022A35E202B00D1B3E020
:1010900020215F4A93691942FCD11160029803999B
:1010A000FFF73EFA0022A35E202B00D19CE0202116
:1010B000574A93691942FCD1116004984146FFF7E1
:1010C0002FFA0022A35E202B00D185E02021504A78
:1010D00093691942FCD111600A980B99FFF720FA25
:1010E0000022A35E049505969C460D232020202116
:1010F00098466646474F464A0137864247D093692D
:101100001942FCD1106038780028F5D1079859466B
:10111000049D059EFFF704FA0022A35E202B53D006
:1011200020213B4A93691942FCD111602800029AA0
:10113000039B310006F0E0F810001900FFF7F0F90A
:101140000D260D2020210023E55E314A324C01346A
:10115000854222D093691942FCD110602078002882
:10116000F5D1012200232D490C684D6812196B41FD
:101170000A604B600DB03CBC90469946A246AB4617
:10118000F0BD93691942FCD1534613606EE7936931
:101190001942FCD143461360B1E793691942FCD16F
:1011A0001660D7E7434500D04FE7029A039B28001B
:1011B000310006F0A1F80A99914200D045E70B9A58
:1011C0009A4200D041E7CCE72021114A93691942A5
:1011D000FCD10D231360A3E720210D4A9369194226
:1011E000FCD10D23136071E72021094A936919424C
:1011F000FCD10D2313605AE72021054A9369194257
:10120000FCD10D23136043E7C01300202C740010A1
:101210000040034030740010DC730010981200206E
:10122000F0B5DE4645464E465746E0B50E00110085
:101230001A008DB00AAB02910392009313000A00CA
:101240003100050004F0AEF8029A039B04900400FC
:1012500088462800310006F08FF807908B460B0077
:10126000844200D1ACE06F4C089509960022A35E41
:10127000532099460D2320219A464E466A4F6B4AC9
:101280000137B04200D18AE093691942FCD1106065
:1012900038780028F4D1089D099E28003100FFF716
:1012A0003FF90022A35E202B00D1B3E020215F4A4A
:1012B00093691942FCD1116002980399FFF730F944
:1012C0000022A35E202B00D19CE02021574A936985
:1012D0001942FCD1116004984146FFF721F9002220
:1012E000A35E202B00D185E02021504A936919424A
:1012F000FCD111600A980B99FFF712F90022A35E46
:10130000049505969C460D2320202021984666468C
:10131000474F464A0137864247D093691942FCD16C
:10132000106038780028F5D107985946049D059E2D
:10133000FFF7F6F80022A35E202B53D020213B4A72
:1013400093691942FCD111602800029A039B310075
:1013500006F012F810001900FFF7E2F80D260D2034
:1013600020210023E55E314A324C0134854222D0EF
:1013700093691942FCD1106020780028F5D1012230
:1013800000232D490C684D6812196B410A604B60AF
:101390000DB03CBC90469946A246AB46F0BD936961
:1013A0001942FCD1534613606EE793691942FCD190
:1013B00043461360B1E793691942FCD11660D7E741
:1013C000434500D04FE7029A039B2800310005F007
:1013D000D3FF0A99914200D045E70B9A9A4200D078
:1013E00041E7CCE72021114A93691942FCD10D2332
:1013F0001360A3E720210D4A93691942FCD10D2304
:10140000136071E72021094A93691942FCD10D2329
:1014100013605AE72021054A93691942FCD10D2334
:10142000136043E7C01300202874001000400340FD
:1014300030740010DC730010981200200023F0B507
:10144000DE4657464E4645469B46E0B58DB00023E6
:101450000024DA460A930B940023032100229946C4
:101460000A9B0B9C5B1854410893099400230024A9
:10147000C846069307940A990B9A02256D42EE1707
:101480000B0014005B19744102250093019400269F
:101490000B00140003210022ED1AA641069B079CB5
:1014A0005B1854410295039604930594069A079B92
:1014B00002204042C11714001D00022600272418F4
:1014C0004D41B61A9F410098019922002B00FFF769
:1014D00099FD0098019922002B00FFF7A1FE0098CA
:1014E000019932003B00FFF79BFE0298039922000E
:1014F0002B00FFF795FE0298039932003B00FFF79F
:101500008FFE00230122A4185D41B61A9F41049B5F
:10151000A342D8D1059BAB42D5D1009B019C0121B0
:101520000022012500265B1854410299039A491BA9
:10153000B24102910392089A009301949A42B5D164
:10154000099B019A9342B1D12022434652429A18F4
:1015500062D401239340069C079D012140460A0066
:1015600082402800184301239C46E044434622431E
:1015700006920790412B00D07DE701239C46E14471
:101580004B46402B00D071E72022534652429B1815
:1015900055D499400A9C0B9D524601239340234306
:1015A0000A9301239C462A00E24453460A430B92C5
:1015B000412B00D050E701239C46E3445846FFF7F7
:1015C00073F8214B00229B5E202B30D020221F4B32
:1015D00099690A42FCD11A604220FFF765F80D2490
:1015E00020222020184B1A4900255D5F174B01313E
:1015F000AA4217D09E693042FCD11A600A78002AAC
:10160000F5D15B46402B00D021E70DB03CBC9046A5
:101610009946A246AB46F0BD43462022D21A01238A
:10162000D34098E79E693042FCD11C60E2E720225B
:10163000064B99690A42FCD10D221A60C6E72023A5
:1016400052469B1AD940A5E7C01300200040034032
:1016500038740010F0B5DE464E4645465746002326
:10166000E0B58BB00993834B9946012398460C3320
:101670009B46814B9A46A4E0EB0764081C435B46FB
:101680005C4080231B069C466D0830212000654489
:1016900005F07AFE0B000F33113900D5A4E0424665
:1016A0008A40039242469A400292029803990200AD
:1016B0000B0012184B4101204042C11712184B4138
:1016C00041460C4200D1ADE0E90764080C4359469D
:1016D0004C40802109068C466D0865442B40210052
:1016E0001F00434611400E001C4200D187E0EB076B
:1016F00064081C435B465C4080231B069C466D08C7
:1017000030212000654405F03FFE0B000F331139F6
:1017100000D581E042468A40059242469A400492B2
:101720000498059902000B0012184B410120404219
:10173000C11712184B4141460C425BD0E9076408BF
:101740000C4359464C40802109068C466D0865447F
:10175000494630C114401D4000940195009C019DF4
:10176000300022002B003900FFF74CFC22002B0038
:1017700030003900FFF754FD0094019523002C0040
:1017800000225942A24100257442BD4106910792B0
:10179000130030000A003900FFF742FD009A019B58
:1017A00020002900FFF73CFD069A079B2000290036
:1017B000FFF736FD01235B429C46E2445346002B73
:1017C00035D04B4630CB43461C4200D054E7EB07A4
:1017D00064081C433021200005F0D6FD0B006D0885
:1017E0000F33113900D45AE720224146D21AD14092
:1017F000039157E7E90764080C436D08A8E7EB0776
:1018000064081C433021200005F0BEFD0B006D086C
:101810000F33113900D47DE720224146D21AD1403E
:1018200005917AE7E90764080C436D0856E7099BC0
:10183000013318000993FEF737FF4D210F4B104875
:1018400000241C5F0F4A0130A1420BD02025936970
:101850001D42FBD111600178002900D109E7013058
:10186000A142F3D1202593691D42FBD15B46136051
:10187000ECE7C046B8130020400D0300C013002061
:10188000347400100040034030B5044C2568904784
:1018900020682D1A2802001230BD000018E000E078
:1018A00070B5049E034C2568B04720682D1A2802A5
:1018B000001270BD18E000E0F0B50522DE46574684
:1018C0004E464546EC4BE0B51A601E238FB0099397
:1018D000EA4B9A4601239B461F23099A9B1A5A46B4
:1018E0009A40FA239B0008930023914605930493A2
:1018F00053461F685C685B461F4200D119E2E3074C
:101900007F081F430D235F4080231B069C4664080D
:101910006444C8460697E3077E081E435B46650895
:101920001F4205D00D235E4080231B069C46654464
:101930004146300037002C0005F0E6FC0028EAD0D4
:101940005346069C0100CE4AC146804620001E60D8
:101950005D60FFF799FF049BCA4A9C468444634636
:10196000414620000493FFF78FFF059B9C4684446B
:1019700063460593089B013B0893002BB8D104985C
:1019800003F0B8FD0022C04B03F02DFD04000598C4
:101990000D0003F0AFFD0022BB4B03F024FD22003D
:1019A000099C009001912B002100B84804F05EFBD7
:1019B0002300621E09928FD21E3309931D3B9B4662
:1019C0001F23099A9B1A5A469A40FA239B000893B0
:1019D000002391460593049353461F685C685B4659
:1019E0001F4200D1AAE1E3077F081F430D235F4098
:1019F00080231B069C4664086444C8460697E30798
:101A00007E081E435B4665081F4205D00D235E40DD
:101A100080231B069C4665444146300037002C005D
:101A200005F072FC0028EAD05346069C0100984A53
:101A3000C146804620001E605D60FFF725FF049BC5
:101A4000944A9C4684446346414620000493FFF731
:101A50001BFF059B9C46844463460593089B013B02
:101A60000893002BB8D1049803F044FD0022864B64
:101A700003F0B9FC040005980D0003F03BFD0022C3
:101A8000814B03F0B0FC2200099C009001912B00D7
:101A90002100814804F0EAFA2300621E09928FD2E5
:101AA00001339B460C945B460C9A93400B933E2368
:101AB0000D933E230D9A9B1A202252429A1800D56C
:101AC00046E15946914009915A469A40FA239B00B3
:101AD000089300230A920593049353461F685C6899
:101AE0005B461F4200D12EE1E3077F081F430D2311
:101AF0005F4080231B069C466408644400230B9AC5
:101B00003800210005F0F8FB0A9B069007919946E2
:101B1000099B9846E3077E081E435B4665081F4203
:101B200005D00D235E4080231B069C46654443463A
:101B30004A463000290005F01FFC0B0037002C003E
:101B40000343E7D053465D601E60544B069C079DDF
:101B5000020081468846009320000B002900FFF711
:101B60009FFE049B4A469C468444634604934C4B28
:101B70002000009329004346FFF792FE059B9C46F8
:101B8000844463460593089B013B0893002BA4D132
:101B9000604603F0AFFC00223B4B03F024FC0290B4
:101BA0000391049803F0A6FC374B002203F01BFCC2
:101BB0000D9C0090019122000C993A4804F056FACD
:101BC0002300621E0D9200D373E73E330D933E2334
:101BD0000D9A9B1A202252429A1800D5C6E0594607
:101BE00091400A915A469A40FA239B000993002398
:101BF0000B92069308935346524659461B68526807
:101C00000B4200D1AAE0D1075B080B430D215940DC
:101C1000049180215208090613008C4663441D007C
:101C200005930B9B049F99460A9B9846EB077E08F9
:101C30001E435B466C081F4205D00D235E40802387
:101C40001B069C46644443464A463000210005F08A
:101C500053FB0B00370025000343E7D05346049D98
:101C60005C601E60059C104B020081468846009314
:101C700028000B001AE0C04610E000E0B813002076
:101C8000790300109903001000408F40E0730010AA
:101C900081030010A1030010F073001089030010ED
:101CA000A903001000740010910300102100FFF739
:101CB000F7FD089B4A469C468444634608932E4B96
:101CC0002800009321004346FFF7EAFD069B9C464F
:101CD000844463460693099B013B0993002B8AD1F8
:101CE000604603F007FC0022244B03F07CFB0290CB
:101CF0000391089803F0FEFB0022204B03F073FBD6
:101D00000D9C0090019122000C991D4804F0AEF941
:101D1000621E0D9200D35AE70C9B10330C93402B9C
:101D200000D0C0E60FB03CBC90469946A246AB46F8
:101D3000F0BDE3077F081F436408EAE5E3077F0877
:101D40001F43640859E6E3077F081F436408D5E68C
:101D500020225946D21AD1400991B5E6D1075B0835
:101D60000B430493530805931D005AE7202259465C
:101D7000D21AD1400A9135E7B103001000408F40DC
:101D800014740010F8B500F011F975487549764BD8
:101D90000D2718605960FFF78FFD62202021734ED8
:101DA000734C0023F55E734A0134854200D1CDE0C7
:101DB00093691942FCD1106020780028F4D10622E2
:101DC000002326200021FFF71DF9062200232620EC
:101DD0000021FFF725FA06225242D31726200021C0
:101DE000FFF71EFA0622002326204042C117FFF704
:101DF00017FA06225242D31726204042C117FFF796
:101E00000FFA2021062200235B48FF31FFF7FAF882
:101E10000622002300200121FFF7F4F80622002308
:101E200001204042C117FFF7EDF8FFF707FB534BC6
:101E300018685968FEF774FB0023F55E2020202106
:101E40000D264F4C4B4A0134A84200D183E09369E0
:101E50001942FCD1106020780028F4D1002201231F
:101E600048484949FFF7CEF801220123524245482C
:101E70004549FFF7C7F8012203235242414842492E
:101E8000FFF7C0F80122072352423E483E49FFF7C0
:101E9000B9F801220F2352423A483B49FFF7B2F802
:101EA00001221F23524237483749FFF7ABF801227E
:101EB0003F23524233483449FFF7A4F801227F23DD
:101EC000524230483049FFF79DF80122FF23524229
:101ED0002C482D49FFF796F801222C4B52422948F5
:101EE0002949FFF78FF80122294B524225482649FC
:101EF000FFF788F80122274B524222482249FFF778
:101F000081F80122244B52421E481F49FFF77AF8FC
:101F10000122224B52421B481B49FFF773F8012252
:101F20001F4B524217481849FFF76CF801221D4B0E
:101F3000524214481449FFF765F801221A4B5242E5
:101F400010481149FFF75EF8FFF784FB93691942C7
:101F5000FCD117602CE793691942FCD1166076E733
:101F6000957BF4148635C6A9B8130020C013002051
:101F7000A873001000400340CB04FB7198120020AE
:101F8000B0730010EFCDAB89674523F1FF0100006E
:101F9000FF030000FF070000FF0F0000FF1F00000D
:101FA000FF3F0000FF7F0000FFFF000010B504F0BE
:101FB000ADF810BD094A830094464022634410B531
:101FC0001C68C0006240C0241440802252011343A8
:101FD0001C60034B9C466044416010BD04C001403E
:101FE00000400140F8B5EFF3108772B60D4E33682C
:101FF000002BFCD0BFF35F8F0725CB08C01801234F
:102000000D40AB401D000478254007D123430370E9
:10201000BFF35F8F356087F31088F8BD100001F0C3
:10202000DDF8C0462C0100D0024B18688007C00FB5
:102030007047C04600C006400021044B044ABFF36D
:102040005F8F02C39342FAD17047C046000100D0AF
:10205000800100D0044A1078431CDBB2172B00D952
:10206000102313707047C04680080020012383406E
:10207000002902D1034A13607047034A1360034AE0
:102080001360F9E780E100E080E200E000E100E0B9
:10209000024B10309B688000C058704700ED00E094
:1020A00070B50D00EFF3108672B60F4A1368002B5F
:1020B000FCD0BFF35F8F0D4B10309B6884001B5921
:1020C0000B4A934203D09D4201D001F09FF8074B89
:1020D0009B681D51BFF35F8FBFF35F8F0022024BE0
:1020E0001A6086F3108870BD240100D000ED00E076
:1020F000CD010010F0B5DE4657464E464546E0B5E8
:102100000C0083B0EFF3108B72B65B4A1368002BA0
:10211000FCD0BFF35F8F1022904680444246574B5D
:1021200097009B68DD59564B99469D4206D0A542C3
:1021300000D177E0534EAB1B2F2B12D94F4B9B682E
:10214000DD51BFF35F8FBFF35F8F00224A4B1A60F0
:102150008BF3108803B03CBC90469946A246AB4630
:10216000F0BD012383409A465246474B1B681A40F4
:1021700000925246454B1A60BFF35F8FFEF773F82B
:102180000190002843D101232A009A4393689C427E
:102190004DD006215156002905DA31E00621595665
:1021A0001A0000292CDB4B005B189B00F318996880
:1021B0008C42F3D10621595600293BDB4A005018C6
:1021C000800034188046A0689860E079D8710620B5
:1021D00020569871A0797F2826D8A488F01A640523
:1021E000241544440019E0240005400D2402204336
:1021F00098805218264B9200B6181A781970B2714E
:10220000009B002B08D15246204B1A6096E7804570
:10221000B9D000F0FBFFB6E752461E4B1A601A4BCE
:102220001A608BE71D0089E7BD200002E0E713007C
:102230000022BFE7019900290FD1002A1AD0FF31EF
:1022400091711549918012490A789A71134A9B1B22
:102250005B415A43120D0A70D2E7114A1149D21A52
:10226000083A5002400D014399800F4952080A4331
:10227000DA80C5E74D46E6E7240100D000ED00E036
:10228000CD0100108408002000E100E080E100E0C2
:10229000A513002080E200E000BDFFFFAAAA000015
:1022A000BE08002000F0FFFF00F8FFFFF8B5012591
:1022B00004000543FDF7D7FFEFF3108672B6214AFD
:1022C0001368002BFCD0BFF35F8F1F4A1F4B210008
:1022D000891A49414B431B0D1D4980008F685BB231
:1022E0003F58BD4226D006215156994226D0122190
:1022F0005156994224D01E215156994210D02A217C
:102300005156032099420CD0124A11781370A171D2
:10231000BFF35F8F00220B4B1A6086F31088F8BD65
:1023200002204100091889005218FF2191710A49C1
:102330009180E9E78A6809491150E5E70020F0E754
:102340000120EEE7240100D084080020AAAA0000A2
:1023500000ED00E0A513002000BDFFFFCD0100103F
:10236000084B094A1360094A1360094A1360094A75
:102370001360094A1360094A1360094A1360094A45
:10238000136070478080808000E400E004E400E097
:1023900008E400E00CE400E010E400E014E400E0F5
:1023A00018E400E01CE400E0024B9C466144890014
:1023B000016070474000003483680B4810B58446C4
:1023C00061446244090112019A18591854684B6813
:1023D00001209C4201D802D00020C0B210BD12687A
:1023E0000B689A42F9D8F7E7FFFFFF0FF8B54E46A2
:1023F0004546DE465746E0B51F000CAB1D780DABD9
:102400001B7881469B46036816009846002D08D12C
:10241000987B002841D13CBC90469946A246AB46E9
:10242000F8BD28006C006419033C384B00229C4620
:102430004B469B6860449C4600010A9B6044836055
:102440000B9B06604760C36043461B681B199A706C
:102450005A701A7043465B7B9A46002B3BD043462A
:102460002A00986851465B68984743461A680028D6
:1024700024D053465B005344033BD31814195246EF
:10248000A2701A78002A00D062701D70524643462E
:1024900028005A73AA45BED11FE0414644001B687C
:1024A0002418033C1B195A788A73002A00D1CA7376
:1024B000002205009A705A701A70B6E753465B0006
:1024C0005344033BD31814199D702278002A00D07E
:1024D0005A705346237043465D734B463200187D55
:1024E0003B0000F00DFA041E07D05B46002B04D120
:1024F0004B462900186800F021FC0E9B002B02D0EF
:102500001C70280087E7280085E7C046FFFFFF0F03
:10251000744B8200F0B5D4580023DE4657464E4631
:1025200045469B46E0B58DB00B9000F06DF96268B2
:10253000EFF3108572B61368002BFCD0BFF35F8FEA
:1025400023689C465B7B9946002B00D181E0A26802
:10255000654B90464B441B01984443461E685F6898
:1025600032003B00121A8B41002B00DC84E03B0060
:1025700032000B9800F0C4F900230022089209935E
:10258000002300279A466368BFF35F8F5A461A609C
:1025900085F310885346002B64D00A9B390018023B
:1025A0004B461843D047626806900791EFF31088B6
:1025B00072B6564645461368002BFCD0B246A84674
:1025C000BFF35F8F0699079A002A25DA2369002B4B
:1025D00028D0089D099E6D1A96412A003300089D57
:1025E000099E9E4200D971E000D173E059460491E2
:1025F0000121039149460291514601970091200023
:10260000FFF7F4FE5B4623616368BFF35F8F5A46B2
:102610001A6088F3108888E71300194302D02369F1
:10262000002B46D12368DA7B002A07D051008A1894
:1026300019688C4649466244033A51704A46DA7337
:10264000E2684B469446013B63441A7801321A70A3
:10265000D8E70023002208920993002300279A4616
:10266000002090E7002800D05FE70DB03CBC90460A
:102670009946A246AB46F0BD002B02D1002A00D0FD
:1026800075E70021604600F0ADFA43461A685B68C2
:102690000892099343469B689A464346DF68E3687D
:1026A0004B44013B1B780A931B0218432061002016
:1026B00069E700F0A9F8069A079B12184B41994266
:1026C00004D800D092E7904200D88FE7012252420E
:1026D000D3178BE7954200D888E701225242D317DF
:1026E00084E7C04678130020FFFFFF0F10B5124C9F
:1026F0006368002B04D00A211048FFF755FE10BD77
:1027000023000F4A1021206800F04EFA032000F049
:102710006FF8032000F062F90A49032000F0AAF8DC
:10272000FFF798FC084B9C46032360442375074B36
:1027300080006060DC60DEE7CC0800208C130020A5
:10274000B923001011250010400000347813002038
:10275000F8B5CE46474680B5EFF305833F221340D8
:1027600018001038EFF3108C72B61B490A68002A63
:10277000FCD0BFF35F8F01210F008740174D184A2F
:102780006F63147891462200C2409046464600226C
:1027900031420BD0696A134D884681004D59A845D6
:1027A00012D3114BBC43CA584B461C70BFF35F8F0A
:1027B0000021094B19608CF31088002A00D0904743
:1027C0000CBC90469946F8BD08499B008846434496
:1027D00019681960EAE7C046280100D000400540AA
:1027E000A613002090130020F0120020D03F0540D7
:1027F00010B50100024A0348FFF7F4FB10BDC046C4
:1028000050740010A4130020044A516A00E019001B
:10281000906A536A9942FAD17047C0460040054019
:10282000134A30B5546A00E01C00956A536AA3420B
:10283000FAD12A002300801859418C4211D80ED0B9
:102840000C000B4A536AA342FCD307D1084A02E0AA
:10285000516A994202D1916A8142F9D330BD8542D1
:10286000EED9012401204042C1176442E9E7C04685
:102870000040054070B504000D00EFF3108672B6FD
:102880001A4A1368002BFCD0BFF35F8F002D1BD0BA
:102890002000FFF7FDFB164988420AD02000FFF711
:1028A000FFFB01212000FFF7E1FB0123A340114AB8
:1028B0001360114BA400E550BFF35F8F00220B4B58
:1028C0001A6086F3108870BD0B4BA200D550012210
:1028D000A2400A4920000B7893430B700449FFF78C
:1028E00009FC00212000FFF7C1FBE5E7280100D02B
:1028F0005127001038600540F0120020A613002078
:10290000F0B5D6464F4646462F4CC0B5656A00E046
:102910000D00A66A616AA942FAD1AB4249D9EFF328
:10292000108972B6294C21680029FCD0BFF35F8F53
:102930000126274986408C460978264D0F003743EB
:102940008846F9B28A46614654460C701E49041DF9
:10295000A4004E636250840063510D6A0024354226
:102960001AD04D6A00E025008F6A4C6AAC42FAD159
:10297000AB4224D801D1BA4221D8D04521D0124B44
:10298000154A1E625E631F2318401E3B834013607E
:102990006346424601241A70BFF35F8F00220B4B3F
:1029A0001A6089F3108820001CBC90469946A24604
:1029B000F0BDAB4201D1B242B1D80124F3E700240B
:1029C000EAE70124E8E7C04600400540280100D0BE
:1029D000A61300209013002080E200E010B5EFF372
:1029E000108472B60A490B68002BFCD0BFF35F8FCE
:1029F00001238340074A0848136202789A43027011
:102A0000BFF35F8F00230B6084F3108810BDC046B6
:102A1000280100D000400540A6130020F8B54E461E
:102A20004546DE465746E0B54C0064180368033C53
:102A30001A190D00517806008946002906D1280090
:102A40003CBC90469946A246AB46F8BD4F004F4469
:102A5000033FD81941788846002141705170002DFC
:102A600012D073684A462900B06898473368002836
:102A700073D0DF191A19BD701178002900D0797050
:102A800049462700117000E04D464246002AD6D044
:102A900054004444033C1A1951788946002911D145
:102AA000736842462900B06898473368002849D0C7
:102AB0001C19DF19A5703B78002B00D063704346CA
:102AC0003B70BCE74900494403398A46534459786E
:102AD0008B4600215970517073684A464146B06870
:102AE00098473368002843D152461C199A184B4620
:102AF000A3701378002B00D0637043465446C84639
:102B000013705B46002BCBD059463000FFF786FF91
:102B100081460028C4D002004146B06873689847D7
:102B2000326800282FD04B465B004B44033B111901
:102B3000D31842469A700A78002A00D05A704B4641
:102B40000B70ADE71C19DF194346BB702378002BCF
:102B500000D07B702570454671E749461C19DA198B
:102B6000A1701178002900D0617015704D468CE776
:102B700041461A19534499701178002900D05970B0
:102B80004B461370BDE74B465B004B44033BD118EB
:102B900014194A46A2700A78002A00D06270424690
:102BA0001C000A70C8467BE710B583600023CCB2D6
:102BB00043730133047342608373C4730068012C50
:102BC00007D90123421C0133DBB2137003329C424C
:102BD000F9D8FF2319404B00591800234018033837
:102BE000437010BDF0B54E4657464546DE46E0B54B
:102BF000477B03687C00E419033C1A19167883B0FC
:102C000005008946002E1ED1002911D0C07B002866
:102C100069D041000918591803394F70EF73002E1D
:102C200006D0710089190339884600214344997000
:102C30000023380053706E7303B03CBC9046994635
:102C4000A246AB46F0BD7100891903398846591870
:102C500048788246002807D149460029E5D0E87B1C
:102C60000028D6D1EF73DCE742005244033A944681
:102C7000019263445A78934600225A704A706B68F6
:102C800052463100A86898472B68002832D0414648
:102C900001985A1819188E701078002825D15146BD
:102CA00011705A46002A23D059462800FFF7B6FE75
:102CB000824600281BD002006B683100A868984744
:102CC0002B68002825D0424699185246520052449B
:102CD000033A9A1896700878002800D0507052462F
:102CE0000A701A19B8E7EF73A2E74870D7E72B68A4
:102CF0001A19B1E741465046019A59189A18887036
:102D00001078002800D048701670019A56469046F8
:102D1000C7E752465100514403395A18404693467A
:102D20005246181882705A461278002A00D0427013
:102D30005A46884616701A1956468DE7F0B545462C
:102D4000DE4657464E46E0B50C0083B00500002233
:102D500000293DD0477B0168BC426BD06600361924
:102D6000033E88198378002B32D05A00D318033BD6
:102D7000CB181A78944202D143E0002A08D05300BD
:102D80009B18033BCB185A789442F6D142785A707C
:102D900000238370437003789846002B25D1EA7B8B
:102DA000002A1DD053009B18CB18033B5C70434690
:102DB000EC73002B00D171E05C0000234444033C21
:102DC00009198B704370002F1ED1434601226B738B
:102DD000100003B03CBC90469946A246AB46F0BDFD
:102DE000B846EC7300234370EFE719002800FFF7A3
:102DF00015FE2968EA7B80466F7B8819002AD6D0A9
:102E0000D0E742781A70C3E742463900A8686B6879
:102E100098472A68002824D07B00DB191419033B4B
:102E2000D318A7701A78002A00D062704246B846BC
:102E30001A70CAE77E00F619033E8B19187880468F
:102E400000281BD1E87B002804D0420012188A1801
:102E5000033A5470EC7300225A70434601326B738C
:102E6000B6E77B00DB19033B1419D31842469A706E
:102E70002278002A00D05A702770A6E74400444404
:102E8000E01E019008184478A246002C08D1EC7B83
:102E9000002C76D1EF7300228270DCE7B846A1E700
:102EA00063005344033B994649444B784A7042704F
:102EB0009B4622006B684146A86898472B6800280B
:102EC0004BD049464046019C59181A198870107811
:102ED000002850D15146A14611705A46002A20D0F0
:102EE00059462800FFF79AFD041E19D002004146FA
:102EF000A8686B68984700281ED04A4641462B6850
:102F0000981862001219033A9A18917001780029F2
:102F100000D051700470E97B002905D19B19B9E7F5
:102F20002B684A469818F6E74A0052189A18033A4E
:102F300057709B19EF73AEE74B4629686000001984
:102F40000338CB1808189C700278002A00D05A70F9
:102F50004346A04603708B1999E74A469818019A90
:102F60009C185246A2700278002A00D06270424635
:102F7000D0460270B1E7487051461170019A9146EF
:102F8000ABE7032262438A18033A577082E7C046D0
:102F900010B50400FFF75EF801002000FFF704FA07
:102FA000FF232371BFF35F8F10BDC04610B504002F
:102FB000FFF750F801002000FFF7F6F9FF23237117
:102FC00000236371BFF35F8F10BDC046F8B50400E6
:102FD00006200D0000F084FA03000020002B49D0E9
:102FE000294B80229C424DD0D203284B28491A609D
:102FF000284B1A6010008B689843FBD1264B802128
:10300000E3185A425341254A5B0049000620995271
:1030100000F066FA2900C00004F076F9C3092AD04E
:103020001F4A93422AD87F221040013040089F0156
:103030001A0003003F18260080256262A362002365
:103040002C36AD0135432B60062000F049FA3900DB
:10305000800004F059F96023E26A53406E221A405E
:1030600080235B0133431A600E4B236310232B60D4
:103070000D3BA364F8BD40270122DCE70A4F002383
:103080000A4AD8E71204B0E70080034000E000409D
:1030900000C0004000F000400080FCBFC0130020D2
:1030A000FEFF000001030000C0FF3F00FFFF000023
:1030B0002D4A2E4B70B51A602D4A2E4B2E491A60A0
:1030C00010008B689843FBD12C4E2D4B9E420AD2A8
:1030D000F5430024ED18AD080135A300F358013481
:1030E0009847AC42F9D100F097F8264A214B1A6074
:1030F000214A9368DB018033FBD14022224B234CD1
:10310000234D9A675A671A67DA66AC4208D2236879
:103110002000002B22D00834FFF748FFAC42F6D342
:103120001C4D1D4CC022A168280002F07DFDA56049
:10313000FEF782FFFFF714F9FFF7D8FA174E184B86
:103140009E420AD2F5430024ED18AD080135A300D4
:10315000F35801349847A542F9D170BD0834FFF700
:1031600017FFAC42D3D3DBE7BFCDFBFE00E000404E
:10317000FE7F3C0000F0004000C0004080110020B5
:1031800090110020FFFFFF0100F0014078110020A6
:10319000801100200000002000ED00E090110020D0
:1031A00094110020094A1368002B06D0084918180A
:1031B000884208D8106018007047064B0449181858
:1031C00013608842F6D901204042F5E770130020D1
:1031D00000000420C815002000BEFDE70FB400B5B4
:1031E000084883B002F0B6FD049B002B07D005A968
:1031F0001800019101F010FE034802F0ABFD00BE83
:10320000FDE7C046807400109074001010B50148AE
:10321000FFF7E4FF7474001030B50C2083B000F0A9
:10322000B3F9FEF701FF00280ED0964B964A1A60BC
:103230005A609A60DA601A615A619A61DA611A62B8
:10324000924A5A6203B030BD914CA06700F0A4F9D5
:103250000122904B1A60636C012BFCD103228E4B30
:103260001A608B4A936B012BFCD1013300938B4A7C
:10327000043301218A4800F039F90523894A009373
:103280000121894800F032F9884B5A68FF2A02D898
:10329000802252005A6080227A4C7F4B21691201B1
:1032A000824D1A60002900D0E5E0E0217F4B02202A
:1032B0001A681140802252012A431160196848405F
:1032C00003210140116004219A681142FCD0802240
:1032D000802192012A4309011160802252005A6024
:1032E000734B2361734B5968FF2900D8C1E0032257
:1032F000684B70481A60012103009A681142FCD0A3
:10330000E0251A68154080225201024315601B68AF
:103310004B400321194011600221664A936819420B
:10332000FCD0802380219B01034309011960802187
:10333000614B490051606361604B5A68FF2A00D8B5
:10334000596080225E4BE16912015C4D1A600029D0
:1033500005D0606903F0D8FF01300138FDD1E022CB
:1033600056490B681A4080235B012B431A60802367
:1033700080229B012B4312011A608022424B520093
:103380004A60E3614F4B5968FF2900D85A60802298
:103390004D4B216A12014B4D1A60002905D060691E
:1033A00003F0B2FF01300138FDD1E02245490B683E
:1033B0001A4080235B012B431A60802380229B01EB
:1033C0002B4312011A6080235B004B602E4B3F4A57
:1033D00023623F4B5968914201D801325A608022E2
:1033E0003C4B616A12013A4D1A60002905D06069B0
:1033F00003F08AFF01300138FDD1E02234490B6827
:103400001A4080235B012B431A60802380229B019A
:103410002B4312011A608023DB024B601B4B63625B
:103420002D4B5A68FF2A02D8802252005A6080220F
:103430002A4BA1691201284D1A60002905D0606944
:1034400003F062FF01300138FDD1E02222490B6810
:103450001A4080235B012B431A60802380229B014A
:103460002B4312011A6080235B004B60124BA36157
:10347000E8E65A603BE7606903F046FF0130013837
:10348000FDD112E700130020006CDC021BB7000026
:10349000008000403CB0004030B00040002F685930
:1034A00000800240008C864700C00240308000400F
:1034B000001BB7003C800040405973075480004017
:1034C00054B000406080004060B00040FFFF030047
:1034D0006C8000406CB000404880004048B0004024
:1034E000014B8000C058704700130020F8B504005D
:1034F0000C2017001D000E0003F006FF1D4941437C
:10350000380003F001FF069A2B04120313432268CC
:10351000002A1CDB184A8021944229D04901174A0D
:10352000174D1160174A11600F00AA689743FBD12D
:10353000C021221D8901114321222660A0600A605A
:103540002268002AFCDAE36008230B60F8BD3F2202
:1035500021680A409642DDD1A2681205120D904200
:10356000D8D1EE21E268C9020A409342D2D1EDE7F8
:103570008901D4E740420F0000C0024000E0004053
:1035800000C0004000F0004080239B001843014B26
:10359000D862704700800540AA23064A1B011360C9
:1035A0002F230549D360054B19605368002BFCDAC3
:1035B0007047C0460040024000B0FA000060024080
:1035C0007047C04610B5002803D04A680B68110048
:1035D000984710BD10B5002800D110BD0B4B1C68DA
:1035E000A2689368013B9360002B04DB1368591CAD
:1035F00011601870F1E791698B4201DB0A28F5D15F
:103600000100200003F09AF8E7E7C04638090020DF
:10361000F0B54546DE4657464E46E0B583B099467E
:103620000EAB1D78119B88469B460223129900928F
:103630000B4007000D9C109A0193002B28D15B468C
:10364000002B00D092E0944222D201260E401F2C83
:103650001ED80C9B30201B1902E00133202C03D014
:1036600001341870A242F8D8002E11D0A3450FD90A
:103670000C9B30201B195E461F2C04D987E00133B8
:10368000202C00D1A7E001341870B442F7D1A34632
:10369000CB0611D54B0502D4002C00D07CE00F9B4B
:1036A000102B00D1A0E0022B00D1A7E01F2C11D8D5
:1036B00030230C9A135501341F2C0BD8002D00D049
:1036C00079E04B0700D588E00B0733D520230C9A0F
:1036D000135501348B0730D0009E2500A2463200DE
:1036E0004446B0460C9B013D561C585D21004B469C
:1036F000B8473200002DF5D14646A046544636194B
:10370000019B002B0ED0009D731B5B450AD232003B
:10371000444601364B4621002020B8473200731B37
:103720005B45F6D3300003B03CBC90469946A246B8
:10373000AB46F0BD009E8B0715D15C456ED2009A5A
:103740000D9413005B441D1B0D9B44469846561C6C
:103750004B4621002020B8473200B542F7D14346FE
:10376000A0461C000D93002CB7D1C9E701260E40DE
:1037700028D0002D2AD10C230B4227D1944200D30C
:1037800074E71F2C00D864E7A34500D880E7CB0678
:10379000A0D54B0500D582E7A24202D05C4500D0FF
:1037A0007DE7631E002B3BD00F9A023C102A1BD0F2
:1037B0001C00130077E72D230C9A135501348B0757
:1037C000BBD089E7944200D241E761E701235B4225
:1037D0009C46E344D2E7B346D9E72B230C9A135512
:1037E00001348B07A9D077E78B060FD41F2C00D9A3
:1037F00070E778230C9A1355013457E71F2C00D932
:1038000068E70C9A6033135501344FE71F2C00D939
:1038100060E758230C9A1355013447E7009EA2E74E
:1038200000243CE7F0B5DE4657464E464546E0B537
:1038300097B005000E0093461F00209A219B1000B0
:10384000190001F044FE002800D0D5E2209821990B
:103850000122BD4B524201F027FE002800D081E139
:10386000209821990122B94B524201F02BFE0028E9
:1038700000D017E1209821990022B54B01F022FEDB
:10388000002800D0BCE1209821990022B14B01F022
:103890000BFE002800D0B3E12098219900220023DC
:1038A00001F002FE002800D054E200230D93802393
:1038B000249ADB001A40914600D007E20023A64C70
:1038C0000893099406240EAB07932098219901F0E0
:1038D00029FE80460C9001F00DFE02000B0020989E
:1038E000219901F06EFD089A099B01F09AFD0A905A
:1038F0000B9101F03BFE824601F0F8FD02000B0047
:103900000A980B9901F05DFD0022944B0A900B91EF
:1039100001F0D8FD002800D1C5E101239C46E24416
:10392000504601F0E3FD089A099B01F0C3FD002811
:1039300000D030E2002C00D074E10C9C200001F09B
:10394000D9FD02000B002098219901F03AFD0022D8
:10395000824B0890099101F0A7FD002800D10AE2EE
:103960004B46202B00D196E15C1C0C9B0A211800D1
:10397000984603F0F9FC4A46079B3031995440467B
:103980000A2103F0D9FC079B80469946A1440028F0
:103990001BD02A00330025004E46444699469046E7
:1039A000202D00D125E220000A2103F0DDFC30317A
:1039B000317020000A2103F0BFFC013504000136FC
:1039C0000028EDD12C004E4645460323249A13408F
:1039D000012B00D19BE120229246202C0CD00D9A85
:1039E000002A00D0C1E1249A520700D44CE2621CA4
:1039F00092462B2207990A555A460892002B17D156
:103A0000239B9A4500D34FE25B441C005346E41AC3
:103A1000B84637002E002500541C434639002020AC
:103A2000B0472200AC42F7D135003E00474608942B
:103A300053465C1E079B08AA9C4617236444944681
:103A40006344B946984637002E00089A551C2078E2
:103A50004B463900013CB0472A00A045F6D1089BEF
:103A6000350053441C00249B3E009B0712D55B4647
:103A7000239AE31A9A420DD91300C84622005F46E2
:103A800099460134434631002020A8472200E31B19
:103A90009945F6D8200017B03CBC90469946A246FE
:103AA000AB46F0BD249B5B0700D5A4E02C4B9A46A7
:103AB00003230793249BD8469B0719D1079B23997F
:103AC0008B4200D3ECE15A469B1A9846239B9946B9
:103AD0003B0031002020541CA84743461B192200FC
:103AE0009945F5D8239B5B441C00079BE31A984635
:103AF000B14642465646BA462F00079C013C551C2B
:103B0000305D53464946B8472A00002CF6D1079B42
:103B10003D0043441C00249B4E469B07BAD55B46A0
:103B2000239AE31A9A42B5D91300D04622005F4681
:103B300099460134434631002020A8472200E31B68
:103B40009945F6D8A6E7C046FFFFEFFFFFFFEF7FDE
:103B500065CDCD4165CDCDC180842E410000E03FD3
:103B60007C760010249BD8469B0716D1239B042B00
:103B700000D897E11C1F5C44B8465A4637002E0017
:103B80002500541C434639002020B0472200AC4297
:103B9000F7D135003E004746A046CE4BB9464246D7
:103BA000370004249A462E005346013C551C185DEC
:103BB00039004B46B0472A00002CF5D14446249BDF
:103BC000350004343E009B0700D463E75B46239A2C
:103BD000E31A9A4200D85DE71300C84622005F4608
:103BE00099460134434631002020A8472200E31BB8
:103BF0009945F6D84EE7B84B9A460423079359E700
:103C0000249B5A460493239B31000393229B280054
:103C10000293209B219C009301943B0000F064F9E7
:103C2000040037E74B46202B35D0631E98464B46A1
:103C30000A2150465C1C03F0A7FB4A46079B303123
:103C4000995450460A2103F05FFB8146002800D1B9
:103C5000B6E0079B9A463B00A2444746A84625008B
:103C60004C46B14656469A4610E020000A2103F021
:103C70008BFB3031317020000A2103F045FB013FFE
:103C8000013504000136002800D194E0202DECD14C
:103C900045464E4657460323249A1340012B35D000
:103CA00020229246A8E600220A980B998B4B01F03D
:103CB000FBFB002800D03DE65346002B02D0DB077B
:103CC00000D437E601239C46E24433E6229B092BCD
:103CD00000D8F2E00122302391460EA80370229B07
:103CE00007905C1E2F32093B494604E042540131E3
:103CF000013C202901D08B42F8D1794BE2009B187E
:103D00001A685B68894608920993DEE52024239BA4
:103D1000002B47D00D9B002B03D1249A0C33134268
:103D200002D0239B013B2393239BA3423AD9202C0F
:103D300000D1BDE0302221001800079B1B19013182
:103D40001A7088422DD001332029F8D15B468A466B
:103D500008936DE6209A219B0020002101F031FBA1
:103D60000123209021910D93A1E5621C92462D2202
:103D700007990A5540E6002208980999574B01F027
:103D8000A1FB002800D0EBE50123A44623409C447E
:103D900063460C93E4E5434601330C9300239A46B3
:103DA000C8E5239C0123202C00D018E61F339A4637
:103DB0005B4608933CE62C004E464546B8465746BF
:103DC000202C00D167E742464046079B11191B197A
:103DD0003022002807D001341A70202C00D15AE775
:103DE00001338C42F7D1631C99462E23079A135551
:103DF000B6E545464E464EE7249BD8469B0715D16F
:103E0000239B032B52D9DC1E5C44B8465A4637002C
:103E10002E002500541C434639002020B0472200C4
:103E2000AC42F7D135003E004746A0462D4BB9467F
:103E30004246370003249A462E005346013C551C47
:103E4000185D39004B46B0472A00002CF5D1444696
:103E5000249B350003343E009B0700D41AE65B46E2
:103E6000239AE31A934200D314E61300C8462200B3
:103E70005F4699460134434631002020A84722007E
:103E8000E31B9945F6D805E6249AA246120700D40A
:103E9000B2E50122944607991F32E2440A55ABE588
:103EA000D84625E6D84678E60892C1E5D846BDE76B
:103EB00020239A465B460893BAE5DA00084B9B1824
:103EC0005C681B6808930994002399460EAB229CFA
:103ED0000793FAE484760010747600100000E03F47
:103EE0009076001080760010F0B54E464546DE46CE
:103EF0005746E0B59BB00A93249B81461C000B9368
:103F0000259B09911D000D920C9300220023200097
:103F1000290001F0C9FA002800D093E10B9A0C9B0C
:103F200092469B468023289ADB001A400E9201D1CC
:103F30000623269356465B46334300D148E15B4651
:103F40005800C94B400D9C46604401F0D3FAC74A63
:103F5000C74B01F066FAC74AC74B01F03BFA5B4614
:103F6000C64A1B031B0B1A4304000D00C44B11006F
:103F70005046002201F025FAC24AC34B01F051FA23
:103F800002000B002000290001F024FA01F0CAFA17
:103F9000804601F0AFFABD4ABD4B04000D0001F0B0
:103FA00040FA0022BB4B01F015FA01F0BBFABA4A05
:103FB0000600BA4B2000290001F033FA040030005B
:103FC0000D000F9601F096FAB54AB64B01F029FAAA
:103FD00002000B002000290001F0F3F902000B00A1
:103FE00006000F0001F01DFA320004000D003B0036
:103FF0003000390001F0EEF9002210901191AA4B27
:104000002000290001F0EFF90022A84B01F0E2F9AD
:1040100002000B002000290001F0E5F90022A44B6A
:1040200001F0D8F902000B002000290001F0DBF9B3
:104030000D008021320004003B000020C90501F082
:10404000C0F902000B002000290001F0C3F90200B2
:104050000B001098119901F0C6F90022874B01F06E
:10406000B9F9944A0F9B9446634400221B0501F062
:10407000D8F906000D0002000B005046594601F029
:1040800013FA00280BD001235B429C463000290024
:104090000022864BE04401F0A6F906000D004346DD
:1040A000C62763339F42BF41289B7F4204371B05CD
:1040B00000D5ACE0279B00249F4200D2DC1B0223EA
:1040C000289A1A400E9203D07B427B415B421C40EF
:1040D0004346002B07D05046594632002B0001F0D2
:1040E00082F982468B46002200230B980C9901F03E
:1040F000DBF9002800D0A0E0289A6F4B039413400E
:104100000493269B524602935B46099900920193C1
:1041100048460A9B0D9AFFF785FB0400002F4FD0FD
:10412000289B65209B066CD4631C22009A46099943
:104130000A9BC8474346DA179D18DB0F98467B1E3B
:1041400055409B46002412AF02E03400202E0DD0D3
:1041500028000A2103F018F9661C30313C1921703F
:1041600028000A2103F0D0F8051EEED1052306939E
:104170005B460593002304930A3303934346019659
:10418000099E02930A9B0097524631004846984682
:10419000FFF73EFA0E9B0400002B11D00D9F279ACB
:1041A000C31B9A420CD9279B4D4602009946013405
:1041B000434631002020A8472200E31B9945F6D84A
:1041C00020001BB03CBC90469946A246AB46F0BDD1
:1041D000289B56465D461B0515D500239846269A12
:1041E0000023424503DD130042469B1A013B269300
:1041F0008023289ADB001A43002328920027984640
:1042000058E7203890E700230427984652E72B0010
:104210003343E4D0294A2A4B5046594601F04AF923
:10422000002817D1269B002B00D143E70E9B5A1E76
:104230009341269AD31A26933CE7802109065944D4
:104240008B4659E78022120694460C9BA246634493
:104250009B4667E600221B4B5046594601F024F965
:104260000028BCD1DEE7C04601FCFFFFFB799F5070
:104270001344D33FB3C8608B288AC63F0000F03F89
:104280000000F83F61436F63A787D23F71A37909AC
:104290004F930A400000E03F1655B5BBB16B02409A
:1042A000EF39FAFE422EE63F00002C400000244089
:1042B00000001840FF030000FFF7FFFF2D431CEB39
:1042C000E2361A3F80842E41F0B54546DE46574619
:1042D0004E46E0B5A1B01D002A9B09920B93A24A5D
:1042E000A24B0A9008911A60002900D187E30023AD
:1042F0009B469F4B2C009A465D46207800280CD0A8
:1043000025281DD06E1C2A00099B0A9D089901349E
:10431000A847207835000028F2D10999AB462A0039
:104320008D4200D34A1E099B089900200A9CA04791
:10433000584621B03CBC90469946A246AB46F0BDDB
:104340001023621C9846083B9C461678043B99460D
:10435000023B9B463300203BDBB2002701211400C7
:10436000102B0CD850469B00C3589F460F43013278
:10437000167814003300203BDBB2102BF2D9330047
:10438000303B092B00D8B5E1002398462A2E00D1F6
:10439000A6E200239B462E2E00D1C0E13300683BED
:1043A000DBB2122B18D8734A9B00D3589F46634642
:1043B00001321F43DCE7434601321F43D8E74B4637
:1043C00001321F43D4E75B4601321F43D0E780230D
:1043D0005B0066781F4301343300253BDBB2532B6F
:1043E0000FD8654A9B00D3589F466678682E00D147
:1043F00088E280231F433300253BDBB20134532B7B
:10440000EFD96F1C2A00099B0A9D08993000A84724
:1044100001343D0071E766786C2E00D16CE2802398
:104420005B001F430134D7E780239B0066781F435E
:104430000134D1E70B9B1A1D1B680E920B935B4650
:10444000002B00D12BE20B9A10781600002804D123
:1044500000F0A4FC013B002B03D001363278002A87
:10446000F8D10B9BF31A0C938023DB003B40994659
:1044700003D00C9B5B4500D9ABE202233B400F937A
:1044800000D1B3E100281ED04B46002B00D1D0E173
:104490005B465F190B9BA3465E1BB1462A00099C35
:1044A0000A9E09E023000899551CB0474B46585D09
:1044B000002800D1CEE12A009742F3D15C463D00AE
:1044C0000F9B002B14D00C9A904511D943465819D4
:1044D000099B861A98462A00A1460A9F089C013526
:1044E000434621002020B8472A00B542F7D14C4668
:1044F0000E9B01340B9300E70B9B1A1D1B68904623
:10450000002B00D1CEE1212217430B970F2100226F
:1045100018AE8946A44602E00A0020290CD048467D
:104520001840C4B22700511C3737092801D830344D
:104530002700B7541B09EFD164460B9B01910693EA
:10454000082305935B4604931023039300232A005A
:1045500002930096099B08990A98FFF759F8434679
:10456000050001340B93C8E6C94200107413002003
:1045700094740010D874001024750010782E00D1A7
:10458000C5E1582E00D12FE26F2E00D131E3622E0B
:1045900000D126E210233A009A430C92692E01D0F2
:1045A00000F01EFC0A230E937B0500D5B7E180279F
:1045B0000C9BBF001F4000D0B8E21A0080235B00B4
:1045C0001A40914600D06EE30C9B5B0601D500F0CB
:1045D000F1FB0C9B0B9A1B0600D4C1E30021535E38
:1045E0000432D90F14910B92DA179F185740002B01
:1045F00009D10C9910330A009A4313000A000C9356
:10460000520500D5DEE30C9A6123920600D54123C2
:10461000DBB218AE0A3B16940F934C461595B14683
:104620000E9E0EE03033DBB24A463800135531009F
:1046300002F06AFE071E00D1FDE12C00202D00D102
:10464000F9E13100380002F09FFE651CCBB2092968
:10465000E8D90F9A94466344DBB2E5E7462E00D1D1
:10466000B4E107220B9B049707339343013294462E
:104670009C4462460B92424603925A4602921A6842
:104680005B680899009201930A982A00099BFFF73A
:10469000C9F80134050030E66E1C2A00099B0A9D0A
:1046A00008992520A8470134350026E6BB0700D528
:1046B000D2E04346012B00D888E3099B6F1E474494
:1046C00098462A00A1460A9D089C561C4346210094
:1046D0002020A8473200BE42F7D14C460B9B320047
:1046E0001F1D1878751C099B08990A9EB047013454
:1046F0000B9702E6002332009E00F6180134760084
:10470000B6182278330011003039303B0929F3D92B
:104710009846002316009B462E2E00D03EE68023AE
:104720006678DB001F433300303B621C092B11D835
:10473000140033005A469600B61801347600F61875
:104740002378320019003039303A0929F3D91E0094
:10475000934623E62A2E00D181E114001EE6202391
:1047600032009A43472A04D180231B011F430223AE
:104770009E43452E01D120231F4307220B9B073365
:104780009343013294469C4462460B921A685B68DC
:10479000100019000C900D9100F099FE002800D037
:1047A0008CE00C980D990122CA4B524200F08AFE0F
:1047B000002800D082E00C980D990122C64B52428D
:1047C00000F072FE002879D1434603935B460497BC
:1047D000029308990C9A0D9B0A98009201932A0063
:1047E000099BFFF781FB0134050086E50C990B005E
:1047F0000133884500D8EBE243462A005F190C9448
:10480000089D0A9C7F1A561C099B29002020A0475E
:104810003200BE42F7D14346350001330C9C0C9365
:104820000B9B1878002800D162E64B46002B00D085
:104830002EE62A000B9BA3465F1BB9460A9E089CE6
:10484000099F3B002100551CB0474B46585D2A008C
:104850000028F6D15C4633E60B9B08991A1D1878A0
:104860009146099B2A000A9FB84743466E1C45445F
:10487000012B00D8AEE2A3463200A846089C099E50
:104880000A9D571C330021002020A8473A004745C5
:10489000F7D15C464B463D000B9301342DE50123D7
:1048A0005B42D0E5102239009143113211430B9144
:1048B0007A0500D42AE6002118AE3EE6434603936B
:1048C0005B460497029308990C9A0D9B0A980092F4
:1048D00001932A00099BFEF7A5FF013405000CE5B2
:1048E0000B990B00096804338846002900DAB0E010
:1048F00056780B93541C4CE5C0239B00A6781F43AD
:10490000023469E5C023A6781F43023464E510230E
:104910000E930C233A009A430C927B0502D5012397
:104920009A430C92692E00D141E6642E00D13EE6F6
:1049300080270C9BBF001F4000D09EE01A00802300
:104940005B001A40914600D070E10C9B5B0600D5DD
:104950001FE20C9B1B0600D408E20B9B1F8804334C
:104960000B93002F09D10C9910230A009A431300CE
:104970000A000C93520500D5D4E00C9A61239206EC
:1049800000D54123DBB218AE0A3B15940F934C4679
:104990001495B1460E9E0CE03033DBB24A46380027
:1049A0001355310002F0B0FC071E2BD02C00202D37
:1049B00028D03100380002F0E7FC651CCBB2092991
:1049C000EAD90F9A94466344DBB2E7E720231F43FA
:1049D00047E65B460C9302233B400F9300D051E522
:1049E00004E702230E9394E70C233A009A4314330E
:1049F0001A4310230C920E937B0590D498E7374B03
:104A00000A9374E44E462A00159C149D0C9B069351
:104A1000434605935B4604930E9B03930023029346
:104A200001922A000096099B08990A98FEF7F0FD6A
:104A30000134050061E44E462A00169C159D0C9B2E
:104A40000693434605935B4604930E9B0393149B86
:104A5000E5E702210F4341464942884648E70B9A61
:104A6000A678136802349B46DB435946DB1719408E
:104A7000130004338B460B9390E407220B9B073300
:104A80009343013294469C4462460B921A685F68D5
:104A9000130091463B4308D10C9910330A009A4306
:104AA00013000A000C9352053CD40C9A6123920621
:104AB00000D577E1DBB20A3B0F9343460022169301
:104AC0000E9B18AE1495159415004C469846B146A9
:104AD00019E0C046FFFFEF7FFFFFEFFFC135001079
:104AE0003032D2B24B4620005A553900424600239C
:104AF00002F002FC0F000400014300D18FE03500FA
:104B0000202E00D18BE0424600232000390002F025
:104B1000F3FBD2B26E1C092AE2D90F9B9C46624479
:104B2000D2B2DFE7002318AE1A006FE707220B9B13
:104B300007339343013294469C4462460B921A68B1
:104B40005B68D91712911391129813990600564079
:104B500010960E005E401196109E119F361A8F41DE
:104B6000D90F1096119717911A430BD10C99102356
:104B70000A009A4313000A000C93520502D500273D
:104B800018AE41E00C9A6123920600D50CE1DBB22D
:104B90000A3B0F93434616930E9B18AE002298468D
:104BA0003300149515941600109C119D994611E040
:104BB0003032D2B24B4620009A552900002342469B
:104BC00002F09AFB030004000D000B4314D03E00DA
:104BD000202F11D0424600232000290002F08CFB38
:104BE000D2B2771C092AE3D90F9B9C466244D2B209
:104BF000E0E708230E938CE64E46169B1094119521
:104C00009846159C149D0C9B0693434605935B4662
:104C100004930E9B01970393179B029301E7169B46
:104C20003200149D159C98464E46EFE60B9B1A1DCC
:104C30001B6815929946002B0CD10C9910330A0071
:104C40009A4313000A000C93520503D5002318AEB3
:104C50001A006DE00C9A6123920600D5A6E0DBB243
:104C600018AE0A3B14940B934C460F95B1460E9E1A
:104C70000CE03033DBB24A462000D355310002F05D
:104C800043FB041E50D02F00202D4DD031002000BA
:104C900002F07AFB7D1CCBB20929EAD90B9A944623
:104CA0006344DBB2E7E70B9B1A1D1B681592D9170B
:104CB0005A184A409146DA0F1692002B0CD10C99E3
:104CC00010330A009A4313000A000C93520503D5CF
:104CD000002318AE1A0052E00C9A6123920667D4A2
:104CE000DBB218AE0A3B14940B934C460F95B146B9
:104CF0000E9E0CE03033DBB24A462000D355310023
:104D000002F002FB041E36D02F00202D33D03100DC
:104D1000200002F039FB7D1CCBB20929EAD90B9A9D
:104D200094466344DBB2E7E74E462A00149C0F9D8D
:104D30000C9B0693434605935B4604930E9B03939B
:104D4000002302930192099B2A00009608990A9871
:104D5000FEF75EFC159B05000B930134FFF7CDFABF
:104D600013680432D90F14910B923DE40B9B1F681A
:104D700004330B93F5E54E462A00149C0F9D0C9BC3
:104D80000693434605935B4604930E9B0393169B41
:104D9000D7E70B9B1F7804330B93E2E500230C93BA
:104DA000FFF762FB412385E64123F0E6412356E706
:104DB000412395E70B9A137804320B920022149248
:104DC000FFF712FC002318AE1A0038E62E0085E427
:104DD0000C9327E54B4635000B930134FFF78DFA12
:104DE000063B17000E93642E00D092E5530500D5C4
:104DF00095E5FFF7DCFBC04600B585B000931300D6
:104E0000012202900391524202A90248FFF75CFA84
:104E100005B000BDC535001010B5094A84B014684E
:104E2000002C09D0012200910300524203A9054839
:104E3000A047012004B010BD00F08CFF0020F9E76E
:104E400074130020D535001001480421014B184788
:104E500000090020914E0010044B5B68002903D12B
:104E600000B59847203000BD0846184700090020CB
:104E7000142310B50100188804331B88984710BD0F
:104E8000162310B50100188802331B88984710BDFF
:104E9000F8B54746CE4680B50F1E19D01423994663
:104EA000043304000025012698464B4618884346E3
:104EB00021681B88984701C4431E98410135404230
:104EC0000640AF42F1D130000CBC90469946F8BD87
:104ED0000126F8E7124A936F9B0815D29066D166B7
:104EE000002905D0FFE7FFE7FFE7516F106F70471C
:104EF00004B580210906C2175140002800D0C843DC
:104F000002F022FA002104BDF0B5146E556E576F01
:104F1000166FFFF7E3FF1466556657671667F0BD17
:104F2000000000D0114A936F9B0813D2106651669F
:104F3000002905D0FFE7FFE7FFE7516F106F7047CB
:104F400004B5002801D00020C04302F0FDF9002183
:104F500004BDC046F0B5146E556E576F166FFFF75F
:104F6000E5FF1466556657671667F0BD000000D070
:104F700094464E4A926F9208624601D230E0C04693
:104F8000F0B54A4EB56F6D08FCD3346E756E776F11
:104F9000366F00F025F89446444A14665566576704
:104FA00016676246F0BDC0469446404A926F92082A
:104FB000624601D258E0C046F0B53C4EB56F6D0870
:104FC000FCD3346E756E776F366F00F04DF89446F3
:104FD000364A14665566576716676246F0BDC04686
:104FE000002B24DB11D000293EDA00B5C943404232
:104FF00000D1013100F038F8C943404200D10131FD
:10500000DB43524200D1013300BD002AEBD100281E
:1050100001D1002905D00020C90FC90701D1C04323
:10502000410800B502F080F90022002300BD00B560
:1050300000290ADBDB43524200D1013300F014F8AF
:10504000C943404200D1013100BDC943404200D1B3
:105050000131DB43524200D1013300F005F8DB435C
:10506000524200D1013300BD002923D1002B18D1B9
:10507000002A0CD0BC460D4F38667A66002100230A
:10508000FFE7FFE7FFE77A6F386F67467047002852
:1050900001D00748010000B502F046F900220023C4
:1050A00000BD02000B00002000217047000000D06E
:1050B000FFFFFFFF002B00D0BFE0130C28D1002A18
:1050C000E7D080B4114F39667A66FFE7FFE730B466
:1050D000040C7B6F396F1B0423433B667A66FFE742
:1050E000FFE7FFE7C04684B27B6F3D6F1B0423439D
:1050F0003B667A66FFE7FFE7C04600232C042D0CD1
:105100007A6F386F00196941B0BC7047000000D059
:10511000F0B594460025140E01D112020835140F83
:1051200001D112010435940F01D192000235D40F40
:1051300001D152000135D40B0134254F7C66254C3A
:105140003C660E0C93B2FFE7FFE7FFE73C6F664358
:10515000360C7703BE467343DF0B5B04C01AB941BC
:10516000130C7343DB18C91ACE086643360CB644D9
:1051700093B273431F0F1B01C01AB941130C734341
:105180001F0B1B05C01AB941860D8F023E436643B3
:10519000360C092D24DB520A7243801A7703460A23
:1051A0006643360C16235B1BDE40DF40BF196446A6
:1051B0006643821B7046043506330100D940A8407F
:1051C000C01900D30131A24206D20023F0BD000075
:1051D000000000D0FFFFFFFF121B0130F3D3F1E707
:1051E00009277F1BFE406446A2B27243801A00D298
:1051F0000139220C7243130C1204821A99410B00DC
:105200007046043513370100F940A840801900D3D7
:105210000131002B02D1A2420AD2F0BD013000D3ED
:105220000131121BFAD2013BF8D1A24200D2F0BDEB
:10523000013000D30131121BF7E7F0B51C0C00D090
:1052400080E00CB400251C0A04D11B02160E334367
:10525000120208351C0B04D11B01160F3343120137
:1052600004359C0B04D19B00960F3343920002350A
:10527000DC0B02D192185B4101351C009718644188
:105280000134464F7C66464C3C660E0CFFE7FFE758
:10529000FFE7C0463C6F6643360C7703BE4697B2C5
:1052A0007743C01B00D20139C01B00D201399FB225
:1052B0007743C91BC91B170C77437E04FF0B801B68
:1052C000B941CE086643360C0C2D33DBB644120BC5
:1052D0001F053A431B0B97B27743C01B00D201391D
:1052E0009FB27743C91B170C77433E043F0C801BCA
:1052F000B941860D8F023E43664329277F1BFE403E
:105300000C3D7746AF40BF1930BCA2B2ABB272437E
:105310007343801A9941220C7243130C1204801AB1
:10532000994102000B000137001BA941F9D2781EF8
:105330000021F0BD0C277F1BFE4077467F0BAF405E
:10534000FF19E0E700245D1C07D0144F7D66396625
:10535000FFE7FFE7FFE7FFE73C6F95B29EB26543CB
:105360006643401BB141150C1E0C65436643360471
:105370002F0C3E432D04401BB141994204D2020040
:105380000B0020000021F0BD01D19042F7D3801A1C
:10539000994101349942F2D3F6E70000000000D0B1
:1053A000FFFFFFFF10B5FFF7E3FD029C0CC410BD2B
:1053B00010B5FFF7F9FD029C0CC410BD48404140F8
:1053C000484018B41B4B5B68FC46019308BD04DFE2
:1053D0001756001018B4174B1B68FC46019308BD04
:1053E00000DF215600109446134A926F920809D2AA
:1053F000624618B40F4BDB68FC46019308BD0CDF16
:10540000D95800100C4AF0B5146E556E576F166FD0
:105410006246FFF7EEFF084A14665566576716673F
:10542000F0BD18B4034B9B68FC46019308BD08DF30
:105430007D570010C4130020000000D0FFB550407D
:105440004240504059404B40594000E0FFB5154F95
:105450004C00640D03D0BC4204D10C0314D80020CE
:10546000090D09055C00640D03D0BC4204D11C0386
:105470000AD800221B0D1B0501264B4009D44B40C6
:1054800003D58B4200D18242FFBD9942FCD19042AC
:10549000FFBD0B43DB1803431343F5D0C943491841
:1054A000FFBD0000FF07000000B5FFF7CFFF804100
:1054B00000BDC04600B5FFF7C1FF01D9002000BD07
:1054C000012000BD00B5FFF7B9FF804100BD0120FC
:1054D00040054A00121804D85A00121801D80020BA
:1054E000704701207047002070470000002100280D
:1054F00005D17047C1174840401AFAD0C90713B503
:10550000064B1B6898470CBC441CA2401005120BAC
:105510000349091B09051943114310BD88130020D5
:105520001F04000010B54C00620D8023D218DB0070
:10553000D21A5B057E2A10DD9E3A13DACC170903D6
:10554000490819435242D140640001341532202ADF
:1055500005DAD0400843604310BD002010BD084666
:10556000604310BDC80FC018013810BD18B4044BFB
:105570005B6AFC46019308BD24DF895A00100000D5
:10558000C4130020132370B51C78012C15D010DD36
:105590000F48FFF775FC0F4D01008022280000F036
:1055A00043FB022C06D00C48FFF762FC0B4B186043
:1055B00070BD084D0A4AAA64F5E7064D084A29005D
:1055C0002B00803104C38B42FCD1AA64EBE7C046B8
:1055D00053440000C41300204C3300008813002003
:1055E000E555001007B5604601880A0A0230DF2A37
:1055F000FAD1C9B2820804D302884088000410435B
:1056000000E00068014A5050039007BDC413002019
:105610000FB403BC0CBCF0B50124E407634000E008
:10562000F0B50C0DCF0F661E3605891B640503D33C
:10563000C943404200D30131640D03D0661CF60A11
:1056400007D0E41B00207F00791C89078912803C69
:1056500024031D0DDF0F6E1E36059B1B6D0503D346
:10566000DB43524200D301336D0D03D06E1CF60AAA
:1056700007D0ED1B00227F007B1C9B079B12803D07
:105680002D032F1B661B58D4A446202E46DA203744
:105690001400BC401D00BD40F24033412A43801835
:1056A0005941CB0F05D0C943C04300226442504149
:1056B000514162464D0D28D10D0D07D100281FD054
:1056C000241940414941013A0D0DF9D0640006D337
:1056D000013000D30131002C01D140084000013AD3
:1056E0000BD4941CE40A04D112051144DB071944BD
:1056F000F0BDD907204B194300E0D9070020F0BDC9
:105700000029DDD1002CDBD1F0BD0132C6074008F5
:10571000CD0728434908002EE1D0D9E73C2E29DAED
:10572000203E40371400BC4000D00124F240144316
:105730001A00BB401C43D317ACE7AC46202F08DA55
:1057400020360400B4400D00B540F84039412843EC
:10575000A5E73C2F0CDA203F40360400B44000D0CF
:105760000124F84004430800B1400C43C117EAE7A4
:1057700010001900002494E70000F07FF0B50C0D34
:10578000661E3605891BE60A6405640D02D0651C99
:10579000ED0A04D0002001210905803C2403A44621
:1057A0001C0D671E3F05DB1BE70A6405640D02D074
:1057B000651CED0A04D0002201231B05803C240354
:1057C0007740644497B484B296B27443070C7E4326
:1057D000150C6F4380B26843361802D301200004D1
:1057E0003F183004350C00197D41844688B29AB2C6
:1057F00050430C0C62431F0C7C438EB27E439219C3
:1058000002D301263604A4191604170C3618674172
:1058100001BC81B29AB25143040C62431B0C5C433D
:1058200080B25843121802D3012000042418100437
:10583000130C401863412D185E410020474106BCFF
:1058400088B293B258430C0C6343120C544389B290
:1058500051435B1802D301210904641819041A0C7E
:10586000091862416D1856410020474118BCF902E1
:10587000720D1143F0026A0D1043ED020A0D03D1BF
:105880006D1940414941013B124E9B1B7600B342CA
:105890000ED26D0007D301300026714166463543B4
:1058A00001D1400840001B05C918E4072144F0BDA0
:1058B0000BDA013306D1013004D101314F0D01D093
:1058C0004908F2E7E1070020F0BD0136310500206C
:1058D000EBE70000FF030000F0B51C0D671E3F055D
:1058E000DB1BE70A6405640D02D0661CF60A04D0CF
:1058F000002201231B05803C2403D0252D06002611
:10590000F6432E661E096E66CE0FF619B4464900A0
:105910004F0D02D07E1CF60A03D000200021403F2C
:105920003F033E1BB600B444013F7F05C91B490835
:105930002E6F013676089C02950D25437543ED13B5
:105940007543AD1301356D10F603761B0CB4CC0214
:10595000450D2C43A2B2B3B25A43270C7B43350CFE
:105960006F43A4B26C431B1902D3012424043F19D2
:105970001C041D0CA4187D4124196D41009A91B29C
:10598000ACB26143170C7C432B0C5F4392B25A4379
:10599000A41802D301221204BF182204230C5218A7
:1059A0007B41019C6C431B19520ED9010A434401EF
:1059B000A01A81B2B2B2514303145A43360C734356
:1059C00087B27743D617D21900277E4136049B1938
:1059D0001704160C7F185E417316ED18F3010026AC
:1059E00080337541A90F06D16400690AE8055B0A96
:1059F000184309D22FE00422944480337541A90A48
:105A0000A8059B0A184326D3404149412404009A23
:105A1000019B0D005543641B4343E41A95B286B2C3
:105A20007543170C7E43030C5F4392B25A43B6187A
:105A300002D301221204BF183204330C52197B41E5
:105A400052429C41002C02D40022013051414008B6
:105A5000CA071043490802B06246D7079210084BA4
:105A6000D218084B9A4203D212058918C919F0BD01
:105A70000020002A01DC3900F0BD01331905F5E7EB
:105A8000FD030000FE070000002200B5203200F0F8
:105A900004F8080000BD000000220B150AD410B560
:105AA000944600F031F81414013400DA0021CB17C9
:105AB000144C20470020002170476244343A0CD433
:105AC0000C2A07DA04009140904052422032D44020
:105AD000214310BDD843D94310BD203207D40C4612
