:020000041000EA
:1000000000B5324B212058609868022188439860DF
:10001000D860186158612E4B002199600221596106
:100020000121F02299502B49196001219960352056
:1000300000F044F80222904214D00621196600F024
:1000400034F8196E01211966002018661A6600F04E
:100050002CF8196E196E196E052000F02FF8012189
:100060000842F9D1002199601B49196000215960AB
:100070001A491B48016001219960EB211966A021F2
:10008000196600F012F800219960164914480160C1
:100090000121996001BC002800D000471248134993
:1000A000086003C880F30888084703B5996A0420EC
:1000B0000142FBD001200142F8D103BD02B5186610
:1000C0001866FFF7F2FF186E186E02BD00000240BE
:1000D000000000180000070000035F00212200005C
:1000E000F4000018222000A00001001008ED00E03C
:1000F00000000000000000000000000074B24E7A12
:1001000000200420F7010010C3010010C5010010F9
:10011000C1010010C1010010C1010010C101001097
:10012000C1010010C1010010C1010010C701001081
:10013000C1010010C1010010C9010010CB01001065
:10014000CD010010CD010010CD010010CD01001037
:10015000CD010010CD010010CD010010CD01001027
:10016000CD010010CD010010CD010010CD01001017
:10017000CD010010CD010010CD010010CD01001007
:10018000CD010010CD010010CD010010CD010010F7
:10019000CD010010CD010010CD010010CD010010E7
:1001A000CD010010CD010010CD010010CD010010D7
:1001B000CD010010CD010010CD010010CD010010C7
:1001C00000BE00BE00BE00BE00BE00BE00F04BF888
:1001D000103800BEF2EB8871D0710010F47100107D
:1001E0003402001090A31AE700202149086006C8D5
:1001F00081F3088810471F48006800282FD10DA4FC
:100200000ECC002902D000F012F8F9E71A491B4A77
:10021000002000E001C19142FCD1194988471949E9
:1002200088471949884700BEFDE701C901C29A42C3
:10023000FBD37047F4710010C0000020940A002026
:10024000C87B00100000042000000420C87B0010C0
:1002500000100420001004200000000070470B482C
:1002600003F03CFD0047EFF30580C0B2704700008B
:1002700008ED00E0000000D0980A0020180F0020D0
:10028000351F0010690B00105D200010575600004C
:1002900006005250ABB360533C7100100600525040
:1002A000861C03024C710010060052505422A29D7D
:1002B0007871001005005250DE65F468C87B0010AC
:1002C000F8B5C046054B0648033310B51B1A062B7C
:1002D00003D9044B002B00D0984710BD940A00208E
:1002E000940A0020000000000648074910B5091ACA
:1002F0008910CB0F5918491003D0044B002B00D0A4
:10030000984710BD940A0020940A002000000000C5
:1003100010B5074C2378002B09D1FFF7D3FF054B0D
:10032000002B02D0044800E000BF0123237010BD61
:10033000A80B002000000000406E0010094B10B513
:10034000002B03D00849094800E000BF08480368B3
:10035000002B02D1FFF7C8FF10BD064B002BF9D0D0
:100360009847F7E700000000AC0B0020406E00103B
:10037000940A002000000000A0210220F0B557469A
:100380004E46DE4645464D4AC9058B58E0B5034307
:100390008B504B4A87B093684A48013393604A4B6D
:1003A0009B461B6819000393484B8C465C681B688E
:1003B0001E002F236344270098462F225242D31752
:1003C00043496044049605978146B6185F418A46C2
:1003D000009201931CE07B1C37D00D225242D317B0
:1003E00004F07CFF32003B00121A8B411000190010
:1003F00000196941B04225D00123524613702F23C2
:100400009C46009B019CE044F6186741C84522D0F9
:10041000012000217B1C12D37B1C0DD00D225242E7
:10042000D31704F05BFF04000D00012000217B1CAA
:10043000D1D200200021D0E733000D33EED20020CE
:100440000021EBE7B942D7D1D9E733000D33C4D24D
:1004500000200021C1E71F4A039B94460498059998
:100460005A466344136001231B4A5B42801859417A
:100470000B00020015490A604B60184B1B78002BDB
:1004800010D0A0220221164BD205D1508021490460
:10049000D36C0B42FCD107B03CBC90469946A246B7
:1004A000AB46F0BD0F4A104B04321A605A608622E8
:1004B00092009A600D4ADA60EDE7C0461C04000025
:1004C000F40C00200D180000BC0C0020980B00203C
:1004D000000D0020DE17000022E8FFFFE00C0020E6
:1004E00044040000AC0C00204000005019881D009E
:1004F000F8B557464E46DE4645464C4AE0B51368C9
:100500000126013313604A4B4A4F9B461B689A46AB
:100510001C00494B17349846994657440721200040
:1005200003F00EFC20000D00072103F009FCC300BE
:10053000181A4019844201D043461E70072120003A
:10054000494203F0FDFBC300C01A4519AC4201D07B
:100550004B461E701734BC42E0D1384B9C46E244F7
:100560005B46524650461A6004F0F2FE3449041CC1
:1005700004F094FF8046201C04F012FF06000F00D8
:10058000201C2F4904F0CDFE04F00AFF00222D4B61
:1005900003F03DFE040040460D0004F001FF0200A0
:1005A0000B002000290003F017FE02000B003000B2
:1005B000390003F008FE244A244B03F077FE00289C
:1005C00002D001221C4B1A70504603F087FE002215
:1005D0001C4B04000D0003F05BFF06000F0000221F
:1005E000184B2000290003F000FE0022154B03F0F9
:1005F0000EFE32003B0003F0EFFD02000B00200076
:10060000290003F0E0FD104A104B03F04FFE0028D4
:1006100002D00122084B1A700D4B18780123584064
:100620003CBC90469946A246AB46F8BDF40C00206F
:10063000B40C002013090000000D0020FC0800008D
:10064000000030410000264095D626E80B2E113ED2
:10065000E00C0020F0B54F464646D646A0210120CA
:10066000254AC0B55368C90501335360234A0127A1
:100670008B58234E03438B50224B9A461B68994656
:100680001D00214B1F3598464E440B21280003F0D6
:1006900077FB84002418640024180B21280003F041
:1006A0006FFB6418AC4201D043461F701F35B54242
:1006B000EBD19B2352461B014B441360134B1B7819
:1006C000002B0ED0A0220121114BD205D150802148
:1006D0004904D3680B42FCD11CBC90469946A24603
:1006E000F0BDA0230B4ADB051A605A600A4A9A60E3
:1006F0000A4ADA60F0E7C046F40C00200C0400005F
:10070000CF090000B80C0020000D0020E00C0020F4
:1007100044040000AC0C00200102000019801D0000
:10072000F0B5DE4657464E464546E0B595B000F07A
:1007300003FE0EAB029300230193D04BD04A0093EB
:10074000002300F0FDFDCF490B2000F08FFACE49C9
:100750000C2000F08BFA0122CC4BA0241A60CC4B69
:1007600001321A608423CB4AE405DB00E250012108
:100770000B2000F061FA01210C2000F05DFAC64B5D
:10078000C64A23606360A260C54A0433E260C54A7A
:100790001360536086239B009360C34BD36000F0CB
:1007A00075FF0023C14A12184B41994200D959E103
:1007B00000D154E10C930D92BD4B5C681B6808930B
:1007C0000994BC4B1B680A93BB4B1B689846BB4BF8
:1007D0001B689946BA4B1B689B46BA4B5C681B6802
:1007E00006930794B84B5C681B6804930594B74B59
:1007F00000241868596800239A460B93B44B0C9D4B
:100800005A6AAA4234D39B6A0D9DAB4202D20C9B1A
:100810009A422DD0002C00D06EE10122AD4B0EA8E3
:100820001A7000F093FEAC4C0B9D22686368A168BF
:10083000AA480091290005F093F9002D00D17AE132
:100840002368002B00D176E16368002B00D172E1B0
:10085000A368002B00D16EE1A14B1B78002B00D0C8
:1008600005E115B03CBC90469946A246AB46F0BDAA
:100870002F267642F717089B099CF6186741994B7B
:10088000534404930A9B98460B235B42994639E0F4
:100890007B1C00D19EE00123934A5B4204F01EFDC5
:1008A00032003B00121A8B41A4185D41B44200D1C2
:1008B00089E001228A4B1A700120424600234042FF
:1008C000132103F085FA4246002304F007FD0400DB
:1008D00001200D00424600234042132103F078FA24
:1008E000A4185D41631C72D001227D4B1A702F2227
:1008F0005242D317B6185F4101239C46049BE04443
:100900009A456ED01F239C46E2440B21504603F0CB
:1009100037FA84002418640024180B21504603F091
:100920002FFA6418A24502D001236D4A13700B21DF
:100930005046494203F004FA83460B21504603F027
:10094000FFF94B465A465343C9188A4502D0012342
:10095000634A137053465C420B21200003F0F0F908
:1009600050460D000B2103F0EBF94B46584340195C
:10097000844202D001235A4A13705B4699005944BD
:100980004900594449198C4202D00123544A13703A
:10099000012000217B1C13D37B1C0ED00123524A63
:1009A0005B4204F09BFC04000D00012000217B1C35
:1009B00000D36DE7002000216DE74B4B9E42EDD246
:1009C00000200021EAE7BD4200D072E774E7132D52
:1009D0008AD18CE7444B9E4200D35CE70020002183
:1009E00059E7FA26414FB600300004F0ABFC041C76
:1009F00004F004FD8046201C04F0DCFC8146201C31
:100A000004F0EAFC8346B0008019800003F062FC29
:100A100004000D0003F0ECFC069007912000290073
:100A200003F0BAFC049005912000290003F0CAFCF1
:100A3000FA239B009C466644BE42D5D1089C099D82
:100A40000B9B2B4A01330B930A9B64330A930123BC
:100A50005B42A4185D41089409950124CEE69042BA
:100A600000D8A7E601235B420D930C93A4E621482E
:100A700004F0EAFE012001F0F1FAC046F104001092
:100A8000A103000055060010790300100424005053
:100A90001424005020000100AC0C002001020000D2
:100AA00019801D004000005019881D008096980094
:100AB000A00B00207C010020D80C0020DC0C0020C2
:100AC000E40C0020D00C0020E80C0020080D0020D1
:100AD00000400540E00C0020F40C00205C6E00108B
:100AE000000D00201C0C0000BDCAFFFF70170000A5
:100AF000A4EDFFFF546E00104246124B1A604A46A6
:100B0000114B1A605A46114B1A60114A069B079CFA
:100B100013605460049B059C0E4A136054600E4B96
:100B20000E4A18605960089B099C136054600C4B76
:100B30000A9A1A6071E60B4804F086FE012001F063
:100B40008DFAC046D80C0020DC0C0020E40C0020FC
:100B5000D00C0020E80C0020080D0020A00B002085
:100B60007C010020486E001010B505F005F8FFF775
:100B7000D7FD024804F068FE002010BD406E001052
:100B8000094A830094464022634410B51C68C000A3
:100B90006240C02414408022520113431C60034B66
:100BA0009C466044416010BD04C0014000400140CB
:100BB000F8B5EFF3108772B60D4E3368002BFCD0FA
:100BC000BFF35F8F0725CB08C01801230D40AB4052
:100BD0001D000478254007D123430370BFF35F8FC6
:100BE000356087F31088F8BD100001F039FAC0466F
:100BF0002C0100D0024B18688007C00F7047C04618
:100C000000C006400021044B044ABFF35F8F02C3BB
:100C10009342FAD17047C046000100D0800100D055
:100C2000044A1078431CDBB2172B00D91023137031
:100C30007047C0468001002001238340002902D173
:100C4000034A13607047034A1360034A1360F9E7CD
:100C500080E100E080E200E000E100E0024B1030C3
:100C60009B688000C058704700ED00E070B50D0033
:100C7000EFF3108672B60F4A1368002BFCD0BFF357
:100C80005F8F0D4B10309B6884001B590B4A9342B9
:100C900003D09D4201D001F0FBF9074B9B681D5129
:100CA000BFF35F8FBFF35F8F0022024B1A6086F3A2
:100CB000108870BD240100D000ED00E0CD010010CF
:100CC000F0B5DE4657464E464546E0B50C0083B0CB
:100CD000EFF3108B72B65B4A1368002BFCD0BFF3A6
:100CE0005F8F1022904680444246574B97009B6886
:100CF000DD59564B99469D4206D0A54200D177E07A
:100D0000534EAB1B2F2B12D94F4B9B68DD51BFF3BA
:100D10005F8FBFF35F8F00224A4B1A608BF31088FE
:100D200003B03CBC90469946A246AB46F0BD0123B9
:100D300083409A465246474B1B681A4000925246DF
:100D4000454B1A60BFF35F8FFFF78DFA01900028C3
:100D500043D101232A009A4393689C424DD0062137
:100D60005156002905DA31E0062159561A000029AA
:100D70002CDB4B005B189B00F31899688C42F3D175
:100D80000621595600293BDB4A00501880003418D0
:100D90008046A0689860E079D87106202056987146
:100DA000A0797F2826D8A488F01A64052415444425
:100DB0000019E0240005400D2402204398805218B9
:100DC000264B9200B6181A781970B271009B002B4E
:100DD00008D15246204B1A6096E78045B9D001F001
:100DE00057F9B6E752461E4B1A601A4B1A608BE74A
:100DF0001D0089E7BD200002E0E713000022BFE7E5
:100E0000019900290FD1002A1AD0FF31917115499B
:100E1000918012490A789A71134A9B1B5B415A438D
:100E2000120D0A70D2E7114A1149D21A083A50023B
:100E3000400D014399800F4952080A43DA80C5E703
:100E40004D46E6E7240100D000ED00E0CD010010A2
:100E50008401002000E100E080E100E0C10C0020FE
:100E600080E200E000BDFFFFAAAA0000BE01002052
:100E700000F0FFFF00F8FFFFF8B50125040005436F
:100E8000FFF7F1F9EFF3108672B6214A1368002BD1
:100E9000FCD0BFF35F8F1F4A1F4B2100891A4941C5
:100EA0004B431B0D1D4980008F685BB23F58BD420C
:100EB00026D006215156994226D0122151569942E8
:100EC00024D01E215156994210D02A215156032078
:100ED00099420CD0124A11781370A171BFF35F8F41
:100EE00000220B4B1A6086F31088F8BD02204100E7
:100EF000091889005218FF2191710A499180E9E788
:100F00008A6809491150E5E70020F0E70120EEE783
:100F1000240100D084010020AAAA000000ED00E016
:100F2000C10C002000BDFFFFCD010010084B094A95
:100F30001360094A1360094A1360094A1360094A99
:100F40001360094A1360094A1360094A1360704725
:100F50008080808000E400E004E400E008E400E039
:100F60000CE400E010E400E014E400E018E400E029
:100F70001CE400E0024B9C4661448900016070471C
:100F80004000003483680B4810B5844661446244D5
:100F9000090112019A18591854684B6801209C42A3
:100FA00001D802D00020C0B210BD12680B689A426E
:100FB000F9D8F7E7FFFFFF0F10B508000B690C0029
:100FC0009847002803D1E0600021002010BD206870
:100FD0006168FBE7F8B54E464546DE465746E0B544
:100FE0001F000CAB1D780DAB1B7881469B46036838
:100FF00016009846002D08D1987B002841D13CBCB2
:1010000090469946A246AB46F8BD28006C0064198C
:10101000033C384B00229C464B469B6860449C46F0
:1010200000010A9B604483600B9B06604760C360BD
:1010300043461B681B199A705A701A7043465B7BB3
:101040009A46002B3BD043462A00986851465B687D
:10105000984743461A68002824D053465B005344FF
:10106000033BD31814195246A2701A78002A00D0F4
:1010700062701D705246434628005A73AA45BED17D
:101080001FE0414644001B682418033C1B195A7892
:101090008A73002A00D1CA73002205009A705A7020
:1010A0001A70B6E753465B005344033BD318141938
:1010B0009D702278002A00D05A7053462370434610
:1010C0005D734B463200187D3B0000F05BFB041E55
:1010D00007D05B46002B04D14B462900186800F06E
:1010E0006FFD0E9B002B02D01C70280087E72800A4
:1010F00085E7C046FFFFFF0F744B8200F0B5D45860
:101100000023DE4657464E4645469B46E0B58DB029
:101110000B9000F0BBFA6268EFF3108572B61368AB
:10112000002BFCD0BFF35F8F23689C465B7B994606
:10113000002B00D181E0A268654B90464B441B0117
:10114000984443461E685F6832003B00121A8B4188
:10115000002B00DC84E03B0032000B9800F012FB17
:101160000023002208920993002300279A4663680F
:10117000BFF35F8F5A461A6085F310885346002BE1
:1011800064D00A9B390018024B461843D047626866
:1011900006900791EFF3108872B6564645461368DD
:1011A000002BFCD0B246A846BFF35F8F0699079A82
:1011B000002A25DA2369002B28D0089D099E6D1A84
:1011C00096412A003300089D099E9E4200D971E095
:1011D00000D173E0594604910121039149460291DF
:1011E0005146019700912000FFF7F4FE5B46236112
:1011F0006368BFF35F8F5A461A6088F3108888E7E8
:101200001300194302D02369002B46D12368DA7BEF
:10121000002A07D051008A1819688C464946624452
:10122000033A51704A46DA73E2684B469446013BF2
:1012300063441A7801321A70D8E70023002208921A
:101240000993002300279A46002090E7002800D049
:101250005FE70DB03CBC90469946A246AB46F0BD58
:10126000002B02D1002A00D075E70021604600F073
:10127000FBFB43461A685B680892099343469B68E8
:101280009A464346DF68E3684B44013B1B780A9368
:101290001B0218432061002069E700F0F7F9069A65
:1012A000079B12184B41994204D800D092E7904214
:1012B00000D88FE701225242D3178BE7954200D81E
:1012C00088E701225242D31784E7C046800C0020F1
:1012D000FFFFFF0F10B5124C6368002B04D00A21EA
:1012E0001048FFF747FE10BD23000F4A1021206869
:1012F00000F09CFB032000F0BDF9032000F0B0FAE1
:101300000A49032000F0F8F9FFF78AFC084B9C46D5
:10131000032360442375074B80006060DC60DEE7D8
:10132000CC010020940C0020850F0010F910001053
:1013300040000034800C002000487047CC010020A1
:10134000F0B54546DE4657464E46E0B585B01099A5
:10135000050088461100194300D1E2E0D8170400C7
:101360005440260004005C4001002700361A8F41DB
:1013700041460E980A600F9A8D6008614B604A6181
:1013800000F084F936184F4100960197B94200D811
:10139000CEE001235B42DC170093019400239B46BF
:1013A00099466A68EFF3108A72B61368002BFCD076
:1013B000BFF35F8F2E68B47B002C62D067003F19AB
:1013C0003368033FDB195A78B273002A00D1F273F5
:1013D0004A469A705A701A70AA685A4B94460099F5
:1013E000019AE3181B01634419605A60564A9A60D7
:1013F0004246DA604A463368DB199A705A701A70AE
:10140000737B0393002B00D17DE0190073682200E9
:10141000B0689C46E0473268002865D00398D71929
:10142000844643006344033BD318B8701A78002AFB
:1014300000D07BE01C7070735E46844264D0EB6821
:101440006A681B19013B1B78BFF35F8F4946116027
:101450008AF31088002E0CD101261B021C43434640
:101460003000DC6005B03CBC90469946A246AB46D5
:10147000F0BD4046036998478346031E0BD1002404
:10148000EDE76B68BFF35F8F1C608AF3108801245F
:1014900000266442E3E742461668576832003A4342
:1014A0004DD0002F0DDA0098019902000B00921B1D
:1014B000BB41994212D801D190420FD800920193BA
:1014C0006FE700F0E3F836184F4100960197B942F4
:1014D00004D800D065E7B04200D862E701235B4240
:1014E000DC17009301945CE70399D7198C464B00F5
:1014F0006344033BD3189C703A78002A00D05A709A
:101500006B461B7B3B707473287D009A019B00F037
:1015100039F9061E00D192E72100286800F050FB3F
:101520008DE7012600270122002321E77A7081E759
:10153000B94200D032E7B04200D92AE72EE71E00B8
:1015400000248CE7FFFFFF0FB90F0010F0B5C6466F
:10155000C368040000B50020002B02D104BC9046F3
:10156000F0BDA5686968EFF3108672B60A68002AB4
:10157000FCD0BFF35F8F2868D9B2427B8A421AD071
:10158000FF221A405700B84607689044BC464746B9
:101590006744033FBF78002F0FD12A69934200D1DF
:1015A0002F6100206A68BFF35F8F0023136086F30A
:1015B0001088E360D2E7FF221A40EF681B0ABC469E
:1015C0006244013A1278DBB29A42EAD100F0F8FAAA
:1015D000E8E7C046F8B5CE46474680B5EFF3058349
:1015E0003F22134018001038EFF3108C72B61B49DD
:1015F0000A68002AFCD0BFF35F8F01210F008740EB
:10160000174D184A6F63147891462200C2409046E5
:101610004646002231420BD0696A134D884681004C
:101620004D59A84512D3114BBC43CA584B461C70A8
:10163000BFF35F8F0021094B19608CF31088002ADB
:1016400000D090470CBC90469946F8BD08499B00D5
:101650008846434419681960EAE7C046280100D06B
:1016600000400540C20C0020980C0020F80B002020
:10167000D03F054010B50100024A0348FFF798FA31
:1016800010BDC046786E0010C00C0020044A516A9C
:1016900000E01900906A536A9942FAD17047C04637
:1016A00000400540134A30B5546A00E01C00956ABA
:1016B000536AA342FAD12A002300801859418C4270
:1016C00011D80ED00C000B4A536AA342FCD307D1A9
:1016D000084A02E0516A994202D1916A8142F9D3E3
:1016E00030BD8542EED9012401204042C117644239
:1016F000E9E7C0460040054070B504000D00EFF377
:10170000108672B61A4A1368002BFCD0BFF35F8FA5
:10171000002D1BD02000FFF7A1FA164988420AD0FD
:101720002000FFF7A3FA01212000FFF785FA01232B
:10173000A340114A1360114BA400E550BFF35F8F23
:1017400000220B4B1A6086F3108870BD0B4BA20071
:10175000D5500122A2400A4920000B7893430B7018
:101760000449FFF7ADFA00212000FFF765FAE5E72D
:10177000280100D0D515001038600540F80B002076
:10178000C20C0020F0B5D6464F4646462F4CC0B599
:10179000656A00E00D00A66A616AA942FAD1AB420F
:1017A00049D9EFF3108972B6294C21680029FCD081
:1017B000BFF35F8F0126274986408C460978264D66
:1017C0000F0037438846F9B28A46614654460C708A
:1017D0001E49041DA4004E636250840063510D6ACB
:1017E000002435421AD04D6A00E025008F6A4C6A09
:1017F000AC42FAD1AB4224D801D1BA4221D8D0456B
:1018000021D0124B154A1E625E631F2318401E3BF7
:10181000834013606346424601241A70BFF35F8F12
:1018200000220B4B1A6089F3108820001CBC9046E4
:101830009946A246F0BDAB4201D1B242B1D80124D3
:10184000F3E70024EAE70124E8E7C046004005404A
:10185000280100D0C20C0020980C002080E200E09B
:1018600010B5EFF3108472B60A490B68002BFCD058
:10187000BFF35F8F01238340074A08481362027851
:101880009A430270BFF35F8F00230B6084F31088CC
:1018900010BDC046280100D000400540C20C002009
:1018A000F8B54E464546DE465746E0B54C0064184E
:1018B0000368033C1A190D00517806008946002977
:1018C00006D128003CBC90469946A246AB46F8BDDE
:1018D0004F004F44033FD81941788846002141709A
:1018E0005170002D12D073684A462900B06898479D
:1018F0003368002873D0DF191A19BD7011780029D8
:1019000000D0797049462700117000E04D464246EC
:10191000002AD6D054004444033C1A195178894611
:10192000002911D1736842462900B068984733688E
:10193000002849D01C19DF19A5703B78002B00D076
:10194000637043463B70BCE74900494403398A460B
:10195000534459788B4600215970517073684A4638
:101960004146B06898473368002843D152461C1955
:101970009A184B46A3701378002B00D0637043462F
:101980005446C84613705B46002BCBD059463000F6
:10199000FFF786FF81460028C4D002004146B068A8
:1019A00073689847326800282FD04B465B004B4441
:1019B000033B1119D31842469A700A78002A00D0C6
:1019C0005A704B460B70ADE71C19DF194346BB70CC
:1019D0002378002B00D07B702570454671E749467F
:1019E0001C19DA19A1701178002900D061701570E6
:1019F0004D468CE741461A195344997011780029D5
:101A000000D059704B461370BDE74B465B004B440A
:101A1000033BD11814194A46A2700A78002A00D054
:101A2000627042461C000A70C8467BE710B58360AE
:101A30000023CCB243730133047342608373C473D5
:101A40000068012C07D90123421C0133DBB213705B
:101A500003329C42F9D8FF2319404B005918002348
:101A600040180338437010BDF0B54E465746454602
:101A7000DE46E0B5477B03687C00E419033C1A1995
:101A8000167883B005008946002E1ED1002911D09A
:101A9000C07B002869D041000918591803394F70DC
:101AA000EF73002E06D07100891903398846002192
:101AB000434499700023380053706E7303B03CBCEC
:101AC00090469946A246AB46F0BD7100891903398C
:101AD0008846591848788246002807D14946002987
:101AE000E5D0E87B0028D6D1EF73DCE74200524412
:101AF000033A9446019263445A78934600225A70FE
:101B00004A706B6852463100A86898472B680028D5
:101B100032D0414601985A1819188E701078002852
:101B200025D1514611705A46002A23D05946280023
:101B3000FFF7B6FE824600281BD002006B6831001A
:101B4000A86898472B68002825D042469918524625
:101B500052005244033A9A1896700878002800D030
:101B6000507052460A701A19B8E7EF73A2E748702E
:101B7000D7E72B681A19B1E741465046019A591820
:101B80009A1888701078002800D048701670019A52
:101B900056469046C7E752465100514403395A18F9
:101BA000404693465246181882705A461278002AC8
:101BB00000D042705A46884616701A1956468DE76C
:101BC000F0B54546DE4657464E46E0B50C0083B0BC
:101BD0000500002200293DD0477B0168BC426BD044
:101BE00066003619033E88198378002B32D05A00DC
:101BF000D318033BCB181A78944202D143E0002A51
:101C000008D053009B18033BCB185A789442F6D166
:101C100042785A7000238370437003789846002BF3
:101C200025D1EA7B002A1DD053009B18CB18033B1B
:101C30005C704346EC73002B00D171E05C00002324
:101C40004444033C09198B704370002F1ED1434656
:101C500001226B73100003B03CBC90469946A2462B
:101C6000AB46F0BDB846EC7300234370EFE71900B4
:101C70002800FFF715FE2968EA7B80466F7B8819EC
:101C8000002AD6D0D0E742781A70C3E7424639001E
:101C9000A8686B6898472A68002824D07B00DB1965
:101CA0001419033BD318A7701A78002A00D0627069
:101CB0004246B8461A70CAE77E00F619033E8B19F1
:101CC0001878804600281BD1E87B002804D0420009
:101CD00012188A18033A5470EC7300225A70434663
:101CE00001326B73B6E77B00DB19033B1419D31881
:101CF00042469A702278002A00D05A702770A6E7D0
:101D000044004444E01E019008184478A246002C88
:101D100008D1EC7B002C76D1EF7300228270DCE7D7
:101D2000B846A1E763005344033B994649444B78C6
:101D30004A7042709B4622006B684146A8689847EB
:101D40002B6800284BD049464046019C59181A1967
:101D500088701078002850D15146A14611705A461B
:101D6000002A20D059462800FFF79AFD041E19D0FA
:101D700002004146A8686B68984700281ED04A4672
:101D800041462B68981862001219033A9A1891700C
:101D90000178002900D051700470E97B002905D139
:101DA0009B19B9E72B684A469818F6E74A0052187B
:101DB0009A18033A57709B19EF73AEE74B462968A0
:101DC000600000190338CB1808189C700278002AAC
:101DD00000D05A704346A04603708B1999E74A46D3
:101DE0009818019A9C185246A2700278002A00D0D6
:101DF00062704246D0460270B1E748705146117099
:101E0000019A9146ABE7032262438A18033A57705E
:101E100082E7C04610B50400FEF702FF0100200073
:101E2000FFF7A8F8FF232371BFF35F8F10BDC046F3
:101E300010B50400FEF7F4FE01002000FFF79AF849
:101E4000FF23237100236371BFF35F8F10BDC04672
:101E5000F8B5040006200D0000F084FA030000200D
:101E6000002B49D0294B80229C424DD0D203284BD5
:101E700028491A60284B1A6010008B689843FBD1E0
:101E8000264B8021E3185A425341254A5B00490002
:101E90000620995200F066FA2900C00001F070FF98
:101EA000C3092AD01F4A93422AD87F22104001300A
:101EB00040089F011A0003003F1826008025626237
:101EC000A36200232C36AD0135432B60062000F0C1
:101ED00049FA3900800001F053FF6023E26A534061
:101EE0006E221A4080235B0133431A600E4B23633A
:101EF00010232B600D3BA364F8BD40270122DCE7D3
:101F00000A4F00230A4AD8E71204B0E700800340D2
:101F100000E0004000C0004000F000400080FCBF36
:101F2000100D0020FEFF000001030000C0FF3F0075
:101F3000FFFF00002D4A2E4B70B51A602D4A2E4B24
:101F40002E491A6010008B689843FBD12C4E2D4B04
:101F50009E420AD2F5430024ED18AD080135A300D6
:101F6000F35801349847AC42F9D100F097F8264A6B
:101F7000214B1A60214A9368DB018033FBD1402258
:101F8000224B234C234D9A675A671A67DA66AC4294
:101F900008D223682000002B22D00834FFF748FF26
:101FA000AC42F6D31C4D1D4CC022A168280003F0A2
:101FB000B5FBA560FEF726FEFEF7B8FFFFF78AF92E
:101FC000174E184B9E420AD2F5430024ED18AD0877
:101FD0000135A300F35801349847A542F9D170BDEB
:101FE0000834FFF717FFAC42D3D3DBE7BFCDFBFECE
:101FF00000E00040FE7F3C0000F0004000C00040D8
:10200000800A0020900A0020FFFFFF0100F001403D
:10201000780A0020800A00200000002000ED00E087
:10202000900A0020940A0020094A1368002B06D069
:1020300008491818884208D8106018007047064BE5
:102040000449181813608842F6D901204042F5E788
:10205000780C002000000420180F002000BEFDE7CF
:102060000FB400B5084883B003F0EEFB049B002BCF
:1020700007D005A91800019101F010FE034803F0F4
:10208000E3FB00BEFDE7C046A86E0010686E0010BE
:1020900010B50148FFF7E4FF9C6E001030B50C202E
:1020A00083B000F0B3F9FEF7A5FD00280ED0964BE3
:1020B000964A1A605A609A60DA601A615A619A61A7
:1020C000DA611A62924A5A6203B030BD914CA0673D
:1020D00000F0A4F90122904B1A60636C012BFCD133
:1020E00003228E4B1A608B4A936B012BFCD1013378
:1020F00000938B4A043301218A4800F039F9052303
:10210000894A00930121894800F032F9884B5A68C6
:10211000FF2A02D8802252005A6080227A4C7F4BDC
:1021200021691201824D1A60002900D0E5E0E0210A
:102130007F4B02201A681140802252012A4311600D
:102140001968484003210140116004219A68114236
:10215000FCD08022802192012A4309011160802253
:1021600052005A60734B2361734B5968FF2900D8A2
:10217000C1E00322684B70481A60012103009A688D
:102180001142FCD0E0251A6815408022520102431A
:1021900015601B684B400321194011600221664AFB
:1021A00093681942FCD0802380219B0103430901DD
:1021B00019608021614B490051606361604B5A682E
:1021C000FF2A00D8596080225E4BE16912015C4D04
:1021D0001A60002905D0606901F0D2FD0130013894
:1021E000FDD1E02256490B681A4080235B012B4346
:1021F0001A60802380229B012B4312011A608022E7
:10220000424B52004A60E3614F4B5968FF2900D8A6
:102210005A6080224D4B216A12014B4D1A600029F1
:1022200005D0606901F0ACFD01300138FDD1E0223C
:1022300045490B681A4080235B012B431A608023B9
:1022400080229B012B4312011A6080235B004B60AC
:102250002E4B3F4A23623F4B5968914201D80132CD
:102260005A6080223C4B616A12013A4D1A60002983
:1022700005D0606901F084FD01300138FDD1E02214
:1022800034490B681A4080235B012B431A6080237A
:1022900080229B012B4312011A608023DB024B60DA
:1022A0001B4B63622D4B5A68FF2A02D880225200D2
:1022B0005A6080222A4BA1691201284D1A60002918
:1022C00005D0606901F05CFD01300138FDD1E022EC
:1022D00022490B681A4080235B012B431A6080233C
:1022E00080229B012B4312011A6080235B004B600C
:1022F000124BA361E8E65A603BE7606901F040FDDC
:1023000001300138FDD112E7080C0020006CDC021E
:102310001BB70000008000403CB0004030B00040DF
:10232000002F685900800240008C864700C00240A0
:1023300030800040001BB7003C80004040597307CC
:102340005480004054B000406080004060B00040C5
:10235000FFFF03006C8000406CB0004048800040EC
:1023600048B00040014B8000C0587047080C002066
:10237000F8B504000C2017001D000E0001F000FD50
:102380001D494143380001F0FBFC069A2B0412035F
:1023900013432268002A1CDB184A8021944229D06A
:1023A0004901174A174D1160174A11600F00AA68BA
:1023B0009743FBD1C021221D8901114321222660B0
:1023C000A0600A602268002AFCDAE36008230B6040
:1023D000F8BD3F2221680A409642DDD1A26812056D
:1023E000120D9042D8D1EE21E268C9020A40934210
:1023F000D2D1EDE78901D4E740420F0000C002408E
:1024000000E0004000C0004000F0004080239B003E
:102410001843014BD862704700800540AA23064A42
:102420001B0113602F230549D360054B19605368C6
:10243000002BFCDA7047C0460040024000B0FA00B2
:10244000006002407047C04610B5002803D04A68BB
:102450000B681100984710BD10B5002800D110BDC1
:102460000B4B1C68A2689368013B9360002B04DB54
:102470001368591C11601870F1E791698B4201DBF8
:102480000A28F5D10100200003F0D6FEE7E7C04698
:1024900038020020F0B54546DE4657464E46E0B5C8
:1024A00083B099460EAB1D78119B88469B4602234C
:1024B000129900920B4007000D9C109A0193002B7B
:1024C00028D15B46002B00D092E0944222D2012614
:1024D0000E401F2C1ED80C9B30201B1902E001332C
:1024E000202C03D001341870A242F8D8002E11D04D
:1024F000A3450FD90C9B30201B195E461F2C04D915
:1025000087E00133202C00D1A7E001341870B442D9
:10251000F7D1A346CB0611D54B0502D4002C00D031
:102520007CE00F9B102B00D1A0E0022B00D1A7E094
:102530001F2C11D830230C9A135501341F2C0BD8A3
:10254000002D00D079E04B0700D588E00B0733D58C
:1025500020230C9A135501348B0730D0009E2500A0
:10256000A24632004446B0460C9B013D561C585DC5
:1025700021004B46B8473200002DF5D14646A04613
:1025800054463619019B002B0ED0009D731B5B45F2
:102590000AD23200444601364B4621002020B8477B
:1025A0003200731B5B45F6D3300003B03CBC904651
:1025B0009946A246AB46F0BD009E8B0715D15C45FF
:1025C0006ED2009A0D9413005B441D1B0D9B444674
:1025D0009846561C4B4621002020B8473200B54291
:1025E000F7D14346A0461C000D93002CB7D1C9E794
:1025F00001260E4028D0002D2AD10C230B4227D1D2
:10260000944200D374E71F2C00D864E7A34500D898
:1026100080E7CB06A0D54B0500D582E7A24202D0C9
:102620005C4500D07DE7631E002B3BD00F9A023C37
:10263000102A1BD01C00130077E72D230C9A13558A
:1026400001348B07BBD089E7944200D241E761E7B0
:1026500001235B429C46E344D2E7B346D9E72B23F0
:102660000C9A135501348B07A9D077E78B060FD44A
:102670001F2C00D970E778230C9A1355013457E7C3
:102680001F2C00D968E70C9A6033135501344FE7CB
:102690001F2C00D960E758230C9A1355013447E7E3
:1026A000009EA2E700243CE7F0B5DE4657464E46C2
:1026B0004546E0B597B005000E0093461F00209AEE
:1026C000219B1000190001F0F6FD002800D0D5E292
:1026D000209821990122BD4B524201F0D9FD0028DA
:1026E00000D081E1209821990122B94B524201F09A
:1026F000DDFD002800D017E1209821990022B54B7C
:1027000001F0D4FD002800D0BCE1209821990022DE
:10271000B14B01F0BDFD002800D0B3E12098219914
:102720000022002301F0B4FD002800D054E2002371
:102730000D938023249ADB001A40914600D007E2D3
:102740000023A64C0893099406240EAB0793209807
:10275000219901F0DBFD80460C9001F0BFFD0200E5
:102760000B002098219901F02EFD089A099B01F099
:102770004EFD0A900B9101F0EDFD824601F0AAFD9D
:1027800002000B000A980B9901F01DFD0022944BEA
:102790000A900B9101F08AFD002800D1C5E10123C8
:1027A0009C46E244504601F095FD089A099B01F0D1
:1027B00075FD002800D030E2002C00D074E10C9CA4
:1027C000200001F08BFD02000B002098219901F000
:1027D000FAFC0022824B0890099101F059FD002873
:1027E00000D10AE24B46202B00D196E15C1C0C9BE9
:1027F0000A211800984601F0A3FA4A46079B303197
:10280000995440460A2101F09BFA079B804699465D
:10281000A14400281BD02A00330025004E46444620
:1028200099469046202D00D125E220000A2101F092
:1028300087FA3031317020000A2101F081FA013528
:10284000040001360028EDD12C004E4645460323F6
:10285000249A1340012B00D19BE120229246202C88
:102860000CD00D9A002A00D0C1E1249A520700D45E
:102870004CE2621C92462B2207990A555A4608924E
:10288000002B17D1239B9A4500D34FE25B441C00D9
:102890005346E41AB84637002E002500541C434620
:1028A00039002020B0472200AC42F7D135003E006D
:1028B0004746089453465C1E079B08AA9C4617236C
:1028C000644494466344B946984637002E00089AFB
:1028D000551C20784B463900013CB0472A00A045E2
:1028E000F6D1089B350053441C00249B3E009B07F7
:1028F00012D55B46239AE31A9A420DD91300C846B3
:1029000022005F4699460134434631002020A84703
:102910002200E31B9945F6D8200017B03CBC904636
:102920009946A246AB46F0BD249B5B0700D5A4E0C8
:102930002C4B9A4603230793249BD8469B0719D117
:10294000079B23998B4200D3ECE15A469B1A984689
:10295000239B99463B0031002020541CA847434646
:102960001B1922009945F5D8239B5B441C00079B4B
:10297000E31A9846B14642465646BA462F00079C8F
:10298000013C551C305D53464946B8472A00002C8F
:10299000F6D1079B3D0043441C00249B4E469B07F9
:1029A000BAD55B46239AE31A9A42B5D91300D046AA
:1029B00022005F4699460134434631002020A84753
:1029C0002200E31B9945F6D8A6E7C046FFFFEFFFBC
:1029D000FFFFEF7F65CDCD4165CDCDC180842E4118
:1029E0000000E03FA0700010249BD8469B0716D142
:1029F000239B042B00D897E11C1F5C44B8465A4621
:102A000037002E002500541C434639002020B047D3
:102A10002200AC42F7D135003E004746A046CE4BDF
:102A2000B9464246370004249A462E005346013CDC
:102A3000551C185D39004B46B0472A00002CF5D1D3
:102A40004446249B350004343E009B0700D463E7D2
:102A50005B46239AE31A9A4200D85DE71300C84602
:102A600022005F4699460134434631002020A847A2
:102A70002200E31B9945F6D84EE7B84B9A4604234B
:102A8000079359E7249B5A460493239B31000393F1
:102A9000229B28000293209B219C009301943B00E1
:102AA00000F064F9040037E74B46202B35D0631E55
:102AB00098464B460A2150465C1C01F061F94A4693
:102AC000079B3031995450460A2101F059F981464B
:102AD000002800D1B6E0079B9A463B00A244474637
:102AE000A84625004C46B14656469A4610E02000BE
:102AF0000A2101F045F93031317020000A2101F03E
:102B00003FF9013F013504000136002800D194E06F
:102B1000202DECD145464E4657460323249A1340B8
:102B2000012B35D020229246A8E600220A980B9964
:102B30008B4B01F0ADFB002800D03DE65346002B47
:102B400002D0DB0700D437E601239C46E24433E69B
:102B5000229B092B00D8F2E00122302391460EA8D7
:102B60000370229B07905C1E2F32093B494604E00C
:102B700042540131013C202901D08B42F8D1794BDC
:102B8000E2009B181A685B68894608920993DEE5A3
:102B90002024239B002B47D00D9B002B03D1249A8C
:102BA0000C33134202D0239B013B2393239BA3426C
:102BB0003AD9202C00D1BDE0302221001800079B1B
:102BC0001B1901311A7088422DD001332029F8D108
:102BD0005B468A4608936DE6209A219B00200021DF
:102BE00001F0F1FA0123209021910D93A1E5621CDF
:102BF00092462D2207990A5540E600220898099925
:102C0000574B01F053FB002800D0EBE50123A4460D
:102C100023409C4463460C93E4E5434601330C9304
:102C200000239A46C8E5239C0123202C00D018E6F7
:102C30001F339A465B4608933CE62C004E464546B9
:102C4000B8465746202C00D167E742464046079BCE
:102C500011191B193022002807D001341A70202CBA
:102C600000D15AE701338C42F7D1631C99462E23D9
:102C7000079A1355B6E545464E464EE7249BD8467F
:102C80009B0715D1239B032B52D9DC1E5C44B8460D
:102C90005A4637002E002500541C43463900202098
:102CA000B0472200AC42F7D135003E004746A0466F
:102CB0002D4BB9464246370003249A462E00534610
:102CC000013C551C185D39004B46B0472A00002CCA
:102CD000F5D14446249B350003343E009B0700D4C5
:102CE0001AE65B46239AE31A934200D314E61300D4
:102CF000C84622005F4699460134434631002020F1
:102D0000A8472200E31B9945F6D805E6249AA24677
:102D1000120700D4B2E50122944607991F32E2441B
:102D20000A55ABE5D84625E6D84678E60892C1E5CF
:102D3000D846BDE720239A465B460893BAE5DA00F9
:102D4000084B9B185C681B680893099400239946FC
:102D50000EAB229C0793FAE4A87000109870001044
:102D60000000E03FB0700010A4700010F0B54E46B7
:102D70004546DE465746E0B59BB00A93249B814604
:102D80001C000B93259B09911D000D920C930022B2
:102D900000232000290001F07BFA002800D093E1F5
:102DA0000B9A0C9B92469B468023289ADB001A4084
:102DB0000E9201D10623269356465B46334300D13B
:102DC00048E15B465800C94B400D9C46604401F009
:102DD00085FAC74AC74B01F01AFAC74AC74B01F038
:102DE000FBF95B46C64A1B031B0B1A4304000D008C
:102DF000C44B11005046002201F0E5F9C24AC34B12
:102E000001F005FA02000B002000290001F0E4F9AE
:102E100001F07CFA804601F061FABD4ABD4B040026
:102E20000D0001F0F4F90022BB4B01F0D5F901F0DF
:102E30006DFABA4A0600BA4B2000290001F0E7F902
:102E4000040030000D000F9601F048FAB54AB64B69
:102E500001F0DDF902000B002000290001F0B3F9B8
:102E600002000B0006000F0001F0D1F9320004004F
:102E70000D003B003000390001F0AEF90022109047
:102E80001191AA4B2000290001F0AFF90022A84BB4
:102E900001F0A2F902000B002000290001F0A5F9C1
:102EA0000022A44B01F098F902000B002000290039
:102EB00001F09BF90D008021320004003B0000204E
:102EC000C90501F080F902000B002000290001F083
:102ED00083F902000B001098119901F086F9002285
:102EE000874B01F079F9944A0F9B94466344002282
:102EF0001B0501F08CF906000D0002000B00504686
:102F0000594601F0C5F900280BD001235B429C46CD
:102F1000300029000022864BE04401F066F90600EB
:102F20000D004346C62763339F42BF41289B7F4223
:102F300004371B0500D5ACE0279B00249F4200D23C
:102F4000DC1B0223289A1A400E9203D07B427B415D
:102F50005B421C404346002B07D050465946320086
:102F60002B0001F042F982468B46002200230B9889
:102F70000C9901F08DF9002800D0A0E0289A6F4B41
:102F8000039413400493269B524602935B4609998F
:102F90000092019348460A9B0D9AFFF785FB0400B7
:102FA000002F4FD0289B65209B066CD4631C220009
:102FB0009A4609990A9BC8474346DA179D18DB0FC2
:102FC00098467B1E55409B46002412AF02E0340019
:102FD000202E0DD028000A2100F0D2FE661C3031D0
:102FE0003C19217028000A2100F0CAFE051EEED10E
:102FF000052306935B460593002304930A3303934A
:1030000043460196099E02930A9B0097524631005F
:1030100048469846FFF73EFA0E9B0400002B11D05D
:103020000D9F279AC31B9A420CD9279B4D4602003D
:1030300099460134434631002020A8472200E31B73
:103040009945F6D820001BB03CBC90469946A24654
:10305000AB46F0BD289B56465D461B0515D50023A3
:103060009846269A0023424503DD130042469B1AE8
:10307000013B26938023289ADB001A4300232892E1
:103080000027984658E7203890E700230427984601
:1030900052E72B003343E4D0294A2A4B5046594685
:1030A00001F0FCF8002817D1269B002B00D143E744
:1030B0000E9B5A1E9341269AD31A26933CE78021F1
:1030C000090659448B4659E78022120694460C9B08
:1030D000A24663449B4667E600221B4B5046594676
:1030E00001F0D6F80028BCD1DEE7C04601FCFFFFA6
:1030F000FB799F501344D33FB3C8608B288AC63FE7
:103100000000F03F0000F83F61436F63A787D23FA4
:1031100071A379094F930A400000E03F1655B5BBF3
:10312000B16B0240EF39FAFE422EE63F00002C4020
:103130000000244000001840FF030000FFF7FFFFDD
:103140002D431CEBE2361A3F80842E41F0B54546F4
:10315000DE4657464E46E0B5A1B01D002A9B0992B7
:103160000B93A24AA24B0A9008911A60002900D141
:1031700087E300239B469F4B2C009A465D462078B0
:1031800000280CD025281DD06E1C2A00099B0A9D02
:1031900008990134A847207835000028F2D1099910
:1031A000AB462A008D4200D34A1E099B0899002095
:1031B0000A9CA047584621B03CBC90469946A2467E
:1031C000AB46F0BD1023621C9846083B9C4616781F
:1031D000043B9946023B9B463300203BDBB2002771
:1031E00001211400102B0CD850469B00C3589F4659
:1031F0000F430132167814003300203BDBB2102B52
:10320000F2D93300303B092B00D8B5E100239846B2
:103210002A2E00D1A6E200239B462E2E00D1C0E12B
:103220003300683BDBB2122B18D8734A9B00D3588B
:103230009F46634601321F43DCE7434601321F438A
:10324000D8E74B4601321F43D4E75B4601321F43A8
:10325000D0E780235B0066781F4301343300253BB1
:10326000DBB2532B0FD8654A9B00D3589F46667834
:10327000682E00D188E280231F433300253BDBB258
:103280000134532BEFD96F1C2A00099B0A9D089922
:103290003000A84701343D0071E766786C2E00D1FC
:1032A0006CE280235B001F430134D7E780239B003F
:1032B00066781F430134D1E70B9B1A1D1B680E92E1
:1032C0000B935B46002B00D12BE20B9A1078160073
:1032D000002804D100F0A4FC013B002B03D00136F0
:1032E0003278002AF8D10B9BF31A0C938023DB0071
:1032F0003B40994603D00C9B5B4500D9ABE20223CF
:103300003B400F9300D1B3E100281ED04B46002B69
:1033100000D1D0E15B465F190B9BA3465E1BB14613
:103320002A00099C0A9E09E023000899551CB04711
:103330004B46585D002800D1CEE12A009742F3D1D8
:103340005C463D000F9B002B14D00C9A904511D980
:1033500043465819099B861A98462A00A1460A9F97
:10336000089C0135434621002020B8472A00B54279
:10337000F7D14C460E9B01340B9300E70B9B1A1DB3
:103380001B689046002B00D1CEE1212217430B97FA
:103390000F21002218AE8946A44602E00A00202927
:1033A0000CD048461840C4B22700511C37370928B2
:1033B00001D830342700B7541B09EFD164460B9B6A
:1033C00001910693082305935B460493102303930E
:1033D00000232A0002930096099B08990A98FFF798
:1033E00059F84346050001340B93C8E64D310010EF
:1033F0007C0C0020B86E0010FC6E0010486F0010AE
:10340000782E00D1C5E1582E00D12FE26F2E00D1C9
:1034100031E3622E00D126E210233A009A430C9247
:10342000692E01D000F01EFC0A230E937B0500D507
:10343000B7E180270C9BBF001F4000D0B8E21A0004
:1034400080235B001A40914600D06EE30C9B5B0624
:1034500001D500F0F1FB0C9B0B9A1B0600D4C1E3D5
:103460000021535E0432D90F14910B92DA179F1882
:103470005740002B09D10C9910330A009A431300CE
:103480000A000C93520500D5DEE30C9A61239206E4
:1034900000D54123DBB218AE0A3B16940F934C467D
:1034A0001595B1460E9E0EE03033DBB24A46380029
:1034B0001355310000F064FC071E00D1FDE12C0023
:1034C000202D00D1F9E13100380000F059FC651CD5
:1034D000CBB20929E8D90F9A94466344DBB2E5E7F9
:1034E000462E00D1B4E107220B9B04970733934388
:1034F000013294469C4462460B92424603925A46DD
:1035000002921A685B680899009201930A982A004F
:10351000099BFFF7C9F80134050030E66E1C2A004C
:10352000099B0A9D08992520A8470134350026E605
:10353000BB0700D5D2E04346012B00D888E3099BA6
:103540006F1E474498462A00A1460A9D089C561CB7
:10355000434621002020A8473200BE42F7D14C4606
:103560000B9B32001F1D1878751C099B08990A9E39
:10357000B04701340B9702E6002332009E00F61894
:1035800001347600B6182278330011003039303B10
:103590000929F3D99846002316009B462E2E00D009
:1035A0003EE680236678DB001F433300303B621C1D
:1035B000092B11D8140033005A469600B61801346E
:1035C0007600F6182378320019003039303A09298C
:1035D000F3D91E00934623E62A2E00D181E1140080
:1035E0001EE6202332009A43472A04D180231B0180
:1035F0001F4302239E43452E01D120231F43072250
:103600000B9B07339343013294469C4462460B92D2
:103610001A685B68100019000C900D9100F04BFEC9
:10362000002800D08CE00C980D990122CA4B524220
:1036300000F03CFE002800D082E00C980D99012299
:10364000C64B524200F024FE002879D14346039332
:103650005B460497029308990C9A0D9B0A98009276
:1036600001932A00099BFFF781FB0134050086E5E1
:103670000C990B000133884500D8EBE243462A0041
:103680005F190C94089D0A9C7F1A561C099B2900FF
:103690002020A0473200BE42F7D143463500013317
:1036A0000C9C0C930B9B1878002800D162E64B46CB
:1036B000002B00D02EE62A000B9BA3465F1BB946C9
:1036C0000A9E089C099F3B002100551CB0474B46B1
:1036D000585D2A000028F6D15C4633E60B9B08991A
:1036E0001A1D18789146099B2A000A9FB84743463D
:1036F0006E1C4544012B00D8AEE2A3463200A8461A
:10370000089C099E0A9D571C330021002020A847D1
:103710003A004745F7D15C464B463D000B930134D8
:103720002DE501235B42D0E510223900914311328F
:1037300011430B917A0500D42AE6002118AE3EE62B
:10374000434603935B460497029308990C9A0D9B9A
:103750000A98009201932A00099BFEF7A5FF013405
:1037600005000CE50B990B00096804338846002915
:1037700000DAB0E056780B93541C4CE5C0239B0054
:10378000A6781F43023469E5C023A6781F4302349C
:1037900064E510230E930C233A009A430C927B05A8
:1037A00002D501239A430C92692E00D141E6642E82
:1037B00000D13EE680270C9BBF001F4000D09EE05A
:1037C0001A0080235B001A40914600D070E10C9BE8
:1037D0005B0600D51FE20C9B1B0600D408E20B9B86
:1037E0001F8804330B93002F09D10C9910230A0072
:1037F0009A4313000A000C93520500D5D4E00C9AAA
:103800006123920600D54123DBB218AE0A3B159422
:103810000F934C461495B1460E9E0CE03033DBB24C
:103820004A4638001355310000F0AAFA071E2BD083
:103830002C00202D28D03100380000F0A1FA651CA2
:10384000CBB20929EAD90F9A94466344DBB2E7E781
:1038500020231F4347E65B460C9302233B400F9314
:1038600000D051E504E702230E9394E70C233A00BD
:103870009A4314331A4310230C920E937B0590D471
:1038800098E7374B0A9374E44E462A00159C149D22
:103890000C9B0693434605935B4604930E9B039350
:1038A0000023029301922A000096099B08990A9826
:1038B000FEF7F0FD0134050061E44E462A00169C37
:1038C000159D0C9B0693434605935B4604930E9B04
:1038D0000393149BE5E702210F4341464942884682
:1038E00048E70B9AA678136802349B46DB43594697
:1038F000DB171940130004338B460B9390E4072227
:103900000B9B07339343013294469C4462460B92CF
:103910001A685F68130091463B4308D10C99103335
:103920000A009A4313000A000C9352053CD40C9AE7
:103930006123920600D577E1DBB20A3B0F93434641
:10394000002216930E9B18AE1495159415004C4644
:103950009846B14619E0C046FFFFEF7FFFFFEFFF3B
:10396000452400103032D2B24B4620005A5539005F
:103970004246002300F02CFA0F000400014300D15E
:103980008FE03500202E00D18BE04246002320003E
:10399000390000F01DFAD2B26E1C092AE2D90F9B41
:1039A0009C466244D2B2DFE7002318AE1A006FE7EC
:1039B00007220B9B07339343013294469C44624693
:1039C0000B921A685B68D917129113911298139988
:1039D0000600564010960E005E401196109E119FF4
:1039E000361A8F41D90F1096119717911A430BD1A0
:1039F0000C9910230A009A4313000A000C935205F5
:103A000002D5002718AE41E00C9A6123920600D53A
:103A10000CE1DBB20A3B0F93434616930E9B18AEA4
:103A2000002298463300149515941600109C119DA1
:103A3000994611E03032D2B24B4620009A55290007
:103A40000023424600F0C4F9030004000D000B43BC
:103A500014D03E00202F11D0424600232000290020
:103A600000F0B6F9D2B2771C092AE3D90F9B9C4625
:103A70006244D2B2E0E708230E938CE64E46169BD2
:103A8000109411959846159C149D0C9B06934346E3
:103A900005935B4604930E9B01970393179B029338
:103AA00001E7169B3200149D159C98464E46EFE6A2
:103AB0000B9B1A1D1B6815929946002B0CD10C9973
:103AC00010330A009A4313000A000C93520503D5E1
:103AD000002318AE1A006DE00C9A6123920600D5FF
:103AE000A6E0DBB218AE0A3B14940B934C460F953C
:103AF000B1460E9E0CE03033DBB24A462000D3556F
:103B0000310000F03DF9041E50D02F00202D4DD083
:103B10003100200000F034F97D1CCBB20929EAD92C
:103B20000B9A94466344DBB2E7E70B9B1A1D1B68B4
:103B30001592D9175A184A409146DA0F1692002B5F
:103B40000CD10C9910330A009A4313000A000C930D
:103B5000520503D5002318AE1A0052E00C9A6123D7
:103B6000920667D4DBB218AE0A3B14940B934C4612
:103B70000F95B1460E9E0CE03033DBB24A46200072
:103B8000D355310000F0FCF8041E36D02F00202D54
:103B900033D03100200000F0F3F87D1CCBB20929AE
:103BA000EAD90B9A94466344DBB2E7E74E462A0013
:103BB000149C0F9D0C9B0693434605935B46049310
:103BC0000E9B0393002302930192099B2A00009607
:103BD00008990A98FEF75EFC159B05000B930134CB
:103BE000FFF7CDFA13680432D90F14910B923DE41C
:103BF0000B9B1F6804330B93F5E54E462A00149C7B
:103C00000F9D0C9B0693434605935B4604930E9BC6
:103C10000393169BD7E70B9B1F7804330B93E2E5C6
:103C200000230C93FFF762FB412385E64123F0E676
:103C3000412356E7412395E70B9A137804320B9200
:103C400000221492FFF712FC002318AE1A0038E687
:103C50002E0085E40C9327E54B4635000B93013489
:103C6000FFF78DFA063B17000E93642E00D092E505
:103C7000530500D595E5FFF7DCFBC04600B585B0E0
:103C800000931300012202900391524202A90248BC
:103C9000FFF75CFA05B000BD4924001010B5094AD1
:103CA00084B01468002C09D0012200910300524214
:103CB00003A90548A047012004B010BD01F0C4FDD0
:103CC0000020F9E77C0C0020592400100148042151
:103CD000014B184700020020FD3C0010142310B5D2
:103CE0000100188804331B88984710BD162310B5AF
:103CF0000100188802331B88984710BDF8B5474665
:103D0000CE4680B50F1E19D0142399460433040003
:103D10000025012698464B461888434621681B8893
:103D2000984701C4431E9841013540420640AF42C6
:103D3000F1D130000CBC90469946F8BD0126F8E759
:103D40000E4AEFF3108372B69066D166002907D051
:103D5000FFE7FFE7FFE7516F106F83F310887047AD
:103D600083F3108804B580210906C217514000284A
:103D700000D0C84303F04CF8002104BD000000D07F
:103D80000D4AEFF3108372B610665166002907D012
:103D9000FFE7FFE7FFE7516F106F83F3108870476D
:103DA00083F3108804B5002801D00020C04303F03D
:103DB0002FF8002104BD0000000000D010B5EFF383
:103DC000108472B600F00EF884F3108810BDC0465F
:103DD00010B5EFF3108472B600F048F884F3108841
:103DE00010BDC046002B24DB11D000293EDA00B5FF
:103DF000C943404200D1013100F038F8C943404284
:103E000000D10131DB43524200D1013300BD002A11
:103E1000EBD1002801D1002905D00020C90FC90726
:103E200001D1C043410800B502F0EAFF002200239F
:103E300000BD00B500290ADBDB43524200D101334B
:103E400000F014F8C943404200D1013100BDC9431C
:103E5000404200D10131DB43524200D1013300F036
:103E600005F8DB43524200D1013300BD002923D1C4
:103E7000002B18D1002A0CD0BC460D4F38667A664C
:103E800000210023FFE7FFE7FFE77A6F386F6746FF
:103E90007047002801D00748010000B502F0B0FFCC
:103EA0000022002300BD02000B000020002170470B
:103EB000000000D0FFFFFFFF002B00D0BFE0130C7D
:103EC00028D1002AE7D080B4114F39667A66FFE71F
:103ED000FFE730B4040C7B6F396F1B0423433B6650
:103EE0007A66FFE7FFE7FFE7C04684B27B6F3D6F6E
:103EF0001B0423433B667A66FFE7FFE7C0460023C7
:103F00002C042D0C7A6F386F00196941B0BC7047D2
:103F1000000000D0F0B594460025140E01D1120225
:103F20000835140F01D112010435940F01D192000C
:103F30000235D40F01D152000135D40B0134254F85
:103F40007C66254C3C660E0C93B2FFE7FFE7FFE76B
:103F50003C6F6643360C7703BE467343DF0B5B044E
:103F6000C01AB941130C7343DB18C91ACE08664353
:103F7000360CB64493B273431F0F1B01C01AB941EC
:103F8000130C73431F0B1B05C01AB941860D8F021A
:103F90003E436643360C092D24DB520A7243801AD5
:103FA0007703460A6643360C16235B1BDE40DF4070
:103FB000BF1964466643821B704604350633010010
:103FC000D940A840C01900D30131A24206D2002333
:103FD000F0BD0000000000D0FFFFFFFF121B01300A
:103FE000F3D3F1E709277F1BFE406446A2B2724378
:103FF000801A00D20139220C7243130C1204821A67
:1040000099410B007046043513370100F940A84070
:10401000801900D30131002B02D1A2420AD2F0BD97
:10402000013000D30131121BFAD2013BF8D1A24278
:1040300000D2F0BD013000D30131121BF7E7F0B51B
:104040001C0C00D080E00CB400251C0A04D11B021B
:10405000160E3343120208351C0B04D11B01160F38
:104060003343120104359C0B04D19B00960F33435C
:1040700092000235DC0B02D192185B4101351C0025
:10408000971864410134464F7C66464C3C660E0CE2
:10409000FFE7FFE7FFE7C0463C6F6643360C770358
:1040A000BE4697B27743C01B00D20139C01B00D275
:1040B00001399FB27743C91BC91B170C77437E0494
:1040C000FF0B801BB941CE086643360C0C2D33DB49
:1040D000B644120B1F053A431B0B97B27743C01B24
:1040E00000D201399FB27743C91B170C77433E04B6
:1040F0003F0C801BB941860D8F023E436643292742
:104100007F1BFE400C3D7746AF40BF1930BCA2B2CA
:10411000ABB272437343801A9941220C7243130C61
:104120001204801A994102000B000137001BA941BB
:10413000F9D2781E0021F0BD0C277F1BFE40774688
:104140007F0BAF40FF19E0E700245D1C07D0144F40
:104150007D663966FFE7FFE7FFE7FFE73C6F95B253
:104160009EB265436643401BB141150C1E0C65436E
:10417000664336042F0C3E432D04401BB141994247
:1041800004D202000B0020000021F0BD01D19042BA
:10419000F7D3801A994101349942F2D3F6E700002F
:1041A000000000D0FFFFFFFF44464D4656465F46E5
:1041B000F0B47047F0BCA046A946B246BB46704773
:1041C00048404140484018B4154B5B68FC46019399
:1041D00008BD04DFCF48001018B4114B1B68FC4623
:1041E000019308BD00DFD948001010B5EFF310842B
:1041F00072B600F003F884F3108810BD18B4084BB1
:10420000DB68FC46019308BD0CDF914B001018B42D
:10421000034B9B68FC46019308BD08DF354A00103C
:10422000140D0020FFB550404240504059404B40D3
:10423000594000E0FFB5154F4C00640D03D0BC425F
:1042400004D10C0314D80020090D09055C00640D8D
:1042500003D0BC4204D11C030AD800221B0D1B054D
:1042600001264B4009D44B4003D58B4200D18242FA
:10427000FFBD9942FCD19042FFBD0B43DB180343C5
:104280001343F5D0C9434918FFBD0000FF070000E4
:1042900000B5FFF7CFFF804100BDC04600B5FFF776
:1042A000C1FF01D9002000BD012000BD00B5FFF70E
:1042B000B9FF804100BD012040054A00121804D812
:1042C0005A00121801D800207047012070470020C2
:1042D000704700000021002805D17047C1174840F1
:1042E000401AFAD0C90713B5064B1B6898470CBC97
:1042F000441CA2401005120B0349091B0905194370
:10430000114310BD900C00201F04000010B54C009C
:10431000620D8023D218DB00D21A5B057E2A10DDE5
:104320009E3A13DACC170903490819435242D14087
:10433000640001341532202A05DAD0400843604376
:1043400010BD002010BD0846604310BDC80FC01846
:10435000013810BD18B4044B5B6AFC46019308BDDC
:1043600024DFC54D00100000140D002018B4044BCC
:104370001B6EFC46019308BD60DF774E0010000005
:10438000140D0020024A034B00B500F07FFA00BD77
:10439000182D4454FB2119408A0002D3920D092A9A
:1043A00008DA18B4064BDB6BFC46019308BD3CDF12
:1043B000CB4F001000B5FFF7E5FF04BC9646F0E7D1
:1043C000140D00208A0002D3920D092A08DA18B4CD
:1043D000064B1B6CFC46019308BD40DFDB4F001011
:1043E00000B5FFF7CFFF04BC9646F0E7140D0020A0
:1043F0008A0002D3920D092A11DA10B5EFF3108466
:1044000072B600F003F884F3108810BD18B4074B9F
:104410005B6CFC46019308BD44DFAB4F001000B558
:10442000FFF7B0FF04BC9646E7E70000140D00203C
:10443000132370B51C78012C15D010DD0F48FFF741
:1044400055FC0F4D01008022280001F067F9022C75
:1044500006D00C48FFF742FC0B4B186070BD084DAE
:104460000A4AAA64F5E7064D084A29002B00803164
:1044700004C38B42FCD1AA64EBE7C046534400005E
:10448000140D00204C330000900C00209D480010BB
:10449000F0B55746DE464E464546E0B55C00640D35
:1044A000A246534C94464A0087B0520DA2420DD00A
:1044B0005446002C0AD0CC0F0394002A11D10025B9
:1044C000002C05D0802500242D0601E00024494D54
:1044D0002000290007B03CBC90469946A246AB4656
:1044E000F0BD04000D005245F2DB040080200903FA
:1044F0001B0340031B0B090B0143184353460D00DC
:104500006146D31A009101909846002B3CDD0111C1
:1045100001204042FFF734FC834616E022009A4017
:10452000170023004A4693401E00009A019B481042
:10453000C91700F0D3FE43464A4634003D009B1A9B
:10454000241A8D419846002B1EDD4346C1460C2B94
:1045500001DD0C2399465B46A91159434A461D23A8
:104560009B1A202219414B46524201319B18D5D546
:104570004A4620239B1A2200DA40484613002A00AC
:10458000824017001F43CCE7009A019BAB421FDC1F
:1045900001D1A2421CD8009A019BA41A9D41AB42B2
:1045A00004DC20D0009A019BA41A9D41039B002BA0
:1045B00004D022002B00002554429D4153460E4A50
:1045C00020002900D21AFFF7D1FE04000D007FE77A
:1045D000002DEBDA009A019BA4185D41002DE5DA6D
:1045E000A4185D41E2E7009BA342DBD9DEE7C046A9
:1045F000FF0700000000F07F33040000F0B5DE4646
:104600009B46574645464E465C46E0B56400640D01
:1046100089B0A246129C4D0003006D0D002C02D003
:10462000260000243460964CA54200D180E0564616
:10463000002E7DD0002D00D185E0A24500D1C5E03F
:104640005446013C06000F000394A54272DBCC0FD8
:104650000E03A146340B1E0080235B039C462300FF
:10466000644623431F005B461B031B0B98460092C6
:104670006346424613430193039B9D4200D1D3E01E
:104680004B46002B00D1B2E033003C0000275E42D5
:10469000A7415346ED1A002D00DCAEE00120019B3E
:1046A00040421911FFF76CFB0023994653460493CF
:1046B0005B4603900593AB461BE032009A40150021
:1046C0003300524693401C0043464046D917009A97
:1046D000019B00F003FE4B465246934043449946EB
:1046E0005B4626002F009B1A361A8F419B46002BF3
:1046F0002CDD5B46DA460C2B01DD0C239A46039A2F
:10470000BB11534351461D22521A1341202201333B
:104710005B10524298468B18CFD5202332005B1A8B
:10472000DA40514613003A008A4015001D43C7E79E
:104730000026544F3000390009B03CBC90469946E1
:10474000A246AB46F0BD00260027F3E7049B9A463D
:10475000059B9B46009B019CBC4250DC61D0009BAA
:10476000019CF61AA741BC4200DD80E000D17AE04E
:10477000009B019CF61AA74102239C46E1443200AB
:10478000009801993B0092197B418B4227DC45D070
:10479000009991421DD05B46002B02DA4B465B42EA
:1047A0009946129B002B01D04A461A605346364A5E
:1047B00030003900D21AFFF7D9FD06000F00B9E723
:1047C000009B019CA74201D19E4230D806000F00F9
:1047D000B0E701999942DED14B46DB07DBD5009B60
:1047E000019CF61AA74101239C46E144D3E75346B6
:1047F000ED1A002D00DD51E7ACE700239946002FAC
:10480000BDDA009B019CF6186741002F33DAF618D9
:10481000674102235B429C46E144B0E78242DED816
:10482000B6E7B3429BD9EAE7019B9F42C8DD4B46FE
:10483000002B0AD1009A019B92185B41B61A9F4146
:10484000039B9A4601239946A5E7009A019B92187B
:104850005B41921BBB411F00039B16009A4601233C
:104860005B42994697E7009BB34200D880E701235B
:104870009C46E14483E701235B429C46E1447EE79A
:10488000FF0700000000F07F3304000010B5002493
:1048900082B00094FFF7B2FE02B010BD07B56046CB
:1048A00001880A0A0230DF2AFAD1C9B2820804D389
:1048B000028840880004104300E00068014A50501C
:1048C000039007BD140D00200FB403BC0CBCF0B561
:1048D0000124E407634000E0F0B50C0DCF0F661E25
:1048E0003605891B640503D3C943404200D3013117
:1048F000640D03D0661CF60A07D0E41B00207F007D
:10490000791C89078912803C24031D0DDF0F6E1E60
:1049100036059B1B6D0503D3DB43524200D30133A5
:104920006D0D03D06E1CF60A07D0ED1B00227F0030
:104930007B1C9B079B12803D2D032F1B661B58D4AD
:10494000A446202E46DA20371400BC401D00BD408E
:10495000F24033412A4380185941CB0F05D0C94357
:10496000C043002264425041514162464D0D28D15E
:104970000D0D07D100281FD0241940414941013AAB
:104980000D0DF9D0640006D3013000D30131002CA5
:1049900001D140084000013A0BD4941CE40A04D130
:1049A00012051144DB071944F0BDD907204B194308
:1049B00000E0D9070020F0BD0029DDD1002CDBD1BB
:1049C000F0BD0132C6074008CD0728434908002E34
:1049D000E1D0D9E73C2E29DA203E40371400BC4014
:1049E00000D00124F24014431A00BB401C43D317EB
:1049F000ACE7AC46202F08DA20360400B4400D00A6
:104A0000B540F84039412843A5E73C2F0CDA203F58
:104A100040360400B44000D00124F84004430800AC
:104A2000B1400C43C117EAE710001900002494E7D5
:104A30000000F07FF0B50C0D661E3605891BE60AF6
:104A40006405640D02D0651CED0A04D0002001212C
:104A50000905803C2403A4461C0D671E3F05DB1B93
:104A6000E70A6405640D02D0651CED0A04D000223B
:104A700001231B05803C24037740644497B484B22F
:104A800096B27443070C7E43150C6F4380B26843A3
:104A9000361802D3012000043F183004350C0019E9
:104AA0007D41844688B29AB250430C0C62431F0C7D
:104AB0007C438EB27E43921902D301263604A41998
:104AC0001604170C3618674101BC81B29AB25143E3
:104AD000040C62431B0C5C4380B25843121802D38F
:104AE0000120000424181004130C401863412D18F1
:104AF0005E410020474106BC88B293B258430C0C7B
:104B00006343120C544389B251435B1802D3012111
:104B10000904641819041A0C091862416D185641E9
:104B20000020474118BCF902720D1143F0026A0DD2
:104B30001043ED020A0D03D16D1940414941013B7B
:104B4000124E9B1B7600B3420ED26D0007D301308C
:104B5000002671416646354301D1400840001B05DF
:104B6000C918E4072144F0BD0BDA013306D1013046
:104B700004D101314F0D01D04908F2E7E1070020CF
:104B8000F0BD013631050020EBE70000FF03000017
:104B9000F0B51C0D671E3F05DB1BE70A6405640DBD
:104BA00002D0661CF60A04D0002201231B05803CBB
:104BB0002403D0252D060026F6432E661E096E66B8
:104BC000CE0FF619B44649004F0D02D07E1CF60AEE
:104BD00003D000200021403F3F033E1BB600B444F9
:104BE000013F7F05C91B49082E6F013676089C02DC
:104BF000950D25437543ED137543AD1301356D10C8
:104C0000F603761B0CB4CC02450D2C43A2B2B3B212
:104C10005A43270C7B43350C6F43A4B26C431B19DA
:104C200002D3012424043F191C041D0CA4187D4147
:104C300024196D41009A91B2ACB26143170C7C43C8
:104C40002B0C5F4392B25A43A41802D301221204E0
:104C5000BF182204230C52187B41019C6C431B1982
:104C6000520ED9010A434401A01A81B2B2B2514393
:104C700003145A43360C734387B27743D617D219BD
:104C800000277E4136049B191704160C7F185E41DD
:104C90007316ED18F301002680337541A90F06D174
:104CA0006400690AE8055B0A184309D22FE0042270
:104CB000944480337541A90AA8059B0A184326D35A
:104CC000404149412404009A019B0D005543641B57
:104CD0004343E41A95B286B27543170C7E43030C26
:104CE0005F4392B25A43B61802D301221204BF188E
:104CF0003204330C52197B4152429C41002C02D4A5
:104D00000022013051414008CA071043490802B04F
:104D10006246D7079210084BD218084B9A4203D22A
:104D200012058918C919F0BD0020002A01DC3900DC
:104D3000F0BD01331905F5E7FD030000FE07000093
:104D4000624618CA94465A46002A20DB04E06246AE
:104D500018CA944600291ADAC01861415B463B41E3
:104D60005C46B4405246FA40224344464D466241B6
:104D70006B41904699462B46B3403D41FC401C4355
:104D800052465B46A241AB4192469B467047C01AD1
:104D9000A1414B463B414C46B4404246FA40224377
:104DA00054465D4662416B4192469B462B46B3405A
:104DB0003D41FC401C4342464B46A241AB4190461C
:104DC00099467047002200B5203200F010F8080024
:104DD00000BD002200B500F00CF8CA179A4200D1BD
:104DE00000BDD8430121C907414000BD00220B1579
:104DF0000AD410B5944600F079F81414013400DA9E
:104E00000021CB17144C204700200021704762443A
:104E1000343A0CD40C2A07DA0400914090405242F4
:104E20002032D440214310BDD843D94310BD203295
:104E300007D40C469440524220321141D0402043C6
:104E400010BD0800C917203203D45242203210414D
:104E500010BD1800190010BD0F4E001000210A00EF
:104E6000002104E000210A00C11704E00022002311
:104E700006E0C0460022CB1758405940C01A99415D
:104E800030B5184CA21A002903D1010010D000201F
:104E9000203A4C1512D104D2013A001849414C0D68
:104EA000FAD3114CA24204D212058918DB07C918A3
:104EB00030BDD243520D00200021F5E703D4013A62
:104EC00000184941FBD50B324405C00A4D05284363
:104ED000C90A640003D0002460416141E1E7E0D3E6
:104EE0004408F8E732040000FE0700000A0DCC0F6A
:104EF000531E1B05C91A520503D3C943404200D3B0
:104F00000131520D03D0531CDB0A07D0121B0020C5
:104F10006400611C89078912803A1203014BD21A7E
:104F200070470000FF030000023225D40C2A1CDA6F
:104F30001125AD1A0B002B41083207350600EE4053
:104F4000904091403143F0CC63431A1500235A41FD
:104F5000554356435743BF02F4127605761967410D
:104F6000ED177F19801BB94170470C220020C9172B
:104F7000490001310905DBE70902030E194300026C
:104F80005342203208D40C0019419440D8402043A9
:104F900000225041514170470800C917203B203280
:104FA000F1D50020002100227047F0B5FFF7FCF892
:104FB00000F01EF8844600F03FF803B4604600F0AD
:104FC00059F80CBCFFF7F6F8E3E5F0B5FFF7ECF89D
:104FD00000F00EF800F030F806E0F0B5FFF7E4F866
:104FE00000F006F800F046F8FFF7E4F8F0BD000026
:104FF00000B5FFF77BFF30A4FFF796FF00242C4D90
:105000002C4ED20702D3F6436D426641520004D2C1
:10501000A246A346A846B14603E0A046A146AA463A
:10502000B3466EA4A44601271F26FFF790FE013762
:10503000013E212FF9D100BD594684B28DB26C4397
:10504000061475430B145E4382B25A43AD18EA1737
:1050500000D7D2431204B6182A042B0C121973413C
:10506000404649469D009B17920F2A439041994123
:105070003E2200E7494684B28DB26C430614754364
:105080000B145E4382B25A43AD18EA1700D7D243DD
:105090001204B6182A042B0C1219734150465946B3
:1050A0009D009B17920F2A43504159413E22E2E650
:1050B000BB4DF09DC556F6367D5100001A611400B7
:1050C00085880A00FB211900F0B5FFF76DF8404D07
:1050D0000C002C4001D0AC4202D1090D0905002082
:1050E0001C002C4001D0AC4202D11B0D1B0500223C
:1050F0000026ED02002B04D502266B40694000D447
:1051000076424F1904D599420CDD0136694003E01F
:10511000BB4207DA013E6B40070010003A000F0067
:1051200019003B0040B4002A0FD1002B0AD05C00CC
:105130006415013409D14C006415013402D10139E0
:10514000013B02E0002000212EE0FFF721FD3E227E
:10515000FFF740FE82468B46002000218046012258
:10516000920791461DA4A44601271F26FFF7E8FDDC
:105170000137013E212FF9D14A4653460C3A01240A
:105180006407002752081B0005D493410019794198
:105190006408F7D104E05341001BB9416408F1D120
:1051A000CE0749104008304340BC002E0AD0094CBD
:1051B000094D01D5E443ED43F60701D100196941DA
:1051C000001969413D22FFF756FEFEF7F3FFF0BDDF
:1051D0000000F07F8D305A88A8F64332694FBB61DA
:1051E0000567AC1DB16E4096FCBAAD0F72DB0BAB20
:1051F000A66EF50739BD9FE576ABFE034B6297BA05
:105200005BD5FF01D694DBDDAAFAFF005DEAEE561E
:1052100055FF7F006E77B7AAEAFF3F00BCBB55552C
:10522000FDFF1F00DEADAAAAFFFF0F006F5555F569
:10523000FFFF0700ABAAAAFEFFFF03005555D5FFED
:10524000FFFF0100ABAAFAFFFFFF00005555FFFF6B
:10525000FF7F0000ABEAFFFFFF3F000055FDFFFFAF
:10526000FF1F0000ABFFFFFFFF0F0000F5FFFFFF78
:10527000FF070000FFFFFFFFFF030000000000002A
:10528000000200000000000000010000000000001B
:10529000800000000000000040000000000000004E
:1052A00020000000000000001000000000000000CE
:1052B00008000000000000000400000000000000E2
:1052C000020000000000000001000000000000805B
:1052D0000000000000000040000000005143434374
:1052E000C9188C46110C83B24B4310B4040C6143B3
:1052F00092B280B2504362431C041B0C001910BCD4
:1053000059411304120CC018514161447047000008
:105310004840414048400A4B5B681847084B1B68AF
:10532000184710B5EFF3108472B600F003F884F359
:10533000108810BD024BDB681847014B9B6818476B
:10534000140E0020491A002808D1084670470000B2
:10535000C10FC90700D54042002817D0F44603B456
:105360000B4B1B68984706BC81409E3840428031F9
:1053700007D20B0607D04900490AC005104308436D
:1053800060470130F8E7490A8902F5E770470000F5
:10539000900C0020014B1B6B18470000140E0020DE
:1053A000034BDB6FFC4618477CDFD1560010000032
:1053B000140E00204100090E862902DA044BDB6B33
:1053C0001847044900B500F067F902BC8E46F5E7BE
:1053D000140E0020DB0FC9404100090E862902DAB5
:1053E000044B1B6C1847044900B500F055F902BC8A
:1053F0008E46F5E7140E0020DB0FC9404100090E70
:1054000086290BDA10B5EFF3108472B600F003F8BA
:1054100084F3108810BD054B5B6C1847044900B538
:1054200000F03AF902BC8E46ECE70000140E0020B2
:10543000DB0FC940132310B51C781348FEF756FC48
:10544000012C0BD004DD01008022104800F066F929
:105450000F48FEF743FC0F4B186010BD0B4C0100CA
:105460005422200000F05AF90B4B6365A365E365F5
:1054700023666366A366E36623676367A367E367E0
:105480002362E361E4E7C04653460000140E0020A7
:105490004C330000900C0020A5560010F8B5FF25F5
:1054A000CE464746C40DCA0D2C4080B51540FF2C92
:1054B0000BD0002D09D0C20F9046002C0BD100203C
:1054C000002A04D08020000601E0FF20C0050CBCAB
:1054D00090469946F8BDAC42F9DB8026430236047B
:1054E0005B0A49023343490A1F000E43641B002C28
:1054F00017DD0120F1114042FEF742FC1D218146DB
:1055000022000C2C00DD0C2248467B124343881AF3
:105510000341974001335B107343A41AFF1A002C18
:10552000EEDCBE420EDD002F02DABF1900D5BF1936
:105530004346002B00D07F4296213800491BFFF7DD
:1055400029FFC4E7BF1BBE42F2DCBF1BF0E7C04629
:10555000F8B54E465746DE464546E0B5FF26894635
:10556000C40DC90D3440031C17000E40002F01D09C
:1055700000223A60FF2C5BD0002E59D00020002C76
:1055800058D0FF2E6AD0721E181C944252DBD90FDD
:105590008C46494680205D02490200046D0A490A92
:1055A00005430843804694425FD06346002B57D0A2
:1055B0006D42A41B0021002C42DD43460120D9117D
:1055C0004042FEF7DDFB1D23844600219B4622005E
:1055D0000C2C00DD0C2260466B129540434358466C
:1055E000AA46801A034145465046914001335B105C
:1055F0005D435918451BA41A002CE8DCA8451FDCA4
:105600004346ED1AA84543DC43460231ED1A6B00D0
:1056100098451FDB1CD04B46002B00DA4942002F77
:1056200000D0396096212800891BFFF7B3FE01E006
:10563000FF20C0053CBC90469946A246AB46F8BD4B
:10564000002DE4DA4346ED1824D545440239DEE75F
:10565000CB07E0D543460131ED1ADCE7181CE9E73A
:10566000A41B002CA9DC0021C8E7181C4545E1DD7E
:105670006346002B05D143465B00ED1A260001214D
:10568000C9E7434601215B005D1B26004942C2E792
:105690000131BCE70139BAE710B50022FFF758FF26
:1056A00010BDC04607B5604601880A0A0230DF2AED
:1056B000FAD1C9B2820804D302884088000410439A
:1056C00000E00068014A5050039007BD140E00200E
:1056D000C30FDB0741000A0E07D0FF2A08D00909D3
:1056E000054A891819434007704719000020704780
:1056F0000249C918FAE70000000000380000F07FF6
:1057000001480421014B184710020020FD3C001005
:10571000014B1B681847000010020020014B5B681A
:105720001847000010020020F8B54746CE4680B565
:10573000437C80460E001700002B48D0002A2EDD47
:10574000274B012500240020994604E02B0001345A
:1057500001359F4219DD002C3ED0631EF35C0D3BEA
:1057600059425941CBB2325D0A2AEFD1002BEDD11B
:10577000844226DC434648461B6802219847013490
:1057800028002B0001359F42E5DCB8420BDBF619FF
:10579000013E33780D3B59425941434619740CBCC4
:1057A00090469946F8BD4346391A3018F6191B68D9
:1057B000013E984733780D3B59425941434619748D
:1057C000EDE74346211A1B6830189847D2E7036873
:1057D000110030009847E2E743461B7CC3E7C04610
:1057E00084710010F0B5C6460B6800B506000D00C8
:1057F0005A1C802B05D02A60ED182E7104BC9046EF
:10580000F0BD0F4B1C68002C16D00B1D0D4F984699
:1058100002E0E468002C0FD02368002BF9D03B682D
:10582000002B01D0A342F4D120002A684146FFF7A3
:105830007BFFE468002CEFD101220023DBE7C046A8
:10584000700C0020740C0020F0B5DE4657464E4622
:105850004546E0B583B0060000F0BCFCD0231B0633
:105860001C682D4B070001A918009B4601F0D8FACF
:105870008046002808D1019B64B29C4204D058465F
:1058800001F0D6FA01239846B9467B1C3ED0234B43
:105890001C689A46002C32D0214D02E0E468002CAE
:1058A00017D02368002BF9D02B68002B01D09C4225
:1058B000F4D120004A463100FFF736FF6B460A223A
:1058C00020001A7101A90122FFF72EFFE468002CC5
:1058D000E7D14346002B15D153461C68002C06D057
:1058E0006368002B00D09847E468002CF8D138009A
:1058F00003B03CBC90469946A246AB46F0BD434639
:10590000002BF4D0584601F073FAE5E7300000F0C0
:1059100061FC8146BBE7C046780A0020700C00207D
:10592000740C0020F0B54646DE465746C0B590469A
:1059300082B00E0000282CD11A4B1B4D1A685B68F0
:105940001A4F9A461A4B01929B465B461C68002CE4
:1059500005D115E0A34205D0E468002C10D02B68D7
:10596000002BF7D1A368002BF6D0414630009847B2
:105970000028F1DD02B01CBC90469A46A346F0BD5B
:105980007B6A9A4508D8BA6A01998A4201D29A4537
:1059900002D001204042EDE701200021FBF782FE0A
:1059A000D3E7C046706E0010740C00200040054024
:1059B000700C0020F0B54646D6464F46C0B50138BB
:1059C00082B088461600012840D8D0231B061C68E8
:1059D000204B01A918009A4601F022FA071E07D1B0
:1059E000019B64B29C4203D0504601F021FA01377A
:1059F000B146731C25D0184B1C68002C14D0174DD1
:105A000002E0E468002C0FD02368002BF9D02B684B
:105A1000002B01D09C42F4D120004A464146FFF7BA
:105A200083FEE468002CEFD1002F06D1300002B0D5
:105A30001CBC90469946A246F0BD504601F0D8F9EC
:105A4000F4E7404600F0C6FB8146D4E701267642E3
:105A5000ECE7C046780A0020700C0020740C00208F
:105A60000A4A1368002B05D10CE01A00DB680C32DF
:105A7000002B07D09842F8D1002902D1C3681360E7
:105A8000C16070470029FCD01060FAE7700C00205C
:105A9000F0B54746CE46D02380B52D4EA5B01B06A7
:105AA00007008846300003A91C6801F0B9F9051EFB
:105AB00007D1039B64B29C4203D0300001F0B8F9D7
:105AC00001358422002103A8FFF722FE43463A0055
:105AD00003A92048FEF7D2F8039B8046002B15D17E
